:100000000C9468000C9490000C9490000C94900058
:100010000C9490000C9490000C9490000C94900020
:100020000C9490000C9490000C9490000C94B80EDA
:100030000C9490000C9490000C9490000C94900000
:100040000C94F70C0C9490000C94670D0C94410DDB
:100050000C9490000C9490000C9490000C949000E0
:100060000C94990D0C9490000000000024002700CF
:100070002A0000000000250028002B0000000000DE
:1000800023002600290004040404040404040202DA
:100090000202020203030303030301020408102007
:1000A0004080010204081020010204081020000012
:1000B0000008000201000003040700000000000027
:1000C00000001F1C1F1E1F1E1F1F1E1F1E1FE80ECD
:1000D00011241FBECFEFD8E0DEBFCDBF23E0A8EBD9
:1000E000B1E001C01D92AA36B207E1F711E0A0E02D
:1000F000B1E0E0E1F2E302C005900D92A83BB10748
:10010000D9F710E0C8E6D0E004C02197FE010E94B4
:100110000617C736D107C9F70E94310F0C9406198C
:100120000C940000833081F028F4813099F0823003
:10013000A9F008958730A9F08830C9F08430B1F46F
:10014000809180008F7D03C0809180008F778093A5
:100150008000089584B58F7784BD089584B58F7D20
:10016000FBCF8091B0008F778093B000089580918D
:10017000B0008F7DF9CFCF93DF93282F30E0F901C6
:10018000E255FF4F8491F901E656FF4FD491F901F2
:10019000EA57FF4FC491CC23A1F081110E94920035
:1001A000EC2FF0E0EE0FFF1FE458FF4FA591B49144
:1001B000EC91ED2381E090E009F480E0DF91CF91B4
:1001C000089580E090E0FACF1F93CF93DF93282F1C
:1001D00030E0F901E255FF4F8491F901E656FF4FF7
:1001E000D491F901EA57FF4FC491CC23A9F0162FFF
:1001F00081110E949200EC2FF0E0EE0FFF1FEE58ED
:10020000FF4FA591B4918FB7F894EC91111108C0EC
:10021000D095DE23DC938FBFDF91CF911F9108959E
:10022000DE2BF8CFCF93DF9390E0FC01E656FF4F33
:1002300024918A579F4FFC0184918823C9F090E054
:10024000880F991FFC01E859FF4FA591B491FC015B
:10025000EE58FF4FC591D49161110DC09FB7F8942E
:100260008C91209582238C938881282328839FBF9B
:10027000DF91CF910895623051F49FB7F8943C918B
:10028000822F809583238C93E8812E2BEFCF8FB71D
:10029000F894EC912E2B2C938FBFEACF3FB7F894B4
:1002A0008091290290912A02A0912B02B0912C02F8
:1002B00026B5A89B05C02F3F19F00196A11DB11DC1
:1002C0003FBFBA2FA92F982F8827BC01CD01620FFD
:1002D000711D811D911D42E0660F771F881F991FB8
:1002E0004A95D1F708958F929F92AF92BF92CF9285
:1002F000DF92EF92FF924B015C010E944E016B0175
:100300007C010E944E016C197D098E099F09683E8F
:10031000734081059105A8F321E0821A9108A10894
:10032000B10888EEC80E83E0D81EE11CF11C8114D0
:100330009104A104B10429F7FF90EF90DF90CF90D2
:10034000BF90AF909F908F9008952FB7F8946091D1
:1003500025027091260280912702909128022FBFDA
:10036000089508950895AF92BF92CF92DF92EF92D1
:10037000FF920F931F93CF93DF936C017B018B014F
:10038000040F151FEB015E01AE18BF08C017D1079F
:1003900059F06991D601ED91FC910190F081E02D29
:1003A000C6010995892B79F7C501DF91CF911F917E
:1003B0000F91FF90EF90DF90CF90BF90AF90089596
:1003C000FC01538D448D252F30E0842F90E0821B5B
:1003D000930B541710F0CF96089501970895FC01E0
:1003E000918D828D981761F0A28DAE0FBF2FB11D38
:1003F0005D968C91928D9F5F9F73928F90E0089590
:100400008FEF9FEF0895FC01918D828D981731F049
:10041000828DE80FF11D858D90E008958FEF9FEF9D
:100420000895FC01918D228D892F90E0805C9F4F73
:10043000821B91098F73992708958FE992E00E949A
:10044000110221E0892B09F420E0822F089580E039
:1004500090E0892B29F00E941D0281110C9400006C
:100460000895FC01A48DA80FB92FB11DA35ABF4F49
:100470002C91848D90E001968F739927848FA689A3
:10048000B7892C93A089B1898C91837080648C93F7
:10049000938D848D981306C00288F389E02D8081A6
:1004A0008F7D80830895EF92FF920F931F93CF93D8
:1004B000DF93EC0181E0888F9B8D8C8D98131AC09F
:1004C000E889F989808185FF15C09FB7F894EE8986
:1004D000FF896083E889F9898081837080648083E3
:1004E0009FBF81E090E0DF91CF911F910F91FF902E
:1004F000EF900895F62E0B8D10E00F5F1F4F0F73D6
:100500001127E02E8C8D8E110CC00FB607FCFACF90
:10051000E889F989808185FFF5CFCE010E943102FB
:10052000F1CFEB8DEC0FFD2FF11DE35AFF4FF08261
:100530009FB7F8940B8FEA89FB8980818062CFCFC7
:10054000CF93DF93EC01888D8823B9F0AA89BB890A
:10055000E889F9898C9185FD03C0808186FD0DC0F5
:100560000FB607FCF7CF8C9185FFF2CF808185FF16
:10057000EDCFCE010E943102E9CFDF91CF910895F6
:100580002091DA01260F3327331F21323105ECF495
:1005900020917502FC0190E080E0243069F082E057
:1005A0000895A091DA012191AC0146545E4FA40F49
:1005B000B52FB11D2C930196861798F38091DA011F
:1005C000680F6093DA0180E0089581E00895109249
:1005D000750281E08093740210924F0261E082E123
:1005E0000E94E40061E083E10E94E400E9EBF0E0B6
:1005F00080818E7F808380818D7F808388E480935B
:10060000B80085E48093BC000895CF93DF9391E018
:100610009093B9018823B9F0C091B800D091BA0085
:100620008091BC008A7B8093BC0060E082E10E94E4
:10063000E40060E083E10E94E4000E94E702D093BE
:10064000BA00C093B800DF91CF9108958F929F9226
:10065000AF92BF92CF92DF92EF92FF920F931F93D0
:10066000CF93DF93D0919E02D13208F0D7C0182FDC
:10067000C0919D020E944E016B017C018091750228
:1006800081116BC082E080937502109374028FEF2A
:100690008093730210927202D0937102ADE7B2E0C0
:1006A000E1E5F2E080E0D81391C010925002809111
:1006B0005002CC0FC82BC093500280914F02813062
:1006C00009F088C010924F020E944E016B017C011C
:1006D000809150028093BB008091770290917802C4
:1006E000A0917902B0917A02892B8A2B8B2BA1F0F1
:1006F0000E944E01009177021091780220917902B8
:1007000030917A026C197D098E099F090617170727
:100710002807390708F442C08091BC0083FDD8CF78
:1007200085EC8093BC000E944E016B017C0180919E
:100730007502823009F450C0809173028F3F09F432
:100740006FC080917302803209F46CC08091730293
:10075000803309F469C084E026C0809177029091CB
:100760007802A0917902B0917A02892B8A2B8B2B87
:1007700009F484CF0E944E01809077029090780215
:10078000A0907902B0907A026C197D098E099F09B8
:1007900086169706A806B90608F070CF80917602F3
:1007A0000E94050385E010927C0210929E02109236
:1007B0007B02DF91CF911F910F91FF90EF90DF901F
:1007C000CF90BF90AF909F908F9008959D919193FF
:1007D0008F5F69CF85EEA5CF8091770290917802E7
:1007E000A0917902B0917A02892B8A2B8B2B09F484
:1007F0009ECF0E944E0100917702109178022091C5
:10080000790230917A026C197D098E099F090617C9
:1008100017072807390708F08ACFC0CF81E0C3CF78
:1008200080E0C1CF82E0BFCF83E0BDCFDC01119675
:100830008D919C91DC01ED91FC910280F381E02D82
:1008400041E050E00995019729F481E00E942603D8
:1008500091E0811190E0892F08950F931F93CF931A
:10086000DF93E1E0F0E02115310511F0E2E0F0E086
:10087000EC01AC81BD81AE17BF0738F1DA018B0105
:1008800089819A81488151E050937B0240939D0277
:1008900010927C0210929E02232B41F4B801CE01EB
:1008A000DF91CF911F910F910C9416041097B1F323
:1008B000FC0120813181F9012281338141E050E046
:1008C000BD01F9010995019749F380E0DF91CF91CE
:1008D0001F910F9108950895E0912E0280912D02AD
:1008E000E81730F4F0E0E15DFD4F808190E008957D
:1008F0008FEF9FEF089590912E0280912D022FEFA0
:100900003FEF981748F4E92FF0E0E15DFD4F2081BB
:1009100030E09F5F90932E02C901089580912D02CF
:1009200090912E02891B990B0895CF92DF92EF923E
:10093000FF920F931F93CF93DF937C01CB018A012A
:1009400020917B02222389F0EB016B01C40ED51E9E
:10095000CC15DD0569F06991D701ED91FC9101900D
:10096000F081E02DC7010995F3CF642F0E94C002EA
:10097000C801DF91CF911F910F91FF90EF90DF9011
:10098000CF900895CF93DF931F92CDB7DEB76983E1
:1009900020917B022223F9F020919E02203258F010
:1009A00021E030E0FC013383228390E080E00F906F
:1009B000DF91CF91089580917C02E82FF0E0E35819
:1009C000FD4F998190838F5F80937C0280939E027C
:1009D00081E090E0ECCF61E0CE0101960E94C00280
:1009E000F7CF90E080E00895CF93DF93EC018B8107
:1009F0008823A1F0888191E090937B0280939D02EF
:100A000010927C0210929E0281E00E94260391E0E7
:100A1000811190E0892FDF91CF91089510922E02DD
:100A200010922D0210927C0210929E020E94E70208
:100A300081EB91E09093FF018093FE0182EB91E0C6
:100A4000909301028093000281E08B83CE010E948B
:100A5000F404982F8111CECFDDCF60E00E94E40036
:100A60008BE090E00197F1F708958EBD00000DB482
:100A700007FEFDCF8EB50895CF93DF93C82FD62FF5
:100A800060E089E00E94E4008FEF0E94350580E07D
:100A90000E94350561E089E00E94E40060E089E0A1
:100AA0000E94E400EC2FF0E0EE5DFE4F80810E949A
:100AB00035058D2F0E94350561E089E0DF91CF91EA
:100AC0000C94E4001F93CF93DF93D82FC62F142FDD
:100AD00060E089E00E94E4008FEF0E94350580E02D
:100AE0000E94350561E089E00E94E40060E089E051
:100AF0000E94E400ED2FF0E0EE5DFE4F80810E9449
:100B000035056C2F70E0112369F0695E7E4FFB01A3
:100B100080810E94350561E089E0DF91CF911F91CE
:100B20000C94E400645F7E4FF2CF42E050E06EE54B
:100B300071E08FE992E00C94B301CF93DF93FC0155
:100B400001900020E9F73197AF01481B590BBC0118
:100B50008FE992E00E94B301EC010E9495058C0F91
:100B60009D1FDF91CF910895CF93DF93FC014481C6
:100B70005581608171818FE992E00E94B301EC019F
:100B80000E9495058C0F9D1FDF91CF9108952F92A4
:100B90003F924F925F926F927F928F929F92AF920D
:100BA000BF92CF92DF92EF92FF920F931F93CF935A
:100BB000DF93DC011496ED91FC911597EF2B09F46E
:100BC00022C169012A01EC01888191E090937B02A6
:100BD00080939D0210927C0210929E02CD010E9491
:100BE0001604782E882309F40EC1F12CE12C33244D
:100BF00033948C819D8186010E191F0980179107FE
:100C000008F48C0128800E944E014B015C01809108
:100C10007502811173C0602EB0E2B01710F480E24B
:100C2000682E3092750221E0C601801B910BE816F8
:100C3000F90608F420E020937402EFEFE0937302CA
:100C4000109272028FEF860D8093710230925002E3
:100C500080915002220C282A2092500280914F024B
:100C6000813009F090C010924F020E944E014B015A
:100C70005C01809150028093BB008091770290913B
:100C80007802A0917902B0917A02892B8A2B8B2B62
:100C9000A1F00E944E01209177023091780240919C
:100CA000790250917A02681979098A099B092617F5
:100CB00037074807590708F442C08091BC0083FDFC
:100CC000D8CFF5ECF093BC000E944E014B015C01C3
:100CD00080917502813009F45AC0809172028615A4
:100CE00010F460907202A1E5B2E0EFE2F2E080E081
:100CF000861551F19D9191938F5FFACF8091770284
:100D000090917802A0917902B0917A02892B8A2B76
:100D10008B2B09F47CCF0E944E01209177023091F9
:100D200078024091790250917A02681979098A090A
:100D30009B09261737074807590708F068CF8091A5
:100D400076020E940503612C10922E0260922D0201
:100D50006016110609F057C042018E0C9F1C540109
:100D6000C501881999098017910798F589819A8199
:100D7000DC01ED91FC910284F385E02D0995F501EC
:100D800081935F01EDCF85EE8093BC009DCF809174
:100D9000770290917802A0917902B0917A02892B22
:100DA0008A2B8B2B09F494CF0E944E01209177025D
:100DB000309178024091790250917A02681979094C
:100DC0008A099B09261737074807590708F080CF7B
:100DD000B6CFE00EF11EEC14FD0408F40ACF872D07
:100DE000DF91CF911F910F91FF90EF90DF90CF9007
:100DF000BF90AF909F908F907F906F905F904F903B
:100E00003F902F900895712CEACFCF93DF9300D0BD
:100E10001F92CDB7DEB78B8322E030E0AE014F5F8B
:100E20005F4FBE016D5F7F4F8091480390914903F2
:100E30000E94C70589819A819827892798270F9052
:100E40000F900F90DF91CF910895CF93DF9300D053
:100E5000CDB7DEB78EE28A8384EF898321E030E06C
:100E6000AE014F5F5F4FBE016E5F7F4F80914803C1
:100E7000909149030E942D0465E070E080E090E0CD
:100E80000E94730186EF0E9405070F900F90DF917B
:100E9000CF9108954F925F926F927F928F929F921F
:100EA000AF92BF92CF92DF92EF92FF921F93CF93B8
:100EB000DF93CDB7DEB728970FB6F894DEBF0FBE2D
:100EC000CDBF0E9425074C01B12CA12C80914A0373
:100ED0008295880F880F807C8C5C8C8384EF8B8359
:100EE00021E030E0AE014D5F5F4FBE016C5F7F4F90
:100EF00080914803909149030E942D0480914A03F8
:100F000081117DC165E070E080E090E00E94730196
:100F100086EF0E940507B0E0A0E0CC24D82EE92E91
:100F2000FA2E88EF8A8321E030E0AE014F5F5F4FF9
:100F3000BE016E5F7F4F80914803909149030E94EC
:100F4000C7058981C82A10914A0380915F03909157
:100F50006003A5019401281B390B41095109A09197
:100F60005D03B0915E030E9488152B013C01AFE048
:100F70007594679457944794AA95D1F76091570355
:100F800070915803072E000C880B990BBBE0660F7D
:100F9000771F881F991FBA95D1F720915903309177
:100FA0005A03032E000C440B550B240D351D461D12
:100FB000571D0E94E716420E531E641E751E20EA3E
:100FC000421A2FE0520A61087108A3019201C3017D
:100FD000B2010E9481164B015C018CE0B594A7948C
:100FE000979487948A95D1F7A0914F03B0915003BD
:100FF0000E940C179B01AC019DE0559547953795D4
:1010000027959A95D1F72D833E834F835887A091DA
:101010005103B0915203A50194010E940C179C0149
:10102000552737FD5095452F8D819E81AF81B8851D
:10103000280F391F4A1F5B1F2E5F3F4F4F4F5F4FD7
:1010400062E055954795379527956A95D1F73058C1
:101050004F4F5F4FA0915B03B0915C030E948815D6
:101060009B01AC017FE056954795379527957A957A
:10107000D1F72D833E834F83588788E090E0811B12
:10108000910904C0F694E794D794C7948A95D2F74F
:10109000A0915303B0915403A50194010E940C1731
:1010A0004B015C01EBE0B594A79497948794EA9583
:1010B000D1F7A0914D03B0914E03A30192010E947C
:1010C0000C17FBE09595879577956795FA95D1F77D
:1010D000680D791D8A1D9B1D80904B0390904C03D9
:1010E000092C000CAA08BB08A2E0880C991CAA1CB9
:1010F000BB1CAA95D1F7680D791D8A1D9B1D012E79
:1011000004C0660F771F881F991F0A94D2F76E5F7D
:101110007F4F8F4F9F4F24E030E040E050E00E942F
:10112000E716D701C601821B930BA40BB50B9C01DC
:10113000AD0160E573EC80E090E004C09695879582
:10114000779567951A95D2F70E94811697FD6AC028
:10115000660F771F881F991F2D813E814F8158850B
:101160000E94C51669017A019927F7FC9A958F2D7F
:101170007E2D6D2D9B01AC010E9481169B01AC015F
:10118000AEEDBBE00E9488154B015C01A3E4B3EE19
:10119000A70196010E940F17BC01992777FD909532
:1011A000892F4501BB2497FCB094AB2C680D791DA9
:1011B0008A1D9B1D6153714F8F4F9F4F44E0959542
:1011C0008795779567954A95D1F76C0D7D1D8E1D96
:1011D0009F1D28960FB6F894DEBF0FBECDBFDF91DE
:1011E000CF911F91FF90EF90DF90CF90BF90AF9085
:1011F0009F908F907F906F905F904F900895813077
:1012000029F468E070E080E090E080CE823029F43C
:101210006EE070E080E090E079CE6AE170E080E01E
:1012200090E074CE2D813E814F8158850E94C51675
:1012300069017A01CC0CDD1CEE1CFF1C95CFEF92EE
:10124000FF921F93CF93DF937C01D0E0C0E010E0CA
:10125000F70180810E94BB000C2E01C0880F0A9408
:10126000EAF7182B61E0F70181810E94E40060E059
:10127000F70181810E94E4002196C830D10541F731
:10128000812FDF91CF911F91FF90EF900895FF92F2
:101290000F931F93CF93DF938C01D62FF42EC0E0D2
:1012A0006D2F6170F80180810E94E40061E0F80117
:1012B00081810E94E400C73039F4FF2029F060E00A
:1012C000F80180810E94120160E0F80181810E9492
:1012D000E400D695CF5FC83019F7DF91CF911F9109
:1012E0000F91FF9008951F93CF93DF93EC01162F7A
:1012F00060E08A810E94E40061E08A810E9412011C
:1013000060E089810E94E40061E089810E9412010D
:1013100061E088810E94120161E08A810E94E400FC
:101320008BE090E00197F1F7412F4170612FCE01E2
:10133000DF91CF911F910C9447091F93CF93DF93B7
:10134000EC016EEB80916103909162030E9473093E
:101350002D811AE0822F612F0E949116682F660F4F
:10136000680F660F620F40E0809161039091620305
:101370000E9447092C81822F612F0E949116682FAD
:10138000660F680F660F620F40E0809161039091D5
:1013900062030E9447092B81822F612F0E949116C0
:1013A000682F660F680F660F620F40E0809161033F
:1013B000909162030E9447092A81822F612F0E9427
:1013C0009116682F660F680F660F620F40E08091DC
:1013D0006103909162030E9447092981822F612F46
:1013E0000E949116682F660F680F660F620F40E02B
:1013F00080916103909162030E94470969819881FD
:10140000492F50E08A81282F30E0E2ECF0E081E0C3
:10141000861730F47491270F311D8F5F3196F8CF06
:10142000633020F0937011F42F5F3F4F6DE671E051
:10143000469FC001479F900D569F900D1124059621
:101440004D5F5F4F5695479556954795840F951F6D
:10145000820F931F67E070E00E949D16682F811134
:1014600001C067E040E080916103909162030E94B7
:1014700047092881822F6AE00E949116682F660F23
:10148000680F660F620F40E08091610390916203E4
:101490000E94470940E060E08091610390916203FF
:1014A0000E944709E0916103F09162038281DF911C
:1014B000CF911F910C942D05CF92DF92EF92FF9266
:1014C0000F931F93CF93DF9300D000D000D0CDB700
:1014D000DEB76FEB80916103909162030E94730904
:1014E00080916103909162030E941F098F77282FDA
:1014F00030E0F4E035952795FA95E1F7922F990FB2
:10150000990F022F091B000F080F80916103909122
:1015100062030E941F09282F30E0A4E0359527952B
:10152000AA95E1F7922F990F990FF22EF91AFF0C55
:10153000F80E80916103909162030E941F0986FF5B
:1015400077C0982F9F71292F30E0E4E035952795DB
:10155000EA95E1F7322F330F330F122F131B110FC0
:10156000190F85FD145F80916103909162030E94C1
:101570001F09282F30E094E0359527959A95E1F7DB
:10158000922F990F990FE22EE91AEE0CE80E809136
:101590006103909162030E941F09282F30E044E00C
:1015A000359527954A95E1F7922F990F990FD22EED
:1015B000D91ADD0CD80E80916103909162030E94CC
:1015C0001F0980916103909162030E941F09482FB7
:1015D00050E064E0559547956A95E1F7942F990F8F
:1015E000990FC42EC91ACC0CC80E8091610390913A
:1015F00062030E941F09E0916103F09162038281FE
:101600000E942D0596014E2D512F6F2D702F80E0D9
:1016100090E026960FB6F894DEBF0FBECDBFDF91E7
:10162000CF911F910F91FF90EF90DF90CF90089591
:10163000282F30E074E0359527957A95E1F7922FC1
:10164000990F990F122F191B110F180F8CCFCF93D1
:10165000DF9300D000D000D0CDB7DEB70E945C0A87
:10166000852F90E09093050180930401862F90E0F0
:1016700090931D0280931C02872F90E090931F028D
:1016800080931E0226960FB6F894DEBF0FBECDBF24
:10169000DF91CF910895CF93682F616080916103AE
:1016A000909162030E94730980916103909162039B
:1016B0000E941F09C82FE0916103F09162038281AB
:1016C0000E942D058C2FCF910895FC01808191817E
:1016D000009711F00C94B01708950F931F93CF93B8
:1016E000DF93EC0188819981009759F02A813B8131
:1016F0002617370730F081E0DF91CF911F910F91CE
:1017000008958B016F5F7F4F0E943918009759F041
:10171000998388831B830A832C813D81232B59F76E
:10172000FC011082E8CF80E0E7CFEF92FF920F93A9
:101730001F93CF93DF93EC01FB01E080F180E11474
:10174000F10411F10481158101151105A9F08C81B5
:101750009D81080F191FB801CE010E946D0B8823CF
:1017600099F0288139818C819D81B701820F931F67
:101770000E94FF181D830C83CE01DF91CF911F9132
:101780000F91FF90EF90089588819981009711F053
:101790000E94B017198218821D821C821B821A8235
:1017A000EBCFEF92FF920F931F93CF93DF93EC0158
:1017B0007B018A01BA010E946D0B28813981811158
:1017C00014C02115310519F0C9010E94B017198202
:1017D00018821D821C821B821A82CE01DF91CF915A
:1017E0001F910F91FF90EF9008951D830C83B70117
:1017F000C9010E94FF18F1CFEF92FF920F931F9340
:10180000CF93DF93CDB7DEB762970FB6F894DEBF04
:101810000FBECDBF8C01CB01F80111821082138263
:101820001282158214824AE09E012F5F3F4F790198
:10183000B9010E945814F70101900020E9F731978F
:10184000AF014E195F09B701C8010E94D10B629622
:101850000FB6F894DEBF0FBECDBFDF91CF911F91C1
:101860000F91FF90EF900895FB01DC0111961C92FF
:101870001E9213961C921E92129715961C921E92FF
:1018800014978617970749F060817181611571057A
:1018900021F0448155810C94D10B0895FC011182F3
:1018A00010821382128215821482FB0101900020A3
:1018B000E9F73197AF01461B570B0C94D10B85ED1F
:1018C0008093BC008091770290917802A091790278
:1018D000B0917A020796A11DB11D23E0B695A79598
:1018E000979587952A95D1F72091BC0024FD03C0D8
:1018F000109275020895409177025091780260919C
:10190000790270917A02452B462B472B69F3009799
:10191000A105B10541F02AE22A95F1F700C001972F
:10192000A109B109E1CF809176020C940503CF9211
:10193000DF92EF92FF920E9425079C0150E040E069
:10194000E8E4F3E08789908D281B390B41095109A0
:10195000A589B6890E9488156B017C018FE0F594FA
:10196000E794D794C7948A95D1F767857089072E35
:10197000000C880B990B2BE0660F771F881F991FAF
:101980002A95D1F721893289032E000C440B550B7F
:101990002C0D3D1D4E1D5F1D0E94E716CA01B901A9
:1019A0006C0D7D1D8E1D9F1D685F7F4F8F4F9F4F5C
:1019B00034E095958795779567953A95D1F70E948C
:1019C0008F1420E030E040E251E40E94D91560938A
:1019D00006027093070280930802909309020E9406
:1019E0004A07FF90EF90DF90CF900C944A071F9228
:1019F0000F920FB60F9211242F933F938F939F93C3
:101A0000AF93BF938091250290912602A091270267
:101A1000B09128023091240223E0230F2D3758F58E
:101A20000196A11DB11D209324028093250290935D
:101A30002602A0932702B093280280912902909158
:101A40002A02A0912B02B0912C020196A11DB11D7A
:101A50008093290290932A02A0932B02B0932C0228
:101A6000BF91AF919F918F913F912F910F900FBE9A
:101A70000F901F90189526E8230F0296A11DB11D07
:101A8000D2CF1F920F920FB60F9211242F933F9334
:101A90004F935F936F937F938F939F93AF93BF9376
:101AA000EF93FF938FE992E00E943102FF91EF9153
:101AB000BF91AF919F918F917F916F915F914F9166
:101AC0003F912F910F900FBE0F901F9018951F926E
:101AD0000F920FB60F9211242F938F939F93EF9332
:101AE000FF93E091AF02F091B0028081E091B502E6
:101AF000F091B60282FD1BC090818091B8028F5F89
:101B00008F732091B902821741F0E091B802F0E0A2
:101B1000E156FD4F958F8093B802FF91EF919F9111
:101B20008F912F910F900FBE0F901F90189580816D
:101B3000F4CF1F920F920FB60F9211242F933F9361
:101B40004F935F936F937F938F939F93AF93BF93C5
:101B5000EF93FF938091B900887F803609F44AC0E3
:101B6000F0F5883209F4A7C018F5803109F49BC05C
:101B7000B8F4882309F4F9C0883009F494C0FF91BF
:101B8000EF91BF91AF919F918F917F916F915F91F5
:101B90004F913F912F910F900FBE0F901F9018956E
:101BA000883109F488C0803251F78093730214C0E1
:101BB000803409F49DC040F48033B9F38833F9F6DA
:101BC0008093730285ECB0C0803509F485C08835F8
:101BD00009F496C0883499F60E945F0CD0CF8839FA
:101BE00009F48CC038F5883729F050F4883611F0A4
:101BF000803729F683E0809375021092FC0157C06C
:101C0000883809F47BC0803919F0803809F0B7CFE3
:101C10008091FC01803208F071C0E091FC0181E00C
:101C20008E0F8093FC018091BB00F0E0E452FE4FE8
:101C300080833DC0803B39F0E0F4803A09F479C0FC
:101C4000883A09F09CCF84E0809375021092DB0102
:101C50001092DA01E091FE01F091FF010995809167
:101C6000DA0181110FC081E08093DA011092BA018C
:101C700009C0803C09F4A6CF883C09F4A3CF883B77
:101C800009F07DCFE091DB0181E08E0F8093DB01D5
:101C9000F0E0E654FE4F80818093BB009091DB0121
:101CA0008091DA0129C0809150028093BB0085ECBD
:101CB0008093BC0064CF909172028091710298175A
:101CC00058F5E091720281E08E0F80937202F0E08D
:101CD000EF5AFD4F8081E9CFE091720281E08E0FD3
:101CE000809372028091BB00F0E0EF5AFD4F808339
:101CF00090917202809171029817C8F285E8D8CF4E
:101D0000E091720281E08E0F809372028091BB009D
:101D1000F0E0EF5AFD4F80838091740281115CCF17
:101D200081E080934F0284EA8093BC001092750298
:101D300026CF85EC8093BC00109275028091FC0147
:101D4000803230F4E091FC01F0E0E452FE4F10826A
:101D50006091FC0170E0E0910002F09101028CEDD5
:101D600091E009951092FC010ACF1092730234CFD2
:101D70001F920F920FB60F9211248F939F93809111
:101D8000B8018F5F8093B8018091040291E08927A8
:101D900080930402809103028F5F8830B0F48093B7
:101DA00003028091B8018091B8018091B801803F11
:101DB00028F081E0809302021092B8019F918F91E8
:101DC0000F900FBE0F901F90189510920302E9CF4D
:101DD000EFE9F2E01382128288EE93E0A0E0B0E037
:101DE00084839583A683B7832EE331E031832083F8
:101DF00025EC30E03587248724EC30E037872687D0
:101E000020EC30E0318B208B21EC30E0338B228BC7
:101E100022EC30E0358B248B26EC30E0378B268BA0
:101E2000118E128E138E148EECE3F3E01382128265
:101E300084839583A683B78380E591E09183808333
:101E4000E3E6F3E086E0808385E0818387E08283B8
:101E5000F0936203E09361031092490310924803E8
:101E60000895CF93DF93CDB7DEB768970FB6F89498
:101E7000DEBF0FBECDBF789484B5826084BD84B5CB
:101E8000816084BD85B5826085BD85B5816085BD75
:101E900080916E00816080936E001092810080912D
:101EA00081008260809381008091810081608093B5
:101EB0008100809180008160809380008091B100DA
:101EC00084608093B1008091B00081608093B00005
:101ED00080917A00846080937A0080917A00826099
:101EE00080937A0080917A00816080937A0080915B
:101EF0007A00806880937A001092C100E091AF026E
:101F0000F091B00282E08083E091AB02F091AC02EC
:101F10001082E091AD02F091AE028FEC80831092BE
:101F2000B702E091B302F091B40286E08083E091C1
:101F3000B102F091B202808180618083E091B102B0
:101F4000F091B202808188608083E091B102F091CB
:101F5000B202808180688083E091B102F091B20288
:101F600080818F7D8083F894109280001092810090
:101F7000109285001092840080918100836080938C
:101F8000810084E294EF909389008093880080918F
:101F9000810088608093810080916F0082608093CF
:101FA0006F00789461E089E00E94120162E08CE0A9
:101FB0000E94120162E08AE00E9412011FB7F894A9
:101FC0008091FD01811127C0E0E9F0E08491E4EA0D
:101FD000F0E09491E82FF0E0EE0FFF1FE859FF4F7B
:101FE000A591B491EC91E92321F461E08AE00E948B
:101FF000E40061E08AE00E9412018CB580618CBD32
:102000008CB580648CBD61E08DE00E94120161E0BE
:102010008BE00E9412018091FD018F5F8093FD0192
:102020001FBF80E58CBD81E08DBD009161031091E3
:10203000620360E0F80181810E94120160E0F80112
:1020400080810E94120160E0F80182810E941201E9
:1020500089E18B8B86E08C8B85E08D8B80E18E8B8C
:102060008CE28F8B188E0E945C0A29833A834B8303
:102070005C836D837E838FEF830F8C3008F4F3C114
:1020800081E691E00E949D05CE0143960E949D0944
:102090008EE80E944B0B87FF1BC08EE80E944B0B03
:1020A000182F6EE880916103909162030E9473097A
:1020B000612F6F7740E080916103909162030E94ED
:1020C0004709E0916103F091620382810E942D052E
:1020D00080E80E944B0B87FF1BC080E80E944B0BDF
:1020E000182F60E880916103909162030E94730948
:1020F000612F6F7740E080916103909162030E94AD
:102100004709E0916103F091620382810E942D05ED
:102110000E94270B6091040170910501CE01019688
:102120000E94FC0B6FE671E0CE010D960E944E0CF2
:10213000BE01635F7F4FCE0107960E94340CBE0143
:102140006F5F7F4FCE0107960E94950B0E94B405EA
:10215000CE0107960E94650BCE010D960E94650B7D
:10216000CE0101960E94650B60911C0270911D02C8
:10217000CE0101960E94FC0B68E771E0CE010D963E
:102180000E944E0CBE01635F7F4FCE0107960E94F6
:10219000340CBE016F5F7F4FCE0107960E94950BF6
:1021A0000E94B405CE0107960E94650BCE010D96E4
:1021B0000E94650BCE0101960E94650B60911E0284
:1021C00070911F02CE0101960E94FC0B63E871E042
:1021D000CE010D960E944E0CBE01635F7F4FCE0173
:1021E00007960E94340CBE016F5F7F4FCE010796A9
:1021F0000E94950B0E94B405CE0107960E94650BC4
:10220000CE010D960E94650BCE0101960E94650BD2
:1022100083E080934A03809148039091490300979B
:1022200011F00E94B01786E090E00E9414178C0114
:1022300087E7F80180838CE393E0928381831382A4
:1022400080E290E0958384831093490300934803D0
:1022500010922E0210922D0210927C0210929E0279
:102260000E94E70281EB91E09093FF018093FE01D1
:1022700082EB91E0909301028093000281E0F801EB
:102280008383C8010E94F404882309F42AC180EDE5
:102290008D8721E030E0AE014F5F5F4FBE01635F8D
:1022A0007F4F80914803909149030E94C70589811F
:1022B000853509F016C18AEA0E94050790934C0300
:1022C00080934B038CEA0E94050790934E03809302
:1022D0004D038EEA0E9405079093500380934F03AD
:1022E00080EB0E94050790935C0380935B0382EB75
:1022F0000E94050790935E0380935D0384EB0E9428
:1023000005079093600380935F0386EB0E940507A7
:10231000909352038093510388EB0E94050790939A
:102320005403809353038AEB0E940507909356034E
:10233000809355038CEB0E9405079093580380937C
:1023400057038EEB0E94050790935A03809359031D
:102350008EE891E00E949D050E94970C80910202F8
:10236000882331F0109202020E94970C0E94270BE2
:102370009AE0E92EF12CAA24A394B12C32E0832E0A
:10238000912C0E94A5010091200210912102209120
:10239000220230912302601B710B820B930B683E6B
:1023A000734081059105B8F00E94A5016093200259
:1023B00070932102809322029093230280911E0247
:1023C00090911F0201968C3391050CF08FC0909371
:1023D0001F0280931E020E94A50100911802109115
:1023E000190220911A0230911B02601B710B820BA3
:1023F000930B633071058105910508F45DC10E945E
:10240000A501609318027093190280931A029093A9
:102410001B02009110021091110270900502C72C4E
:10242000D12C0330110509F083C1209006023090B1
:1024300007024090080250900902C201B1010E94B7
:102440004B16CB0127E0271508F47CC0F601E55DAB
:10245000FD4E0C9406179D1269136F1376138813A3
:102460008C13901395138FEF840F8F3108F008CEE3
:10247000583108F005CE6C3308F002CE7C3308F0FA
:10248000FFCD323001F54E3108F0FACD4D3109F073
:10249000FFCD30E02053384FC90183709927892B35
:1024A00009F0EECDC90164E670E00E949D16892B0B
:1024B00009F0EECDC90160E971E00E949D16892BFB
:1024C00009F0DECDE5CD4F3109F0E2CD432F41508B
:1024D000550BCA0167E070E00E94B11680FFD8CDAD
:1024E000CFCD8EE991E00E949D05FFCF10921F0293
:1024F00010921E0280911C0290911D0201968C3355
:1025000091052CF490931D0280931C0264CF1092CD
:102510001D0210921C028091040190910501019608
:10252000883191052CF4909305018093040153CFD9
:1025300010920501109204014ECF40E06AE080E065
:102540000E9462058FEFC81AD80A97E0C922DD24DD
:10255000C09205028CE00E94BB006C0180910001DA
:1025600090910101C816D90651F00E94A50160930F
:102570000C0270930D0280930E0290930F020E9442
:10258000A50140900C0250900D0260900E027090D8
:102590000F0264197509860997096233710581056F
:1025A000910500F180910A0290910B02C816D9069C
:1025B000C9F0D0920B02C0920A02C114D10491F466
:1025C0000230110509F447C108F02FC101151105AA
:1025D00009F437C10130110509F438C180EB91E0ED
:1025E0000E949D05D0920101C09200018AE00E94E4
:1025F000BB008C018091020190910301081719071B
:1026000051F00E94A501609314027093150280930B
:102610001602909317020E94A50140901402509058
:1026200015026090160270901702641975098609E8
:1026300097096233710581059105D0F180911202ED
:10264000909113020817190799F110931302009340
:1026500012020115110561F50E945C0AE72F2F8314
:10266000388749875A876B877C87A0911002B09181
:102670001102A130B10509F001C1852F90E001964A
:10268000883191050CF0F5C0909305018093040109
:102690008091040129833A834B838C836D83EE837D
:1026A000CE0101960E949D0980EB91E00E949D055C
:1026B000109303010093020180E090E0892B09F45C
:1026C00060CE0E941D02882309F45BCE0E940000A8
:1026D00058CEB7010E94B11640E081E031CFB7017A
:1026E0000E94B11641E0682F82E02ACF20E030E05E
:1026F00040E251E4C201B1010E94CA140E944B168B
:10270000CB01B7010E94B11640E0682F83E018CFDB
:1027100040E06AE084E014CF40E06AE085E010CF5A
:1027200067E086E00E943C050DCF61E387E0FACFC9
:102730000130110521F480910402811151C0809172
:10274000040190910501B7010E94B116562E013087
:10275000110521F480910402811145C0809104018A
:1027600090910501B7010E94B116382F0230110572
:1027700021F480910402811138C080911C02909153
:102780001D02B7010E94B116262F0230110529F44F
:10279000809104026AE0811108C080911C0290912E
:1027A0001D02B7010E94B116682F80911E02909100
:1027B0001F02A0910302B0E0AC014095509577E074
:1027C000771508F4BFCEF601E851FC4E0C940617BD
:1027D000F713FA13FD130014021407140D14111447
:1027E0008AE0582EB7CF3AE0C8CF2AE0D1CF40E0F8
:1027F000652DA5CE4170632F70CF40E0622F74CF5E
:1028000040E084CFB7010E94B11640E083CFB7010A
:102810000E94B11640E0682F81CFAE5CBE4F6C9134
:1028200080CFA65DBE4F6C9181CF03301105D1F0F2
:102830000430110509F0D2CE10921102109210024C
:10284000CDCEB0921102A0921002C8CE9092110289
:1028500080921002C3CEE3E0F0E0F0931102E09327
:102860001002BCCE44E050E050931102409310029D
:10287000B5CE10920501109204010ACF129709F00B
:1028800013CF70E06F5F7F4F6C33710564F470930A
:102890001D0260931C0280911C0229833A834B83A2
:1028A0005C838D83FCCE10921D0210921C02F3CF2C
:1028B000BB274A3031F4992322F4BDE290958195EB
:1028C0009F4F0C946414BB27FB015527AA27880F40
:1028D000991FAA1FA41710F0A41B83955051B9F794
:1028E000A05DAA3308F0A95DA193009779F7B11113
:1028F000B1931192CB010C947D14DC01FC01672F84
:1029000071917723E1F7329704C07C916D937083C6
:102910006291AE17BF07C8F30895E89409C097FB0A
:102920003EF490958095709561957F4F8F4F9F4FA6
:102930009923A9F0F92F96E9BB279395F6958795EA
:1029400077956795B795F111F8CFFAF4BB0F11F4AD
:1029500060FF1BC06F5F7F4F8F4F9F4F16C0882354
:1029600011F096E911C0772321F09EE8872F762F8A
:1029700005C0662371F096E8862F70E060E02AF0CB
:102980009A95660F771F881FDAF7880F96958795B7
:1029900097F908950E94DD140C944E150E9440157D
:1029A00038F00E94471520F0952311F00C9437154C
:1029B0000C943D1511240C9482150E945F1570F340
:1029C000959FC1F3950F50E0551F629FF001729FD4
:1029D000BB27F00DB11D639FAA27F00DB11DAA1FE3
:1029E000649F6627B00DA11D661F829F2227B00D30
:1029F000A11D621F739FB00DA11D621F839FA00DBB
:102A0000611D221F749F3327A00D611D231F849F0A
:102A1000600D211D822F762F6A2F11249F57504061
:102A20009AF0F1F088234AF0EE0FFF1FBB1F661FDC
:102A3000771F881F91505040A9F79E3F510580F0A5
:102A40000C9437150C9482155F3FE4F3983ED4F351
:102A5000869577956795B795F795E7959F5FC1F749
:102A6000FE2B880F911D9695879597F9089597F9F4
:102A70009F6780E870E060E008959FEF80EC089524
:102A800000240A941616170618060906089500244D
:102A90000A9412161306140605060895092E0394C7
:102AA000000C11F4882352F0BB0F40F4BF2B11F43B
:102AB00060FF04C06F5F7F4F8F4F9F4F089557FD9A
:102AC0009058440F551F59F05F3F71F04795880F9C
:102AD00097FB991F61F09F3F79F087950895121633
:102AE00013061406551FF2CF4695F1DF08C01616DF
:102AF00017061806991FF1CF869571056105089490
:102B00000895E894BB2766277727CB0197F90895A6
:102B10000E94CA15A59F900DB49F900DA49F800D93
:102B2000911D112408952F923F924F925F926F92C0
:102B30007F928F929F92AF92BF92CF92DF92EF924D
:102B4000FF920F931F93CF93DF93CDB7DEB7CA1BCE
:102B5000DB0B0FB6F894DEBF0FBECDBF09942A88F9
:102B6000398848885F846E847D848C849B84AA84A1
:102B7000B984C884DF80EE80FD800C811B81AA812E
:102B8000B981CE0FD11D0FB6F894DEBF0FBECDBFF9
:102B9000ED010895A29FB001B39FC001A39F700DE6
:102BA000811D1124911DB29F700D811D1124911D55
:102BB00008950E94ED150C944E150E94471558F08B
:102BC0000E94401540F029F45F3F29F00C9437151E
:102BD00051110C9482150C943D150E945F1568F3F9
:102BE0009923B1F3552391F3951B550BBB27AA27C6
:102BF00062177307840738F09F5F5F4F220F331F00
:102C0000441FAA1FA9F335D00E2E3AF0E0E832D0C7
:102C100091505040E695001CCAF72BD0FE2F29D0CA
:102C2000660F771F881FBB1F261737074807AB079C
:102C3000B0E809F0BB0B802DBF01FF2793585F4F11
:102C40003AF09E3F510578F00C9437150C9482159C
:102C50005F3FE4F3983ED4F3869577956795B795F3
:102C6000F7959F5FC9F7880F911D9695879597F9FE
:102C70000895E1E0660F771F881FBB1F6217730777
:102C80008407BA0720F0621B730B840BBA0BEE1F8C
:102C900088F7E09508950E9452166894B1110C943B
:102CA000821508950E94671588F09F5798F0B92FF4
:102CB0009927B751B0F0E1F0660F771F881F991F71
:102CC0001AF0BA95C9F714C0B13091F00E9481157D
:102CD000B1E008950C948115672F782F8827B85F8D
:102CE00039F0B93FCCF3869577956795B395D9F7C9
:102CF0003EF490958095709561957F4F8F4F9F4FD3
:102D00000895DB018F939F930E948815BF91AF9127
:102D1000A29F800D911DA39F900DB29F900D112435
:102D20000895991B79E004C0991F961708F0961B27
:102D3000881F7A95C9F780950895AA1BBB1B51E19E
:102D400007C0AA1FBB1FA617B70710F0A61BB70B1B
:102D5000881F991F5A95A9F780959095BC01CD01C0
:102D6000089597FB072E16F4009407D077FD09D03D
:102D70000E949D1607FC05D03EF4909581959F4FCB
:102D80000895709561957F4F0895A1E21A2EAA1BB0
:102D9000BB1BFD010DC0AA1FBB1FEE1FFF1FA2170B
:102DA000B307E407F50720F0A21BB30BE40BF50B08
:102DB000661F771F881F991F1A9469F76095709591
:102DC000809590959B01AC01BD01CF010895052E22
:102DD00097FB1EF400940E94FE1657FD07D00E9438
:102DE000C51607FC03D04EF40C94FE165095409582
:102DF000309521953F4F4F4F5F4F089590958095A7
:102E0000709561957F4F8F4F9F4F0895EE0FFF1F75
:102E10000590F491E02D0994B7FF0C9488150E9459
:102E20008815821B930B08950F931F93CF93DF9305
:102E30008230910510F482E090E0E0916803F09117
:102E4000690330E020E0B0E0A0E0309799F421156C
:102E5000310509F44AC0281B390B24303105D8F557
:102E60008A819B816115710589F1FB0193838283BE
:102E7000FE0111C040815181028113814817590719
:102E8000E0F04817590799F4109761F012960C93E7
:102E9000129713961C933296CF01DF91CF911F9119
:102EA0000F9108950093680310936903F4CF2115DF
:102EB000310551F04217530738F0A901DB019A019F
:102EC000BD01DF01F801C1CFEF01F9CF9093690394
:102ED00080936803CDCFFE01E20FF31F819391939E
:102EE0002250310939832883D7CF2091660330914E
:102EF0006703232B41F4209108013091090130939D
:102F00006703209366032091060130910701211584
:102F1000310541F42DB73EB740910A0150910B01A4
:102F2000241B350BE0916603F0916703E217F3076A
:102F3000A0F42E1B3F0B2817390778F0AC014E5F29
:102F40005F4F2417350748F04E0F5F1F50936703FC
:102F500040936603819391939FCFF0E0E0E09CCF94
:102F6000CF93DF930097E9F0FC013297138212822E
:102F7000A0916803B0916903ED0130E020E0109763
:102F8000A1F420813181820F931F2091660330913B
:102F900067032817390709F061C0F0936703E093CE
:102FA0006603DF91CF910895EA01CE17DF07E8F5B8
:102FB0004A815B819E0141155105B1F7E901FB830F
:102FC000EA8349915991C40FD51FEC17FD0761F4AD
:102FD000808191810296840F951FE90199838883EE
:102FE000828193819B838A83F0E0E0E012968D9149
:102FF0009C9113970097B9F52D913C911197CD01B4
:103000000296820F931F2091660330916703281761
:10301000390739F6309751F5109269031092680319
:10302000B0936703A0936603BCCFD383C283408170
:103030005181840F951FC817D90761F44E5F5F4F08
:1030400088819981480F591F518340838A819B81D0
:10305000938382832115310509F0B0CFF093690382
:10306000E09368039ECFFD01DC01C0CF1382128282
:10307000D7CFB0E0A0E0EFE3F8E10C9495158C0118
:10308000009751F4CB010E9414178C01C801CDB7F1
:10309000DEB7E0E10C94B115FC01E60FF71F9C01CF
:1030A00022503109E217F30708F49DC0D901CD91F0
:1030B000DC911197C617D70798F0C530D10530F3CA
:1030C000CE0104978617970708F3C61BD70B2297E4
:1030D000C193D1936D937C93CF010E94B017D6CF4B
:1030E0005B01AC1ABD0A4C018C0E9D1EA0916803B9
:1030F000B0916903512C412CF12CE12C109731F542
:1031000080916603909167038815990509F05CC06A
:103110004616570608F058C08091060190910701A5
:10312000009741F48DB79EB740910A0150910B0171
:10313000841B950BE817F90708F055C0F093670357
:10314000E0936603F90171836083A0CF8D919C9118
:10315000119712966C90129713967C901397A8155E
:10316000B90559F56C0142E0C40ED11CCA14DB0448
:1031700020F1AC014A195B09DA011296159780F02B
:103180006282738251834083D9016D937C93E114F1
:10319000F10471F0D7011396FC93EE93129776CF5A
:1031A00022968C0F9D1FF90191838083F301EFCF4D
:1031B000F0936903E093680369CF4816590608F451
:1031C0002C017D01D3019ACFCB010E9414177C0101
:1031D000009749F0AE01B8010E94F618C8010E949C
:1031E000B017870153CF10E000E050CFFB01DC01A6
:1031F00002C001900D9241505040D8F70895FB0154
:10320000DC0101900D920020E1F70895F894FFCFC2
:10321000010001000C0000006A0380003F065B4FC4
:10322000666D7D077F6F00BF86DBCFE6EDFD87FF14
:10323000EF80FEFDFBF7EFDFBF7F0E0D0B070F0FDB
:103240000F0F39393939312919380000000053027C
:10325000B301E001A0021102EF010302000000002F
:10326000C2049504F1046B048E047B046C040D0A03
:1032700000525443206C6F73742074696D6500486C
:103280004F555253203D20004D494E555445532033
:103290003D20005345434F4E4453203D2000424DB6
:1032A00050313830205375636365737321004E6F5E
:1032B0007420666F756E6420424D503138302100A5
:0832C000436C69636B210000FF
:00000001FF
