:100000000C9468000C9490000C9490000C94900058
:100010000C9490000C9490000C9490000C94900020
:100020000C9490000C9490000C9490000C94900010
:100030000C9490000C9490000C9490000C94900000
:100040000C942D060C9490000C949D060C9477064D
:100050000C9490000C9490000C9490000C949000E0
:100060000C9490000C9490000000000024002700E5
:100070002A0000000000250028002B0000000000DE
:1000800023002600290004040404040404040202DA
:100090000202020203030303030301020408102007
:1000A0004080010204081020010204081020000012
:1000B0000008000201000003040700000000000027
:1000C00000001F1C1F1E1F1E1F1F1E1F1E1FCF06EE
:1000D00011241FBECFEFD8E0DEBFCDBF22E0A8ECD9
:1000E000B1E001C01D92A739B207E1F711E0A0E02D
:1000F000B1E0E2E8FAE102C005900D92A83CB10738
:10010000D9F710E0C8E6D0E004C02197FE010E94B4
:10011000470BC736D107C9F70E9408070C943F0D5B
:100120000C940000833081F028F4813099F0823003
:10013000A9F008958730A9F08830C9F08430B1F46F
:10014000809180008F7D03C0809180008F778093A5
:100150008000089584B58F7784BD089584B58F7D20
:10016000FBCF8091B0008F778093B000089580918D
:10017000B0008F7DF9CFCF93DF93282F30E0F901C6
:10018000E255FF4F8491F901E656FF4FD491F901F2
:10019000EA57FF4FC491CC23A1F081110E94920035
:1001A000EC2FF0E0EE0FFF1FE458FF4FA591B49144
:1001B000EC91ED2381E090E009F480E0DF91CF91B4
:1001C000089580E090E0FACF1F93CF93DF93282F1C
:1001D00030E0F901E255FF4F8491F901E656FF4FF7
:1001E000D491F901EA57FF4FC491CC23A9F0162FFF
:1001F00081110E949200EC2FF0E0EE0FFF1FEE58ED
:10020000FF4FA591B4918FB7F894EC91111108C0EC
:10021000D095DE23DC938FBFDF91CF911F9108959E
:10022000DE2BF8CFCF93DF9390E0FC01E656FF4F33
:1002300024918A579F4FFC0184918823C9F090E054
:10024000880F991FFC01E859FF4FA591B491FC015B
:10025000EE58FF4FC591D49161110DC09FB7F8942E
:100260008C91209582238C938881282328839FBF9B
:10027000DF91CF910895623051F49FB7F8943C918B
:10028000822F809583238C93E8812E2BEFCF8FB71D
:10029000F894EC912E2B2C938FBFEACF2FB7F894C4
:1002A0006091ED017091EE018091EF019091F0016C
:1002B0002FBF0895AF92BF92CF92DF92EF92FF923D
:1002C0000F931F93CF93DF936C017B018B01040F7E
:1002D000151FEB015E01AE18BF08C017D10759F01A
:1002E0006991D601ED91FC910190F081E02DC6015C
:1002F0000995892B79F7C501DF91CF911F910F9156
:10030000FF90EF90DF90CF90BF90AF900895FC01E9
:10031000538D448D252F30E0842F90E0821B930B6A
:10032000541710F0CF96089501970895FC01918D10
:10033000828D981761F0A28DAE0FBF2FB11D5D9613
:100340008C91928D9F5F9F73928F90E008958FEFB5
:100350009FEF0895FC01918D828D981731F0828D69
:10036000E80FF11D858D90E008958FEF9FEF0895C0
:10037000FC01918D228D892F90E0805C9F4F821B24
:1003800091098F739927089581EF91E00E94B80138
:1003900021E0892B09F420E0822F089580E090E08D
:1003A000892B29F00E94C40181110C94000008954A
:1003B000FC01A48DA80FB92FB11DA35ABF4F2C91DA
:1003C000848D90E001968F739927848FA689B789D1
:1003D0002C93A089B1898C91837080648C93938DC8
:1003E000848D981306C00288F389E02D80818F7D6B
:1003F00080830895EF92FF920F931F93CF93DF9323
:10040000EC0181E0888F9B8D8C8D98131AC0E88950
:10041000F989808185FF15C09FB7F894EE89FF891F
:100420006083E889F98980818370806480839FBFBD
:1004300081E090E0DF91CF911F910F91FF90EF90BD
:100440000895F62E0B8D10E00F5F1F4F0F731127CD
:10045000E02E8C8D8E110CC00FB607FCFACFE88908
:10046000F989808185FFF5CFCE010E94D801F1CFB7
:10047000EB8DEC0FFD2FF11DE35AFF4FF0829FB77C
:10048000F8940B8FEA89FB8980818062CFCFCF936C
:10049000DF93EC01888D8823B9F0AA89BB89E889AC
:1004A000F9898C9185FD03C0808186FD0DC00FB652
:1004B00007FCF7CF8C9185FFF2CF808185FFEDCFD0
:1004C000CE010E94D801E9CFDF91CF91089560E07D
:1004D0000E94E4008BE090E00197F1F70895CF933C
:1004E000DF93D82FC8E06D2F661F6627661F88E050
:1004F0000E94E400DD0F61E08AE00E94E40060E019
:100500008AE00E94E400C15071F7DF91CF91089515
:100510001F93CF93DF93D82FC62F142F60E089E06D
:100520000E94E4008FEF0E946F0280E00E946F0241
:1005300061E089E00E94E40060E089E00E94E4005C
:10054000ED2FF0E0EE5DFE4F80810E946F026C2F78
:1005500070E0112369F0695E7E4FFB0180810E948B
:100560006F0261E089E0DF91CF911F910C94E4006C
:10057000645F7E4FF2CFEF92FF921F93CF93DF9392
:100580007C01D0E0C0E010E0F70180810E94BB0058
:100590000C2E01C0880F0A94EAF7182B61E0F701CE
:1005A00081810E94E40060E0F70181810E94E40003
:1005B0002196C830D10541F7812FDF91CF911F914E
:1005C000FF90EF900895FF920F931F93CF93DF93C7
:1005D0008C01D62FF42EC0E06D2F6170F801808160
:1005E0000E94E40061E0F80181810E94E400C730CC
:1005F00039F4FF2029F060E0F80180810E941201A7
:1006000060E0F80181810E94E400D695CF5FC83098
:1006100019F7DF91CF911F910F91FF9008951F93CC
:10062000CF93DF93EC01162F60E08A810E94E400F3
:1006300061E08A810E94120160E089810E94E400E9
:1006400061E089810E94120161E088810E941201AB
:1006500061E08A810E94E4008BE090E00197F1F76D
:10066000412F4170612FCE01DF91CF911F910C94EA
:10067000E3021F93CF93DF93EC016EEB80918E0228
:1006800090918F020E940F032D811AE0822F612F1B
:100690000E94130B682F660F680F660F620F40E011
:1006A00080918E0290918F020E94E3022C81822F12
:1006B000612F0E94130B682F660F680F660F620F81
:1006C00040E080918E0290918F020E94E3022B8184
:1006D000822F612F0E94130B682F660F680F660F21
:1006E000620F40E080918E0290918F020E94E3029F
:1006F0002A81822F612F0E94130B682F660F680FCB
:10070000660F620F40E080918E0290918F020E94EE
:10071000E3022981822F612F0E94130B682F660F3D
:10072000680F660F620F40E080918E0290918F02F9
:100730000E94E30269819881492F50E08A81282F25
:1007400030E0E2ECF0E081E0861730F47491270F9E
:10075000311D8F5F3196F8CF633020F0937011F424
:100760002F5F3F4F6DE671E0469FC001479F900DA0
:10077000569F900D112405964D5F5F4F56954795F6
:1007800056954795840F951F820F931F67E070E081
:100790000E941F0B682F811101C067E040E080912B
:1007A0008E0290918F020E94E3022881822F6AE0DC
:1007B0000E94130B682F660F680F660F620F40E0F0
:1007C00080918E0290918F020E94E30240E060E0EF
:1007D00080918E0290918F020E94E302E0918E023E
:1007E000F0918F028281DF91CF911F910C9467026B
:1007F000CF92DF92EF92FF920F931F93CF93DF93ED
:1008000000D000D000D0CDB7DEB76FEB80918E0264
:1008100090918F020E940F0380918E0290918F021F
:100820000E94BB028F77282F30E0F4E035952795A2
:10083000FA95E1F7922F990F990F022F091B000FDC
:10084000080F80918E0290918F020E94BB02282F88
:1008500030E0A4E035952795AA95E1F7922F990FFE
:10086000990FF22EF91AFF0CF80E80918E029091DA
:100870008F020E94BB0286FF77C0982F9F71292F9D
:1008800030E0E4E035952795EA95E1F7322F330F14
:10089000330F122F131B110F190F85FD145F809159
:1008A0008E0290918F020E94BB02282F30E094E0CC
:1008B000359527959A95E1F7922F990F990FE22E8A
:1008C000E91AEE0CE80E80918E0290918F020E9440
:1008D000BB02282F30E044E0359527954A95E1F793
:1008E000922F990F990FD22ED91ADD0CD80E809124
:1008F0008E0290918F020E94BB0280918E02909195
:100900008F020E94BB02482F50E064E05595479546
:100910006A95E1F7942F990F990FC42EC91ACC0C40
:10092000C80E80918E0290918F020E94BB02E091CE
:100930008E02F0918F0282810E94670296014E2DF5
:10094000512F6F2D702F80E090E026960FB6F8940F
:10095000DEBF0FBECDBFDF91CF911F910F91FF90F2
:10096000EF90DF90CF900895282F30E074E0359518
:1009700027957A95E1F7922F990F990F122F191B4E
:10098000110F180F8CCFCF93DF9300D000D000D081
:10099000CDB7DEB70E94F803852F90E09093030156
:1009A00080930201862F90E09093D7018093D60127
:1009B000872F90E09093CA018093C90126960FB6C5
:1009C000F894DEBF0FBECDBFDF91CF910895CF93D6
:1009D000682F616080918E0290918F020E940F03B8
:1009E00080918E0290918F020E94BB02C82FE091ED
:1009F0008E02F0918F0282810E9467028C2FCF912C
:100A0000089542E050E068E371E081EF91E00C94DA
:100A10005A01CF93DF93FC0101900020E9F7319751
:100A2000AF01481B590BBC0181EF91E00E945A01B4
:100A3000EC010E9401058C0F9D1FDF91CF9108955D
:100A4000CF93DF93FC01448155816081718181EFF7
:100A500091E00E945A01EC010E9401058C0F9D1F3C
:100A6000DF91CF910895FC0180819181009711F071
:100A70000C94E90B08950F931F93CF93DF93EC0130
:100A800088819981009759F02A813B812617370781
:100A900030F081E0DF91CF911F910F9108958B018C
:100AA0006F5F7F4F0E94720C009759F09983888383
:100AB0001B830A832C813D81232B59F7FC01108273
:100AC000E8CF80E0E7CFEF92FF920F931F93CF9391
:100AD000DF93EC01FB01E080F180E114F10411F1FE
:100AE0000481158101151105A9F08C819D81080FE4
:100AF000191FB801CE010E943B05882399F0288177
:100B000039818C819D81B701820F931F0E94380D1E
:100B10001D830C83CE01DF91CF911F910F91FF9028
:100B2000EF90089588819981009711F00E94E90B58
:100B3000198218821D821C821B821A82EBCFEF92CF
:100B4000FF920F931F93CF93DF93EC017B018A01F8
:100B5000BA010E943B0528813981811114C02115F9
:100B6000310519F0C9010E94E90B198218821D8212
:100B70001C821B821A82CE01DF91CF911F910F91AF
:100B8000FF90EF9008951D830C83B701C9010E9467
:100B9000380DF1CFEF92FF920F931F93CF93DF9316
:100BA000CDB7DEB762970FB6F894DEBF0FBECDBFEC
:100BB0008C01CB01F80111821082138212821582FE
:100BC00014824AE09E012F5F3F4F7901B9010E94D4
:100BD000A70AF70101900020E9F73197AF014E19FC
:100BE0005F09B701C8010E949F0562960FB6F8948D
:100BF000DEBF0FBECDBFDF91CF911F910F91FF9050
:100C0000EF900895FB01DC0111961C921E92139641
:100C10001C921E92129715961C921E92149786177C
:100C2000970749F0608171816115710521F0448158
:100C300055810C949F050895FC0111821082138246
:100C4000128215821482FB0101900020E9F731978E
:100C5000AF01461B570B0C949F051F920F920FB6C6
:100C60000F9211242F933F938F939F93AF93BF9332
:100C70008091ED019091EE01A091EF01B091F00112
:100C80003091EC0123E0230F2D3758F50196A11D7B
:100C9000B11D2093EC018093ED019093EE01A093A0
:100CA000EF01B093F0018091E8019091E901A091EA
:100CB000EA01B091EB010196A11DB11D8093E801FD
:100CC0009093E901A093EA01B093EB01BF91AF913A
:100CD0009F918F913F912F910F900FBE0F901F907A
:100CE000189526E8230F0296A11DB11DD2CF1F92A1
:100CF0000F920FB60F9211242F933F934F935F9350
:100D00006F937F938F939F93AF93BF93EF93FF93D3
:100D100081EF91E00E94D801FF91EF91BF91AF91D7
:100D20009F918F917F916F915F914F913F912F9103
:100D30000F900FBE0F901F9018951F920F920FB635
:100D40000F9211242F938F939F93EF93FF93E09132
:100D50000102F09102028081E0910702F091080205
:100D600082FD1BC0908180910A028F5F8F7320915A
:100D70000B02821741F0E0910A02F0E0EF50FE4FC3
:100D8000958F80930A02FF91EF919F918F912F9100
:100D90000F900FBE0F901F9018958081F4CFE1EF58
:100DA000F1E01382128288EE93E0A0E0B0E0848349
:100DB0009583A683B7838AE291E09183808385EC53
:100DC00090E09587848784EC90E09787868780EC15
:100DD00090E0918B808B81EC90E0938B828B82EC06
:100DE00090E0958B848B86EC90E0978B868B118EB0
:100DF000128E138E148EE0E9F2E086E0808385E0A7
:100E0000818387E08283F0938F02E0938E020895BE
:100E1000CF93DF93CDB7DEB768970FB6F894DEBFF8
:100E20000FBECDBF789484B5826084BD84B58160E7
:100E300084BD85B5826085BD85B5816085BD8091A5
:100E40006E00816080936E0010928100809181001D
:100E50008260809381008091810081608093810015
:100E6000809180008160809380008091B1008460D7
:100E70008093B1008091B00081608093B000809138
:100E80007A00846080937A0080917A0082608093F7
:100E90007A0080917A00816080937A0080917A0054
:100EA000806880937A001092C10061E088E00E941F
:100EB000120161E089E00E94120161E08AE00E9473
:100EC000120162E08CE00E94120162E08BE00E945D
:100ED0001201E0910102F091020282E08083E09130
:100EE000FD01F091FE011082E091FF01F0910002FE
:100EF0008FEC808310920902E0910502F0910602C6
:100F000096E09083E0910302F09104028081806179
:100F10008083E0910302F0910402808188608083E5
:100F2000E0910302F0910402808180688083E09167
:100F30000302F091040280818F7D808389E18B8B95
:100F40009C8B85E08D8B80E18E8B8CE28F8B188E55
:100F500000918E0210918F0260E0F80181810E9461
:100F6000120160E0F80180810E94120160E0F80146
:100F700082810E9412010E94F80329833A834B83E5
:100F80005C836D837E838FEF830F8C3008F45CC2AB
:100F90008BE391E00E940905CE0143960E9439033C
:100FA0008EE80E94E70487FF1FC089E491E00E9459
:100FB00009058EE80E94E704182F6EE880918E02E2
:100FC00090918F020E940F03612F6F7740E0809114
:100FD0008E0290918F020E94E302E0918E02F091C6
:100FE0008F0282810E94670280E80E94E70487FFE7
:100FF0001FC087E791E00E94090580E80E94E7048E
:10100000182F60E880918E0290918F020E940F034A
:10101000612F6F7740E080918E0290918F020E9445
:10102000E302E0918E02F0918F0282810E946702BA
:101030000E94C3046091020170910301CE010196E8
:101040000E94CA0562EA71E0CE010D960E941C065C
:10105000BE01635F7F4FCE0107960E940206BE016C
:101060006F5F7F4FCE0107960E9463050E942005A7
:10107000CE0107960E943305CE010D960E943305DE
:10108000CE0101960E9433056091D6017091D7017F
:10109000CE0101960E94CA056BEA71E0CE010D9661
:1010A0000E941C06BE01635F7F4FCE0107960E941F
:1010B0000206BE016F5F7F4FCE0107960E94630557
:1010C0000E942005CE0107960E943305CE010D96A1
:1010D0000E943305CE0101960E9433056091C9013B
:1010E0007091CA01CE0101960E94CA0566EB71E0BB
:1010F000CE010D960E941C06BE01635F7F4FCE019C
:1011000007960E940206BE016F5F7F4FCE010796D1
:101110000E9463050E942005CE0107960E943305B8
:10112000CE010D960E943305CE0101960E94330533
:101130000AE010E080E0E82E80E0F82E92E0C92E70
:10114000D12CAA24A394B12C0E944E014090E4011A
:101150005090E5016090E6017090E701641975090F
:1011600086099709683C71058105910560F00E9428
:101170004E016093E4017093E5018093E601909342
:10118000E7010E94C3040E944E014090E00150908C
:10119000E1016090E2017090E3016419750986092C
:1011A0009709643071058105910508F46DC00E94AE
:1011B0004E016093E0017093E1018093E20190930E
:1011C000E3018090D8019090D90151E085169104F7
:1011D00021F48091D101811175C18091020190911A
:1011E0000301B8010E94330BE62F81E088169104B9
:1011F00021F48091D101811167C180910201909108
:101200000301B8010E94330B382FF2E08F169104CE
:1012100021F48091D101811159C18091D601909121
:10122000D701B8010E94330B262F42E084169104A7
:1012300029F48091D1016AE0811108C08091D60122
:101240009091D701B8010E94330B682F4091C901DA
:101250005091CA01409550959090C80181E0981630
:1012600009F43CC1981608F433C1E2E09E1609F473
:1012700039C1F3E09F1609F439C1892D90E0019638
:10128000837099278093C8018CE00E94BB004C01B9
:1012900080910001909101018816990651F00E94F9
:1012A0004E016093CD017093CE018093CF01909356
:1012B000D0010E944E014090CD015090CE0160902F
:1012C000CF017090D00164197509860997096233BE
:1012D000710581059105F8F08091CB019091CC01C9
:1012E00088169906C1F09092CC018092CB018114AE
:1012F000910489F48091D8019091D90181309105B0
:1013000009F4FCC008F4F5C0029709F4FCC081ECB4
:1013100091E00E94090590920101809200010E94D3
:101320004E014090D2015090D3016090D401709052
:10133000D5016419750986099709643F71408105D3
:10134000910580F08091D10191E089278093D101AE
:101350000E944E016093D2017093D3018093D40117
:101360009093D5018BE00E94BB004C018091040159
:10137000909105018816990651F00E944E016093E4
:10138000DC017093DD018093DE019093DF010E9408
:101390004E014090DC015090DD016090DE017090C4
:1013A000DF016419750986099709623371058105A2
:1013B0009105D0F18091DA019091DB0188169906B0
:1013C00099F19092DB018092DA018114910461F528
:1013D0000E94F803E72F2F83388749875A876B8746
:1013E0007C878091D8019091D9018130910509F0D5
:1013F00094C0852F90E00196883191050CF088C04B
:1014000090930301809302018091020129833A8322
:101410004B838C836D83EE83CE0101960E9439034A
:1014200081EC91E00E9409059092050180920401EF
:10143000E114F10409F488CE0E94C401882309F460
:1014400083CE0E94000080CE8FEF840F8F3108F092
:101450009FCD583108F09CCD6C3308F099CD7C338A
:1014600008F096CD323001F54E3108F091CD4D3176
:1014700009F096CD30E02053384FC9018370992789
:10148000892B09F085CDC90164E670E00E941F0B2D
:10149000892B09F085CDC90160E971E00E941F0B1D
:1014A000892B09F075CD7CCD4F3109F079CD432FD3
:1014B0004150550BCA0167E070E00E94330B80FF7A
:1014C0006FCD66CDEAE095CE3AE0A7CE2AE0B1CE68
:1014D00040E06E2F80E00E948802CFCE4170632FE3
:1014E00081E0F9CF40E0622F82E0F5CF40E083E079
:1014F000F2CFB092D901A092D80109CFD092D901F0
:10150000C092D80104CF1092D9011092D801FFCE19
:10151000109203011092020177CF029709F080CF59
:1015200070E06F5F7F4F6C33710564F47093D70187
:101530006093D6018091D60129833A834B835C83E3
:101540008D8369CF1092D7011092D601F3CFBB27BC
:101550004A3031F4992322F4BDE2909581959F4F52
:101560000C94B30ABB27FB015527AA27880F991FA4
:10157000AA1FA41710F0A41B83955051B9F7A05DC2
:10158000AA3308F0A95DA193009779F7B111B1933F
:101590001192CB010C94CC0ADC01FC01672F7191F4
:1015A0007723E1F7329704C07C916D937083629149
:1015B000AE17BF07C8F308952F923F924F925F92E4
:1015C0006F927F928F929F92AF92BF92CF92DF9253
:1015D000EF92FF920F931F93CF93DF93CDB7DEB7B8
:1015E000CA1BDB0B0FB6F894DEBF0FBECDBF09944C
:1015F0002A88398848885F846E847D848C849B84A3
:10160000AA84B984C884DF80EE80FD800C811B81B0
:10161000AA81B981CE0FD11D0FB6F894DEBF0FBEDF
:10162000CDBFED010895991B79E004C0991F96176D
:1016300008F0961B881F7A95C9F780950895AA1B14
:10164000BB1B51E107C0AA1FBB1FA617B70710F0AD
:10165000A61BB70B881F991F5A95A9F780959095DF
:10166000BC01CD01089597FB072E16F4009407D016
:1016700077FD09D00E941F0B07FC05D03EF4909522
:1016800081959F4F0895709561957F4F0895EE0F56
:10169000FF1F0590F491E02D09940F931F93CF93B2
:1016A000DF938230910510F482E090E0E0919502A2
:1016B000F091960230E020E0B0E0A0E0309799F49D
:1016C0002115310509F44AC0281B390B2430310596
:1016D000D8F58A819B816115710589F1FB0193839E
:1016E0008283FE0111C0408151810281138148171C
:1016F0005907E0F04817590799F4109761F01296CE
:101700000C93129713961C933296CF01DF91CF91D1
:101710001F910F9108950093950210939602F4CFB4
:101720002115310551F04217530738F0A901DB01AB
:101730009A01BD01DF01F801C1CFEF01F9CF90930C
:10174000960280939502CDCFFE01E20FF31F8193A5
:1017500091932250310939832883D7CF2091930266
:1017600030919402232B41F420910801309109011A
:101770003093940220939302209106013091070147
:101780002115310541F42DB73EB740910A01509122
:101790000B01241B350BE0919302F0919402E217A8
:1017A000F307A0F42E1B3F0B2817390778F0AC0184
:1017B0004E5F5F4F2417350748F04E0F5F1F509361
:1017C000940240939302819391939FCFF0E0E0E0E5
:1017D0009CCFCF93DF930097E9F0FC0132971382FF
:1017E0001282A0919502B0919602ED0130E020E0C6
:1017F0001097A1F420813181820F931F20919302D1
:10180000309194022817390709F061C0F0939402CF
:10181000E0939302DF91CF910895EA01CE17DF079D
:10182000E8F54A815B819E0141155105B1F7E90157
:10183000FB83EA8349915991C40FD51FEC17FD072B
:1018400061F4808191810296840F951FE90199834B
:101850008883828193819B838A83F0E0E0E0129603
:101860008D919C9113970097B9F52D913C9111970B
:10187000CD010296820F931F209193023091940222
:101880002817390739F6309751F5109296021092C1
:101890009502B0939402A0939302BCCFD383C283EA
:1018A00040815181840F951FC817D90761F44E5F9D
:1018B0005F4F88819981480F591F518340838A81E6
:1018C0009B81938382832115310509F0B0CFF0937A
:1018D0009602E09395029ECFFD01DC01C0CF1382FA
:1018E0001282D7CFB0E0A0E0E8E7FCE00C94DE0A7B
:1018F0008C01009751F4CB010E944D0B8C01C80163
:10190000CDB7DEB7E0E10C94FA0AFC01E60FF71F51
:101910009C0122503109E217F30708F49DC0D90158
:10192000CD91DC911197C617D70798F0C530D10536
:1019300030F3CE0104978617970708F3C61BD70B21
:101940002297C193D1936D937C93CF010E94E90BB1
:10195000D6CF5B01AC1ABD0A4C018C0E9D1EA09126
:101960009502B0919602512C412CF12CE12C10974C
:1019700031F580919302909194028815990509F0B0
:101980005CC04616570608F058C080910601909139
:101990000701009741F48DB79EB740910A0150911D
:1019A0000B01841B950BE817F90708F055C0F0935D
:1019B0009402E0939302F90171836083A0CF8D912B
:1019C0009C91119712966C90129713967C90139796
:1019D000A815B90559F56C0142E0C40ED11CCA1412
:1019E000DB0420F1AC014A195B09DA011296159764
:1019F00080F06282738251834083D9016D937C931E
:101A0000E114F10471F0D7011396FC93EE93129751
:101A100076CF22968C0F9D1FF90191838083F3016D
:101A2000EFCFF0939602E093950269CF48165906DE
:101A300008F42C017D01D3019ACFCB010E944D0BFC
:101A40007C01009749F0AE01B8010E942F0DC8013A
:101A50000E94E90B870153CF10E000E050CFFB015B
:101A6000DC0102C001900D9241505040D8F708951A
:101A7000FB01DC0101900D920020E1F70895F8943C
:021A8000FFCF96
:101A820001000C0001000000970280003F065B4F3E
:101A9200666D7D077F6F00BF86DBCFE6EDFD87FFBA
:101AA200EF80FEFDFBF700000000FA015A018701FA
:101AB2004702B8019601AA010D0A00525443206C54
:101AC2006F73742074696D6500525443207761739B
:101AD2002077726974652070726F746563746564CF
:101AE2002C20656E61626C696E6720777269746919
:101AF2006E67206E6F770052544320776173206EB9
:101B02006F74206163746976656C792072756E6E8C
:101B1200696E672C207374617274696E67206E6FD0
:101B22007700484F555253203D20004D494E5554A1
:101B32004553203D20005345434F4E4453203D2002
:081B420000436C69636B210094
:00000001FF
