:100000000C9468000C9490000C9490000C94900058
:100010000C9490000C9490000C9490000C94900020
:100020000C9490000C9490000C9490000C94BD10D3
:100030000C9490000C9490000C9490000C94900000
:100040000C94FC0E0C9490000C946C0F0C94460FC6
:100050000C9490000C9490000C9490000C949000E0
:100060000C949E0F0C9490000000000024002700C8
:100070002A0000000000250028002B0000000000DE
:1000800023002600290004040404040404040202DA
:100090000202020203030303030301020408102007
:1000A0004080010204081020010204081020000012
:1000B0000008000201000003040700000000000027
:1000C00000001F1C1F1E1F1E1F1F1E1F1E1FED10C6
:1000D00011241FBECFEFD8E0DEBFCDBF24E0A6EDD8
:1000E000B1E001C01D92A838B207E1F711E0A0E02D
:1000F000B1E0EAE4FBE302C005900D92A63DB10732
:10010000D9F710E0C8E6D0E004C02197FE010E94B4
:10011000A31BC736D107C9F70E94B9110C94A31DC0
:100120000C94000008950895833081F028F4813004
:1001300099F08230A9F008958730A9F08830C9F08D
:100140008430B1F4809180008F7D03C08091800065
:100150008F7780938000089584B58F7784BD08954C
:1001600084B58F7DFBCF8091B0008F778093B000F6
:1001700008958091B0008F7DF9CFCF93DF93282F22
:1001800030E0F901E255FF4F8491F901E656FF4F47
:10019000D491F901EA57FF4FC491CC23A1F081110A
:1001A0000E949400EC2FF0E0EE0FFF1FE458FF4F89
:1001B000A591B491EC91ED2381E090E009F480E009
:1001C000DF91CF91089580E090E0FACF1F93CF9315
:1001D000DF93282F30E0F901E255FF4F8491F901B8
:1001E000E656FF4FD491F901EA57FF4FC491CC2353
:1001F000A9F0162F81110E949400EC2FF0E0EE0F71
:10020000FF1FEE58FF4FA591B4918FB7F894EC9172
:10021000111108C0D095DE23DC938FBFDF91CF9101
:100220001F910895DE2BF8CFCF93DF9390E0FC0170
:10023000E656FF4F24918A579F4FFC0184918823F3
:10024000C9F090E0880F991FFC01E859FF4FA59174
:10025000B491FC01EE58FF4FC591D49161110DC0CE
:100260009FB7F8948C91209582238C9388812823C2
:1002700028839FBFDF91CF910895623051F49FB7DB
:10028000F8943C91822F809583238C93E8812E2BC8
:10029000EFCF8FB7F894EC912E2B2C938FBFEACF32
:1002A0003FB7F89480914C0290914D02A0914E027C
:1002B000B0914F0226B5A89B05C02F3F19F00196BB
:1002C000A11DB11D3FBFBA2FA92F982F8827BC01B0
:1002D000CD01620F711D811D911D42E0660F771FD8
:1002E000881F991F4A95D1F708958F929F92AF92D8
:1002F000BF92CF92DF92EF92FF926B017C010E943E
:1003000050014B015C01C114D104E104F104B9F0C6
:100310000E945001681979098A099B09683E734057
:100320008105910580F321E0C21AD108E108F108A6
:1003300088EE880E83E0981EA11CB11CE4CFFF90CC
:10034000EF90DF90CF90BF90AF909F908F900895E7
:100350002FB7F894609148027091490280914A0247
:1003600090914B022FBF0895AF92BF92CF92DF9230
:10037000EF92FF920F931F93CF93DF936C017B015A
:100380008B01040F151FEB015E01AE18BF08C017EB
:10039000D10759F06991D601ED91FC910190F0815E
:1003A000E02DC6010995892B79F7C501DF91CF9121
:1003B0001F910F91FF90EF90DF90CF90BF90AF9083
:1003C0000895FC01538D448D252F30E0842F90E05B
:1003D000821B930B541710F0CF9608950197089540
:1003E000FC01918D828D981761F0A28DAE0FBF2F09
:1003F000B11D5D968C91928D9F5F9F73928F90E05F
:1004000008958FEF9FEF0895FC01918D828D9817CD
:1004100031F0828DE80FF11D858D90E008958FEF0A
:100420009FEF0895FC01918D228D892F90E0805CD3
:100430009F4F821B91098F739927089586EC92E054
:100440000E94120221E0892B09F420E0822F0895F6
:1004500080E090E0892B29F00E941E0281110C940B
:1004600000000895FC01A48DA80FB92FB11DA35A57
:10047000BF4F2C91848D90E001968F739927848FC4
:10048000A689B7892C93A089B1898C9183708064E7
:100490008C93938D848D981306C00288F389E02D88
:1004A00080818F7D80830895EF92FF920F931F9339
:1004B000CF93DF93EC0181E0888F9B8D8C8D981317
:1004C0001AC0E889F989808185FF15C09FB7F89423
:1004D000EE89FF896083E889F9898081837080646F
:1004E00080839FBF81E090E0DF91CF911F910F91BA
:1004F000FF90EF900895F62E0B8D10E00F5F1F4FC9
:100500000F731127E02E8C8D8E110CC00FB607FCD7
:10051000FACFE889F989808185FFF5CFCE010E9465
:100520003202F1CFEB8DEC0FFD2FF11DE35AFF4F9F
:10053000F0829FB7F8940B8FEA89FB8980818062F3
:10054000CFCFCF93DF93EC01888D8823B9F0AA89B0
:10055000BB89E889F9898C9185FD03C0808186FD7E
:100560000DC00FB607FCF7CF8C9185FFF2CF8081CD
:1005700085FFEDCFCE010E943202E9CFDF91CF910E
:1005800008952091F901260F3327331F21323105B9
:10059000ECF420919C02FC0190E080E0243069F0B2
:1005A00082E00895A091F9012191AC0147525E4F7C
:1005B000A40FB52FB11D2C930196861798F3809147
:1005C000F901680F6093F90180E0089581E00895D2
:1005D00010929C0281E080939B021092760261E06F
:1005E00082E10E94E60061E083E10E94E600E9EB1F
:1005F000F0E080818E7F808380818D7F808388E49E
:100600008093B80085E48093BC0008951092550251
:10061000109254021092A3021092C5020E94E802A6
:1006200082E990E0909353028093520283E990E034
:1006300090935102809350020895CF93DF9391E0FD
:100640009093D8018823B9F0C091B800D091BA0036
:100650008091BC008A7B8093BC0060E082E10E94B4
:10066000E60060E083E10E94E6000E94E802D09389
:10067000BA00C093B800DF91CF9108958F929F92F6
:10068000AF92BF92CF92DF92EF92FF920F931F93A0
:10069000CF93DF93D091C502D13208F0D7C0182F85
:1006A000C091C4020E9450016B017C0180919C02A8
:1006B00081116BC082E080939C0210939B028FEFAC
:1006C00080939A0210929902D0939802A4EAB2E021
:1006D000E8E7F2E080E0D81391C0109277028091B1
:1006E0007702CC0FC82BC0937702809176028130BD
:1006F00009F088C0109276020E9450016B017C01C3
:10070000809177028093BB0080919E0290919F021E
:10071000A091A002B091A102892B8A2B8B2BA1F072
:100720000E94500100919E0210919F022091A00210
:100730003091A1026C197D098E099F0906171707D0
:100740002807390708F442C08091BC0083FDD8CF48
:1007500085EC8093BC000E9450016B017C0180916C
:100760009C02823009F450C080919A028F3F09F4B4
:100770006FC080919A02803209F46CC080919A0215
:10078000803309F469C084E026C080919E02909174
:100790009F02A091A002B091A102892B8A2B8B2BE2
:1007A00009F484CF0E94500180909E0290909F0295
:1007B000A090A002B090A1026C197D098E099F093A
:1007C00086169706A806B90608F070CF80919D029C
:1007D0000E941D0385E01092A3021092C5021092A0
:1007E000A202DF91CF911F910F91FF90EF90DF90C8
:1007F000CF90BF90AF909F908F9008959D919193CF
:100800008F5F69CF85EEA5CF80919E0290919F0268
:10081000A091A002B091A102892B8A2B8B2B09F405
:100820009ECF0E94500100919E0210919F02209144
:10083000A0023091A1026C197D098E099F0906174B
:1008400017072807390708F08ACFC0CF81E0C3CF48
:1008500080E0C1CF82E0BFCF83E0BDCFDC01119645
:100860008D919C91DC01ED91FC910280F381E02D52
:1008700041E050E00995019729F481E00E943E0390
:1008800091E0811190E0892F08950F931F93CF93EA
:10089000DF93E1E0F0E02115310511F0E2E0F0E056
:1008A000EC01AC81BD81AE17BF0738F1DA018B01D5
:1008B00089819A81488151E05093A2024093C402F9
:1008C0001092A3021092C502232B41F4B801CE016D
:1008D000DF91CF911F910F910C942E041097B1F3DB
:1008E000FC0120813181F9012281338141E050E016
:1008F000BD01F9010995019749F380E0DF91CF919E
:100900001F910F910895CF93DF93EC018B81882382
:10091000A1F0888191E09093A2028093C40210928A
:10092000A3021092C50281E00E943E0391E0811172
:1009300090E0892FDF91CF9108950E94060381E016
:100940008B83CE010E948304982F8111E2CFF1CFD7
:100950008F929F92AF92BF92CF92DF92EF92FF92CF
:100960000F931F93CF93DF93D82FC62F142F61328D
:1009700008F09CC00E9450016B017C0180919C0298
:1009800081116FC081E080939C0210939B029FEFC6
:1009900090939A02109299029C0F909398028093E0
:1009A000770280917702DD0FD82BD0937702809168
:1009B0007602813009F07CC0109276020E945001CC
:1009C0006B017C01809177028093BB0080919E0235
:1009D00090919F02A091A002B091A102892B8A2B35
:1009E0008B2BA1F00E94500100919E0210919F025A
:1009F0002091A0023091A1026C197D098E099F09F6
:100A0000061717072807390708F44CC08091BC0067
:100A100083FDD8CF85EC8093BC000E9450016B0110
:100A20007C0180919C02813009F444C0809199023C
:100A30008C1710F4C0919902E8E7F2E0A6E5B2E065
:100A400080E08C1359C08C2FDF91CF911F910F91B3
:100A5000FF90EF90DF90CF90BF90AF909F908F90DE
:100A6000089580919E0290919F02A091A002B09162
:100A7000A102892B8A2B8B2B09F480CF0E94500175
:100A800080909E0290909F02A090A002B090A10240
:100A90006C197D098E099F0986169706A806B90666
:100AA00008F06CCF80919D020E941D03C0E0CBCF67
:100AB00085EEB1CF80919E0290919F02A091A002FD
:100AC000B091A102892B8A2B8B2B09F4AACF0E940B
:100AD000500100919E0210919F022091A00230913E
:100AE000A1026C197D098E099F09061717072807AF
:100AF000390708F096CFD6CF91919D938F5FA1CF04
:100B00000895E091550280915402E81730F4F0E026
:100B1000EA5AFD4F808190E008958FEF9FEF08958E
:100B200090915502809154022FEF3FEF981748F4AF
:100B3000E92FF0E0EA5AFD4F208130E09F5F90936B
:100B40005502C90108958091540290915502891B64
:100B5000990B0895CF92DF92EF92FF920F931F931C
:100B6000CF93DF937C01CB018A012091A202222343
:100B700089F0EB016B01C40ED51ECC15DD0569F0C3
:100B80006991D701ED91FC910190F081E02DC701B1
:100B90000995F3CF642F0E94C102C801DF91CF9164
:100BA0001F910F91FF90EF90DF90CF900895CF931A
:100BB000DF931F92CDB7DEB769832091A202222373
:100BC000F9F02091C502203258F021E030E0FC011C
:100BD0003383228390E080E00F90DF91CF910895DE
:100BE0008091A302E82FF0E0EC55FD4F99819083AE
:100BF0008F5F8093A3028093C50281E090E0ECCFE9
:100C000061E0CE0101960E94C102F7CF1F93CF93FE
:100C1000DF93C82F162FD72F8091500491E0909327
:100C2000A2028093C4021092A3021092C5026C2FFC
:100C300083E693E00E94D7056D2F83E693E00E9440
:100C4000D705612F83E693E00E94D70581E00E94DB
:100C50003E03EC2FF0E0EE0FFF1FE558FC4F108332
:100C6000D1838BED9EE20197F1F7DF91CF911F9138
:100C70000895CF93DF93CFE6D3E0EAA1FBA11182E1
:100C80001082EAA1FBA180818B7F8083EAA1FBA176
:100C90008081877F8083EAA1FBA1809161048770B6
:100CA000982F9295907F80818F78892B8083EAA1FD
:100CB000FBA181819091620490FB82F98183EAA17A
:100CC000FBA181819091630490FB83F98183EAA168
:100CD000FBA1818180628183EAA1FBA18181806483
:100CE0008183EAA1FBA1818180688183EAA1FBA1C4
:100CF000808181608083EAA1FBA181818061818301
:100D0000EAA1FBA181818E7F8183EAA1FBA16081A1
:100D1000718182E00E940606E8A5F9A51182108281
:100D2000E8A5F9A581818F778183E8A5F9A5808160
:100D30008F7380688083E8A5F9A580818F7C80838C
:100D4000E8A5F9A58181807F88608183E8A5F9A560
:100D50008081807F8083E8A5F9A56081718185E02D
:100D6000DF91CF910C940606803108F08FE08093DC
:100D70005A04E0919703F09198038F709081907FCF
:100D8000892B8083E0919703F091980360817181B2
:100D900085E00C94060690E080E0089560E00E94F3
:100DA000E6008BE090E00197F1F70895609156041A
:100DB0007091570490E080E00E942A1920E030E012
:100DC00048EC52E40E94761A60930001709301018E
:100DD000809302019093030108958091D7018823A5
:100DE000E1F0E0919103F091920381818E7F818304
:100DF000E0919103F091920380818E7F8083E09156
:100E00009103F09192036081718182E00E94060655
:100E100080E00E94B4061092D70108958091D70116
:100E200081114EC00E943906809106010E94B406CD
:100E3000E0919103F091920381818E7F8183E09113
:100E40009103F0919203818180628183E09191030B
:100E5000F09192036081718182E00E940606E09128
:100E60009103F091920381818E7F8183E0919103C0
:100E7000F0919203818180618183E0919103F091EF
:100E800092036081718182E00E940606E0919103E5
:100E9000F091920381818E7F8183E0919103F091A3
:100EA0009203818180648183E0919103F0919203A8
:100EB0006081718182E00E94060681E08093D70103
:100EC00008958EBD00000DB407FEFDCF8EB50895C8
:100ED000CF93DF93C82FD62F60E089E00E94E60011
:100EE0008FEF0E94610780E00E94610761E089E066
:100EF0000E94E60060E089E00E94E600EC2FF0E04E
:100F0000E05CFE4F80810E9461078D2F0E94610787
:100F100061E089E0DF91CF910C94E6001F93CF93BD
:100F2000DF93D82FC62F142F60E089E00E94E600DF
:100F30008FEF0E94610780E00E94610761E089E015
:100F40000E94E60060E089E00E94E600ED2FF0E0FC
:100F5000E05CFE4F80810E9461076C2F70E01123DE
:100F600069F06B5C7E4FFB0180810E94610761E04C
:100F700089E0DF91CF911F910C94E600665D7E4F72
:100F8000F2CF42E050E06CE771E086EC92E00C9426
:100F9000B401CF93DF93FC0101900020E9F7319772
:100FA000AF01481B590BBC0186EC92E00E94B401D2
:100FB000EC010E94C1078C0F9D1FDF91CF91089516
:100FC000CF93DF93FC01448155816081718186EC70
:100FD00092E00E94B401EC010E94C1078C0F9D1F9A
:100FE000DF91CF9108950F931F93CF93DF93CFE6B7
:100FF000D3E000E514E0F801808191E09093A20233
:101000008093C4021092A3021092C5026AE083E6A4
:1010100093E00E94D70580E00E943E0341E062E039
:10102000F80180810E94A804109255028093540216
:1010300083EE93E00197F1F783E693E00E94900539
:10104000182F83E693E00E949005082F81E00E940C
:101050003E0308831983CE01DF91CF911F910F9139
:1010600008950E94F307E0919F03F091A00381810E
:1010700086FFF7CF0895EFE6F3E0A4A1B5A1382FDE
:101080003295330F330F307C2C912F73232B2C93FD
:101090009295990F990F907C86958695892B11963C
:1010A0008C93A4A1B5A18C9180618C93A4A1B5A1CE
:1010B000809158048370982F990F990F8C91837F9A
:1010C000892B8C93A4A1B5A19091590493708C9114
:1010D0008C7F892B8C93A4A1B5A18C918F7D8C934F
:1010E00004A0F5A1E02D6081718183E00E940606D5
:1010F0000C9431085F926F927F928F929F92AF9281
:10110000BF92CF92DF92EF92FF920F931F93CF93F4
:10111000DF93DC011496ED91FC911597EF2B09F408
:101120005FC069013A01EC01888191E09093A202CD
:101130008093C4021092A3021092C502CD010E94B6
:101140002E04582E882309F44BC0F12CE12C8C81FD
:101150009D8186010E191F098017910708F48C01E3
:1011600041E0C601801B910BE816F90608F440E047
:10117000602F88810E94A804109255028093540227
:101180008017110669F543018E0C9F1C5401C5019F
:10119000881999098017910768F489819A81DC017F
:1011A000ED91FC910284F385E02D0995F501819381
:1011B0005F01EDCFE00EF11EEC14FD0440F2852D31
:1011C000DF91CF911F910F91FF90EF90DF90CF9023
:1011D000BF90AF909F908F907F906F905F90089599
:1011E000512CEDCFCF93DF9300D01F92CDB7DEB758
:1011F0008B8322E030E0AE014F5F5F4FBE016D5F39
:101200007F4F80916604909167040E947A088981DB
:101210009A819827892798270F900F900F90DF9138
:10122000CF910895CF93DF9300D0CDB7DEB78EE294
:101230008A8384EF898321E030E0AE014F5F5F4F06
:10124000BE016E5F7F4F80916604909167040E949B
:10125000450465E070E080E090E00E94750186EF53
:101260000E94F2080F900F90DF91CF9108954F9256
:101270005F926F927F928F929F92AF92BF92CF9226
:10128000DF92EF92FF921F93CF93DF93CDB7DEB73C
:1012900028970FB6F894DEBF0FBECDBF0E9412098B
:1012A0004C01B12CA12C809168048295880F880F85
:1012B000807C8C5C8C8384EF8B8321E030E0AE01FA
:1012C0004D5F5F4FBE016C5F7F4F809166049091D0
:1012D00067040E9445048091680481117DC165E026
:1012E00070E080E090E00E94750186EF0E94F208B5
:1012F000B0E0A0E0CC24D82EE92EFA2E88EF8A8325
:1013000021E030E0AE014F5F5F4FBE016E5F7F4F67
:1013100080916604909167040E947A088981C82AA6
:101320001091680480917D0490917E04A501940140
:10133000281B390B41095109A0917B04B0917C0411
:101340000E94251A2B013C01AFE0759467945794D5
:101350004794AA95D1F76091750470917604072E91
:10136000000C880B990BBBE0660F771F881F991F35
:10137000BA95D1F72091770430917804032E000CB0
:10138000440B550B240D351D461D571D0E94841B13
:10139000420E531E641E751E20EA421A2FE0520AA6
:1013A00061087108A3019201C301B2010E941E1BD2
:1013B0004B015C018CE0B594A794979487948A952F
:1013C000D1F7A0916D04B0916E040E94A91B9B01FE
:1013D000AC019DE055954795379527959A95D1F79E
:1013E0002D833E834F835887A0916F04B091700482
:1013F000A50194010E94A91B9C01552737FD50951A
:10140000452F8D819E81AF81B885280F391F4A1FD6
:101410005B1F2E5F3F4F4F4F5F4F62E055954795E3
:10142000379527956A95D1F730584F4F5F4FA09168
:101430007904B0917A040E94251A9B01AC017FE0E7
:1014400056954795379527957A95D1F72D833E8305
:101450004F83588788E090E0811B910904C0F6947F
:10146000E794D794C7948A95D2F7A0917104B0916C
:101470007204A50194010E94A91B4B015C01EBE0E1
:10148000B594A79497948794EA95D1F7A0916B04AB
:10149000B0916C04A30192010E94A91BFBE09595F9
:1014A000879577956795FA95D1F7680D791D8A1D0F
:1014B0009B1D8090690490906A04092C000CAA0876
:1014C000BB08A2E0880C991CAA1CBB1CAA95D1F7EA
:1014D000680D791D8A1D9B1D012E04C0660F771FA4
:1014E000881F991F0A94D2F76E5F7F4F8F4F9F4FCF
:1014F00024E030E040E050E00E94841BD701C601A8
:10150000821B930BA40BB50B9C01AD0160E573EC42
:1015100080E090E004C096958795779567951A9539
:10152000D2F70E941E1B97FD6AC0660F771F881FA7
:10153000991F2D813E814F8158850E94621B690150
:101540007A019927F7FC9A958F2D7E2D6D2D9B01A1
:10155000AC010E941E1B9B01AC01AEEDBBE00E94E2
:10156000251A4B015C01A3E4B3EEA70196010E948A
:10157000AC1BBC01992777FD9095892F4501BB24B1
:1015800097FCB094AB2C680D791D8A1D9B1D61538F
:10159000714F8F4F9F4F44E095958795779567954D
:1015A0004A95D1F76C0D7D1D8E1D9F1D28960FB697
:1015B000F894DEBF0FBECDBFDF91CF911F91FF909A
:1015C000EF90DF90CF90BF90AF909F908F907F90E3
:1015D0006F905F904F900895813029F468E070E03B
:1015E00080E090E080CE823029F46EE070E080E010
:1015F00090E079CE6AE170E080E090E074CE2D81D9
:101600003E814F8158850E94621B69017A01CC0C92
:10161000DD1CEE1CFF1C95CFEF92FF921F93CF9322
:10162000DF937C01D0E0C0E010E0F70180810E94F0
:10163000BD000C2E01C0880F0A94EAF7182B61E058
:10164000F70181810E94E60060E0F70181810E943C
:10165000E6002196C830D10541F7812FDF91CF9167
:101660001F91FF90EF900895FF920F931F93CF93D8
:10167000DF938C01D62FF42EC0E06D2F6170F8013E
:1016800080810E94E60061E0F80181810E94E6000D
:10169000C73039F4FF2029F060E0F80180810E9412
:1016A000140160E0F80181810E94E600D695CF5FC9
:1016B000C83019F7DF91CF911F910F91FF900895D6
:1016C0001F93CF93DF93EC01162F60E08A810E9475
:1016D000E60061E08A810E94140160E089810E9435
:1016E000E60061E089810E94140161E088810E9426
:1016F000140161E08A810E94E6008BE090E001978E
:10170000F1F7412F4170612FCE01DF91CF911F91F1
:101710000C94340B1F93CF93DF93EC016EEB80910D
:101720007F04909180040E94600B2D811AE0822F2B
:10173000612F0E942E1B682F660F680F660F620FC5
:1017400040E080917F04909180040E94340B2C81B2
:10175000822F612F0E942E1B682F660F680F660F65
:10176000620F40E080917F04909180040E94340BCE
:101770002B81822F612F0E942E1B682F660F680F0E
:10178000660F620F40E080917F04909180040E9478
:10179000340B2A81822F612F0E942E1B682F660F27
:1017A000680F660F620F40E080917F049091800483
:1017B0000E94340B2981822F612F0E942E1B682FDB
:1017C000660F680F660F620F40E080917F04909172
:1017D00080040E94340B69819881492F50E08A81EE
:1017E000282F30E0E2ECF0E081E0861730F47491CD
:1017F000270F311D8F5F3196F8CF633020F0937043
:1018000011F42F5F3F4F6DE671E0469FC001479F87
:10181000900D569F900D112405964D5F5F4F569584
:10182000479556954795840F951F820F931F67E044
:1018300070E00E943A1B682F811101C067E040E010
:1018400080917F04909180040E94340B2881822F24
:101850006AE00E942E1B682F660F680F660F620FEA
:1018600040E080917F04909180040E94340B40E01E
:1018700060E080917F04909180040E94340BE0919D
:101880007F04F09180048281DF91CF911F910C94AD
:10189000CE06CF92DF92EF92FF920F931F93CF93DA
:1018A000DF9300D000D000D0CDB7DEB76FEB8091D2
:1018B0007F04909180040E94600B80917F0490913E
:1018C00080040E940C0B8F77282F30E0F4E03595D0
:1018D0002795FA95E1F7922F990F990F022F091B7F
:1018E000000F080F80917F04909180040E940C0BE0
:1018F000282F30E0A4E035952795AA95E1F7922F9F
:10190000990F990FF22EF91AFF0CF80E80917F04AF
:10191000909180040E940C0B86FF77C0982F9F71D6
:10192000292F30E0E4E035952795EA95E1F7322F4D
:10193000330F330F122F131B110F190F85FD145F77
:1019400080917F04909180040E940C0B282F30E03E
:1019500094E0359527959A95E1F7922F990F990F75
:10196000E22EE91AEE0CE80E80917F04909180043B
:101970000E940C0B282F30E044E0359527954A95BE
:10198000E1F7922F990F990FD22ED91ADD0CD80EAC
:1019900080917F04909180040E940C0B80917F04C1
:1019A000909180040E940C0B482F50E064E0559504
:1019B00047956A95E1F7942F990F990FC42EC91A8C
:1019C000CC0CC80E80917F04909180040E940C0B77
:1019D000E0917F04F091800482810E94CE069601FE
:1019E0004E2D512F6F2D702F80E090E026960FB670
:1019F000F894DEBF0FBECDBFDF91CF911F910F9145
:101A0000FF90EF90DF90CF900895282F30E074E0A2
:101A1000359527957A95E1F7922F990F990F122F07
:101A2000191B110F180F8CCFCF93DF9300D000D06C
:101A300000D0CDB7DEB70E94490C852F90E090937F
:101A40000B0180930A01862F90E0909340028093CF
:101A50003F02872F90E090934202809341022696A6
:101A60000FB6F894DEBF0FBECDBFDF91CF910895C2
:101A7000CF93682F616080917F04909180040E94D1
:101A8000600B80917F04909180040E940C0BC82F02
:101A9000E0917F04F091800482810E94CE068C2F19
:101AA000CF910895FC0180819181009711F00C94F1
:101AB0004D1C08950F931F93CF93DF93EC01888102
:101AC0009981009759F02A813B812617370730F01A
:101AD00081E0DF91CF911F910F9108958B016F5F8E
:101AE0007F4F0E94D61C009759F0998388831B83EF
:101AF0000A832C813D81232B59F7FC011082E8CF0A
:101B000080E0E7CFEF92FF920F931F93CF93DF9385
:101B1000EC01FB01E080F180E114F10411F104819A
:101B2000158101151105A9F08C819D81080F191FE0
:101B3000B801CE010E945A0D882399F0288139817D
:101B40008C819D81B701820F931F0E949C1D1D8374
:101B50000C83CE01DF91CF911F910F91FF90EF90F9
:101B6000089588819981009711F00E944D1C198277
:101B700018821D821C821B821A82EBCFEF92FF9289
:101B80000F931F93CF93DF93EC017B018A01BA017E
:101B90000E945A0D28813981811114C02115310507
:101BA00019F0C9010E944D1C198218821D821C82E5
:101BB0001B821A82CE01DF91CF911F910F91FF906E
:101BC000EF9008951D830C83B701C9010E949C1DED
:101BD000F1CFEF92FF920F931F93CF93DF93CDB787
:101BE000DEB762970FB6F894DEBF0FBECDBF8C0193
:101BF000CB01F801118210821382128215821482A5
:101C00004AE09E012F5F3F4F7901B9010E94F5180C
:101C1000F70101900020E9F73197AF014E195F09F4
:101C2000B701C8010E94BE0D62960FB6F894DEBFE0
:101C30000FBECDBFDF91CF911F910F91FF90EF901D
:101C40000895FB01DC0111961C921E9213961C92C2
:101C50001E92129715961C921E921497861797073C
:101C600049F0608171816115710521F044815581D0
:101C70000C94BE0D0895FC01118210821382128211
:101C800015821482FB0101900020E9F73197AF0122
:101C9000461B570B0C94BE0D85ED8093BC008091C4
:101CA0009E0290919F02A091A002B091A10207967E
:101CB000A11DB11D23E0B695A795979587952A9507
:101CC000D1F72091BC0024FD03C010929C0208951E
:101CD00040919E0250919F026091A0027091A102DA
:101CE000452B462B472B69F30097A105B10541F021
:101CF0002AE22A95F1F700C00197A109B109E1CFC5
:101D000080919D020C941D03CF92DF92EF92FF927F
:101D10000E9412099C0150E040E0E6E6F4E0878969
:101D2000908D281B390B41095109A589B6890E945C
:101D3000251A6B017C018FE0F594E794D794C79442
:101D40008A95D1F767857089072E000C880B990B4F
:101D50002BE0660F771F881F991F2A95D1F72189DD
:101D60003289032E000C440B550B2C0D3D1D4E1DCE
:101D70005F1D0E94841BCA01B9016C0D7D1D8E1D63
:101D80009F1D685F7F4F8F4F9F4F34E095958795DC
:101D9000779567953A95D1F70E942C1920E030E0AD
:101DA00040E251E40E94761A60932802709329025F
:101DB00080932A0290932B020E9437096093240299
:101DC0007093250280932602909327020E942C197B
:101DD0002FE632E545E053E40E94761A6093200234
:101DE000709321028093220290932302FF90EF9040
:101DF000DF90CF900C9437091F920F920FB60F927D
:101E000011242F933F938F939F93AF93BF93809110
:101E1000480290914902A0914A02B0914B02309140
:101E2000470223E0230F2D3758F50196A11DB11D60
:101E3000209347028093480290934902A0934A025C
:101E4000B0934B0280914C0290914D02A0914E02B2
:101E5000B0914F020196A11DB11D80934C02909349
:101E60004D02A0934E02B0934F02BF91AF919F914C
:101E70008F913F912F910F900FBE0F901F9018954B
:101E800026E8230F0296A11DB11DD2CF1F920F92FB
:101E90000FB60F9211242F933F934F935F936F933D
:101EA0007F938F939F93AF93BF93EF93FF9386ECB2
:101EB00092E00E943202FF91EF91BF91AF919F910A
:101EC0008F917F916F915F914F913F912F910F90E3
:101ED0000FBE0F901F9018951F920F920FB60F9282
:101EE00011242F938F939F93EF93FF93E091D6024A
:101EF000F091D7028081E091DC02F091DD0282FD59
:101F00001BC090818091DF028F5F8F732091E00270
:101F1000821741F0E091DF02F0E0EA53FD4F958F28
:101F20008093DF02FF91EF919F918F912F910F90FE
:101F30000FBE0F901F9018958081F4CF1F920F92C3
:101F40000FB60F9211242F933F934F935F936F938C
:101F50007F938F939F93AF93BF93EF93FF93809162
:101F6000B900887F803609F44AC0F0F5883209F458
:101F7000A7C018F5803109F49BC0B8F4882309F490
:101F8000F9C0883009F494C0FF91EF91BF91AF91EF
:101F90009F918F917F916F915F914F913F912F9181
:101FA0000F900FBE0F901F901895883109F488C0CC
:101FB000803251F780939A0214C0803409F49DC096
:101FC00040F48033B9F38833F9F680939A0285ECB4
:101FD000B0C0803509F485C0883509F496C08834CE
:101FE00099F60E944C0ED0CF883909F48CC038F590
:101FF000883729F050F4883611F0803729F683E0CD
:1020000080939C0210921B0257C0883809F47BC051
:10201000803919F0803809F0B7CF80911B028032E7
:1020200008F071C0E0911B0281E08E0F80931B02CB
:102030008091BB00F0E0E550FE4F80833DC0803BC7
:1020400039F0E0F4803A09F479C0883A09F09CCF7D
:1020500084E080939C021092FA011092F901E091C1
:102060005202F091530209958091F90181110FC03C
:1020700081E08093F9011092D90109C0803C09F4F4
:10208000A6CF883C09F4A3CF883B09F07DCFE0912F
:10209000FA0181E08E0F8093FA01F0E0E752FE4FE3
:1020A00080818093BB009091FA018091F90129C051
:1020B000809177028093BB0085EC8093BC0064CF55
:1020C0009091990280919802981758F5E0919902A1
:1020D00081E08E0F80939902F0E0E858FD4F8081F7
:1020E000E9CFE091990281E08E0F8093990280916F
:1020F000BB00F0E0E858FD4F8083909199028091F9
:1021000098029817C8F285E8D8CFE091990281E04B
:102110008E0F809399028091BB00F0E0E858FD4F4C
:10212000808380919B0281115CCF81E08093760255
:1021300084EA8093BC0010929C0226CF85EC8093A9
:10214000BC0010929C0280911B02803230F4E0911E
:102150001B02F0E0E550FE4F108260911B0270E020
:10216000E0915002F09151028BEF91E009951092AD
:102170001B020ACF10929A0234CF1F920F920FB611
:102180000F9211248F939F938091D6018F5F80933C
:10219000D60180911F0291E0892780931F028091D0
:1021A0001E028F5F8830B0F480931E028091D601AA
:1021B0008091D6018091D601803F28F081E0809304
:1021C0001D021092D6019F918F910F900FBE0F901C
:1021D0001F90189510921E02E9CFE6ECF2E01382F0
:1021E000128288EE93E0A0E0B0E084839583A6831A
:1021F000B7832CE531E03183208325EC30E035874F
:10220000248724EC30E03787268720EC30E0318BC0
:10221000208B21EC30E0338B228B22EC30E0358BAD
:10222000248B26EC30E0378B268B118E128E138E8A
:10223000148EE3E6F3E01382128284839583A683EF
:10224000B7838EE691E091838083E1E8F4E086E055
:10225000808385E0818387E08283F0938004E0932C
:102260007F041092670410926604EFE6F3E08BE7B8
:1022700093E0978F868F8DE793E091A380A38FE7FC
:1022800093E093A382A381E893E095A384A383E8DA
:1022900093E097A386A385E893E091A780A787E8BA
:1022A00093E093A782A789E893E095A784A78BE89A
:1022B00093E097A786A7F1ABE0AB81E793E093AB00
:1022C00082AB83E793E095AB84AB85E793E097AB74
:1022D00086AB87E793E091AF80AF89E793E093AF58
:1022E00082AF88E0E2E1F1E0ABEAB3E001900D9269
:1022F0008A95E1F788E0EAE1F1E0A3EBB3E0019031
:102300000D928A95E1F788E0E2E2F1E0ABEBB3E011
:1023100001900D928A95E1F781E190E0909351044C
:102320008093500480E190E0909353048093520492
:10233000109258041092590410925A048FEF9FEF94
:1023400090935C0480935B0490935E0480935D049F
:102350009093600480935F04109261041092620471
:102360001092630484E690E0909365048093640483
:102370000895CF93DF93CDB7DEB769970FB6F89482
:10238000DEBF0FBECDBF789484B5826084BD84B5B6
:10239000816084BD85B5826085BD85B5816085BD60
:1023A00080916E00816080936E0010928100809118
:1023B00081008260809381008091810081608093A0
:1023C0008100809180008160809380008091B100C5
:1023D00084608093B1008091B00081608093B000F0
:1023E00080917A00846080937A0080917A00826084
:1023F00080937A0080917A00816080937A00809146
:102400007A00806880937A001092C100E091D60231
:10241000F091D70282E08083E091D202F091D30262
:102420001082E091D402F091D5028FEC808310925B
:10243000DE02E091DA02F091DB0286E08083E09137
:10244000D802F091D902808180618083E091D80226
:10245000F091D902808188608083E091D802F09168
:10246000D902808180688083E091D802F091D902FE
:1024700080818F7D8083F89410928000109281007B
:102480001092850010928400809181008360809377
:10249000810084E294EF909389008093880080917A
:1024A000810088608093810080916F0082608093BA
:1024B0006F00789461E089E00E94140162E08CE092
:1024C0000E94140162E08AE00E9414011FB7F89490
:1024D00080911C02811127C0E0E9F0E08491E4EAD8
:1024E000F0E09491E82FF0E0EE0FFF1FE859FF4F66
:1024F000A591B491EC91E92321F461E08AE00E9476
:10250000E60061E08AE00E9414018CB580618CBD18
:102510008CB580648CBD61E08DE00E94140161E0A7
:102520008BE00E94140180911C028F5F80931C023B
:102530001FBF80E58CBD81E08DBD00917F041091AF
:10254000800460E0F80181810E94140160E0F801DC
:1025500080810E94140160E0F80182810E941401D0
:1025600089E18B8B86E08C8B85E08D8B80E18E8B77
:102570008CE28F8B188E0E94490C29833A834B83FF
:102580005C836D837E838FEF830F8C3008F45EC293
:102590008FE791E00E94C907CE0143960E948A0B03
:1025A0008EE80E94380D87FF1BC08EE80E94380D10
:1025B000182F6EE880917F04909180040E94600B38
:1025C000612F6F7740E080917F04909180040E949A
:1025D000340BE0917F04F091800482810E94CE064A
:1025E00080E80E94380D87FF1BC080E80E94380DEC
:1025F000182F60E880917F04909180040E94600B06
:10260000612F6F7740E080917F04909180040E9459
:10261000340BE0917F04F091800482810E94CE0609
:102620000E94140D60910A0170910B01CE01019678
:102630000E94E90D6DE871E0CE010D960E943B0EFF
:10264000BE01635F7F4FCE0107960E94210EBE013F
:102650006F5F7F4FCE0107960E94820D0E94E007B8
:10266000CE0107960E94520DCE010D960E94520D8A
:10267000CE0101960E94520D60913F02709140027E
:10268000CE0101960E94E90D66E971E0CE010D963A
:102690000E943B0EBE01635F7F4FCE0107960E94F2
:1026A000210EBE016F5F7F4FCE0107960E94820D03
:1026B0000E94E007CE0107960E94520DCE010D96B2
:1026C0000E94520DCE0101960E94520D609141026E
:1026D00070914202CE0101960E94E90D61EA71E01B
:1026E000CE010D960E943B0EBE01635F7F4FCE016F
:1026F00007960E94210EBE016F5F7F4FCE010796A5
:102700000E94820D0E94E007CE0107960E94520DA2
:10271000CE010D960E94520DCE0101960E94520DDF
:1027200083E0809368048091660490916704009729
:1027300011F00E944D1C86E090E00E94B11B8C01BC
:1027400087E7F801808383E693E092838183138295
:1027500080E290E09583848310936704009366047D
:102760000E94060381E0F8018383C8010E9483046C
:10277000882309F4A9C180ED8D8721E030E0AE0106
:102780004F5F5F4FBE01635F7F4F80916604909102
:1027900067040E947A088981853509F095C18AEA23
:1027A0000E94F20890936A04809369048CEA0E9464
:1027B000F20890936C0480936B048EEA0E94F208F6
:1027C00090936E0480936D0480EB0E94F2089093C6
:1027D0007A048093790482EB0E94F20890937C043F
:1027E00080937B0484EB0E94F20890937E04809394
:1027F0007D0486EB0E94F2089093700480936F042E
:1028000088EB0E94F20890937204809371048AEB23
:102810000E94F20890937404809373048CEB0E94DE
:10282000F20890937604809375048EEB0E94F20870
:1028300090937804809377048CEA91E00E94C90712
:102840000E94840E80911D02882331F010921D0297
:102850000E94840E0E94140D109262041092610472
:10286000109263040E9406036AE070E080E090E04A
:102870000E9475010E94390660916404709165049C
:1028800090E080E00E94750120E030E048EC52E4E6
:10289000609100017091010180910201909103010A
:1028A0000E9467190E94EF1A6B01E0915804F0E052
:1028B000EE0FFF1FE555FC4F808191819601281B8B
:1028C000390BC901E0915904F0E0EE0FFF1FE55408
:1028D000FC4F608171810E943A1BCB010E943B0832
:1028E000D0925704C0925604E0919103F091920364
:1028F00081818E7F8183E0919103F09192038181A8
:1029000080628183E0919103F091920360817181F3
:1029100082E00E940606E0919103F091920381818A
:102920008E7F8183E0919103F09192038181806495
:102930008183E0919103F09192036081718182E043
:102940000E9406060E940E07B0EA4B2EB6E85B2EE8
:1029500066246394712C0AE010E064E6262E312C84
:102960000E94A801C0904302D0904402E09045022A
:10297000F09046026C197D098E099F09683E7340EC
:1029800081059105B8F00E94A801609343027093FD
:1029900044028093450290934602809141029091B7
:1029A000420201968C3391050CF093C09093420241
:1029B000809341020E94A801C0903B02D0903C024B
:1029C000E0903D02F0903E026C197D098E099F094E
:1029D000623071058105910508F420C30E94A801A9
:1029E00060933B0270933C0280933D0290933E02C1
:1029F000E0903302F090340240913202498FC42EAD
:102A0000D12C56E0E516F10409F0F7C00E940E073C
:102A10008090000190900101A0900201B09003010C
:102A2000C501B4010E94E81ACB01798D783008F015
:102A300081C0F601E25EFA4E0C94A31BE1169015DC
:102A4000ED16F216ED15F115F515FA158FEF840F49
:102A50008F3108F09DCD583108F09ACD6C3308F0D5
:102A600097CD7C3308F094CD323001F54E3108F02B
:102A70008FCD4D3109F094CD30E02053384FC9014E
:102A800083709927892B09F083CDC90164E670E032
:102A90000E943A1B892B09F083CDC90160E971E0DE
:102AA0000E943A1B892B09F073CD7ACD4F3109F082
:102AB00077CD432F4150550BCA0167E070E00E946B
:102AC0004E1B80FF6DCD64CD8CEB91E00E94C90759
:102AD000FFCF109242021092410280913F029091EA
:102AE000400201968C3391052CF490934002809320
:102AF0003F0260CF1092400210923F0280910A0183
:102B000090910B010196883191052CF490930B0163
:102B100080930A014FCF10920B0110920A014ACF05
:102B2000B1010E944E1BB8010E944E1B40E081E0A3
:102B30000E948E078FEFC81AD80A97E0C922DD24B9
:102B4000C09232028CE00E94BD006C0180910401B1
:102B500090910501C816D90651F00E94A801609312
:102B60002E0270932F0280933002909331020E94C4
:102B7000A80120912E0230912F02409130025091F5
:102B80003102621B730B840B950B62337105810557
:102B9000910508F4DBC180912C0290912D02C8169A
:102BA000D90609F4D3C1D0922D02C0922C02C114CF
:102BB000D10409F0CBC1E8E0EE16F10408F0C2C17F
:102BC000F701EB51FA4E0C94A31B87178E1795173C
:102BD0009C171B181E182118241840E06AE084E096
:102BE000A7CF40E06AE085E0A3CF67E786E00E94D8
:102BF0006807A0CF6CE587E0FACF87E0E816F1041C
:102C000041F50E940E078091060190910701E98D20
:102C1000E83008F08FCFF601E05FF94E0C94A31B6B
:102C2000181690151C162316ED15F1152716FA1512
:102C300040E06AE080E07CCFB8010E944E1B40E09B
:102C4000682F82E075CF40E06AE083E071CF6EE3E9
:102C5000CDCFF3E0EF16F10421F50E94ED06809050
:102C6000280290902902A0902A02B0902B02C50160
:102C7000B4010E94E81ACB01298D283008F05ACF00
:102C8000F601EB5BF94E0C94A31B18169315ED1689
:102C9000F216ED15F1154D164F1667E0A7CF61E35B
:102CA000AACF34E0E316F10409F066C00E94ED06F5
:102CB0006091240270912502809126029091270252
:102CC000498D483008F036CFF601E759F94E0C949B
:102CD000A31B7116781685169416A316B216BA168B
:102CE000FA15A30192010E94841B40E0622FA2CF3B
:102CF000A30192010E94841B20E137E240E050E0F2
:102D00000E94841B40E0622F12CF20E137E240E0B6
:102D100050E00E94841B28EE33E040E050E00E9427
:102D2000841B40E0622F8DCF28EE33E040E050E07E
:102D30000E94841B24E630E040E050E00E94841BA7
:102D400040E0622F82CF24E630E040E050E00E9475
:102D5000841B2AE030E040E050E00E94841B40E009
:102D6000622F3DCF2AE030E040E050E00E94841B1B
:102D700040E039CF63E73ACF55E0E516F10409F0BA
:102D800046C00E94ED068090200290902102A09003
:102D90002202B0902302C501B4010E94E81ACB01BF
:102DA000798D783008F0C6CEF601E752F94E0C94D2
:102DB000A31BE1169015ED16F216ED15F11503178C
:102DC000051720E030E048EC52E4C501B4010E9450
:102DD000761A0E94EF1A40E02DCFB8010E944E1BD8
:102DE00041E02ECF20E030E040E251E4C501B401E3
:102DF0000E9467190E94E81ACB01B8010E944E1B7D
:102E000040E0682F22CF66E7F1CE6DE3F4CE0E945A
:102E1000ED0681E0E816F10421F480911F02811192
:102E200054C080910A0190910B01B8010E944E1B81
:102E3000B62E91E0E916F10421F480911F02811170
:102E400047C080910A0190910B01B8010E944E1B6E
:102E5000382FE2E0EE16F10421F480911F02811177
:102E600039C080913F0290914002B8010E944E1BF0
:102E7000262FF2E0EF16F10429F480911F026AE098
:102E8000811108C080913F0290914002B8010E94D8
:102E90004E1B682F8091410290914202A0911E0228
:102EA000B0E0AC0140955095798D783008F042CE75
:102EB000F601E35AF84E0C94A31B6C176F1791168A
:102EC0007217741779177F1783175AE0B52EB5CF8D
:102ED0003AE0C7CF2AE0D1CF40E06B2DABCE4170B6
:102EE000632F25CE40E0B1CEB8010E944E1B40E0DA
:102EF00076CEB8010E944E1B40E0682F74CEA05BD6
:102F0000BE4F6C9173CEA85BBE4F6C9174CE21E026
:102F100030E0309334022093330214C042E050E09A
:102F200050933402409333020DC083E090E09093BD
:102F300034028093330206C0E4E0F0E0F093340200
:102F4000E09333028EEC91E00E94C907D092050114
:102F5000C09204018AE00E94BD006C0180910801CA
:102F600090910901C816D90651F00E94A8016093FA
:102F70003702709338028093390290933A020E948C
:102F8000A8012091370230913802409139025091C6
:102F90003A02621B730B840B950B6233710581053A
:102FA0009105C0F18091350290913602C816D9067C
:102FB00089F1D0923602C0923502C114D10451F584
:102FC0000E94490CE72F2F83388749875A876B87E0
:102FD0007C87809133029091340281309105F1F524
:102FE000852F90E00196883191059CF590930B0117
:102FF00080930A0180910A0129833A834B838C8351
:103000006D83EE83CE0101960E948A0B8EEC91E0D7
:103010000E94C907D0920901C092080180E090E0A7
:10302000892B09F49DCC0E941E02882309F493CCBD
:103030000E94000090CC25E030E06BCF46E050E0ED
:103040006FCF87E090E073CF10923402109233027A
:1030500079CF10920B0110920A01CCCF82309105EA
:10306000B9F470E06F5F7F4F6C33710564F4709357
:10307000400260933F0280913F0229833A834B8351
:103080005C838D83BECF1092400210923F02F3CF3B
:103090008630910509F08EC00E94F307E0919103FC
:1030A000F0919203818181608183E0919103F0919D
:1030B000920380818F778083E0919103F091920356
:1030C000818182608183E0919103F091920360811C
:1030D000718182E00E9406060E94F307E091590484
:1030E000F0E0EE0FFF1FE554FC4FA0919F03B0915D
:1030F000A0032C9111968C91382F3370408151810F
:10310000249FC001259F900D349F900D1124E091C4
:103110005804F0E0EE0FFF1FE555FC4F2081318190
:10312000820F931F90935704809356040E94D606F3
:103130006AE070E080E090E00E9475010E94F30771
:10314000E0919F03F091A003818186FFA7CF0E94A9
:1031500031080E94F307E0915904F0E0EE0FFF1FE1
:10316000E554FC4F60817181E0919F03F091A003D1
:1031700020818181382F3370269FC001279F900DB9
:10318000369F900D1124E0915804F0E0EE0FFF1FE0
:10319000E555FC4FE080F180E80EF91E0E943A1BD5
:1031A000CB010E943B08F0925704E0925604109223
:1031B00032022CCF079709F029CF80910601909118
:1031C00007010196803191054CF49093070180939B
:1031D0000601809106010E94B40618CFE1E0F0E0FC
:1031E000F0930701E0930601F4CFBB274A3031F496
:1031F000992322F4BDE2909581959F4F0C9401197B
:10320000BB27FB015527AA27880F991FAA1FA417C0
:1032100010F0A41B83955051B9F7A05DAA3308F0B4
:10322000A95DA193009779F7B111B1931192CB01E8
:103230000C941A19DC01FC01672F71917723E1F7D7
:10324000329704C07C916D9370836291AE17BF0773
:10325000C8F30895E89409C097FB3EF490958095D3
:10326000709561957F4F8F4F9F4F9923A9F0F92F4C
:1032700096E9BB279395F695879577956795B795CA
:10328000F111F8CFFAF4BB0F11F460FF1BC06F5FB0
:103290007F4F8F4F9F4F16C0882311F096E911C0C2
:1032A000772321F09EE8872F762F05C0662371F0E3
:1032B00096E8862F70E060E02AF09A95660F771FF7
:1032C000881FDAF7880F9695879597F908950E94D9
:1032D0007A190C94EB190E94DD1938F00E94E41958
:1032E00020F0952311F00C94D4190C94DA191124C0
:1032F0000C941F1A0E94FC1970F3959FC1F3950F4F
:1033000050E0551F629FF001729FBB27F00DB11D69
:10331000639FAA27F00DB11DAA1F649F6627B00DF9
:10332000A11D661F829F2227B00DA11D621F739FE2
:10333000B00DA11D621F839FA00D611D221F749FF0
:103340003327A00D611D231F849F600D211D822F37
:10335000762F6A2F11249F5750409AF0F1F088235E
:103360004AF0EE0FFF1FBB1F661F771F881F91508B
:103370005040A9F79E3F510580F00C94D4190C944D
:103380001F1A5F3FE4F3983ED4F3869577956795CF
:10339000B795F795E7959F5FC1F7FE2B880F911DB5
:1033A0009695879597F9089597F99F6780E870E05B
:1033B00060E008959FEF80EC089500240A941616AB
:1033C000170618060906089500240A941216130613
:1033D000140605060895092E0394000C11F48823A1
:1033E00052F0BB0F40F4BF2B11F460FF04C06F5FBD
:1033F0007F4F8F4F9F4F089557FD9058440F551F93
:1034000059F05F3F71F04795880F97FB991F61F066
:103410009F3F79F087950895121613061406551FDD
:10342000F2CF4695F1DF08C0161617061806991F49
:10343000F1CF86957105610508940895E894BB273E
:1034400066277727CB0197F908950E94671AA59FF1
:10345000900DB49F900DA49F800D911D112408958F
:103460002F923F924F925F926F927F928F929F9294
:10347000AF92BF92CF92DF92EF92FF920F931F9382
:10348000CF93DF93CDB7DEB7CA1BDB0B0FB6F89433
:10349000DEBF0FBECDBF09942A88398848885F8473
:1034A0006E847D848C849B84AA84B984C884DF80E4
:1034B000EE80FD800C811B81AA81B981CE0FD11DC8
:1034C0000FB6F894DEBF0FBECDBFED010895A29FE9
:1034D000B001B39FC001A39F700D811D1124911DE8
:1034E000B29F700D811D1124911D08950E948A1AAA
:1034F0000C94EB190E94E41958F00E94DD1940F079
:1035000029F45F3F29F00C94D41951110C941F1A1F
:103510000C94DA190E94FC1968F39923B1F355232E
:1035200091F3951B550BBB27AA27621773078407D6
:1035300038F09F5F5F4F220F331F441FAA1FA9F36C
:1035400035D00E2E3AF0E0E832D091505040E6955A
:10355000001CCAF72BD0FE2F29D0660F771F881FBB
:10356000BB1F261737074807AB07B0E809F0BB0BAE
:10357000802DBF01FF2793585F4F3AF09E3F5105C2
:1035800078F00C94D4190C941F1A5F3FE4F3983E22
:10359000D4F3869577956795B795F7959F5FC9F7AB
:1035A000880F911D9695879597F90895E1E0660F2C
:1035B000771F881FBB1F621773078407BA0720F0A5
:1035C000621B730B840BBA0BEE1F88F7E09508950E
:1035D0000E94EF1A6894B1110C941F1A08950E946A
:1035E000041A88F09F5798F0B92F9927B751B0F077
:1035F000E1F0660F771F881F991F1AF0BA95C9F777
:1036000014C0B13091F00E941E1AB1E008950C94DC
:103610001E1A672F782F8827B85F39F0B93FCCF38F
:10362000869577956795B395D9F73EF490958095F3
:10363000709561957F4F8F4F9F4F0895DB018F935A
:103640009F930E94251ABF91AF91A29F800D911D5B
:10365000A39F900DB29F900D11240895991B79E0BE
:1036600004C0991F961708F0961B881F7A95C9F712
:1036700080950895AA1BBB1B51E107C0AA1FBB1F61
:10368000A617B70710F0A61BB70B881F991F5A95EE
:10369000A9F780959095BC01CD01089597FB072E61
:1036A00016F4009407D077FD09D00E943A1B07FC5E
:1036B00005D03EF4909581959F4F08957095619542
:1036C0007F4F0895A1E21A2EAA1BBB1BFD010DC05E
:1036D000AA1FBB1FEE1FFF1FA217B307E407F507C2
:1036E00020F0A21BB30BE40BF50B661F771F881F9E
:1036F000991F1A9469F760957095809590959B0134
:10370000AC01BD01CF010895052E97FB1EF4009476
:103710000E949B1B57FD07D00E94621B07FC03D031
:103720004EF40C949B1B50954095309521953F4F3E
:103730004F4F5F4F089590958095709561957F4F9D
:103740008F4F9F4F0895EE0FFF1F0590F491E02DCE
:103750000994B7FF0C94251A0E94251A821B930B1B
:1037600008950F931F93CF93DF938230910510F448
:1037700082E090E0E0918604F091870430E020E060
:10378000B0E0A0E0309799F42115310509F44AC062
:10379000281B390B24303105D8F58A819B816115AE
:1037A000710589F1FB0193838283FE0111C0408181
:1037B00051810281138148175907E0F048175907D2
:1037C00099F4109761F012960C93129713961C932C
:1037D0003296CF01DF91CF911F910F910895009301
:1037E000860410938704F4CF2115310551F0421758
:1037F000530738F0A901DB019A01BD01DF01F8018F
:10380000C1CFEF01F9CF9093870480938604CDCF89
:10381000FE01E20FF31F8193919322503109398306
:103820002883D7CF2091840430918504232B41F441
:1038300020910E0130910F01309385042093840470
:1038400020910C0130910D012115310541F42DB766
:103850003EB74091100150911101241B350BE091AE
:103860008404F0918504E217F307A0F42E1B3F0BAC
:103870002817390778F0AC014E5F5F4F24173507E2
:1038800048F04E0F5F1F509385044093840481934A
:1038900091939FCFF0E0E0E09CCFCF93DF93009730
:1038A000E9F0FC01329713821282A0918604B09154
:1038B0008704ED0130E020E01097A1F420813181F0
:1038C000820F931F209184043091850428173907B3
:1038D00009F061C0F0938504E0938404DF91CF91F7
:1038E0000895EA01CE17DF07E8F54A815B819E0162
:1038F00041155105B1F7E901FB83EA8349915991DB
:10390000C40FD51FEC17FD0761F4808191810296E9
:10391000840F951FE90199838883828193819B831A
:103920008A83F0E0E0E012968D919C9113970097C6
:10393000B9F52D913C911197CD010296820F931FFD
:1039400020918404309185042817390739F630977F
:1039500051F51092870410928604B0938504A093C9
:103960008404BCCFD383C28340815181840F951FCF
:10397000C817D90761F44E5F5F4F88819981480F5E
:10398000591F518340838A819B81938382832115B0
:10399000310509F0B0CFF0938704E09386049ECF01
:1039A000FD01DC01C0CF13821282D7CFB0E0A0E0CE
:1039B000ECEDFCE10C94321A8C01009751F4CB0130
:1039C0000E94B11B8C01C801CDB7DEB7E0E10C94B9
:1039D0004E1AFC01E60FF71F9C0122503109E21735
:1039E000F30708F49DC0D901CD91DC911197C6175A
:1039F000D70798F0C530D10530F3CE01049786176C
:103A0000970708F3C61BD70B2297C193D1936D93E9
:103A10007C93CF010E944D1CD6CF5B01AC1ABD0A2E
:103A20004C018C0E9D1EA0918604B0918704512CF0
:103A3000412CF12CE12C109731F580918404909168
:103A400085048815990509F05CC04616570608F0EC
:103A500058C080910C0190910D01009741F48DB7F1
:103A60009EB74091100150911101841B950BE817EE
:103A7000F90708F055C0F0938504E0938404F90138
:103A800071836083A0CF8D919C91119712966C9059
:103A9000129713967C901397A815B90559F56C01E8
:103AA00042E0C40ED11CCA14DB0420F1AC014A1957
:103AB0005B09DA011296159780F062827382518356
:103AC0004083D9016D937C93E114F10471F0D70127
:103AD0001396FC93EE93129776CF22968C0F9D1F30
:103AE000F90191838083F301EFCFF0938704E09392
:103AF000860469CF4816590608F42C017D01D301CC
:103B00009ACFCB010E94B11B7C01009749F0AE0116
:103B1000B8010E94931DC8010E944D1C870153CF1C
:103B200010E000E050CFFB01DC0102C001900D92DB
:103B300041505040D8F70895FB01DC0101900D92EF
:0A3B40000020E1F70895F894FFCF8C
:103B4A009A99C9420100060001000C00000088048D
:103B5A008000FC21B01DB01D6419302A8C23302A44
:103B6A00B01D0A001400050001003F065B4F666D98
:103B7A007D077F6F00BF86DBCFE6EDFD87FFEF8015
:103B8A00FEFDFBF7EFDFBF7F0E0D0B070F0F0F0FC9
:103B9A003939393931291938000000005402B40181
:103BAA00E101A1021202F001040200000000D7059F
:103BBA00AA05CB068005A305900581050D0A0052CA
:103BCA005443206C6F73742074696D6500484F55B7
:103BDA005253203D20004D494E55544553203D2017
:103BEA00005345434F4E4453203D2000424D50312F
:103BFA003830205375636365737321004E6F7420E8
:103C0A00666F756E6420424D503138302100436C26
:063C1A0069636B2100004C
:00000001FF
