:100000000C945C000C9479000C9479000C947900A9
:100010000C9479000C9479000C9479000C9479007C
:100020000C9479000C9479000C9479000C9479006C
:100030000C9479000C9479000C9479000C9479005C
:100040000C9432010C9479000C9479000C94790092
:100050000C9479000C9479000C9479000C9479003C
:100060000C9479000C947900000000080002010053
:100070000003040700000000000000000000000072
:10008000250028002B0000000000240027002A0083
:10009000040404040404040402020202020203032E
:1000A0000303030301020408102040800102040836
:1000B000102001020408102011241FBECFEFD8E049
:1000C000DEBFCDBF11E0A0E0B1E0E6E2F5E002C0A6
:1000D00005900D92AA31B107D9F721E0AAE1B1E06C
:1000E00001C01D92AE32B207E1F70E947C010C9470
:1000F00091020C94000090E0FC01EC55FF4F24911C
:1001000080579F4FFC018491882399F090E0880FDD
:10011000991FFC01EA57FF4FA591B491FC01E458E7
:10012000FF4F859194918FB7F894EC91E22BEC936B
:100130008FBF089590E0FC01E859FF4F2491FC0126
:10014000EC55FF4F3491FC01E057FF4FE491EE2353
:10015000C9F0222339F0233001F1A8F4213019F13C
:10016000223029F1F0E0EE0FFF1FE458FF4FA59178
:10017000B4918FB7F894EC91611126C030953E236D
:100180003C938FBF08952730A9F02830C9F0243060
:1001900049F7809180008F7D03C0809180008F7728
:1001A00080938000DFCF84B58F7784BDDBCF84B5AB
:1001B0008F7DFBCF8091B0008F778093B000D2CF3E
:1001C0008091B0008F7DF9CF3E2BDACFCF93DF93B4
:1001D000D82FC8E06D2F661F6627661F88E00E9433
:1001E0009A00DD0F61E08AE00E949A0060E08AE0F8
:1001F0000E949A00C15071F7DF91CF9108951F932B
:10020000CF93DF93D82FC62F142F60E089E00E9490
:100210009A008FEF0E94E60080E00E94E60061E015
:1002200089E00E949A0060E089E00E949A00ED2F28
:10023000F0E0EB5EFE4F80810E94E6006C2F70E0E4
:10024000112369F0655F7E4FFB0180810E94E6000B
:1002500061E089E0DF91CF911F910C949A006F5F6C
:100260007E4FF2CF1F920F920FB60F9211242F9351
:100270003F938F939F93AF93BF9380912A01909167
:100280002B01A0912C01B0912D013091290123E087
:10029000230F2D3758F50196A11DB11D209329017B
:1002A00080932A0190932B01A0932C01B0932D01F0
:1002B0008091250190912601A0912701B0912801FC
:1002C0000196A11DB11D8093250190932601A09355
:1002D0002701B0932801BF91AF919F918F913F91DA
:1002E0002F910F900FBE0F901F90189526E8230FA7
:1002F0000296A11DB11DD2CF789484B5826084BDD1
:1003000084B5816084BD85B5826085BD85B5816019
:1003100085BD80916E00816080936E001092810097
:100320008091810082608093810080918100816052
:100330008093810080918000816080938000809113
:10034000B10084608093B1008091B000816080939F
:10035000B00080917A00846080937A0080917A0066
:10036000826080937A0080917A00816080937A0025
:1003700080917A00806880937A001092C10088E0B2
:100380000E947B0089E00E947B008AE00E947B0043
:10039000DAE000E010E02FB7F89480912A01909104
:1003A0002B01A0912C01B0912D012FBF4091210173
:1003B000509122016091230170912401841B950BBF
:1003C000A60BB70B883E9340A105B105D8F02FB717
:1003D000F89480912A0190912B01A0912C01B09169
:1003E0002D012FBF8093210190932201A09323011F
:1003F000B0932401809120018F5F8C3308F04EC0B0
:10040000809320012FB7F89480912A0190912B01BD
:10041000A0912C01B0912D012FBF40911B01509153
:100420001C0160911D0170911E01841B950BA60B90
:10043000B70B0497A105B10550F12FB7F89480913F
:100440002A0190912B01A0912C01B0912D012FBF79
:1004500080931B0190931C01A0931D01B0931E017A
:100460009091000180911F01409120014095C09121
:100470001A01C130A1F148F1C230C9F1C330F1F124
:100480008C2F90E001968370992780931A010115B3
:10049000110509F480CF0E9400007DCF1092200149
:1004A00080911F018F5F8C3318F480931F01AACFB6
:1004B00010921F01809100018F5F883118F48093A2
:1004C0000001A0CF109200019DCF892F6D2F0E94B7
:1004D000850240E0682F80E00E94FF00D1CF41708C
:1004E000892F6D2F0E948502692F81E0F5CF6D2F36
:1004F0000E94850240E0682F82E0EECF6D2F0E94BF
:10050000850240E0692F83E0E7CF991B79E004C0C2
:10051000991F961708F0961B881F7A95C9F7809542
:060520000895F894FFCFDE
:100526000C3F065B4F666D7D077F6FBF86DBCFE6B0
:0A053600EDFD87FFEFFEFDFBF7006F
:00000001FF
