:100000000C9462000C948A000C948A000C948A0070
:100010000C948A000C948A000C948A000C948A0038
:100020000C948A000C948A000C948A000C948A0028
:100030000C948A000C948A000C948A000C948A0018
:100040000C94BF020C948A000C942F030C940903A7
:100050000C948A000C948A000C948A000C948A00F8
:100060000C948A000C948A000000000024002700F1
:100070002A0000000000250028002B0000000000DE
:1000800023002600290004040404040404040202DA
:100090000202020203030303030301020408102007
:1000A0004080010204081020010204081020000012
:1000B0000008000201000003040700000000000027
:1000C0000000A60511241FBECFEFD8E0DEBFCDBFD4
:1000D00011E0A0E0B1E0EEECFBE002C005900D9273
:1000E000A434B107D9F722E0A4E4B1E001C01D9225
:1000F000A830B207E1F710E0C2E6D0E004C02197D3
:10010000FE010E94DF05C136D107C9F70E946103D5
:100110000C94E5050C940000833081F028F48130C4
:1001200099F08230A9F008958730A9F08830C9F09D
:100130008430B1F4809180008F7D03C08091800075
:100140008F7780938000089584B58F7784BD08955C
:1001500084B58F7DFBCF8091B0008F778093B00006
:1001600008958091B0008F7DF9CFCF93DF93282F32
:1001700030E0F901E255FF4F8491F901E656FF4F57
:10018000D491F901EA57FF4FC491CC23A1F081111A
:100190000E948C00EC2FF0E0EE0FFF1FE458FF4FA1
:1001A000A591B491EC91ED2381E090E009F480E019
:1001B000DF91CF91089580E090E0FACF1F93CF9325
:1001C000DF93282F30E0F901E255FF4F8491F901C8
:1001D000E656FF4FD491F901EA57FF4FC491CC2363
:1001E000A9F0162F81110E948C00EC2FF0E0EE0F89
:1001F000FF1FEE58FF4FA591B4918FB7F894EC9183
:10020000111108C0D095DE23DC938FBFDF91CF9111
:100210001F910895DE2BF8CFCF93DF9390E0FC0180
:10022000E656FF4F24918A579F4FFC018491882303
:10023000D1F090E0880F991FFC01E859FF4FA5917C
:10024000B491FC01EE58FF4FC591D491623071F426
:100250009FB7F8943C91822F809583238C93E881FB
:100260002E2B28839FBFDF91CF9108958FB7F894ED
:10027000EC912E2B2C938FBFF6CF2FB7F894609173
:100280006701709168018091690190916A012FBFA7
:100290000895AF92BF92CF92DF92EF92FF920F93A9
:1002A0001F93CF93DF936C017B018B01040F151F0C
:1002B000EB015E01AE18BF08C017D10759F0699174
:1002C000D601ED91FC910190F081E02DC6010995D8
:1002D000892B79F7C501DF91CF911F910F91FF9085
:1002E000EF90DF90CF90BF90AF900895FC01538DB9
:1002F000448D252F30E0842F90E0821B930B541700
:1003000010F0CF96089501970895FC01918D828D8C
:10031000981761F0A28DAE0FBF2FB11D5D968C9125
:10032000928D9F5F9F73928F90E008958FEF9FEF64
:100330000895FC01918D828D981731F0828DE80F20
:10034000F11D858D90E008958FEF9FEF0895FC01DA
:10035000918D228D892F90E0805C9F4F821B9109A7
:100360008F73992708958BE691E00E94A70121E001
:10037000892B09F420E0822F089580E090E0892BFA
:1003800029F00E94B30181110C9400000895FC0132
:10039000A48DA80FB92FB11DA35ABF4F2C91848DE6
:1003A00090E001968F739927848FA689B7892C9343
:1003B000A089B1898C91837080648C93938D848D96
:1003C000981306C00288F389E02D80818F7D808399
:1003D0000895EF92FF920F931F93CF93DF93EC0159
:1003E00081E0888F9B8D8C8D98131AC0E889F989DC
:1003F000808185FF15C09FB7F894EE89FF896083DF
:10040000E889F98980818370806480839FBF81E05F
:1004100090E0DF91CF911F910F91FF90EF900895A1
:10042000F62E0B8D10E00F5F1F4F0F731127E02E7C
:100430008C8D8E110CC00FB607FCFACFE889F989B4
:10044000808185FFF5CFCE010E94C701F1CFEB8DF2
:10045000EC0FFD2FF11DE35AFF4FF0829FB7F89488
:100460000B8FEA89FB8980818062CFCFCF93DF93A6
:10047000EC01888D8823B9F0AA89BB89E889F989BC
:100480008C9185FD03C0808186FD0DC00FB607FCF1
:10049000F7CF8C9185FFF2CF808185FFEDCFCE0124
:1004A0000E94C701E9CFDF91CF910895CF93DF93E9
:1004B000FC0101900020E9F73197AF01481B590B6F
:1004C000BC018BE691E00E944901EC0142E050E062
:1004D00061E371E08BE691E00E9449018C0F9D1F62
:1004E000DF91CF910895CF93DF93D82FC8E06D2F80
:1004F000661F6627661F88E00E94DE00DD0F61E050
:100500008AE00E94DE0060E08AE00E94DE00C150C6
:1005100071F7DF91CF9108951F93CF93DF93D82F79
:10052000C62F142F60E089E00E94DE008FEF0E944A
:10053000730280E00E94730261E089E00E94DE00A5
:1005400060E089E00E94DE00ED2FF0E0E55EFE4F06
:1005500080810E9473026C2F70E0112369F0605F4C
:100560007E4FFB0180810E94730261E089E0DF9190
:10057000CF911F910C94DE006B5F7E4FF2CF1F92E4
:100580000F920FB60F9211242F933F938F939F9347
:10059000AF93BF938091670190916801A091690129
:1005A000B0916A013091660123E0230F2D3758F591
:1005B0000196A11DB11D2093660180936701909360
:1005C0006801A0936901B0936A01809162019091E2
:1005D0006301A0916401B09165010196A11DB11D57
:1005E0008093620190936301A0936401B0936501CD
:1005F000BF91AF919F918F913F912F910F900FBE1F
:100600000F901F90189526E8230F0296A11DB11D8B
:10061000D2CF1F920F920FB60F9211242F933F93B8
:100620004F935F936F937F938F939F93AF93BF93FA
:10063000EF93FF938BE691E00E94C701FF91EF914A
:10064000BF91AF919F918F917F916F915F914F91EA
:100650003F912F910F900FBE0F901F9018951F92F2
:100660000F920FB60F9211242F938F939F93EF93B6
:10067000FF93E0917B01F0917C018081E091810109
:10068000F091820182FD1BC09081809184018F5F77
:100690008F7320918501821741F0E0918401F0E091
:1006A000E559FE4F958F80938401FF91EF919F91C3
:1006B0008F912F910F900FBE0F901F9018958081F2
:1006C000F4CF789484B5826084BD84B5816084BDA4
:1006D00085B5826085BD85B5816085BD80916E00E0
:1006E000816080936E001092810080918100826011
:1006F000809381008091810081608093810080914E
:1007000080008160809380008091B100846080933C
:10071000B1008091B00081608093B00080917A0038
:10072000846080937A0080917A00826080937A005E
:1007300080917A00816080937A0080917A0080684D
:1007400080937A001092C10061E088E00E940C0161
:1007500061E089E00E940C0161E08AE00E940C01E6
:1007600062E087E00E940C0162E086E00E940C01DA
:10077000E0917B01F0917C0182E08083E091770140
:10078000F09178011082E0917901F0917A018FEC7B
:10079000808310928301E0917F01F091800186E0D7
:1007A0008083E0917D01F0917E0180818061808372
:1007B000E0917D01F0917E01808188608083E091ED
:1007C0007D01F0917E01808180688083E0917D01D0
:1007D000F0917E0180818F7D808384E391E00E948F
:1007E00056028AE0B82EC0E0D0E002E010E0EE242D
:1007F000E394F12C0E943D0140905E0150905F0116
:10080000609060017090610164197509860997090B
:10081000683E73408105910590F00E943D01609310
:100820005E0170935F0180936001909361018091FC
:100830005D018F5F8C3308F03AC180935D010E94A7
:100840003D01409058015090590160905A017090BC
:100850005B01641975098609970964307105810582
:10086000910508F45DC00E943D01609358017093AA
:10087000590180935A0190935B012091500130916E
:1008800051012130310521F480914B01811126C1A4
:10089000809104016B2D0E94D305F82F2130310582
:1008A00021F480914B0181111BC1809104016B2DBA
:1008B0000E94D305E92F2230310521F480914B01AC
:1008C000811110C180915C016B2D0E94D305582FBE
:1008D0002230310529F480914B019AE0811105C045
:1008E00080915C016B2D0E94D30540915D01409584
:1008F000D090440181E0D81609F4FCC0D81608F461
:10090000F3C022E0D21609F4F9C083E0D81609F446
:10091000F9C08D2D90E00196837099278093440152
:1009200087E00E94B5006C01809100019091010167
:10093000C816D90651F00E943D016093470170939B
:1009400048018093490190934A010E943D014090E3
:100950004701509048016090490170904A01641924
:100960007509860997096233710581059105F8F0CB
:100970008091450190914601C816D906C1F0D092E8
:100980004601C0924501C114D10489F480915001FF
:10099000909151018130910509F4BDC008F4B6C0B1
:1009A000029709F4BDC08DE391E00E945602D092F7
:1009B0000101C09200010E943D0140904C01509005
:1009C0004D0160904E0170904F01641975098609C0
:1009D0009709643F71408105910580F080914B013A
:1009E00091E0892780934B010E943D0160934C0167
:1009F00070934D0180934E0190934F0186E00E94C9
:100A0000B5006C018091020190910301C816D906CE
:100A100051F00E943D016093540170935501809301
:100A20005601909357010E943D014090540150900F
:100A30005501609056017090570164197509860937
:100A40009709623371058105910510F1809152017A
:100A500090915301C816D906D9F0D0925301C09293
:100A60005201C114D104A1F480915001909151011F
:100A70008130910509F05CC0809104018F5F88315D
:100A800008F053C0809304018DE391E00E94560268
:100A9000D0920301C0920201209709F4ABCE0E94CC
:100AA000B301882309F4A6CE0E940000A3CE1092C1
:100AB0005D0180915C018F5F8C3318F480935C0141
:100AC000BECE10925C01809104018F5F883118F4D2
:100AD00080930401B4CE10920401B1CEFAE0E1CECD
:100AE000EAE0F0CE5AE0F7CE40E06F2F80E00E94BF
:100AF0008C020FCF41706E2F81E0F9CF40E0652F5F
:100B000082E0F5CF40E0692F83E0F1CFF092510110
:100B1000E092500148CF109351010093500143CF10
:100B200010925101109250013ECF10920401ACCFAF
:100B3000029709F0A9CF80915C018F5F8C3318F484
:100B400080935C01A1CF10925C019ECFEBE6F1E0B7
:100B50001382128288EE93E0A0E0B0E08483958354
:100B6000A683B78383E291E09183808385EC90E054
:100B70009587848784EC90E09787868780EC90E067
:100B8000918B808B81EC90E0938B828B82EC90E058
:100B9000958B848B86EC90E0978B868B118E128ED2
:100BA000138E148E0895991B79E004C0991F96172F
:100BB00008F0961B881F7A95C9F780950895EE0F67
:0E0BC000FF1F0590F491E02D0994F894FFCFEB
:100BCE00010001000C3F065B4F666D7D077F6F00D5
:100BDE00BF86DBCFE6EDFD87FFEF80FEFDFBF70066
:100BEE00000000E901490176013602A7018501994D
:100BFE00010D0A0053746172742E2E2E00436C691F
:040C0E00636B2100F3
:00000001FF
