:100000000C9462000C948A000C948A000C948A0070
:100010000C948A000C948A000C948A000C948A0038
:100020000C948A000C948A000C948A000C948A0028
:100030000C948A000C948A000C948A000C948A0018
:100040000C94BA020C948A000C942A030C940403B6
:100050000C948A000C948A000C948A000C948A00F8
:100060000C948A000C948A000000000024002700F1
:100070002A0000000000250028002B0000000000DE
:1000800023002600290004040404040404040202DA
:100090000202020203030303030301020408102007
:1000A0004080010204081020010204081020000012
:1000B0000008000201000003040700000000000027
:1000C0000000990511241FBECFEFD8E0DEBFCDBFE1
:1000D00011E0A0E0B1E0E4EBFBE002C005900D927E
:1000E000AC33B107D9F722E0ACE3B1E001C01D9217
:1000F000A030B207E1F710E0C2E6D0E004C02197DB
:10010000FE010E94D205C136D107C9F70E945C03E7
:100110000C94D8050C940000833081F028F48130D1
:1001200099F08230A9F008958730A9F08830C9F09D
:100130008430B1F4809180008F7D03C08091800075
:100140008F7780938000089584B58F7784BD08955C
:1001500084B58F7DFBCF8091B0008F778093B00006
:1001600008958091B0008F7DF9CFCF93DF93282F32
:1001700030E0F901E255FF4F8491F901E656FF4F57
:10018000D491F901EA57FF4FC491CC23A1F081111A
:100190000E948C00EC2FF0E0EE0FFF1FE458FF4FA1
:1001A000A591B491EC91ED2381E090E009F480E019
:1001B000DF91CF91089580E090E0FACF1F93CF9325
:1001C000DF93282F30E0F901E255FF4F8491F901C8
:1001D000E656FF4FD491F901EA57FF4FC491CC2363
:1001E000A9F0162F81110E948C00EC2FF0E0EE0F89
:1001F000FF1FEE58FF4FA591B4918FB7F894EC9183
:10020000111108C0D095DE23DC938FBFDF91CF9111
:100210001F910895DE2BF8CFCF93DF9390E0FC0180
:10022000E656FF4F24918A579F4FFC018491882303
:10023000D1F090E0880F991FFC01E859FF4FA5917C
:10024000B491FC01EE58FF4FC591D491623071F426
:100250009FB7F8943C91822F809583238C93E881FB
:100260002E2B28839FBFDF91CF9108958FB7F894ED
:10027000EC912E2B2C938FBFF6CF2FB7F894609173
:100280005F017091600180916101909162012FBFC7
:100290000895AF92BF92CF92DF92EF92FF920F93A9
:1002A0001F93CF93DF936C017B018B01040F151F0C
:1002B000EB015E01AE18BF08C017D10759F0699174
:1002C000D601ED91FC910190F081E02DC6010995D8
:1002D000892B79F7C501DF91CF911F910F91FF9085
:1002E000EF90DF90CF90BF90AF900895FC01538DB9
:1002F000448D252F30E0842F90E0821B930B541700
:1003000010F0CF96089501970895FC01918D828D8C
:10031000981761F0A28DAE0FBF2FB11D5D968C9125
:10032000928D9F5F9F73928F90E008958FEF9FEF64
:100330000895FC01918D828D981731F0828DE80F20
:10034000F11D858D90E008958FEF9FEF0895FC01DA
:10035000918D228D892F90E0805C9F4F821B9109A7
:100360008F739927089583E691E00E94A70121E009
:10037000892B09F420E0822F089580E090E0892BFA
:1003800029F00E94B30181110C9400000895FC0132
:10039000A48DA80FB92FB11DA35ABF4F2C91848DE6
:1003A00090E001968F739927848FA689B7892C9343
:1003B000A089B1898C91837080648C93938D848D96
:1003C000981306C00288F389E02D80818F7D808399
:1003D0000895EF92FF920F931F93CF93DF93EC0159
:1003E00081E0888F9B8D8C8D98131AC0E889F989DC
:1003F000808185FF15C09FB7F894EE89FF896083DF
:10040000E889F98980818370806480839FBF81E05F
:1004100090E0DF91CF911F910F91FF90EF900895A1
:10042000F62E0B8D10E00F5F1F4F0F731127E02E7C
:100430008C8D8E110CC00FB607FCFACFE889F989B4
:10044000808185FFF5CFCE010E94C701F1CFEB8DF2
:10045000EC0FFD2FF11DE35AFF4FF0829FB7F89488
:100460000B8FEA89FB8980818062CFCFCF93DF93A6
:10047000EC01888D8823B9F0AA89BB89E889F989BC
:100480008C9185FD03C0808186FD0DC00FB607FCF1
:10049000F7CF8C9185FFF2CF808185FFEDCFCE0124
:1004A0000E94C701E9CFDF91CF910895CF93DF93E9
:1004B000D82FC8E06D2F661F6627661F88E00E9450
:1004C000DE00DD0F61E08AE00E94DE0060E08AE08D
:1004D0000E94DE00C15071F7DF91CF9108951F9304
:1004E000CF93DF93D82FC62F142F60E089E00E94AE
:1004F000DE008FEF0E94560280E00E94560261E00B
:1005000089E00E94DE0060E089E00E94DE00ED2FBD
:10051000F0E0E55EFE4F80810E9456026C2F70E095
:10052000112369F0605F7E4FFB0180810E945602BB
:1005300061E089E0DF91CF911F910C94DE006B5F49
:100540007E4FF2CFCF93DF9346E050E061E371E05E
:1005500083E691E00E944901EC0142E050E068E34B
:1005600071E083E691E00E9449018C0F9D1FDF91AD
:10057000CF9108951F920F920FB60F9211242F93CF
:100580003F938F939F93AF93BF9380915F0190911F
:100590006001A0916101B091620130915E0123E0A0
:1005A000230F2D3758F50196A11DB11D20935E0133
:1005B00080935F0190936001A0936101B093620109
:1005C00080915A0190915B01A0915C01B0915D0115
:1005D0000196A11DB11D80935A0190935B01A093D8
:1005E0005C01B0935D01BF91AF919F918F913F915D
:1005F0002F910F900FBE0F901F90189526E8230F94
:100600000296A11DB11DD2CF1F920F920FB60F926D
:1006100011242F933F934F935F936F937F938F9307
:100620009F93AF93BF93EF93FF9383E691E00E9474
:10063000C701FF91EF91BF91AF919F918F917F91F2
:100640006F915F914F913F912F910F900FBE0F903F
:100650001F9018951F920F920FB60F9211242F938F
:100660008F939F93EF93FF93E0917301F091740147
:100670008081E0917901F0917A0182FD1BC0908127
:1006800080917C018F5F8F7320917D01821741F0F3
:10069000E0917C01F0E0ED59FE4F958F80937C0155
:1006A000FF91EF919F918F912F910F900FBE0F901F
:1006B0001F9018958081F4CF789484B5826084BDB2
:1006C00084B5816084BD85B5826085BD85B5816056
:1006D00085BD80916E00816080936E0010928100D4
:1006E000809181008260809381008091810081608F
:1006F0008093810080918000816080938000809150
:10070000B10084608093B1008091B00081608093DB
:10071000B00080917A00846080937A0080917A00A2
:10072000826080937A0080917A00816080937A0061
:1007300080917A00806880937A001092C10061E015
:1007400088E00E940C0161E089E00E940C0161E0F8
:100750008AE00E940C0162E087E00E940C0162E0E6
:1007600086E00E940C01E0917301F091740182E037
:100770008083E0916F01F09170011082E09171012E
:10078000F09172018FEC808310927B01E0917701F0
:10079000F091780186E08083E0917501F091760117
:1007A000808180618083E0917501F0917601808184
:1007B00088608083E0917501F09176018081806886
:1007C0008083E0917501F091760180818F7D808337
:1007D0008AE0B82EC0E0D0E002E010E0EE24E3941E
:1007E000F12C0E943D0140905601509057016090BD
:1007F0005801709059016419750986099709683E76
:1008000073408105910590F00E943D01609356016F
:10081000709357018093580190935901809155012D
:100820008F5F8C3308F036C1809355010E943D01E3
:1008300040905001509051016090520170905301CE
:100840006419750986099709643071058105910558
:1008500008F45DC00E943D01609350017093510106
:1008600080935201909353012091480130914901A6
:100870002130310521F480914301811122C1809101
:1008800004016B2D0E94C605F82F2130310521F49B
:1008900080914301811117C1809104016B2D0E9449
:1008A000C605E92F2230310521F4809143018111E1
:1008B0000CC1809154016B2D0E94C605582F223027
:1008C000310529F4809143019AE0811105C080919E
:1008D00054016B2D0E94C605409155014095D09062
:1008E0003C0181E0D81609F4F8C0D81608F4EFC02E
:1008F00022E0D21609F4F5C083E0D81609F4F5C059
:100900008D2D90E001968370992780933C0187E0BC
:100910000E94B5006C018091000190910101C81600
:10092000D90651F00E943D0160933F017093400150
:1009300080934101909342010E943D0140903F010C
:100940005090400160904101709042016419750916
:10095000860997096233710581059105E8F0809158
:100960003D0190913E01C816D906B1F0D0923E01EA
:10097000C0923D01C114D10479F480914801909155
:1009800049018130910509F4B9C008F4B2C0029759
:1009900009F4B9C00E94A202D0920101C0920001E4
:1009A0000E943D01409044015090450160904601F5
:1009B000709047016419750986099709643F714071
:1009C0008105910580F08091430191E08927809312
:1009D00043010E943D01609344017093450180935F
:1009E00046019093470186E00E94B5006C0180911A
:1009F000020190910301C816D90651F00E943D01F1
:100A000060934C0170934D0180934E0190934F0180
:100A10000E943D0140904C0150904D0160904E016C
:100A200070904F0164197509860997096233710541
:100A30008105910500F180914A0190914B01C81602
:100A4000D906C9F0D0924B01C0924A01C114D10419
:100A500091F480914801909149018130910509F00C
:100A60005AC0809104018F5F883108F051C0809393
:100A700004010E94A202D0920301C09202012097B9
:100A800009F4AFCE0E94B301882309F4AACE0E94D4
:100A90000000A7CE10925501809154018F5F8C33D6
:100AA00018F480935401C2CE109254018091040135
:100AB0008F5F883118F480930401B8CE109204013E
:100AC000B5CEFAE0E5CEEAE0F4CE5AE0FBCE40E067
:100AD0006F2F80E00E946F0213CF41706E2F81E074
:100AE000F9CF40E0652F82E0F5CF40E0692F83E049
:100AF000F1CFF0924901E09248014CCF10934901A7
:100B00000093480147CF109249011092480142CF0B
:100B100010920401AECF029709F0ABCF809154013F
:100B20008F5F8C3318F480935401A3CF109254013B
:100B3000A0CFE3E6F1E01382128288EE93E0A0E01A
:100B4000B0E084839583A683B78383E291E09183A9
:100B5000808385EC90E09587848784EC90E097878C
:100B6000868780EC90E0918B808B81EC90E0938B7A
:100B7000828B82EC90E0958B848B86EC90E0978B57
:100B8000868B118E128E138E148E0895991B79E028
:100B900004C0991F961708F0961B881F7A95C9F70D
:100BA00080950895EE0FFF1F0590F491E02D0994B4
:040BB000F894FFCFE7
:100BB400010001000C3F065B4F666D7D077F6F00EF
:100BC400BF86DBCFE6EDFD87FFEF80FEFDFBF70080
:100BD400000000E901490176013602A70185019967
:0C0BE40001436C69636B21000D0A0000E6
:00000001FF
