:100000000C9468000C9490000C9490000C94900058
:100010000C9490000C9490000C9490000C94900020
:100020000C9490000C9490000C9490000C94900010
:100030000C9490000C9490000C9490000C94900000
:100040000C941B060C9490000C948B060C94650683
:100050000C9490000C9490000C9490000C949000E0
:100060000C9490000C9490000000000024002700E5
:100070002A0000000000250028002B0000000000DE
:1000800023002600290004040404040404040202DA
:100090000202020203030303030301020408102007
:1000A0004080010204081020010204081020000012
:1000B0000008000201000003040700000000000027
:1000C00000001F1C1F1E1F1E1F1F1E1F1E1FBD0600
:1000D00011241FBECFEFD8E0DEBFCDBF22E0ACECD5
:1000E000B1E001C01D92A03AB207E1F711E0A0E033
:1000F000B1E0EEE8FBE102C005900D92AC3CB10727
:10010000D9F710E0C8E6D0E004C02197FE010E94B4
:10011000CD0BC736D107C9F70E94F6060C94C50D62
:100120000C940000833081F028F4813099F0823003
:10013000A9F008958730A9F08830C9F08430B1F46F
:10014000809180008F7D03C0809180008F778093A5
:100150008000089584B58F7784BD089584B58F7D20
:10016000FBCF8091B0008F778093B000089580918D
:10017000B0008F7DF9CFCF93DF93282F30E0F901C6
:10018000E255FF4F8491F901E656FF4FD491F901F2
:10019000EA57FF4FC491CC23A1F081110E94920035
:1001A000EC2FF0E0EE0FFF1FE458FF4FA591B49144
:1001B000EC91ED2381E090E009F480E0DF91CF91B4
:1001C000089580E090E0FACF1F93CF93DF93282F1C
:1001D00030E0F901E255FF4F8491F901E656FF4FF7
:1001E000D491F901EA57FF4FC491CC23A9F0162FFF
:1001F00081110E949200EC2FF0E0EE0FFF1FEE58ED
:10020000FF4FA591B4918FB7F894EC91111108C0EC
:10021000D095DE23DC938FBFDF91CF911F9108959E
:10022000DE2BF8CFCF93DF9390E0FC01E656FF4F33
:1002300024918A579F4FFC0184918823C9F090E054
:10024000880F991FFC01E859FF4FA591B491FC015B
:10025000EE58FF4FC591D49161110DC09FB7F8942E
:100260008C91209582238C938881282328839FBF9B
:10027000DF91CF910895623051F49FB7F8943C918B
:10028000822F809583238C93E8812E2BEFCF8FB71D
:10029000F894EC912E2B2C938FBFEACF2FB7F894C4
:1002A0006091F6017091F7018091F8019091F90148
:1002B0002FBF0895AF92BF92CF92DF92EF92FF923D
:1002C0000F931F93CF93DF936C017B018B01040F7E
:1002D000151FEB015E01AE18BF08C017D10759F01A
:1002E0006991D601ED91FC910190F081E02DC6015C
:1002F0000995892B79F7C501DF91CF911F910F9156
:10030000FF90EF90DF90CF90BF90AF900895FC01E9
:10031000538D448D252F30E0842F90E0821B930B6A
:10032000541710F0CF96089501970895FC01918D10
:10033000828D981761F0A28DAE0FBF2FB11D5D9613
:100340008C91928D9F5F9F73928F90E008958FEFB5
:100350009FEF0895FC01918D828D981731F0828D69
:10036000E80FF11D858D90E008958FEF9FEF0895C0
:10037000FC01918D228D892F90E0805C9F4F821B24
:1003800091098F73992708958AEF91E00E94B8012F
:1003900021E0892B09F420E0822F089580E090E08D
:1003A000892B29F00E94C40181110C94000008954A
:1003B000FC01A48DA80FB92FB11DA35ABF4F2C91DA
:1003C000848D90E001968F739927848FA689B789D1
:1003D0002C93A089B1898C91837080648C93938DC8
:1003E000848D981306C00288F389E02D80818F7D6B
:1003F00080830895EF92FF920F931F93CF93DF9323
:10040000EC0181E0888F9B8D8C8D98131AC0E88950
:10041000F989808185FF15C09FB7F894EE89FF891F
:100420006083E889F98980818370806480839FBFBD
:1004300081E090E0DF91CF911F910F91FF90EF90BD
:100440000895F62E0B8D10E00F5F1F4F0F731127CD
:10045000E02E8C8D8E110CC00FB607FCFACFE88908
:10046000F989808185FFF5CFCE010E94D801F1CFB7
:10047000EB8DEC0FFD2FF11DE35AFF4FF0829FB77C
:10048000F8940B8FEA89FB8980818062CFCFCF936C
:10049000DF93EC01888D8823B9F0AA89BB89E889AC
:1004A000F9898C9185FD03C0808186FD0DC00FB652
:1004B00007FCF7CF8C9185FFF2CF808185FFEDCFD0
:1004C000CE010E94D801E9CFDF91CF91089560E07D
:1004D0000E94E4008BE090E00197F1F708958EBD53
:1004E00000000DB407FEFDCF8EB508951F93CF9386
:1004F000DF93D82FC62F142F60E089E00E94E4001C
:100500008FEF0E946F0280E00E946F0261E089E03D
:100510000E94E40060E089E00E94E400ED2FF0E03A
:10052000EE5DFE4F80810E946F026C2F70E0112300
:1005300069F0695E7E4FFB0180810E946F0261E07D
:1005400089E0DF91CF911F910C94E400645F7E4FAE
:10055000F2CF42E050E06CE371E08AEF91E00C945E
:100560005A01CF93DF93FC0101900020E9F7319706
:10057000AF01481B590BBC018AEF91E00E945A0160
:10058000EC010E94A9028C0F9D1FDF91CF9108956D
:10059000CF93DF93FC0144815581608171818AEFA3
:1005A00091E00E945A01EC010E94A9028C0F9D1F4C
:1005B000DF91CF910895FC0180819181009711F026
:1005C0000C946F0C08950F931F93CF93DF93EC015E
:1005D00088819981009759F02A813B812617370736
:1005E00030F081E0DF91CF911F910F9108958B0141
:1005F0006F5F7F4F0E94F80C009759F099838883B2
:100600001B830A832C813D81232B59F7FC01108227
:10061000E8CF80E0E7CFEF92FF920F931F93CF9345
:10062000DF93EC01FB01E080F180E114F10411F1B2
:100630000481158101151105A9F08C819D81080F98
:10064000191FB801CE010E94E302882399F0288186
:1006500039818C819D81B701820F931F0E94BE0D4D
:100660001D830C83CE01DF91CF911F910F91FF90DD
:10067000EF90089588819981009711F00E946F0C86
:10068000198218821D821C821B821A82EBCFEF9284
:10069000FF920F931F93CF93DF93EC017B018A01AD
:1006A000BA010E94E30228813981811114C0211509
:1006B000310519F0C9010E946F0C198218821D8240
:1006C0001C821B821A82CE01DF91CF911F910F9164
:1006D000FF90EF9008951D830C83B701C9010E941C
:1006E000BE0DF1CFEF92FF920F931F93CF93DF9345
:1006F000CDB7DEB762970FB6F894DEBF0FBECDBFA1
:100700008C01CB01F80111821082138212821582B2
:1007100014824AE09E012F5F3F4F7901B9010E9488
:100720002D0BF70101900020E9F73197AF014E1929
:100730005F09B701C8010E94470362960FB6F8949B
:10074000DEBF0FBECDBFDF91CF911F910F91FF9004
:10075000EF900895FC01118210821382128215829B
:100760001482FB0101900020E9F73197AF01461B8D
:10077000570B0C944703FB01DC0111961C921E924F
:1007800013961C921E92129715961C921E92149705
:100790008617970749F0608171816115710521F015
:1007A000448155810C9447030895EF92FF921F9363
:1007B000CF93DF937C01D0E0C0E010E0F7018081AF
:1007C0000E94BB000C2E01C0880F0A94EAF7182B78
:1007D00061E0F70181810E94E40060E0F70181811E
:1007E0000E94E4002196C830D10541F7812FDF91A6
:1007F000CF911F91FF90EF900895FF920F931F9359
:10080000CF93DF938C01D62FF42EC0E06D2F617053
:10081000F80180810E94E40061E0F80181810E947A
:10082000E400C73039F4FF2029F060E0F80180814E
:100830000E94120160E0F80181810E94E400D695D7
:10084000CF5FC83019F7DF91CF911F910F91FF90C3
:1008500008951F93CF93DF93EC01162F60E08A81F8
:100860000E94E40061E08A810E94120160E08981B7
:100870000E94E40061E089810E94120161E08881A8
:100880000E94120161E08A810E94E4008BE090E006
:100890000197F1F7412F4170612FCE01DF91CF9188
:1008A0001F910C94FD031F93CF93DF93EC016EEB2C
:1008B00080919702909198020E9429042D811AE05C
:1008C000822F612F0E94990B682F660F680F660FA9
:1008D000620F40E080919702909198020E94FD0380
:1008E0002C81822F612F0E94990B682F660F680F51
:1008F000660F620F40E080919702909198020E94EB
:10090000FD032B81822F612F0E94990B682F660FA8
:10091000680F660F620F40E08091970290919802F5
:100920000E94FD032A81822F612F0E94990B682F5C
:10093000660F680F660F620F40E0809197029091FA
:1009400098020E94FD032981822F612F0E94990B3A
:10095000682F660F680F660F620F40E08091970264
:10096000909198020E94FD0369819881492F50E07F
:100970008A81282F30E0E2ECF0E081E0861730F445
:100980007491270F311D8F5F3196F8CF633020F0BF
:10099000937011F42F5F3F4F6DE671E0469FC001E9
:1009A000479F900D569F900D112405964D5F5F4F08
:1009B0005695479556954795840F951F820F931F1F
:1009C00067E070E00E94A50B682F811101C067E00D
:1009D00040E080919702909198020E94FD03288147
:1009E000822F6AE00E94990B682F660F680F660FCE
:1009F000620F40E080919702909198020E94FD035F
:100A000040E060E080919702909198020E94FD037F
:100A1000E0919702F09198028281DF91CF911F912E
:100A20000C946702CF92DF92EF92FF920F931F9385
:100A3000CF93DF9300D000D000D0CDB7DEB76FEBFF
:100A400080919702909198020E94290480919702C8
:100A5000909198020E94D5038F77282F30E0F4E020
:100A600035952795FA95E1F7922F990F990F022F57
:100A7000091B000F080F80919702909198020E9425
:100A8000D503282F30E0A4E035952795AA95E1F706
:100A9000922F990F990FF22EF91AFF0CF80E8091F0
:100AA0009702909198020E94D50386FF77C0982FF5
:100AB0009F71292F30E0E4E035952795EA95E1F71D
:100AC000322F330F330F122F131B110F190F85FD08
:100AD000145F80919702909198020E94D503282F6D
:100AE00030E094E0359527959A95E1F7922F990F8C
:100AF000990FE22EE91AEE0CE80E80919702909180
:100B000098020E94D503282F30E044E035952795C0
:100B10004A95E1F7922F990F990FD22ED91ADD0C31
:100B2000D80E80919702909198020E94D5038091EF
:100B30009702909198020E94D503482F50E064E0FC
:100B4000559547956A95E1F7942F990F990FC42E03
:100B5000C91ACC0CC80E80919702909198020E94FD
:100B6000D503E0919702F091980282810E9467027A
:100B700096014E2D512F6F2D702F80E090E026961C
:100B80000FB6F894DEBF0FBECDBFDF91CF911F919E
:100B90000F91FF90EF90DF90CF900895282F30E0D5
:100BA00074E0359527957A95E1F7922F990F990F73
:100BB000122F191B110F180F8CCFCF93DF9300D07A
:100BC00000D000D0CDB7DEB70E941205852F90E08F
:100BD0009093050180930401862F90E09093EA01A1
:100BE0008093E901872F90E09093EC018093EB01D3
:100BF00026960FB6F894DEBF0FBECDBFDF91CF9122
:100C00000895CF93682F6160809197029091980228
:100C10000E94290480919702909198020E94D50326
:100C2000C82FE0919702F091980282810E9467029A
:100C30008C2FCF9108951F920F920FB60F9211240F
:100C40002F933F938F939F93AF93BF938091F60120
:100C50009091F701A091F801B091F9013091F5015F
:100C600023E0230F2D3758F50196A11DB11D2093C8
:100C7000F5018093F6019093F701A093F801B093EA
:100C8000F9018091F1019091F201A091F301B091ED
:100C9000F4010196A11DB11D8093F1019093F20121
:100CA000A093F301B093F401BF91AF919F918F9105
:100CB0003F912F910F900FBE0F901F90189526E82F
:100CC000230F0296A11DB11DD2CF1F920F920FB616
:100CD0000F9211242F933F934F935F936F937F93C2
:100CE0008F939F93AF93BF93EF93FF938AEF91E01E
:100CF0000E94D801FF91EF91BF91AF919F918F9189
:100D00007F916F915F914F913F912F910F900FBE07
:100D10000F901F9018951F920F920FB60F921124EB
:100D20002F938F939F93EF93FF93E0910A02F0919B
:100D30000B028081E0911002F091110282FD1BC034
:100D40009081809113028F5F8F732091140282171C
:100D500041F0E0911302F0E0E650FE4F958F809352
:100D60001302FF91EF919F918F912F910F900FBEE2
:100D70000F901F9018958081F4CFEAEFF1E0138275
:100D8000128288EE93E0A0E0B0E084839583A6838E
:100D9000B7838EE291E09183808385EC90E0958724
:100DA000848784EC90E09787868780EC90E0918B35
:100DB000808B81EC90E0938B828B82EC90E0958B22
:100DC000848B86EC90E0978B868B118E128E138E1F
:100DD000148EE9E9F2E086E0808385E0818387E094
:100DE0008283F0939802E09397020895CF93DF9364
:100DF000CDB7DEB768970FB6F894DEBF0FBECDBF94
:100E0000789484B5826084BD84B5816084BD85B5E5
:100E1000826085BD85B5816085BD80916E008160F1
:100E200080936E0010928100809181008260809397
:100E30008100809181008160809381008091800099
:100E40008160809380008091B10084608093B100C4
:100E50008091B00081608093B00080917A008460BE
:100E600080937A0080917A00826080937A008091EA
:100E70007A00816080937A0080917A008068809304
:100E80007A001092C100E0910A02F0910B0282E018
:100E90008083E0910602F09107021082E09108023F
:100EA000F09109028FEC808310921202E0910E0201
:100EB000F0910F0286E08083E0910C02F0910D0228
:100EC000808180618083E0910C02F0910D0280812D
:100ED00088608083E0910C02F0910D02808180682F
:100EE0008083E0910C02F0910D0280818F7D8083E0
:100EF00061E089E00E94120162E08CE00E94120130
:100F000062E08AE00E9412011FB7F8948091CC0140
:100F1000811127C0E0E9F0E08491E4EAF0E09491E7
:100F2000E82FF0E0EE0FFF1FE859FF4FA591B491B5
:100F3000EC91E92321F461E08AE00E94E40061E0A1
:100F40008AE00E9412018CB580618CBD8CB58064F2
:100F50008CBD61E08DE00E94120161E08BE00E9497
:100F600012018091CC018F5F8093CC011FBF80E57F
:100F70008CBD81E08DBD009197021091980260E0D8
:100F8000F80181810E94120160E0F80180810E94D5
:100F9000120160E0F80182810E94120189E18B8BCD
:100FA00086E08C8B85E08D8B80E18E8B8CE28F8B45
:100FB000188E0E94120529833A834B835C836D83CC
:100FC0007E838FEF830F8C3008F461C28FE391E052
:100FD0000E94B102CE0143960E9453048EE80E9403
:100FE000010687FF1FC08DE491E00E94B1028EE8E8
:100FF0000E940106182F6EE8809197029091980246
:101000000E942904612F6F7740E0809197029091B0
:1010100098020E94FD03E0919702F091980282816C
:101020000E94670280E80E94010687FF1FC08BE7CD
:1010300091E00E94B10280E80E940106182F60E84A
:1010400080919702909198020E942904612F6F77F6
:1010500040E080919702909198020E94FD03E091F8
:101060009702F091980282810E9467020E94DD053A
:101070006091040170910501CE0101960E947203F6
:1010800066EA71E0CE010D960E94AA03BE01635F7D
:101090007F4FCE0107960E94BB03BE016F5F7F4F5B
:1010A000CE0107960E940B030E94C802CE0107964C
:1010B0000E94DB02CE010D960E94DB02CE0101965A
:1010C0000E94DB026091E9017091EA01CE01019674
:1010D0000E9472036FEA71E0CE010D960E94AA038E
:1010E000BE01635F7F4FCE0107960E94BB03BE0126
:1010F0006F5F7F4FCE0107960E940B030E94C802CC
:10110000CE0107960E94DB02CE010D960E94DB0203
:10111000CE0101960E94DB026091EB017091EC011F
:10112000CE0101960E9472036AEB71E0CE010D962A
:101130000E94AA03BE01635F7F4FCE0107960E9403
:10114000BB03BE016F5F7F4FCE0107960E940B036A
:101150000E94C802CE0107960E94DB02CE010D96C6
:101160000E94DB02CE0101960E94DB028AE0E82E9B
:10117000F12C90E0692E90E0792E22E0A22EB12C85
:1011800088248394912C0E944E0160367A4E81050A
:10119000910508F4BAC10E94DD050E944E0100913C
:1011A000E5011091E6012091E7013091E801601B13
:1011B000710B820B930B633071058105910508F467
:1011C0001AC10E944E016093E5017093E60180937D
:1011D000E7019093E8010091D4011091D50101300D
:1011E000110521F48091DC018111E1C1809104019C
:1011F00090910501B7010E94B90BE62F013011054E
:1012000021F48091DC018111D4C18091040190917D
:101210000501B7010E94B90B382F0230110521F4E6
:101220008091DC018111C7C18091E9019091EA01AF
:10123000B7010E94B90B262F0230110529F48091C5
:10124000DC016AE0811108C08091E9019091EA0116
:10125000B7010E94B90B682F8091EB019091EC01CE
:10126000AC0140955095D090CD01F2E0DF1609F425
:10127000B9C1FD1508F4A1C1DD2009F4ADC121E01B
:101280004170632F81E0D21609F4A9C18D2D90E041
:101290000196877099278093CD018CE00E94BB0056
:1012A0006C018091000190910101C816D90651F09E
:1012B0000E944E016093D0017093D1018093D201BE
:1012C0009093D3010E944E012091D0013091D10121
:1012D0004091D2015091D301621B730B840B950B8B
:1012E0006233710581059105E0F08091CE01909106
:1012F000CF01C816D906A9F0D092CF01C092CE0175
:10130000C114D10471F40130110509F47DC108F450
:1013100076C10230110509F47CC185EC91E00E9490
:10132000B102D0920101C09200018AE00E94BB008C
:101330008C0180910201909103010817190751F067
:101340000E944E016093D8017093D9018093DA0115
:101350009093DB010E944E012091D8013091D90178
:101360004091DA015091DB01621B730B840B950BEA
:101370006233710581059105D0F18091D60190917C
:10138000D7010817190799F11093D7010093D601D7
:101390000115110561F50E941205E72F2F8338878B
:1013A00049875A876B877C878091D4019091D501BA
:1013B0008130910509F037C1852F90E00196883181
:1013C00091050CF02BC1909305018093040180914D
:1013D000040129833A834B838C836D83EE83CE0192
:1013E00001960E94530485EC91E00E94B102109393
:1013F0000301009302010E944E010091E10110914E
:10140000E2012091E3013091E401601B710B820B3A
:10141000930B683C71058105910568F10E944E01AE
:101420006093E1017093E2018093E3019093E40102
:101430000E944E010091DD011091DE012091DF013B
:101440003091E001601B710B820B930B643F714084
:101450008105910580F08091DC0191E089278093DE
:10146000DC010E944E016093DD017093DE018093E8
:10147000DF019093E0016114710409F484CE0E94AD
:10148000C401882309F47FCE0E9400007CCE8FEF38
:10149000840F8F3108F09ACD583108F097CD6C3316
:1014A00008F094CD7C3308F091CD323001F54E3107
:1014B00008F08CCD4D3109F091CD30E02053384FFC
:1014C000C90183709927892B09F080CDC90164E691
:1014D00070E00E94A50B892B09F080CDC90160E95D
:1014E00071E00E94A50B892B09F070CD77CD4F31AB
:1014F00009F074CD432F4150550BCA0167E070E0ED
:101500000E94B90B80FF6ACD61CD0E944E0100910F
:10151000ED011091EE012091EF013091F001601B7F
:10152000710B820B930B683E73408105910508F4A3
:1015300034CE0E944E016093ED017093EE018093D2
:10154000EF019093F0018091EB019091EC010196F5
:101550008C3391052CF49093EC018093EB011DCE1C
:101560001092EC011092EB018091E9019091EA0157
:1015700001968C3391052CF49093EA018093E90154
:101580000CCE1092EA011092E90180910401909131
:1015900005010196883191052CF490930501809303
:1015A0000401FBCD1092050110920401F6CDEAE092
:1015B00028CE3AE039CE2AE042CE44E0D416C9F033
:1015C000D416A0F055E0D51261CEB7010E94B90B38
:1015D00040E0682F85E003C040E06E2F80E00E946D
:1015E000760254CE40E0622F82E0F9CF40E083E003
:1015F000F6CFB7010E94B90B40E084E0F0CF9092A3
:10160000D5018092D40189CEB092D501A092D401A7
:1016100084CE1092D5011092D4017FCE1092050194
:1016200010920401D4CE029709F0DDCE70E06F5F16
:101630007F4F6C33710564F47093EA016093E901A4
:101640008091E90129833A834B835C838D83C6CEE5
:101650001092EA011092E901F3CFBB274A3031F42E
:10166000992322F4BDE2909581959F4F0C94390BFC
:10167000BB27FB015527AA27880F991FAA1FA4176C
:1016800010F0A41B83955051B9F7A05DAA3308F060
:10169000A95DA193009779F7B111B1931192CB0194
:1016A0000C94520BDC01FC01672F71917723E1F759
:1016B000329704C07C916D9370836291AE17BF071F
:1016C000C8F308952F923F924F925F926F927F924C
:1016D0008F929F92AF92BF92CF92DF92EF92FF9242
:1016E0000F931F93CF93DF93CDB7DEB7CA1BDB0BEE
:1016F0000FB6F894DEBF0FBECDBF09942A88398893
:1017000048885F846E847D848C849B84AA84B98499
:10171000C884DF80EE80FD800C811B81AA81B981A5
:10172000CE0FD11D0FB6F894DEBF0FBECDBFED01B9
:101730000895991B79E004C0991F961708F0961B2D
:10174000881F7A95C9F780950895AA1BBB1B51E1A4
:1017500007C0AA1FBB1FA617B70710F0A61BB70B21
:10176000881F991F5A95A9F780959095BC01CD01C6
:10177000089597FB072E16F4009407D077FD09D043
:101780000E94A50B07FC05D03EF4909581959F4FD4
:101790000895709561957F4F0895EE0FFF1F059096
:1017A000F491E02D09940F931F93CF93DF93823030
:1017B000910510F482E090E0E0919E02F0919F028A
:1017C00030E020E0B0E0A0E0309799F42115310539
:1017D00009F44AC0281B390B24303105D8F58A8119
:1017E0009B816115710589F1FB0193838283FE0161
:1017F00011C0408151810281138148175907E0F0DF
:101800004817590799F4109761F012960C931297A4
:1018100013961C933296CF01DF91CF911F910F91B8
:10182000089500939E0210939F02F4CF2115310575
:1018300051F04217530738F0A901DB019A01BD01AD
:10184000DF01F801C1CFEF01F9CF90939F028093A0
:101850009E02CDCFFE01E20FF31F819391932250A0
:10186000310939832883D7CF20919C0230919D0282
:10187000232B41F4209108013091090130939D02FE
:1018800020939C022091060130910701211531051A
:1018900041F42DB73EB740910A0150910B01241B32
:1018A000350BE0919C02F0919D02E217F307A0F442
:1018B0002E1B3F0B2817390778F0AC014E5F5F4FA6
:1018C0002417350748F04E0F5F1F50939D02409339
:1018D0009C02819391939FCFF0E0E0E09CCFCF9367
:1018E000DF930097E9F0FC01329713821282A091F6
:1018F0009E02B0919F02ED0130E020E01097A1F42C
:1019000020813181820F931F20919C0230919D0292
:101910002817390709F061C0F0939D02E0939C02FB
:10192000DF91CF910895EA01CE17DF07E8F54A81EC
:101930005B819E0141155105B1F7E901FB83EA8303
:1019400049915991C40FD51FEC17FD0761F48081AF
:1019500091810296840F951FE90199838883828182
:1019600093819B838A83F0E0E0E012968D919C91B5
:1019700013970097B9F52D913C911197CD010296DF
:10198000820F931F20919C0230919D0228173907E6
:1019900039F6309751F510929F0210929E02B09343
:1019A0009D02A0939C02BCCFD383C283408151810E
:1019B000840F951FC817D90761F44E5F5F4F888168
:1019C0009981480F591F518340838A819B8193835A
:1019D00082832115310509F0B0CFF0939F02E09387
:1019E0009E029ECFFD01DC01C0CF13821282D7CFB1
:1019F000B0E0A0E0EEEFFCE00C94640B8C010097EB
:101A000051F4CB010E94D30B8C01C801CDB7DEB7D6
:101A1000E0E10C94800BFC01E60FF71F9C012250C3
:101A20003109E217F30708F49DC0D901CD91DC918B
:101A30001197C617D70798F0C530D10530F3CE01FE
:101A400004978617970708F3C61BD70B2297C193F5
:101A5000D1936D937C93CF010E946F0CD6CF5B0125
:101A6000AC1ABD0A4C018C0E9D1EA0919E02B09135
:101A70009F02512C412CF12CE12C109731F58091D3
:101A80009C0290919D028815990509F05CC046164C
:101A9000570608F058C08091060190910701009701
:101AA00041F48DB79EB740910A0150910B01841B00
:101AB000950BE817F90708F055C0F0939D02E093E5
:101AC0009C02F90171836083A0CF8D919C91119745
:101AD00012966C90129713967C901397A815B905DF
:101AE00059F56C0142E0C40ED11CCA14DB0420F18C
:101AF000AC014A195B09DA011296159780F06282EF
:101B0000738251834083D9016D937C93E114F10476
:101B100071F0D7011396FC93EE93129776CF22962D
:101B20008C0F9D1FF90191838083F301EFCFF09318
:101B30009F02E0939E0269CF4816590608F42C01D3
:101B40007D01D3019ACFCB010E94D30B7C0100977A
:101B500049F0AE01B8010E94B50DC8010E946F0C9A
:101B6000870153CF10E000E050CFFB01DC0102C041
:101B700001900D9241505040D8F70895FB01DC01CF
:0E1B800001900D920020E1F70895F894FFCF38
:101B8E00010001000C000000A00280003F065B4F28
:101B9E00666D7D077F6F00BF86DBCFE6EDFD87FFAD
:101BAE00EF80FEFDFBF7EFDFBF7F00000000FA01C4
:101BBE005A0187014702B8019601AA010D0A005287
:101BCE005443206C6F73742074696D6500525443D6
:101BDE00207761732077726974652070726F7465F7
:101BEE00637465642C20656E61626C696E67207724
:101BFE00726974696E67206E6F7700525443207756
:101C0E006173206E6F74206163746976656C7920E0
:101C1E0072756E6E696E672C207374617274696E64
:101C2E0067206E6F7700484F555253203D20004D70
:101C3E00494E55544553203D20005345434F4E4485
:0C1C4E0053203D2000436C69636B2100B3
:00000001FF
