:100000000C9468000C9490000C9490000C94900058
:100010000C9490000C9490000C9490000C94900020
:100020000C9490000C9490000C9490000C94D00EC2
:100030000C9490000C9490000C9490000C94900000
:100040000C940F0D0C9490000C947F0D0C94590D92
:100050000C9490000C9490000C9490000C949000E0
:100060000C94B10D0C9490000000000024002700B7
:100070002A0000000000250028002B0000000000DE
:1000800023002600290004040404040404040202DA
:100090000202020203030303030301020408102007
:1000A0004080010204081020010204081020000012
:1000B0000008000201000003040700000000000027
:1000C00000001F1C1F1E1F1E1F1F1E1F1E1F000FB4
:1000D00011241FBECFEFD8E0DEBFCDBF23E0A8EBD9
:1000E000B1E001C01D92A237B207E1F711E0A0E034
:1000F000B1E0EEE8F3E302C005900D92A83BB10732
:10010000D9F710E0C8E6D0E004C02197FE010E94B4
:10011000C517C736D107C9F70E94490F0C94C519F6
:100120000C940000833081F028F4813099F0823003
:10013000A9F008958730A9F08830C9F08430B1F46F
:10014000809180008F7D03C0809180008F778093A5
:100150008000089584B58F7784BD089584B58F7D20
:10016000FBCF8091B0008F778093B000089580918D
:10017000B0008F7DF9CFCF93DF93282F30E0F901C6
:10018000E255FF4F8491F901E656FF4FD491F901F2
:10019000EA57FF4FC491CC23A1F081110E94920035
:1001A000EC2FF0E0EE0FFF1FE458FF4FA591B49144
:1001B000EC91ED2381E090E009F480E0DF91CF91B4
:1001C000089580E090E0FACF1F93CF93DF93282F1C
:1001D00030E0F901E255FF4F8491F901E656FF4FF7
:1001E000D491F901EA57FF4FC491CC23A9F0162FFF
:1001F00081110E949200EC2FF0E0EE0FFF1FEE58ED
:10020000FF4FA591B4918FB7F894EC91111108C0EC
:10021000D095DE23DC938FBFDF91CF911F9108959E
:10022000DE2BF8CFCF93DF9390E0FC01E656FF4F33
:1002300024918A579F4FFC0184918823C9F090E054
:10024000880F991FFC01E859FF4FA591B491FC015B
:10025000EE58FF4FC591D49161110DC09FB7F8942E
:100260008C91209582238C938881282328839FBF9B
:10027000DF91CF910895623051F49FB7F8943C918B
:10028000822F809583238C93E8812E2BEFCF8FB71D
:10029000F894EC912E2B2C938FBFEACF3FB7F894B4
:1002A0008091310290913202A0913302B0913402D8
:1002B00026B5A89B05C02F3F19F00196A11DB11DC1
:1002C0003FBFBA2FA92F982F8827BC01CD01620FFD
:1002D000711D811D911D42E0660F771F881F991FB8
:1002E0004A95D1F708958F929F92AF92BF92CF9285
:1002F000DF92EF92FF924B015C010E944E016B0175
:100300007C010E944E016C197D098E099F09683E8F
:10031000734081059105A8F321E0821A9108A10894
:10032000B10888EEC80E83E0D81EE11CF11C8114D0
:100330009104A104B10429F7FF90EF90DF90CF90D2
:10034000BF90AF909F908F9008952FB7F8946091D1
:100350002D0270912E0280912F02909130022FBFBA
:10036000089508950895AF92BF92CF92DF92EF92D1
:10037000FF920F931F93CF93DF936C017B018B014F
:10038000040F151FEB015E01AE18BF08C017D1079F
:1003900059F06991D601ED91FC910190F081E02D29
:1003A000C6010995892B79F7C501DF91CF911F917E
:1003B0000F91FF90EF90DF90CF90BF90AF90089596
:1003C000FC01538D448D252F30E0842F90E0821B5B
:1003D000930B541710F0CF96089501970895FC01E0
:1003E000918D828D981761F0A28DAE0FBF2FB11D38
:1003F0005D968C91928D9F5F9F73928F90E0089590
:100400008FEF9FEF0895FC01918D828D981731F049
:10041000828DE80FF11D858D90E008958FEF9FEF9D
:100420000895FC01918D228D892F90E0805C9F4F73
:10043000821B91098F739927089587EA92E00E94A1
:10044000110221E0892B09F420E0822F089580E039
:1004500090E0892B29F00E941D0281110C9400006C
:100460000895FC01A48DA80FB92FB11DA35ABF4F49
:100470002C91848D90E001968F739927848FA689A3
:10048000B7892C93A089B1898C91837080648C93F7
:10049000938D848D981306C00288F389E02D8081A6
:1004A0008F7D80830895EF92FF920F931F93CF93D8
:1004B000DF93EC0181E0888F9B8D8C8D98131AC09F
:1004C000E889F989808185FF15C09FB7F894EE8986
:1004D000FF896083E889F9898081837080648083E3
:1004E0009FBF81E090E0DF91CF911F910F91FF902E
:1004F000EF900895F62E0B8D10E00F5F1F4F0F73D6
:100500001127E02E8C8D8E110CC00FB607FCFACF90
:10051000E889F989808185FFF5CFCE010E943102FB
:10052000F1CFEB8DEC0FFD2FF11DE35AFF4FF08261
:100530009FB7F8940B8FEA89FB8980818062CFCFC7
:10054000CF93DF93EC01888D8823B9F0AA89BB890A
:10055000E889F9898C9185FD03C0808186FD0DC0F5
:100560000FB607FCF7CF8C9185FFF2CF808185FF16
:10057000EDCFCE010E943102E9CFDF91CF910895F6
:100580002091DA01260F3327331F21323105ECF495
:1005900020917D02FC0190E080E0243069F082E04F
:1005A0000895A091DA012191AC0146545E4FA40F49
:1005B000B52FB11D2C930196861798F38091DA011F
:1005C000680F6093DA0180E0089581E00895109249
:1005D0007D0281E080937C021092570261E082E10B
:1005E0000E94E40061E083E10E94E400E9EBF0E0B6
:1005F00080818E7F808380818D7F808388E480935B
:10060000B80085E48093BC000895CF93DF9391E018
:100610009093B9018823B9F0C091B800D091BA0085
:100620008091BC008A7B8093BC0060E082E10E94E4
:10063000E40060E083E10E94E4000E94E702D093BE
:10064000BA00C093B800DF91CF9108958F929F9226
:10065000AF92BF92CF92DF92EF92FF920F931F93D0
:10066000CF93DF93D091A602D13208F0D7C0182FD4
:10067000C091A5020E944E016B017C0180917D0218
:1006800081116BC082E080937D0210937C028FEF1A
:1006900080937B0210927A02D0937902A5E8B2E0AF
:1006A000E9E5F2E080E0D81391C010925802809101
:1006B0005802CC0FC82BC09358028091570281304A
:1006C00009F088C0109257020E944E016B017C0114
:1006D000809158028093BB0080917F0290918002AC
:1006E000A0918102B0918202892B8A2B8B2BA1F0E1
:1006F0000E944E0100917F021091800220918102A0
:10070000309182026C197D098E099F09061717071F
:100710002807390708F442C08091BC0083FDD8CF78
:1007200085EC8093BC000E944E016B017C0180919E
:100730007D02823009F450C080917B028F3F09F422
:100740006FC080917B02803209F46CC080917B0283
:10075000803309F469C084E026C080917F029091C3
:100760008002A0918102B0918202892B8A2B8B2B6F
:1007700009F484CF0E944E0180907F029090800205
:10078000A0908102B09082026C197D098E099F09A8
:1007900086169706A806B90608F070CF80917E02EB
:1007A0000E94050385E0109284021092A602109226
:1007B0008302DF91CF911F910F91FF90EF90DF9017
:1007C000CF90BF90AF909F908F9008959D919193FF
:1007D0008F5F69CF85EEA5CF80917F0290918002D7
:1007E000A0918102B0918202892B8A2B8B2B09F474
:1007F0009ECF0E944E0100917F02109180022091B5
:100800008102309182026C197D098E099F090617B9
:1008100017072807390708F08ACFC0CF81E0C3CF78
:1008200080E0C1CF82E0BFCF83E0BDCFDC01119675
:100830008D919C91DC01ED91FC910280F381E02D82
:1008400041E050E00995019729F481E00E942603D8
:1008500091E0811190E0892F08950F931F93CF931A
:10086000DF93E1E0F0E02115310511F0E2E0F0E086
:10087000EC01AC81BD81AE17BF0738F1DA018B0105
:1008800089819A81488151E0509383024093A50267
:10089000109284021092A602232B41F4B801CE01DB
:1008A000DF91CF911F910F910C9416041097B1F323
:1008B000FC0120813181F9012281338141E050E046
:1008C000BD01F9010995019749F380E0DF91CF91CE
:1008D0001F910F9108950895E0913602809135029D
:1008E000E81730F4F0E0E95CFD4F808190E0089576
:1008F0008FEF9FEF089590913602809135022FEF90
:100900003FEF981748F4E92FF0E0E95CFD4F2081B4
:1009100030E09F5F90933602C901089580913502BF
:1009200090913602891B990B0895CF92DF92EF9236
:10093000FF920F931F93CF93DF937C01CB018A012A
:1009400020918302222389F0EB016B01C40ED51E96
:10095000CC15DD0569F06991D701ED91FC9101900D
:10096000F081E02DC7010995F3CF642F0E94C002EA
:10097000C801DF91CF911F910F91FF90EF90DF9011
:10098000CF900895CF93DF931F92CDB7DEB76983E1
:10099000209183022223F9F02091A602203258F000
:1009A00021E030E0FC013383228390E080E00F906F
:1009B000DF91CF91089580918402E82FF0E0EB570A
:1009C000FD4F998190838F5F809384028093A6026C
:1009D00081E090E0ECCF61E0CE0101960E94C00280
:1009E000F7CF90E080E00895CF93DF93EC018B8107
:1009F0008823A1F0888191E0909383028093A502DF
:100A0000109284021092A60281E00E94260391E0D7
:100A1000811190E0892FDF91CF91089510923602D5
:100A200010923502109284021092A6020E94E702F0
:100A300081EB91E09093FF018093FE0182EB91E0C6
:100A4000909301028093000281E08B83CE010E948B
:100A5000F404982F8111CECFDDCF60E00E94E40036
:100A60008BE090E00197F1F708958EBD00000DB482
:100A700007FEFDCF8EB50895CF93DF93C82FD62FF5
:100A800060E089E00E94E4008FEF0E94350580E07D
:100A90000E94350561E089E00E94E40060E089E0A1
:100AA0000E94E400EC2FF0E0EE5DFE4F80810E949A
:100AB00035058D2F0E94350561E089E0DF91CF91EA
:100AC0000C94E4001F93CF93DF93D82FC62F142FDD
:100AD00060E089E00E94E4008FEF0E94350580E02D
:100AE0000E94350561E089E00E94E40060E089E051
:100AF0000E94E400ED2FF0E0EE5DFE4F80810E9449
:100B000035056C2F70E0112369F0695E7E4FFB01A3
:100B100080810E94350561E089E0DF91CF911F91CE
:100B20000C94E400645F7E4FF2CF42E050E06EE54B
:100B300071E087EA92E00C94B301CF93DF93FC015C
:100B400001900020E9F73197AF01481B590BBC0118
:100B500087EA92E00E94B301EC010E9495058C0F98
:100B60009D1FDF91CF910895CF93DF93FC014481C6
:100B700055816081718187EA92E00E94B301EC01A6
:100B80000E9495058C0F9D1FDF91CF9108952F92A4
:100B90003F924F925F926F927F928F929F92AF920D
:100BA000BF92CF92DF92EF92FF920F931F93CF935A
:100BB000DF93DC011496ED91FC911597EF2B09F46E
:100BC00022C169012A01EC01888191E0909383029E
:100BD0008093A502109284021092A602CD010E9479
:100BE0001604782E882309F40EC1F12CE12C33244D
:100BF00033948C819D8186010E191F0980179107FE
:100C000008F48C0128800E944E014B015C01809108
:100C10007D02811173C0602EB0E2B01710F480E243
:100C2000682E30927D0221E0C601801B910BE816F0
:100C3000F90608F420E020937C02EFEFE0937B02BA
:100C400010927A028FEF860D8093790230925802CB
:100C500080915802220C282A209258028091570233
:100C6000813009F090C0109257020E944E014B0152
:100C70005C01809158028093BB0080917F0290912B
:100C80008002A0918102B0918202892B8A2B8B2B4A
:100C9000A1F00E944E0120917F023091800240918C
:100CA000810250918202681979098A099B092617E5
:100CB00037074807590708F442C08091BC0083FDFC
:100CC000D8CFF5ECF093BC000E944E014B015C01C3
:100CD00080917D02813009F45AC080917A02861594
:100CE00010F460907A02A9E5B2E0E7E3F2E080E078
:100CF000861551F19D9191938F5FFACF80917F027C
:100D000090918002A0918102B0918202892B8A2B5E
:100D10008B2B09F47CCF0E944E0120917F023091F1
:100D200080024091810250918202681979098A09F2
:100D30009B09261737074807590708F068CF8091A5
:100D40007E020E940503612C1092360260923502E9
:100D50006016110609F057C042018E0C9F1C540109
:100D6000C501881999098017910798F589819A8199
:100D7000DC01ED91FC910284F385E02D0995F501EC
:100D800081935F01EDCF85EE8093BC009DCF809174
:100D90007F0290918002A0918102B0918202892B02
:100DA0008A2B8B2B09F494CF0E944E0120917F0255
:100DB0003091800240918102509182026819790934
:100DC0008A099B09261737074807590708F080CF7B
:100DD000B6CFE00EF11EEC14FD0408F40ACF872D07
:100DE000DF91CF911F910F91FF90EF90DF90CF9007
:100DF000BF90AF909F908F907F906F905F904F903B
:100E00003F902F900895712CEACFCF93DF9300D0BD
:100E10001F92CDB7DEB78B8322E030E0AE014F5F8B
:100E20005F4FBE016D5F7F4F8091500390915103E2
:100E30000E94C70589819A819827892798270F9052
:100E40000F900F90DF91CF910895CF93DF9300D053
:100E5000CDB7DEB78EE28A8384EF898321E030E06C
:100E6000AE014F5F5F4FBE016E5F7F4F80915003B9
:100E7000909151030E942D0465E070E080E090E0C5
:100E80000E94730186EF0E9405070F900F90DF917B
:100E9000CF9108954F925F926F927F928F929F921F
:100EA000AF92BF92CF92DF92EF92FF921F93CF93B8
:100EB000DF93CDB7DEB728970FB6F894DEBF0FBE2D
:100EC000CDBF0E9425074C01B12CA12C809152036B
:100ED0008295880F880F807C8C5C8C8384EF8B8359
:100EE00021E030E0AE014D5F5F4FBE016C5F7F4F90
:100EF00080915003909151030E942D0480915203E0
:100F000081117DC165E070E080E090E00E94730196
:100F100086EF0E940507B0E0A0E0CC24D82EE92E91
:100F2000FA2E88EF8A8321E030E0AE014F5F5F4FF9
:100F3000BE016E5F7F4F80915003909151030E94DC
:100F4000C7058981C82A1091520380916703909147
:100F50006803A5019401281B390B41095109A0918F
:100F60006503B09166030E9447162B013C01AFE078
:100F70007594679457944794AA95D1F760915F034D
:100F800070916003072E000C880B990BBBE0660F75
:100F9000771F881F991FBA95D1F72091610330916F
:100FA0006203032E000C440B550B240D351D461D0A
:100FB000571D0E94A617420E531E641E751E20EA7E
:100FC000421A2FE0520A61087108A3019201C3017D
:100FD000B2010E9440174B015C018CE0B594A794CC
:100FE000979487948A95D1F7A0915703B0915803AD
:100FF0000E94CB179B01AC019DE055954795379515
:1010000027959A95D1F72D833E834F835887A091DA
:101010005903B0915A03A50194010E94CB179C017A
:10102000552737FD5095452F8D819E81AF81B8851D
:10103000280F391F4A1F5B1F2E5F3F4F4F4F5F4FD7
:1010400062E055954795379527956A95D1F73058C1
:101050004F4F5F4FA0916303B09164030E94471606
:101060009B01AC017FE056954795379527957A957A
:10107000D1F72D833E834F83588788E090E0811B12
:10108000910904C0F694E794D794C7948A95D2F74F
:10109000A0915B03B0915C03A50194010E94CB1762
:1010A0004B015C01EBE0B594A79497948794EA9583
:1010B000D1F7A0915503B0915603A30192010E946C
:1010C000CB17FBE09595879577956795FA95D1F7BE
:1010D000680D791D8A1D9B1D8090530390905403C9
:1010E000092C000CAA08BB08A2E0880C991CAA1CB9
:1010F000BB1CAA95D1F7680D791D8A1D9B1D012E79
:1011000004C0660F771F881F991F0A94D2F76E5F7D
:101110007F4F8F4F9F4F24E030E040E050E00E942F
:10112000A617D701C601821B930BA40BB50B9C011C
:10113000AD0160E573EC80E090E004C09695879582
:10114000779567951A95D2F70E94401797FD6AC068
:10115000660F771F881F991F2D813E814F8158850B
:101160000E94841769017A019927F7FC9A958F2DBF
:101170007E2D6D2D9B01AC010E9440179B01AC019F
:10118000AEEDBBE00E9447164B015C01A3E4B3EE59
:10119000A70196010E94CE17BC01992777FD909573
:1011A000892F4501BB2497FCB094AB2C680D791DA9
:1011B0008A1D9B1D6153714F8F4F9F4F44E0959542
:1011C0008795779567954A95D1F76C0D7D1D8E1D96
:1011D0009F1D28960FB6F894DEBF0FBECDBFDF91DE
:1011E000CF911F91FF90EF90DF90CF90BF90AF9085
:1011F0009F908F907F906F905F904F900895813077
:1012000029F468E070E080E090E080CE823029F43C
:101210006EE070E080E090E079CE6AE170E080E01E
:1012200090E074CE2D813E814F8158850E948417B5
:1012300069017A01CC0CDD1CEE1CFF1C95CFEF92EE
:10124000FF921F93CF93DF937C01D0E0C0E010E0CA
:10125000F70180810E94BB000C2E01C0880F0A9408
:10126000EAF7182B61E0F70181810E94E40060E059
:10127000F70181810E94E4002196C830D10541F731
:10128000812FDF91CF911F91FF90EF900895FF92F2
:101290000F931F93CF93DF938C01D62FF42EC0E0D2
:1012A0006D2F6170F80180810E94E40061E0F80117
:1012B00081810E94E400C73039F4FF2029F060E00A
:1012C000F80180810E94120160E0F80181810E9492
:1012D000E400D695CF5FC83019F7DF91CF911F9109
:1012E0000F91FF9008951F93CF93DF93EC01162F7A
:1012F00060E08A810E94E40061E08A810E9412011C
:1013000060E089810E94E40061E089810E9412010D
:1013100061E088810E94120161E08A810E94E400FC
:101320008BE090E00197F1F7412F4170612FCE01E2
:10133000DF91CF911F910C9447091F93CF93DF93B7
:10134000EC016EEB8091690390916A030E9473092E
:101350002D811AE0822F612F0E945017682F660F8F
:10136000680F660F620F40E08091690390916A03F5
:101370000E9447092C81822F612F0E945017682FED
:10138000660F680F660F620F40E0809169039091CD
:101390006A030E9447092B81822F612F0E945017F8
:1013A000682F660F680F660F620F40E08091690337
:1013B00090916A030E9447092A81822F612F0E941F
:1013C0005017682F660F680F660F620F40E080911C
:1013D000690390916A030E9447092981822F612F36
:1013E0000E945017682F660F680F660F620F40E06B
:1013F0008091690390916A030E94470969819881ED
:10140000492F50E08A81282F30E0E2ECF0E081E0C3
:10141000861730F47491270F311D8F5F3196F8CF06
:10142000633020F0937011F42F5F3F4F6DE671E051
:10143000469FC001479F900D569F900D1124059621
:101440004D5F5F4F5695479556954795840F951F6D
:10145000820F931F67E070E00E945C17682F811174
:1014600001C067E040E08091690390916A030E94A7
:1014700047092881822F6AE00E945017682F660F63
:10148000680F660F620F40E08091690390916A03D4
:101490000E94470940E060E08091690390916A03EF
:1014A0000E944709E0916903F0916A038281DF910C
:1014B000CF911F910C942D05CF92DF92EF92FF9266
:1014C0000F931F93CF93DF9300D000D000D0CDB700
:1014D000DEB76FEB8091690390916A030E947309F4
:1014E0008091690390916A030E941F098F77282FCA
:1014F00030E0F4E035952795FA95E1F7922F990FB2
:10150000990F022F091B000F080F8091690390911A
:101510006A030E941F09282F30E0A4E03595279523
:10152000AA95E1F7922F990F990FF22EF91AFF0C55
:10153000F80E8091690390916A030E941F0986FF4B
:1015400077C0982F9F71292F30E0E4E035952795DB
:10155000EA95E1F7322F330F330F122F131B110FC0
:10156000190F85FD145F8091690390916A030E94B1
:101570001F09282F30E094E0359527959A95E1F7DB
:10158000922F990F990FE22EE91AEE0CE80E809136
:10159000690390916A030E941F09282F30E044E0FC
:1015A000359527954A95E1F7922F990F990FD22EED
:1015B000D91ADD0CD80E8091690390916A030E94BC
:1015C0001F098091690390916A030E941F09482FA7
:1015D00050E064E0559547956A95E1F7942F990F8F
:1015E000990FC42EC91ACC0CC80E80916903909132
:1015F0006A030E941F09E0916903F0916A038281E6
:101600000E942D0596014E2D512F6F2D702F80E0D9
:1016100090E026960FB6F894DEBF0FBECDBFDF91E7
:10162000CF911F910F91FF90EF90DF90CF90089591
:10163000282F30E074E0359527957A95E1F7922FC1
:10164000990F990F122F191B110F180F8CCFCF93D1
:10165000DF9300D000D000D0CDB7DEB70E945C0A87
:10166000852F90E09093050180930401862F90E0F0
:101670009093250280932402872F90E09093270275
:101680008093260226960FB6F894DEBF0FBECDBF1C
:10169000DF91CF910895CF93682F616080916903A6
:1016A00090916A030E9473098091690390916A0383
:1016B0000E941F09C82FE0916903F0916A0382819B
:1016C0000E942D058C2FCF910895FC01808191817E
:1016D000009711F00C946F1808950F931F93CF93F8
:1016E000DF93EC0188819981009759F02A813B8131
:1016F0002617370730F081E0DF91CF911F910F91CE
:1017000008958B016F5F7F4F0E94F818009759F082
:10171000998388831B830A832C813D81232B59F76E
:10172000FC011082E8CF80E0E7CFEF92FF920F93A9
:101730001F93CF93DF93EC01FB01E080F180E11474
:10174000F10411F10481158101151105A9F08C81B5
:101750009D81080F191FB801CE010E946D0B8823CF
:1017600099F0288139818C819D81B701820F931F67
:101770000E94BE191D830C83CE01DF91CF911F9172
:101780000F91FF90EF90089588819981009711F053
:101790000E946F18198218821D821C821B821A8275
:1017A000EBCFEF92FF920F931F93CF93DF93EC0158
:1017B0007B018A01BA010E946D0B28813981811158
:1017C00014C02115310519F0C9010E946F18198242
:1017D00018821D821C821B821A82CE01DF91CF915A
:1017E0001F910F91FF90EF9008951D830C83B70117
:1017F000C9010E94BE19F1CFEF92FF920F931F9380
:10180000CF93DF93CDB7DEB762970FB6F894DEBF04
:101810000FBECDBF8C01CB01F80111821082138263
:101820001282158214824AE09E012F5F3F4F790198
:10183000B9010E941715F70101900020E9F73197CF
:10184000AF014E195F09B701C8010E94D10B629622
:101850000FB6F894DEBF0FBECDBFDF91CF911F91C1
:101860000F91FF90EF900895FB01DC0111961C92FF
:101870001E9213961C921E92129715961C921E92FF
:1018800014978617970749F060817181611571057A
:1018900021F0448155810C94D10B0895FC011182F3
:1018A00010821382128215821482FB0101900020A3
:1018B000E9F73197AF01461B570B0C94D10B85ED1F
:1018C0008093BC0080917F0290918002A091810260
:1018D000B09182020796A11DB11D23E0B695A79590
:1018E000979587952A95D1F72091BC0024FD03C0D8
:1018F00010927D02089540917F0250918002609184
:10190000810270918202452B462B472B69F3009789
:10191000A105B10541F02AE22A95F1F700C001972F
:10192000A109B109E1CF80917E020C940503CF9209
:10193000DF92EF92FF920E9425079C0150E040E069
:10194000E0E5F3E08789908D281B390B41095109A7
:10195000A589B6890E9447166B017C018FE0F5943A
:10196000E794D794C7948A95D1F767857089072E35
:10197000000C880B990B2BE0660F771F881F991FAF
:101980002A95D1F721893289032E000C440B550B7F
:101990002C0D3D1D4E1D5F1D0E94A617CA01B901E9
:1019A0006C0D7D1D8E1D9F1D685F7F4F8F4F9F4F5C
:1019B00034E095958795779567953A95D1F70E948C
:1019C0004E1520E030E040E251E40E94981660930A
:1019D0000E0270930F0280931002909311020E94E6
:1019E0004A076093090270930A0280930B02909356
:1019F0000C020E944E152FE632E545E053E40E94AA
:101A000098166093050270930602809307029093E4
:101A10000802FF90EF90DF90CF900C944A071F923E
:101A20000F920FB60F9211242F933F938F939F9392
:101A3000AF93BF9380912D0290912E02A0912F021F
:101A4000B091300230912C0223E0230F2D3758F54E
:101A50000196A11DB11D20932C0280932D0290931D
:101A60002E02A0932F02B093300280913102909108
:101A70003202A0913302B09134020196A11DB11D32
:101A80008093310290933202A0933302B0933402D8
:101A9000BF91AF919F918F913F912F910F900FBE6A
:101AA0000F901F90189526E8230F0296A11DB11DD7
:101AB000D2CF1F920F920FB60F9211242F933F9304
:101AC0004F935F936F937F938F939F93AF93BF9346
:101AD000EF93FF9387EA92E00E943102FF91EF912A
:101AE000BF91AF919F918F917F916F915F914F9136
:101AF0003F912F910F900FBE0F901F9018951F923E
:101B00000F920FB60F9211242F938F939F93EF9301
:101B1000FF93E091B702F091B8028081E091BD029D
:101B2000F091BE0282FD1BC090818091C0028F5F48
:101B30008F732091C102821741F0E091C002F0E062
:101B4000E955FD4F958F8093C002FF91EF919F91D2
:101B50008F912F910F900FBE0F901F90189580813D
:101B6000F4CF1F920F920FB60F9211242F933F9331
:101B70004F935F936F937F938F939F93AF93BF9395
:101B8000EF93FF938091B900887F803609F44AC0B3
:101B9000F0F5883209F4A7C018F5803109F49BC02C
:101BA000B8F4882309F4F9C0883009F494C0FF918F
:101BB000EF91BF91AF919F918F917F916F915F91C5
:101BC0004F913F912F910F900FBE0F901F9018953E
:101BD000883109F488C0803251F780937B0214C0A9
:101BE000803409F49DC040F48033B9F38833F9F6AA
:101BF00080937B0285ECB0C0803509F485C08835C0
:101C000009F496C0883499F60E945F0CD0CF8839C9
:101C100009F48CC038F5883729F050F4883611F073
:101C2000803729F683E080937D021092FC0157C033
:101C3000883809F47BC0803919F0803809F0B7CFB3
:101C40008091FC01803208F071C0E091FC0181E0DC
:101C50008E0F8093FC018091BB00F0E0E452FE4FB8
:101C600080833DC0803B39F0E0F4803A09F479C0CC
:101C7000883A09F09CCF84E080937D021092DB01CA
:101C80001092DA01E091FE01F091FF010995809137
:101C9000DA0181110FC081E08093DA011092BA015C
:101CA00009C0803C09F4A6CF883C09F4A3CF883B47
:101CB00009F07DCFE091DB0181E08E0F8093DB01A5
:101CC000F0E0E654FE4F80818093BB009091DB01F1
:101CD0008091DA0129C0809158028093BB0085EC85
:101CE0008093BC0064CF90917A028091790298171A
:101CF00058F5E0917A0281E08E0F80937A02F0E04D
:101D0000E75AFD4F8081E9CFE0917A0281E08E0FA2
:101D100080937A028091BB00F0E0E75AFD4F808308
:101D200090917A02809179029817C8F285E8D8CF0D
:101D3000E0917A0281E08E0F80937A028091BB005D
:101D4000F0E0E75AFD4F808380917C0281115CCFE7
:101D500081E08093570284EA8093BC0010927D0258
:101D600026CF85EC8093BC0010927D028091FC010F
:101D7000803230F4E091FC01F0E0E452FE4F10823A
:101D80006091FC0170E0E0910002F09101028CEDA5
:101D900091E009951092FC010ACF10927B0234CF9A
:101DA0001F920F920FB60F9211248F939F938091E1
:101DB000B8018F5F8093B8018091040291E0892778
:101DC00080930402809103028F5F8830B0F4809387
:101DD00003028091B8018091B8018091B801803FE1
:101DE00028F081E0809302021092B8019F918F91B8
:101DF0000F900FBE0F901F90189510920302E9CF1D
:101E0000E7EAF2E01382128288EE93E0A0E0B0E00D
:101E100084839583A683B7832EE331E031832083C7
:101E200025EC30E03587248724EC30E0378726879F
:101E300020EC30E0318B208B21EC30E0338B228B97
:101E400022EC30E0358B248B26EC30E0378B268B70
:101E5000118E128E138E148EE4E4F3E0138212823C
:101E600084839583A683B78380E591E09183808303
:101E7000EBE6F3E086E0808385E0818387E0828380
:101E8000F0936A03E0936903109251031092500398
:101E90000895CF93DF93CDB7DEB769970FB6F89467
:101EA000DEBF0FBECDBF789484B5826084BD84B59B
:101EB000816084BD85B5826085BD85B5816085BD45
:101EC00080916E00816080936E00109281008091FD
:101ED0008100826080938100809181008160809385
:101EE0008100809180008160809380008091B100AA
:101EF00084608093B1008091B00081608093B000D5
:101F000080917A00846080937A0080917A00826068
:101F100080937A0080917A00816080937A0080912A
:101F20007A00806880937A001092C100E091B70235
:101F3000F091B80282E08083E091B302F091B402A4
:101F40001082E091B502F091B6028FEC808310927E
:101F5000BF02E091BB02F091BC0286E08083E09179
:101F6000B902F091BA02808180618083E091B90268
:101F7000F091BA02808188608083E091B902F0918B
:101F8000BA02808180688083E091B902F091BA0240
:101F900080818F7D8083F894109280001092810060
:101FA000109285001092840080918100836080935C
:101FB000810084E294EF909389008093880080915F
:101FC000810088608093810080916F00826080939F
:101FD0006F00789461E089E00E94120162E08CE079
:101FE0000E94120162E08AE00E9412011FB7F89479
:101FF0008091FD01811127C0E0E9F0E08491E4EADD
:10200000F0E09491E82FF0E0EE0FFF1FE859FF4F4A
:10201000A591B491EC91E92321F461E08AE00E945A
:10202000E40061E08AE00E9412018CB580618CBD01
:102030008CB580648CBD61E08DE00E94120161E08E
:102040008BE00E9412018091FD018F5F8093FD0162
:102050001FBF80E58CBD81E08DBD009169031091AB
:102060006A0360E0F80181810E94120160E0F801DA
:1020700080810E94120160E0F80182810E941201B9
:1020800089E18B8B86E08C8B85E08D8B80E18E8B5C
:102090008CE28F8B188E0E945C0A29833A834B83D3
:1020A0005C836D837E838FEF830F8C3008F4F8C1DF
:1020B00081E691E00E949D05CE0143960E949D0914
:1020C0008EE80E944B0B87FF1BC08EE80E944B0BD3
:1020D000182F6EE88091690390916A030E9473093A
:1020E000612F6F7740E08091690390916A030E94AD
:1020F0004709E0916903F0916A0382810E942D05EE
:1021000080E80E944B0B87FF1BC080E80E944B0BAE
:10211000182F60E88091690390916A030E94730907
:10212000612F6F7740E08091690390916A030E946C
:102130004709E0916903F0916A0382810E942D05AD
:102140000E94270B6091040170910501CE01019658
:102150000E94FC0B6FE671E0CE010D960E944E0CC2
:10216000BE01635F7F4FCE0107960E94340CBE0113
:102170006F5F7F4FCE0107960E94950B0E94B405BA
:10218000CE0107960E94650BCE010D960E94650B4D
:10219000CE0101960E94650B609124027091250288
:1021A000CE0101960E94FC0B68E771E0CE010D960E
:1021B0000E944E0CBE01635F7F4FCE0107960E94C6
:1021C000340CBE016F5F7F4FCE0107960E94950BC6
:1021D0000E94B405CE0107960E94650BCE010D96B4
:1021E0000E94650BCE0101960E94650B609126024C
:1021F00070912702CE0101960E94FC0B63E871E00A
:10220000CE010D960E944E0CBE01635F7F4FCE0142
:1022100007960E94340CBE016F5F7F4FCE01079678
:102220000E94950B0E94B405CE0107960E94650B93
:10223000CE010D960E94650BCE0101960E94650BA2
:1022400083E0809352038091500390915103009753
:1022500011F00E946F1886E090E00E94D3178C0165
:1022600087E7F801808384E493E09283818313827B
:1022700080E290E095838483109351030093500390
:102280001092360210923502109284021092A60229
:102290000E94E70281EB91E09093FF018093FE01A1
:1022A00082EB91E0909301028093000281E0F801BB
:1022B0008383C8010E94F404882309F42FC180EDB0
:1022C0008D8721E030E0AE014F5F5F4FBE01635F5D
:1022D0007F4F80915003909151030E94C7058981DF
:1022E000853509F01BC18AEA0E94050790935403C3
:1022F000809353038CEA0E940507909356038093C2
:1023000055038EEA0E940507909358038093570364
:1023100080EB0E940507909364038093630382EB34
:102320000E940507909366038093650384EB0E94E7
:102330000507909368038093670386EB0E94050767
:1023400090935A038093590388EB0E94050790935A
:102350005C0380935B038AEB0E94050790935E0306
:1023600080935D038CEB0E9405079093600380933C
:102370005F038EEB0E9405079093620380936103D5
:102380008EE891E00E949D050E94970C80910202C8
:10239000882331F0109202020E94970C0E94270BB2
:1023A00030EA432E36E8532E66246394712C92E073
:1023B000292E312C2AE0E22EF12C0E94A501009159
:1023C00028021091290220912A0230912B02601BD1
:1023D000710B820B930B683E734081059105B8F039
:1023E0000E94A501609328027093290280932A021B
:1023F00090932B02809126029091270201968C33B4
:1024000091050CF090C090932702809326020E94C1
:10241000A501009120021091210220912202309109
:102420002302601B710B820B930B633071058105D6
:10243000910508F410C20E94A501609320027093D8
:10244000210280932202909323020091180210919E
:10245000190220910D02298FC22ED12C03301105B3
:1024600009F09CC080900E0290900F02A090100284
:10247000B0901102C501B4010E940A17CB01498D29
:10248000483008F02EC1F601E85BFD4E0C94C517EC
:10249000BA126A1338143F14BE12C212C612CB12FB
:1024A0008FEF840F8F3108F003CE583108F000CE43
:1024B0006C3308F0FDCD7C3308F0FACD323001F5F5
:1024C0004E3108F0F5CD4D3109F0FACD30E0205312
:1024D000384FC90183709927892B09F0E9CDC901CB
:1024E00064E670E00E945C17892B09F0E9CDC90110
:1024F00060E971E00E945C17892B09F0D9CDE0CD2D
:102500004F3109F0DDCD432F4150550BCA0167E033
:1025100070E00E94701780FFD3CDCACD8EE991E0A4
:102520000E949D05FFCF10922702109226028091F3
:1025300024029091250201968C3391052CF49093FE
:1025400025028093240263CF109225021092240268
:1025500080910401909105010196883191052CF438
:10256000909305018093040152CF109205011092BF
:1025700004014DCF40E06AE080E0B1C040E06AE095
:1025800084E0ADC040E06AE085E0A9C067E086E095
:102590000E943C05A6C061E387E0FACF0430110534
:1025A00009F067C06091090270910A0280910B02E4
:1025B00090910C02598D583008F093C0F601ED51FE
:1025C000FD4E0C94C517EB12F212FF120E131E13E0
:1025D0002D1335133713A30192010E94A61740E073
:1025E000622FCACFA30192010E94A61720E137E211
:1025F00040E050E00E94A61740E0622F6FC020E14B
:1026000037E240E050E00E94A61728EE33E040E0B9
:1026100050E00E94A61740E0622F2FC128EE33E061
:1026200040E050E00E94A61724E630E040E050E091
:102630000E94A61740E0622F83E051C024E630E0FC
:1026400040E050E00E94A6172AE030E040E050E071
:102650000E94A61740E0622F93CF2AE030E040E0CE
:1026600050E00E94A61740E08FCF63E790CF6CE563
:1026700093CF0530110509F017C1809005029090A5
:102680000602A0900702B0900802C501B4010E94A2
:102690000A17CB01798D783020F5F601EE5AFC4E01
:1026A0000C94C5175A13661338143F14BE12C21285
:1026B0005014521420E030E048EC52E4C501B4015B
:1026C0000E9498160E94111740E056CF64E670E011
:1026D0000E947017B7010E94701740E081E00E94CD
:1026E0006205FFEFCF1ADF0A27E0C222DD24C09285
:1026F0000D028CE00E94BB006C0180910001909162
:102700000101C816D90651F00E94A5016093140278
:102710007093150280931602909317020E94A501F0
:102720002091140230911502409116025091170227
:10273000621B730B840B950B623371058105910548
:1027400000F18091120290911302C816D906C9F0C7
:10275000D0921302C0921202C114D10491F402303B
:10276000110509F434C108F019C10115110509F466
:1027700022C10130110509F425C180EB91E00E94CE
:102780009D05D0920101C09200018AE00E94BB0029
:102790008C0180910201909103010817190751F0F3
:1027A0000E94A50160931C0270931D0280931E027B
:1027B00090931F020E94A50120911C0230911D02DE
:1027C00040911E0250911F02621B730B840B950BEC
:1027D0006233710581059105D0F180911A029091C3
:1027E0001B020817190799F110931B0200931A0294
:1027F0000115110561F50E945C0AE72F2F833887C8
:1028000049875A876B877C878091180290911902BB
:102810008130910509F0F1C0852F90E00196883153
:1028200091050CF0E5C0909305018093040180911F
:10283000040129833A834B838C836D83EE83CE011D
:1028400001960E949D0980EB91E00E949D051093E6
:1028500003010093020180E090E0892B09F4ADCDE3
:102860000E941D02882309F4A2CD0E9400009FCD82
:10287000B7010E94701741E0682F82E030CF20E05E
:1028800030E040E251E4C501B4010E9489150E9484
:102890000A17CB01B7010E94701740E0682FCCCE19
:1028A00066E775CE6DE378CE0130110521F4809195
:1028B0000402811151C08091040190910501B7017A
:1028C0000E947017B62E0130110521F48091040288
:1028D000811145C08091040190910501B7010E94CA
:1028E0007017382F0230110521F4809104028111F4
:1028F00038C08091240290912502B7010E94701780
:10290000262F0230110529F4809104026AE081111A
:1029100008C08091240290912502B7010E9470178F
:10292000682F8091260290912702A0910302B0E0C7
:10293000AC0140955095E98DE83008F0D2CEF60113
:10294000EC55FB4E0C94C517B314B6140B13B91405
:10295000BB14C014C614CA148AE0B82EB7CF3AE02C
:10296000C8CF2AE0D1CF40E06B2D06CE4170632F57
:10297000B5CE40E061CEB7010E94701740E000CEB6
:10298000B7010E94701740E0682FFECDAE5CBE4FCD
:102990006C91FDCDA65DBE4F6C91FECD043011054E
:1029A00021F1E0F00530110509F0E7CE109219028F
:1029B00010921802E2CE41E050E050931902409389
:1029C0001802DBCE3092190220921802D6CE83E094
:1029D00090E09093190280931802CFCEE4E0F0E0EB
:1029E000F0931902E0931802C8CE45E050E0E5CF1D
:1029F00010920501109204011ACF029709F023CF1B
:102A000070E06F5F7F4F6C33710564F47093250243
:102A1000609324028091240229833A834B835C8350
:102A20008D830CCF1092250210922402F3CFBB2786
:102A30004A3031F4992322F4BDE2909581959F4F5D
:102A40000C942315BB27FB015527AA27880F991F34
:102A5000AA1FA41710F0A41B83955051B9F7A05DCD
:102A6000AA3308F0A95DA193009779F7B111B1934A
:102A70001192CB010C943C15DC01FC01672F719184
:102A80007723E1F7329704C07C916D937083629154
:102A9000AE17BF07C8F30895E89409C097FB3EF44A
:102AA00090958095709561957F4F8F4F9F4F99239B
:102AB000A9F0F92F96E9BB279395F6958795779519
:102AC0006795B795F111F8CFFAF4BB0F11F460FFD9
:102AD0001BC06F5F7F4F8F4F9F4F16C0882311F031
:102AE00096E911C0772321F09EE8872F762F05C045
:102AF000662371F096E8862F70E060E02AF09A95E0
:102B0000660F771F881FDAF7880F9695879597F9D4
:102B100008950E949C150C940D160E94FF1538F024
:102B20000E94061620F0952311F00C94F6150C94D3
:102B3000FC1511240C9441160E941E1670F3959FEB
:102B4000C1F3950F50E0551F629FF001729FBB27A4
:102B5000F00DB11D639FAA27F00DB11DAA1F649F40
:102B60006627B00DA11D661F829F2227B00DA11DF3
:102B7000621F739FB00DA11D621F839FA00D611D79
:102B8000221F749F3327A00D611D231F849F600D9A
:102B9000211D822F762F6A2F11249F5750409AF0C3
:102BA000F1F088234AF0EE0FFF1FBB1F661F771F4F
:102BB000881F91505040A9F79E3F510580F00C941A
:102BC000F6150C9441165F3FE4F3983ED4F38695D6
:102BD00077956795B795F795E7959F5FC1F7FE2BBA
:102BE000880F911D9695879597F9089597F99F6796
:102BF00080E870E060E008959FEF80EC0895002485
:102C00000A941616170618060906089500240A9451
:102C100012161306140605060895092E0394000CD7
:102C200011F4882352F0BB0F40F4BF2B11F460FF66
:102C300004C06F5F7F4F8F4F9F4F089557FD90588F
:102C4000440F551F59F05F3F71F04795880F97FB70
:102C5000991F61F09F3F79F087950895121613062A
:102C60001406551FF2CF4695F1DF08C01616170659
:102C70001806991FF1CF869571056105089408958E
:102C8000E894BB2766277727CB0197F908950E9420
:102C90008916A59F900DB49F900DA49F800D911D46
:102CA000112408952F923F924F925F926F927F92DC
:102CB0008F929F92AF92BF92CF92DF92EF92FF924C
:102CC0000F931F93CF93DF93CDB7DEB7CA1BDB0BF8
:102CD0000FB6F894DEBF0FBECDBF09942A8839889D
:102CE00048885F846E847D848C849B84AA84B984A4
:102CF000C884DF80EE80FD800C811B81AA81B981B0
:102D0000CE0FD11D0FB6F894DEBF0FBECDBFED01C3
:102D10000895A29FB001B39FC001A39F700D811DB4
:102D20001124911DB29F700D811D1124911D0895D4
:102D30000E94AC160C940D160E94061658F00E94C4
:102D4000FF1540F029F45F3F29F00C94F61551115E
:102D50000C9441160C94FC150E941E1668F39923DE
:102D6000B1F3552391F3951B550BBB27AA27621787
:102D70007307840738F09F5F5F4F220F331F441F94
:102D8000AA1FA9F335D00E2E3AF0E0E832D09150C8
:102D90005040E695001CCAF72BD0FE2F29D0660FB5
:102DA000771F881FBB1F261737074807AB07B0E8F8
:102DB00009F0BB0B802DBF01FF2793585F4F3AF0FE
:102DC0009E3F510578F00C94F6150C9441165F3F28
:102DD000E4F3983ED4F3869577956795B795F79584
:102DE0009F5FC9F7880F911D9695879597F908956C
:102DF000E1E0660F771F881FBB1F62177307840708
:102E0000BA0720F0621B730B840BBA0BEE1F88F716
:102E1000E09508950E9411176894B1110C94411621
:102E200008950E94261688F09F5798F0B92F992789
:102E3000B751B0F0E1F0660F771F881F991F1AF0A5
:102E4000BA95C9F714C0B13091F00E944016B1E0B4
:102E500008950C944016672F782F8827B85F39F0B3
:102E6000B93FCCF3869577956795B395D9F73EF43E
:102E700090958095709561957F4F8F4F9F4F0895E6
:102E8000DB018F939F930E944716BF91AF91A29F42
:102E9000800D911DA39F900DB29F900D1124089558
:102EA000991B79E004C0991F961708F0961B881F9C
:102EB0007A95C9F780950895AA1BBB1B51E107C0FD
:102EC000AA1FBB1FA617B70710F0A61BB70B881FBA
:102ED000991F5A95A9F780959095BC01CD01089549
:102EE00097FB072E16F4009407D077FD09D00E94B7
:102EF0005C1707FC05D03EF4909581959F4F08958F
:102F0000709561957F4F0895A1E21A2EAA1BBB1BF5
:102F1000FD010DC0AA1FBB1FEE1FFF1FA217B307A5
:102F2000E407F50720F0A21BB30BE40BF50B661FBB
:102F3000771F881F991F1A9469F76095709580957F
:102F400090959B01AC01BD01CF010895052E97FB23
:102F50001EF400940E94BD1757FD07D00E948417ED
:102F600007FC03D04EF40C94BD1750954095309556
:102F700021953F4F4F4F5F4F0895909580957095E5
:102F800061957F4F8F4F9F4F0895EE0FFF1F059064
:102F9000F491E02D0994B7FF0C9447160E94471650
:102FA000821B930B08950F931F93CF93DF9382306F
:102FB000910510F482E090E0E0917003F0917103CC
:102FC00030E020E0B0E0A0E0309799F42115310521
:102FD00009F44AC0281B390B24303105D8F58A8101
:102FE0009B816115710589F1FB0193838283FE0149
:102FF00011C0408151810281138148175907E0F0C7
:103000004817590799F4109761F012960C9312978C
:1030100013961C933296CF01DF91CF911F910F91A0
:1030200008950093700310937103F4CF21153105B7
:1030300051F04217530738F0A901DB019A01BD0195
:10304000DF01F801C1CFEF01F9CF909371038093B5
:103050007003CDCFFE01E20FF31F819391932250B5
:10306000310939832883D7CF20916E0330916F03C4
:10307000232B41F4209108013091090130936F0313
:1030800020936E032091060130910701211531052F
:1030900041F42DB73EB740910A0150910B01241B1A
:1030A000350BE0916E03F0916F03E217F307A0F484
:1030B0002E1B3F0B2817390778F0AC014E5F5F4F8E
:1030C0002417350748F04E0F5F1F50936F0340934E
:1030D0006E03819391939FCFF0E0E0E09CCFCF937C
:1030E000DF930097E9F0FC01329713821282A091DE
:1030F0007003B0917103ED0130E020E01097A1F46E
:1031000020813181820F931F20916E0330916F03D4
:103110002817390709F061C0F0936F03E0936E033D
:10312000DF91CF910895EA01CE17DF07E8F54A81D4
:103130005B819E0141155105B1F7E901FB83EA83EB
:1031400049915991C40FD51FEC17FD0761F4808197
:1031500091810296840F951FE9019983888382816A
:1031600093819B838A83F0E0E0E012968D919C919D
:1031700013970097B9F52D913C911197CD010296C7
:10318000820F931F20916E0330916F032817390728
:1031900039F6309751F51092710310927003B09385
:1031A0006F03A0936E03BCCFD383C2834081518150
:1031B000840F951FC817D90761F44E5F5F4F888150
:1031C0009981480F591F518340838A819B81938342
:1031D00082832115310509F0B0CFF0937103E0939C
:1031E00070039ECFFD01DC01C0CF13821282D7CFC6
:1031F000B0E0A0E0EEEFF8E10C9454168C010097DB
:1032000051F4CB010E94D3178C01C801CDB7DEB7B2
:10321000E0E10C947016FC01E60FF71F9C012250B0
:103220003109E217F30708F49DC0D901CD91DC9173
:103230001197C617D70798F0C530D10530F3CE01E6
:1032400004978617970708F3C61BD70B2297C193DD
:10325000D1936D937C93CF010E946F18D6CF5B0101
:10326000AC1ABD0A4C018C0E9D1EA0917003B0914A
:103270007103512C412CF12CE12C109731F58091E8
:103280006E0390916F038815990509F05CC046168E
:10329000570608F058C080910601909107010097E9
:1032A00041F48DB79EB740910A0150910B01841BE8
:1032B000950BE817F90708F055C0F0936F03E093FA
:1032C0006E03F90171836083A0CF8D919C9111975A
:1032D00012966C90129713967C901397A815B905C7
:1032E00059F56C0142E0C40ED11CCA14DB0420F174
:1032F000AC014A195B09DA011296159780F06282D7
:10330000738251834083D9016D937C93E114F1045E
:1033100071F0D7011396FC93EE93129776CF229615
:103320008C0F9D1FF90191838083F301EFCFF09300
:103330007103E093700369CF4816590608F42C0115
:103340007D01D3019ACFCB010E94D3177C01009756
:1033500049F0AE01B8010E94B519C8010E946F186A
:10336000870153CF10E000E050CFFB01DC0102C029
:1033700001900D9241505040D8F70895FB01DC01B7
:0E33800001900D920020E1F70895F894FFCF20
:10338E00010001000C000000720380003F065B4F3D
:10339E00666D7D077F6F00BF86DBCFE6EDFD87FF95
:1033AE00EF80FEFDFBF7EFDFBF7F0E0D0B070F0F5C
:1033BE000F0F3939393931291938000000005302FD
:1033CE00B301E001A0021102EF01030200000000B0
:1033DE00C2049504F1046B048E047B046C040D0A84
:1033EE0000525443206C6F73742074696D650048ED
:1033FE004F555253203D20004D494E5554455320B4
:10340E003D20005345434F4E4453203D2000424D36
:10341E0050313830205375636365737321004E6FDE
:10342E007420666F756E6420424D50313830210025
:08343E00436C69636B2100007F
:00000001FF
