:100000000C9462000C948A000C948A000C948A0070
:100010000C948A000C948A000C948A000C948A0038
:100020000C948A000C948A000C948A000C948A0028
:100030000C948A000C948A000C948A000C948A0018
:100040000C9496020C948A000C9406030C94E00223
:100050000C948A000C948A000C948A000C948A00F8
:100060000C948A000C948A000000000023002600F3
:10007000290000000000240027002A0000000000E2
:10008000250028002B0004040404040404040202D4
:100090000202020203030303030301020408102007
:1000A0004080010204081020010204081020000012
:1000B0000008000201000003040700000000000027
:1000C0000000420511241FBECFEFD8E0DEBFCDBF38
:1000D00011E0A0E0B1E0E6E0FBE002C005900D9287
:1000E000A234B107D9F722E0A2E4B1E001C01D9229
:1000F000A030B207E1F710E0C2E6D0E004C02197DB
:10010000FE010E947B05C136D107C9F70E94380362
:100110000C9481050C940000833081F028F4813028
:1001200099F08230A9F008958730A9F08830C9F09D
:100130008430B1F4809180008F7D03C08091800075
:100140008F7780938000089584B58F7784BD08955C
:1001500084B58F7DFBCF8091B0008F778093B00006
:1001600008958091B0008F7DF9CF1F93CF93DF93D7
:10017000282F30E0F901E255FF4F8491F901E6564E
:10018000FF4FD491F901EA57FF4FC491CC23A9F056
:10019000162F81110E948C00EC2FF0E0EE0FFF1F54
:1001A000E458FF4FA591B4918FB7F894EC911111D9
:1001B00008C0D095DE23DC938FBFDF91CF911F91D4
:1001C0000895DE2BF8CFCF93DF9390E0FC01E65645
:1001D000FF4F24918A579F4FFC0184918823D1F0CF
:1001E00090E0880F991FFC01EE58FF4FA591B49144
:1001F000FC01E458FF4FC591D491623071F49FB770
:10020000F8943C91822F809583238C93E8812E2B48
:1002100028839FBFDF91CF9108958FB7F894EC9119
:100220002E2B2C938FBFF6CF2FB7F89460915F01E0
:100230007091600180916101909162012FBF0895DA
:10024000AF92BF92CF92DF92EF92FF920F931F93E4
:10025000CF93DF936C017B018B01040F151FEB0122
:100260005E01AE18BF08C017D10759F06991D601D9
:10027000ED91FC910190F081E02DC6010995892B4B
:1002800079F7C501DF91CF911F910F91FF90EF900A
:10029000DF90CF90BF90AF900895FC01538D448DB7
:1002A000252F30E0842F90E0821B930B541710F021
:1002B000CF96089501970895FC01918D828D98172E
:1002C00061F0A28DAE0FBF2FB11D5D968C91928D06
:1002D0009F5F9F73928F90E008958FEF9FEF089537
:1002E000FC01918D828D981731F0828DE80FF11D00
:1002F000858D90E008958FEF9FEF0895FC01918D1B
:10030000228D892F90E0805C9F4F821B91098F7313
:100310009927089583E691E00E947E0121E0892BD0
:1003200009F420E0822F089580E090E0892B29F0E5
:100330000E948A0181110C9400000895FC01A48D93
:10034000A80FB92FB11DA35ABF4F2C91848D90E0F7
:1003500001968F739927848FA689B7892C93A089DA
:10036000B1898C91837080648C93938D848D981364
:1003700006C00288F389E02D80818F7D80830895F7
:10038000EF92FF920F931F93CF93DF93EC0181E0E5
:10039000888F9B8D8C8D98131AC0E889F98980818C
:1003A00085FF15C09FB7F894EE89FF896083E889BF
:1003B000F98980818370806480839FBF81E090E0B1
:1003C000DF91CF911F910F91FF90EF900895F62E3E
:1003D0000B8D10E00F5F1F4F0F731127E02E8C8DD8
:1003E0008E110CC00FB607FCFACFE889F98980811D
:1003F00085FFF5CFCE010E949E01F1CFEB8DEC0F72
:10040000FD2FF11DE35AFF4FF0829FB7F8940B8F39
:10041000EA89FB8980818062CFCFCF93DF93EC01A3
:10042000888D8823B9F0AA89BB89E889F9898C91DC
:1004300085FD03C0808186FD0DC00FB607FCF7CF98
:100440008C9185FFF2CF808185FFEDCFCE010E9498
:100450009E01E9CFDF91CF910895CF93DF93FC0107
:1004600001900020E9F73197AF01481B590BBC01FF
:1004700083E691E00E942001EC0142E050E06FE24F
:1004800071E083E691E00E9420018C0F9D1FDF91B7
:10049000CF910895CF93DF93D82FC8E06D2F661FBB
:1004A0006627661F88E00E94B500DD0F61E08AE0E4
:1004B0000E94B50060E08AE00E94B500C15071F76B
:1004C000DF91CF9108951F93CF93DF93D82FC62F3D
:1004D000142F60E089E00E94B5008FEF0E944A026D
:1004E00080E00E944A0261E089E00E94B50060E07D
:1004F00089E00E94B500ED2FF0E0E75EFE4F8081BD
:100500000E944A026C2F70E0112369F0625F7E4FF7
:10051000FB0180810E944A0261E089E0DF91CF9176
:100520001F910C94B5006D5F7E4FF2CF1F920F921A
:100530000FB60F9211242F933F938F939F93AF93F6
:10054000BF9380915F0190916001A0916101B09192
:10055000620130915E0123E0230F2D3758F501969B
:10056000A11DB11D20935E0180935F0190936001F6
:10057000A0936101B093620180915A0190915B0157
:10058000A0915C01B0915D010196A11DB11D809308
:100590005A0190935B01A0935C01B0935D01BF9100
:1005A000AF919F918F913F912F910F900FBE0F9020
:1005B0001F90189526E8230F0296A11DB11DD2CFDA
:1005C0001F920F920FB60F9211242F933F934F93C8
:1005D0005F936F937F938F939F93AF93BF93EF93AB
:1005E000FF9383E691E00E949E01FF91EF91BF91FE
:1005F000AF919F918F917F916F915F914F913F91BB
:100600002F910F900FBE0F901F9018951F920F9271
:100610000FB60F9211242F938F939F93EF93FF9315
:10062000E0917301F09174018081E0917901F09182
:100630007A0182FD1BC0908180917C018F5F8F7356
:1006400020917D01821741F0E0917C01F0E0ED59AD
:10065000FE4F958F80937C01FF91EF919F918F9139
:100660002F910F900FBE0F901F9018958081F4CF9F
:10067000789484B5826084BD84B5816084BD85B57D
:10068000826085BD85B5816085BD80916E00816089
:1006900080936E001092810080918100826080932F
:1006A0008100809181008160809381008091800031
:1006B0008160809380008091B10084608093B1005C
:1006C0008091B00081608093B00080917A00846056
:1006D00080937A0080917A00826080937A00809182
:1006E0007A00816080937A0080917A00806880939C
:1006F0007A001092C10061E088E00E94E30061E0AE
:1007000089E00E94E30061E08AE00E94E30062E089
:1007100087E00E94E30062E086E00E94E300E0914F
:100720007301F091740182E08083E0916F01F09198
:1007300070011082E0917101F09172018FEC808361
:1007400010927B01E0917701F091780186E080833F
:10075000E0917501F0917601808180618083E09164
:100760007501F0917601808188608083E091750148
:10077000F0917601808180688083E0917501F0912D
:10078000760180818F7D808382E391E00E942D023B
:100790009AE0592E25EB622E20E0722E01EA10E03D
:1007A0003DE8E32E30E0F32E40E0C42E40E0D42EAE
:1007B000AA24A394B12C62E0862E912C0E941401ED
:1007C00020915601309157014091580150915901A3
:1007D000621B730B840B950B683E7340810591057A
:1007E00090F00E941401609356017093570180931A
:1007F000580190935901809155018F5F8C3308F017
:1008000000C1809355010E94140120915001309144
:1008100051014091520150915301621B730B840BA3
:10082000950B643071058105910508F459C00E944B
:100830001401609350017093510180935201909381
:10084000530120914301309144012130310521F4BD
:1008500080914B018111ECC080910201652D0E94B5
:100860006F05F82F2130310521F480914B01811162
:10087000E1C080910201652D0E946F05E92F2230B1
:10088000310521F480914B018111D6C08091540132
:10089000652D0E946F05582F2230310529F4809173
:1008A0004B019AE0811105C080915401652D0E9491
:1008B0006F05409155014095C0914201C13009F446
:1008C000C3C008F4BBC0C23009F4C2C0C33009F4CD
:1008D000C3C08C2F90E001968370992780934201CA
:1008E000F3018491F801C491F701D491DD2309F457
:1008F000B7C081110E948C00ED2FF0E0EE0FFF1FBA
:10090000E859FF4FA591B4918C91C82391E080E004
:1009100009F490E0C92FD82F809100019091010136
:100920008C179D0751F00E9414016093470170934A
:1009300048018093490190934A010E94140120913B
:100940004701309148014091490150914A01621B91
:10095000730B840B950B6233710581059105F0F0E3
:1009600080914501909146018C179D07B9F0D09375
:100970004601C0934501209789F4809143019091ED
:1009800044018130910509F473C008F46CC00297EA
:1009900009F473C08BE391E00E942D02D093010112
:1009A000C09300010E94140120914C0130914D012F
:1009B00040914E0150914F01621B730B840B950BBC
:1009C000643F71408105910580F080914B0191E079
:1009D000892780934B010E94140160934C0170930E
:1009E0004D0180934E0190934F01C114D10409F43D
:1009F000E5CE0E948A01882309F4E0CE0E9400001F
:100A0000DDCE10925501809154018F5F8C3318F424
:100A100080935401F8CE10925401809102018F5FAF
:100A2000883118F480930201EECE10920201EBCED1
:100A3000FAE01BCFEAE02ACF5AE031CF40E06F2F37
:100A400080E00E94630245CF41706E2F81E0F9CFB4
:100A500040E0652F82E0F5CF40E0692F83E0F1CFE1
:100A6000D0E0C0E059CFB0924401A092430192CFB0
:100A700090924401809243018DCF109244011092D4
:100A8000430188CFE3E6F1E01382128288EE93E01F
:100A9000A0E0B0E084839583A683B78381E291E0F0
:100AA0009183808385EC90E09587848784EC90E047
:100AB0009787868780EC90E0918B808B81EC90E02B
:100AC000938B828B82EC90E0958B848B86EC90E00C
:100AD000978B868B118E128E138E148E0895991B10
:100AE00079E004C0991F961708F0961B881F7A9525
:100AF000C9F780950895EE0FFF1F0590F491E02D42
:060B00000994F894FFCFF8
:100B060001000C3F065B4F666D7D077F6F00BF8659
:100B1600DBCFE6EDFD87FFEF80FEFDFBF700000073
:100B260000C00120014D010D027E015C0170010D26
:100B36000A0053746172742E2E2E00436C69636B27
:020B460021008C
:00000001FF
