:100000000C9468000C9490000C9490000C94900058
:100010000C9490000C9490000C9490000C94900020
:100020000C9490000C9490000C9490000C94081088
:100030000C9490000C9490000C9490000C94900000
:100040000C94470E0C9490000C94B70E0C94910EE7
:100050000C9490000C9490000C9490000C949000E0
:100060000C94E90E0C94900000000000240027007E
:100070002A0000000000250028002B0000000000DE
:1000800023002600290004040404040404040202DA
:100090000202020203030303030301020408102007
:1000A0004080010204081020010204081020000012
:1000B0000008000201000003040700000000000027
:1000C00000001F1C1F1E1F1E1F1F1E1F1E1F38107B
:1000D00011241FBECFEFD8E0DEBFCDBF24E0A4EDDA
:1000E000B1E001C01D92A538B207E1F711E0A0E030
:1000F000B1E0EEE8FAE302C005900D92A43DB1072D
:10010000D9F710E0C8E6D0E004C02197FE010E94B4
:10011000451BC736D107C9F70E9404110C94451D31
:100120000C94000008950895833081F028F4813004
:1001300099F08230A9F008958730A9F08830C9F08D
:100140008430B1F4809180008F7D03C08091800065
:100150008F7780938000089584B58F7784BD08954C
:1001600084B58F7DFBCF8091B0008F778093B000F6
:1001700008958091B0008F7DF9CFCF93DF93282F22
:1001800030E0F901E255FF4F8491F901E656FF4F47
:10019000D491F901EA57FF4FC491CC23A1F081110A
:1001A0000E949400EC2FF0E0EE0FFF1FE458FF4F89
:1001B000A591B491EC91ED2381E090E009F480E009
:1001C000DF91CF91089580E090E0FACF1F93CF9315
:1001D000DF93282F30E0F901E255FF4F8491F901B8
:1001E000E656FF4FD491F901EA57FF4FC491CC2353
:1001F000A9F0162F81110E949400EC2FF0E0EE0F71
:10020000FF1FEE58FF4FA591B4918FB7F894EC9172
:10021000111108C0D095DE23DC938FBFDF91CF9101
:100220001F910895DE2BF8CFCF93DF9390E0FC0170
:10023000E656FF4F24918A579F4FFC0184918823F3
:10024000C9F090E0880F991FFC01E859FF4FA59174
:10025000B491FC01EE58FF4FC591D49161110DC0CE
:100260009FB7F8948C91209582238C9388812823C2
:1002700028839FBFDF91CF910895623051F49FB7DB
:10028000F8943C91822F809583238C93E8812E2BC8
:10029000EFCF8FB7F894EC912E2B2C938FBFEACF32
:1002A0003FB7F8948091490290914A02A0914B0285
:1002B000B0914C0226B5A89B05C02F3F19F00196BE
:1002C000A11DB11D3FBFBA2FA92F982F8827BC01B0
:1002D000CD01620F711D811D911D42E0660F771FD8
:1002E000881F991F4A95D1F708958F929F92AF92D8
:1002F000BF92CF92DF92EF92FF926B017C010E943E
:1003000050014B015C01C114D104E104F104B9F0C6
:100310000E945001681979098A099B09683E734057
:100320008105910580F321E0C21AD108E108F108A6
:1003300088EE880E83E0981EA11CB11CE4CFFF90CC
:10034000EF90DF90CF90BF90AF909F908F900895E7
:100350002FB7F89460914502709146028091470250
:10036000909148022FBF0895AF92BF92CF92DF9233
:10037000EF92FF920F931F93CF93DF936C017B015A
:100380008B01040F151FEB015E01AE18BF08C017EB
:10039000D10759F06991D601ED91FC910190F0815E
:1003A000E02DC6010995892B79F7C501DF91CF9121
:1003B0001F910F91FF90EF90DF90CF90BF90AF9083
:1003C0000895FC01538D448D252F30E0842F90E05B
:1003D000821B930B541710F0CF9608950197089540
:1003E000FC01918D828D981761F0A28DAE0FBF2F09
:1003F000B11D5D968C91928D9F5F9F73928F90E05F
:1004000008958FEF9FEF0895FC01918D828D9817CD
:1004100031F0828DE80FF11D858D90E008958FEF0A
:100420009FEF0895FC01918D228D892F90E0805CD3
:100430009F4F821B91098F739927089583EC92E057
:100440000E94120221E0892B09F420E0822F0895F6
:1004500080E090E0892B29F00E941E0281110C940B
:1004600000000895FC01A48DA80FB92FB11DA35A57
:10047000BF4F2C91848D90E001968F739927848FC4
:10048000A689B7892C93A089B1898C9183708064E7
:100490008C93938D848D981306C00288F389E02D88
:1004A00080818F7D80830895EF92FF920F931F9339
:1004B000CF93DF93EC0181E0888F9B8D8C8D981317
:1004C0001AC0E889F989808185FF15C09FB7F89423
:1004D000EE89FF896083E889F9898081837080646F
:1004E00080839FBF81E090E0DF91CF911F910F91BA
:1004F000FF90EF900895F62E0B8D10E00F5F1F4FC9
:100500000F731127E02E8C8D8E110CC00FB607FCD7
:10051000FACFE889F989808185FFF5CFCE010E9465
:100520003202F1CFEB8DEC0FFD2FF11DE35AFF4F9F
:10053000F0829FB7F8940B8FEA89FB8980818062F3
:10054000CFCFCF93DF93EC01888D8823B9F0AA89B0
:10055000BB89E889F9898C9185FD03C0808186FD7E
:100560000DC00FB607FCF7CF8C9185FFF2CF8081CD
:1005700085FFEDCFCE010E943202E9CFDF91CF910E
:1005800008952091F601260F3327331F21323105BC
:10059000ECF420919902FC0190E080E0243069F0B5
:1005A00082E00895A091F6012191AC014A525E4F7C
:1005B000A40FB52FB11D2C930196861798F3809147
:1005C000F601680F6093F60180E0089581E00895D8
:1005D0001092990281E0809398021092730261E078
:1005E00082E10E94E60061E083E10E94E600E9EB1F
:1005F000F0E080818E7F808380818D7F808388E49E
:100600008093B80085E48093BC0008951092520254
:10061000109251021092A0021092C2020E94E802AF
:1006200082E990E09093500280934F0283E990E03A
:1006300090934E0280934D020895CF93DF9391E003
:100640009093D5018823B9F0C091B800D091BA0039
:100650008091BC008A7B8093BC0060E082E10E94B4
:10066000E60060E083E10E94E6000E94E802D09389
:10067000BA00C093B800DF91CF9108958F929F92F6
:10068000AF92BF92CF92DF92EF92FF920F931F93A0
:10069000CF93DF93D091C202D13208F0D7C0182F88
:1006A000C091C1020E9450016B017C0180919902AE
:1006B00081116BC082E080939902109398028FEFB2
:1006C0008093970210929602D0939502A1EAB2E02D
:1006D000E5E7F2E080E0D81391C0109274028091B7
:1006E0007402CC0FC82BC0937402809173028130C6
:1006F00009F088C0109273020E9450016B017C01C6
:10070000809174028093BB0080919B0290919C0227
:10071000A0919D02B0919E02892B8A2B8B2BA1F078
:100720000E94500100919B0210919C0220919D0219
:1007300030919E026C197D098E099F0906171707D3
:100740002807390708F442C08091BC0083FDD8CF48
:1007500085EC8093BC000E9450016B017C0180916C
:100760009902823009F450C0809197028F3F09F4BA
:100770006FC080919702803209F46CC0809197021B
:10078000803309F469C084E026C080919B02909177
:100790009C02A0919D02B0919E02892B8A2B8B2BEB
:1007A00009F484CF0E94500180909B0290909C029B
:1007B000A0909D02B0909E026C197D098E099F0940
:1007C00086169706A806B90608F070CF80919A029F
:1007D0000E941D0385E01092A0021092C2021092A6
:1007E0009F02DF91CF911F910F91FF90EF90DF90CB
:1007F000CF90BF90AF909F908F9008959D919193CF
:100800008F5F69CF85EEA5CF80919B0290919C026E
:10081000A0919D02B0919E02892B8A2B8B2B09F40B
:100820009ECF0E94500100919B0210919C0220914A
:100830009D0230919E026C197D098E099F09061751
:1008400017072807390708F08ACFC0CF81E0C3CF48
:1008500080E0C1CF82E0BFCF83E0BDCFDC01119645
:100860008D919C91DC01ED91FC910280F381E02D52
:1008700041E050E00995019729F481E00E943E0390
:1008800091E0811190E0892F08950F931F93CF93EA
:10089000DF93E1E0F0E02115310511F0E2E0F0E056
:1008A000EC01AC81BD81AE17BF0738F1DA018B01D5
:1008B00089819A81488151E050939F024093C102FF
:1008C0001092A0021092C202232B41F4B801CE0173
:1008D000DF91CF911F910F910C942E041097B1F3DB
:1008E000FC0120813181F9012281338141E050E016
:1008F000BD01F9010995019749F380E0DF91CF919E
:100900001F910F910895CF93DF93EC018B81882382
:10091000A1F0888191E090939F028093C102109290
:10092000A0021092C20281E00E943E0391E0811178
:1009300090E0892FDF91CF9108950E94060381E016
:100940008B83CE010E948304982F8111E2CFF1CFD7
:100950008F929F92AF92BF92CF92DF92EF92FF92CF
:100960000F931F93CF93DF93D82FC62F142F61328D
:1009700008F09CC00E9450016B017C01809199029B
:1009800081116FC081E080939902109398029FEFCC
:1009900090939702109296029C0F909395028093E9
:1009A000740280917402DD0FD82BD0937402809171
:1009B0007302813009F07CC0109273020E945001D2
:1009C0006B017C01809174028093BB0080919B023B
:1009D00090919C02A0919D02B0919E02892B8A2B3E
:1009E0008B2BA1F00E94500100919B0210919C0260
:1009F00020919D0230919E026C197D098E099F09FC
:100A0000061717072807390708F44CC08091BC0067
:100A100083FDD8CF85EC8093BC000E9450016B0110
:100A20007C0180919902813009F444C08091960242
:100A30008C1710F4C0919602E5E7F2E0A3E5B2E06E
:100A400080E08C1359C08C2FDF91CF911F910F91B3
:100A5000FF90EF90DF90CF90BF90AF909F908F90DE
:100A6000089580919B0290919C02A0919D02B0916B
:100A70009E02892B8A2B8B2B09F480CF0E94500178
:100A800080909B0290909C02A0909D02B0909E024C
:100A90006C197D098E099F0986169706A806B90666
:100AA00008F06CCF80919A020E941D03C0E0CBCF6A
:100AB00085EEB1CF80919B0290919C02A0919D0206
:100AC000B0919E02892B8A2B8B2B09F4AACF0E940E
:100AD000500100919B0210919C0220919D02309147
:100AE0009E026C197D098E099F09061717072807B2
:100AF000390708F096CFD6CF91919D938F5FA1CF04
:100B00000895E091520280915102E81730F4F0E02C
:100B1000ED5AFD4F808190E008958FEF9FEF08958B
:100B200090915202809151022FEF3FEF981748F4B5
:100B3000E92FF0E0ED5AFD4F208130E09F5F909368
:100B40005202C90108958091510290915202891B6D
:100B5000990B0895CF92DF92EF92FF920F931F931C
:100B6000CF93DF937C01CB018A0120919F02222346
:100B700089F0EB016B01C40ED51ECC15DD0569F0C3
:100B80006991D701ED91FC910190F081E02DC701B1
:100B90000995F3CF642F0E94C102C801DF91CF9164
:100BA0001F910F91FF90EF90DF90CF900895CF931A
:100BB000DF931F92CDB7DEB7698320919F02222376
:100BC000F9F02091C202203258F021E030E0FC011F
:100BD0003383228390E080E00F90DF91CF910895DE
:100BE0008091A002E82FF0E0EF55FD4F99819083AE
:100BF0008F5F8093A0028093C20281E090E0ECCFEF
:100C000061E0CE0101960E94C102F7CF1F93CF93FE
:100C1000DF93C82F162FD72F80914D0491E090932A
:100C20009F028093C1021092A0021092C2026C2F08
:100C300080E693E00E94D7056D2F80E693E00E9446
:100C4000D705612F80E693E00E94D70581E00E94DE
:100C50003E03EC2FF0E0EE0FFF1FE858FC4F10832F
:100C6000D1838BED9EE20197F1F7DF91CF911F9138
:100C7000089590E080E0089560E00E94E6008BE037
:100C800090E00197F1F70895609153047091540436
:100C900090E080E00E94CC1820E030E048EC52E484
:100CA0000E94181A60930001709301018093020161
:100CB000909303010895CF93DF93CCE6D3E08FEFB9
:100CC0009FEF90935D0480935C04EEA1FFA180816F
:100CD0008F7C8083EEA1FFA16081718184E00E94FE
:100CE000060681E080935704E8A5F9A58081807FFE
:100CF00081608083E8A5F9A56081718185E0DF913D
:100D0000CF910C940606CF93DF93CCE6D3E08FEF20
:100D10009FEF90935D0480935C04EEA1FFA180811E
:100D20008F7C80618083EEA1FFA16081718184E06E
:100D30000E94060686E080935704E8A5F9A5808105
:100D4000807F86608083E8A5F9A56081718185E058
:100D5000DF91CF910C9406068EBD00000DB407FE06
:100D6000FDCF8EB50895CF93DF93C82FD62F60E0C7
:100D700089E00E94E6008FEF0E94AC0680E00E94AE
:100D8000AC0661E089E00E94E60060E089E00E9434
:100D9000E600EC2FF0E0E25CFE4F80810E94AC06A2
:100DA0008D2F0E94AC0661E089E0DF91CF910C9419
:100DB000E6001F93CF93DF93D82FC62F142F60E048
:100DC00089E00E94E6008FEF0E94AC0680E00E945E
:100DD000AC0661E089E00E94E60060E089E00E94E4
:100DE000E600ED2FF0E0E25CFE4F80810E94AC0651
:100DF0006C2F70E0112369F06D5C7E4FFB018081E8
:100E00000E94AC0661E089E0DF91CF911F910C94C4
:100E1000E600685D7E4FF2CF42E050E06AE771E0A5
:100E200083EC92E00C94B401CF93DF93FC0101902A
:100E30000020E9F73197AF01481B590BBC0183EC47
:100E400092E00E94B401EC010E940C078C0F9D1FE0
:100E5000DF91CF910895CF93DF93FC0144815581B9
:100E60006081718183EC92E00E94B401EC010E94E8
:100E70000C078C0F9D1FDF91CF9108950F931F9347
:100E8000CF93DF93CCE6D3E00DE414E0F80180814A
:100E900091E090939F028093C1021092A002109261
:100EA000C2026AE080E693E00E94D70580E00E94DB
:100EB0003E0341E062E0F80180810E94A8041092A4
:100EC00052028093510283EE93E00197F1F780E69E
:100ED00093E00E949005182F80E693E00E94900511
:100EE000082F81E00E943E0308831983CE01DF9121
:100EF000CF911F910F9108950E943E07E0919C03AE
:100F0000F0919D03818186FFF7CF0895ECE6F3E031
:100F1000A4A1B5A1382F3295330F330F307C2C911B
:100F20002F73232B2C939295990F990F907C869574
:100F30008695892B11968C93A4A1B5A18C91806183
:100F40008C93A4A1B5A1809155048370982F990F1B
:100F5000990F8C91837F892B8C93A4A1B5A190913B
:100F6000560493708C918C7F892B8C93A4A1B5A18E
:100F70008C918F7D8C9304A0F5A1E02D608171810F
:100F800083E00E9406060C947C075F926F927F922A
:100F90008F929F92AF92BF92CF92DF92EF92FF9289
:100FA0000F931F93CF93DF93DC011496ED91FC9187
:100FB0001597EF2B09F45FC069013A01EC018881B4
:100FC00091E090939F028093C1021092A002109230
:100FD000C202CD010E942E04582E882309F44BC072
:100FE000F12CE12C8C819D8186010E191F0980173F
:100FF000910708F48C0141E0C601801B910BE816B3
:10100000F90608F440E0602F88810E94A80410923D
:101010005202809351028017110669F543018E0C2C
:101020009F1C5401C501881999098017910768F41C
:1010300089819A81DC01ED91FC910284F385E02D98
:101040000995F50181935F01EDCFE00EF11EEC14DF
:10105000FD0440F2852DDF91CF911F910F91FF90FC
:10106000EF90DF90CF90BF90AF909F908F907F9048
:101070006F905F900895512CEDCFCF93DF9300D008
:101080001F92CDB7DEB78B8322E030E0AE014F5F19
:101090005F4FBE016D5F7F4F809163049091640448
:1010A0000E94C50789819A819827892798270F90E0
:1010B0000F900F90DF91CF910895CF93DF9300D0E1
:1010C000CDB7DEB78EE28A8384EF898321E030E0FA
:1010D000AE014F5F5F4FBE016E5F7F4F8091630433
:1010E000909164040E94450465E070E080E090E027
:1010F0000E94750186EF0E943D080F900F90DF91CE
:10110000CF9108954F925F926F927F928F929F92AC
:10111000AF92BF92CF92DF92EF92FF921F93CF9345
:10112000DF93CDB7DEB728970FB6F894DEBF0FBEBA
:10113000CDBF0E945D084C01B12CA12C80916504AB
:101140008295880F880F807C8C5C8C8384EF8B83E6
:1011500021E030E0AE014D5F5F4FBE016C5F7F4F1D
:1011600080916304909164040E9445048091650419
:1011700081117DC165E070E080E090E00E94750122
:1011800086EF0E943D08B0E0A0E0CC24D82EE92EE6
:10119000FA2E88EF8A8321E030E0AE014F5F5F4F87
:1011A000BE016E5F7F4F80916304909164040E9442
:1011B000C5078981C82A1091650480917A049091AD
:1011C0007B04A5019401281B390B41095109A09109
:1011D0007804B09179040E94C7192B013C01AFE05B
:1011E0007594679457944794AA95D1F760917204C7
:1011F00070917304072E000C880B990BBBE0660FEF
:10120000771F881F991FBA95D1F7209174043091E8
:101210007504032E000C440B550B240D351D461D83
:10122000571D0E94261B420E531E641E751E20EA87
:10123000421A2FE0520A61087108A3019201C3010A
:10124000B2010E94C01A4B015C018CE0B594A794D6
:10125000979487948A95D1F7A0916A04B0916B0412
:101260000E944B1B9B01AC019DE05595479537951E
:1012700027959A95D1F72D833E834F835887A09168
:101280006C04B0916D04A50194010E944B1B9C015C
:10129000552737FD5095452F8D819E81AF81B885AB
:1012A000280F391F4A1F5B1F2E5F3F4F4F4F5F4F65
:1012B00062E055954795379527956A95D1F730584F
:1012C0004F4F5F4FA0917604B09177040E94C719E9
:1012D0009B01AC017FE056954795379527957A9508
:1012E000D1F72D833E834F83588788E090E0811BA0
:1012F000910904C0F694E794D794C7948A95D2F7DD
:10130000A0916E04B0916F04A50194010E944B1B43
:101310004B015C01EBE0B594A79497948794EA9510
:10132000D1F7A0916804B0916904A30192010E94D1
:101330004B1BFBE09595879577956795FA95D1F7C7
:10134000680D791D8A1D9B1D80906604909067042E
:10135000092C000CAA08BB08A2E0880C991CAA1C46
:10136000BB1CAA95D1F7680D791D8A1D9B1D012E06
:1013700004C0660F771F881F991F0A94D2F76E5F0B
:101380007F4F8F4F9F4F24E030E040E050E00E94BD
:10139000261BD701C601821B930BA40BB50B9C0126
:1013A000AD0160E573EC80E090E004C09695879510
:1013B000779567951A95D2F70E94C01A97FD6AC073
:1013C000660F771F881F991F2D813E814F81588599
:1013D0000E94041B69017A019927F7FC9A958F2DC9
:1013E0007E2D6D2D9B01AC010E94C01A9B01AC01AA
:1013F000AEEDBBE00E94C7194B015C01A3E4B3EE64
:10140000A70196010E944E1BBC01992777FD90957C
:10141000892F4501BB2497FCB094AB2C680D791D36
:101420008A1D9B1D6153714F8F4F9F4F44E09595CF
:101430008795779567954A95D1F76C0D7D1D8E1D23
:101440009F1D28960FB6F894DEBF0FBECDBFDF916B
:10145000CF911F91FF90EF90DF90CF90BF90AF9012
:101460009F908F907F906F905F904F900895813004
:1014700029F468E070E080E090E080CE823029F4CA
:101480006EE070E080E090E079CE6AE170E080E0AC
:1014900090E074CE2D813E814F8158850E94041BBF
:1014A00069017A01CC0CDD1CEE1CFF1C95CFEF927C
:1014B000FF921F93CF93DF937C01D0E0C0E010E058
:1014C000F70180810E94BD000C2E01C0880F0A9494
:1014D000EAF7182B61E0F70181810E94E60060E0E5
:1014E000F70181810E94E6002196C830D10541F7BD
:1014F000812FDF91CF911F91FF90EF900895FF9280
:101500000F931F93CF93DF938C01D62FF42EC0E05F
:101510006D2F6170F80180810E94E60061E0F801A2
:1015200081810E94E600C73039F4FF2029F060E095
:10153000F80180810E94140160E0F80181810E941D
:10154000E600D695CF5FC83019F7DF91CF911F9194
:101550000F91FF9008951F93CF93DF93EC01162F07
:1015600060E08A810E94E60061E08A810E941401A5
:1015700060E089810E94E60061E089810E94140197
:1015800061E088810E94140161E08A810E94E60086
:101590008BE090E00197F1F7412F4170612FCE0170
:1015A000DF91CF911F910C947F0A1F93CF93DF930C
:1015B000EC016EEB80917C0490917D040E94AB0A5B
:1015C0002D811AE0822F612F0E94D01A682F660F9A
:1015D000680F660F620F40E080917C0490917D045B
:1015E0000E947F0A2C81822F612F0E94D01A682FBF
:1015F000660F680F660F620F40E080917C04909147
:101600007D040E947F0A2B81822F612F0E94D01AB5
:10161000682F660F680F660F620F40E080917C04B0
:1016200090917D040E947F0A2A81822F612F0E945F
:10163000D01A682F660F680F660F620F40E0809126
:101640007C0490917D040E947F0A2981822F612F62
:101650000E94D01A682F660F680F660F620F40E075
:1016600080917C0490917D040E947F0A6981988119
:10167000492F50E08A81282F30E0E2ECF0E081E051
:10168000861730F47491270F311D8F5F3196F8CF94
:10169000633020F0937011F42F5F3F4F6DE671E0DF
:1016A000469FC001479F900D569F900D11240596AF
:1016B0004D5F5F4F5695479556954795840F951FFB
:1016C000820F931F67E070E00E94DC1A682F81117F
:1016D00001C067E040E080917C0490917D040E940D
:1016E0007F0A2881822F6AE00E94D01A682F660F35
:1016F000680F660F620F40E080917C0490917D043A
:101700000E947F0A40E060E080917C0490917D041B
:101710000E947F0AE0917C04F0917D048281DF9138
:10172000CF911F910C943C06CF92DF92EF92FF92E3
:101730000F931F93CF93DF9300D000D000D0CDB78D
:10174000DEB76FEB80917C0490917D040E94AB0A20
:1017500080917C0490917D040E94570A8F77282FF6
:1017600030E0F4E035952795FA95E1F7922F990F3F
:10177000990F022F091B000F080F80917C04909194
:101780007D040E94570A282F30E0A4E03595279564
:10179000AA95E1F7922F990F990FF22EF91AFF0CE3
:1017A000F80E80917C0490917D040E94570A86FF78
:1017B00077C0982F9F71292F30E0E4E03595279569
:1017C000EA95E1F7322F330F330F122F131B110F4E
:1017D000190F85FD145F80917C0490917D040E9417
:1017E000570A282F30E094E0359527959A95E1F730
:1017F000922F990F990FE22EE91AEE0CE80E8091C4
:101800007C0490917D040E94570A282F30E044E028
:10181000359527954A95E1F7922F990F990FD22E7A
:10182000D91ADD0CD80E80917C0490917D040E9421
:10183000570A80917C0490917D040E94570A482F9A
:1018400050E064E0559547956A95E1F7942F990F1C
:10185000990FC42EC91ACC0CC80E80917C049091AB
:101860007D040E94570AE0917C04F0917D048281FE
:101870000E943C0696014E2D512F6F2D702F80E057
:1018800090E026960FB6F894DEBF0FBECDBFDF9175
:10189000CF911F910F91FF90EF90DF90CF9008951F
:1018A000282F30E074E0359527957A95E1F7922F4F
:1018B000990F990F122F191B110F180F8CCFCF935F
:1018C000DF9300D000D000D0CDB7DEB70E94940BDC
:1018D000852F90E09093090180930801862F90E076
:1018E00090933D0280933C02872F90E090933F02BB
:1018F00080933E0226960FB6F894DEBF0FBECDBF92
:10190000DF91CF910895CF93682F616080917C041F
:1019100090917D040E94AB0A80917C0490917D049B
:101920000E94570AC82FE0917C04F0917D048281C7
:101930000E943C068C2FCF910895FC0180819181FB
:10194000009711F00C94EF1B08950F931F93CF9302
:10195000DF93EC0188819981009759F02A813B81BE
:101960002617370730F081E0DF91CF911F910F915B
:1019700008958B016F5F7F4F0E94781C009759F08C
:10198000998388831B830A832C813D81232B59F7FC
:10199000FC011082E8CF80E0E7CFEF92FF920F9337
:1019A0001F93CF93DF93EC01FB01E080F180E11402
:1019B000F10411F10481158101151105A9F08C8143
:1019C0009D81080F191FB801CE010E94A50C882324
:1019D00099F0288139818C819D81B701820F931FF5
:1019E0000E943E1D1D830C83CE01DF91CF911F917C
:1019F0000F91FF90EF90089588819981009711F0E1
:101A00000E94EF1B198218821D821C821B821A827F
:101A1000EBCFEF92FF920F931F93CF93DF93EC01E5
:101A20007B018A01BA010E94A50C288139818111AC
:101A300014C02115310519F0C9010E94EF1B19824C
:101A400018821D821C821B821A82CE01DF91CF91E7
:101A50001F910F91FF90EF9008951D830C83B701A4
:101A6000C9010E943E1DF1CFEF92FF920F931F9389
:101A7000CF93DF93CDB7DEB762970FB6F894DEBF92
:101A80000FBECDBF8C01CB01F801118210821382F1
:101A90001282158214824AE09E012F5F3F4F790126
:101AA000B9010E949718F70101900020E9F73197DA
:101AB000AF014E195F09B701C8010E94090D629676
:101AC0000FB6F894DEBF0FBECDBFDF91CF911F914F
:101AD0000F91FF90EF900895FB01DC0111961C928D
:101AE0001E9213961C921E92129715961C921E928D
:101AF00014978617970749F0608171816115710508
:101B000021F0448155810C94090D0895FC01118246
:101B100010821382128215821482FB010190002030
:101B2000E9F73197AF01461B570B0C94090D85ED72
:101B30008093BC0080919B0290919C02A0919D0299
:101B4000B0919E020796A11DB11D23E0B695A79501
:101B5000979587952A95D1F72091BC0024FD03C065
:101B600010929902089540919B0250919C026091BD
:101B70009D0270919E02452B462B472B69F30097DF
:101B8000A105B10541F02AE22A95F1F700C00197BD
:101B9000A109B109E1CF80919A020C941D03CF9263
:101BA000DF92EF92FF920E945D089C0150E040E0BE
:101BB000E3E6F4E08789908D281B390B4109510930
:101BC000A589B6890E94C7196B017C018FE0F59445
:101BD000E794D794C7948A95D1F767857089072EC3
:101BE000000C880B990B2BE0660F771F881F991F3D
:101BF0002A95D1F721893289032E000C440B550B0D
:101C00002C0D3D1D4E1D5F1D0E94261BCA01B901F2
:101C10006C0D7D1D8E1D9F1D685F7F4F8F4F9F4FE9
:101C200034E095958795779567953A95D1F70E9419
:101C3000CE1820E030E040E251E40E94181A609390
:101C400025027093260280932702909328020E9417
:101C50008208609321027093220280932302909362
:101C600024020E94CE182FE632E545E053E40E949C
:101C7000181A60931D0270931E0280931F029093A6
:101C80002002FF90EF90DF90CF900C9482081F927B
:101C90000F920FB60F9211242F933F938F939F9320
:101CA000AF93BF938091450290914602A091470265
:101CB000B09148023091440223E0230F2D3758F5AC
:101CC0000196A11DB11D209344028093450290937B
:101CD0004602A0934702B093480280914902909136
:101CE0004A02A0914B02B0914C020196A11DB11D78
:101CF0008093490290934A02A0934B02B0934C0206
:101D0000BF91AF919F918F913F912F910F900FBEF7
:101D10000F901F90189526E8230F0296A11DB11D64
:101D2000D2CF1F920F920FB60F9211242F933F9391
:101D30004F935F936F937F938F939F93AF93BF93D3
:101D4000EF93FF9383EC92E00E943202FF91EF91B8
:101D5000BF91AF919F918F917F916F915F914F91C3
:101D60003F912F910F900FBE0F901F9018951F92CB
:101D70000F920FB60F9211242F938F939F93EF938F
:101D8000FF93E091D302F091D4028081E091D902D7
:101D9000F091DA0282FD1BC090818091DC028F5F9E
:101DA0008F732091DD02821741F0E091DC02F0E0B8
:101DB000ED53FD4F958F8093DC02FF91EF919F9142
:101DC0008F912F910F900FBE0F901F9018958081CB
:101DD000F4CF1F920F920FB60F9211242F933F93BF
:101DE0004F935F936F937F938F939F93AF93BF9323
:101DF000EF93FF938091B900887F803609F44AC041
:101E0000F0F5883209F4A7C018F5803109F49BC0B9
:101E1000B8F4882309F4F9C0883009F494C0FF911C
:101E2000EF91BF91AF919F918F917F916F915F9152
:101E30004F913F912F910F900FBE0F901F901895CB
:101E4000883109F488C0803251F78093970214C01A
:101E5000803409F49DC040F48033B9F38833F9F637
:101E60008093970285ECB0C0803509F485C0883531
:101E700009F496C0883499F60E94970DD0CF88391E
:101E800009F48CC038F5883729F050F4883611F001
:101E9000803729F683E0809399021092180257C088
:101EA000883809F47BC0803919F0803809F0B7CF41
:101EB00080911802803208F071C0E091180281E030
:101EC0008E0F809318028091BB00F0E0E850FE4F27
:101ED00080833DC0803B39F0E0F4803A09F479C05A
:101EE000883A09F09CCF84E0809399021092F70120
:101EF0001092F601E0914F02F09150020995809105
:101F0000F60181110FC081E08093F6011092D60195
:101F100009C0803C09F4A6CF883C09F4A3CF883BD4
:101F200009F07DCFE091F70181E08E0F8093F701FA
:101F3000F0E0EA52FE4F80818093BB009091F70160
:101F40008091F60129C0809174028093BB0085ECDA
:101F50008093BC0064CF909196028091950298176F
:101F600058F5E091960281E08E0F80939602F0E0A2
:101F7000EB58FD4F8081E9CFE091960281E08E0F12
:101F8000809396028091BB00F0E0EB58FD4F808378
:101F900090919602809195029817C8F285E8D8CF63
:101FA000E091960281E08E0F809396028091BB00B3
:101FB000F0E0EB58FD4F80838091980281115CCF57
:101FC00081E08093730284EA8093BC0010929902AE
:101FD00026CF85EC8093BC00109299028091180264
:101FE000803230F4E0911802F0E0E850FE4F1082A9
:101FF0006091180270E0E0914D02F0914E0288EF7E
:1020000091E00995109218020ACF1092970234CFEE
:102010001F920F920FB60F9211248F939F9380916E
:10202000D4018F5F8093D40180911C0291E08927B5
:1020300080931C0280911B028F5F8830B0F48093E4
:102040001B028091D4018091D4018091D401803F02
:1020500028F081E080931A021092D4019F918F9111
:102060000F900FBE0F901F90189510921B02E9CF92
:10207000E3ECF2E01382128288EE93E0A0E0B0E09D
:1020800084839583A683B7832AE531E03183208357
:1020900025EC30E03587248724EC30E0378726872D
:1020A00020EC30E0318B208B21EC30E0338B228B25
:1020B00022EC30E0358B248B26EC30E0378B268BFE
:1020C000118E128E138E148EE0E6F3E013821282CC
:1020D00084839583A683B7838CE691E09183808384
:1020E000EEE7F4E086E0808385E0818387E0828309
:1020F000F0937D04E0937C041092640410926304D6
:10210000ECE6F3E088E793E0978F868F8AE793E029
:1021100091A380A38CE793E093A382A38EE793E03F
:1021200095A384A380E893E097A386A382E893E035
:1021300091A780A784E893E093A782A786E893E01D
:1021400095A784A788E893E097A786A7F1ABE0ABB3
:102150008EE693E093AB82AB80E793E095AB84ABE4
:1021600082E793E097AB86AB84E793E091AF80AFD3
:1021700086E793E093AF82AF88E0E0E1F1E0A8EA80
:10218000B3E001900D928A95E1F788E0E8E1F1E093
:10219000A0EBB3E001900D928A95E1F788E0E0E2D0
:1021A000F1E0A8EBB3E001900D928A95E1F781E1AF
:1021B00090E090934E0480934D0480E190E09093E2
:1021C000500480934F0410925504109256041092BC
:1021D00057048FEF9FEF9093590480935804909386
:1021E0005B0480935A0490935D0480935C04109286
:1021F0005E0410925F041092600484E690E0909375
:102200006204809361040895CF93DF93CDB7DEB766
:1022100069970FB6F894DEBF0FBECDBF789484B532
:10222000826084BD84B5816084BD85B5826085BDD2
:1022300085B5816085BD80916E00816080936E0060
:102240001092810080918100826080938100809152
:102250008100816080938100809180008160809303
:1022600080008091B10084608093B1008091B000C3
:1022700081608093B00080917A00846080937A00BE
:1022800080917A00826080937A0080917A008160E8
:1022900080937A0080917A00806880937A0010920F
:1022A000C100E091D302F091D40282E08083E091FA
:1022B000CF02F091D0021082E091D102F091D202CF
:1022C0008FEC80831092DB02E091D702F091D8026C
:1022D00086E08083E091D502F091D6028081806112
:1022E0008083E091D502F091D6028081886080835E
:1022F000E091D502F091D602808180688083E091E0
:10230000D502F091D60280818F7D8083F89410925F
:1023100080001092810010928500109284008091BC
:10232000810083608093810084E294EF9093890020
:1023300080938800809181008860809381008091E3
:102340006F00826080936F00789461E089E00E9462
:10235000140162E08CE00E94140162E08AE00E94B5
:1023600014011FB7F89480911902811127C0E0E988
:10237000F0E08491E4EAF0E09491E82FF0E0EE0FD1
:10238000FF1FE859FF4FA591B491EC91E92321F487
:1023900061E08AE00E94E60061E08AE00E941401A8
:1023A0008CB580618CBD8CB580648CBD61E08DE0A6
:1023B0000E94140161E08BE00E94140180911902D7
:1023C0008F5F809319021FBF80E58CBD81E08DBDBA
:1023D00000917C0410917D0460E0F80181810E94ED
:1023E000140160E0F80180810E94140160E0F801AE
:1023F00082810E94140189E18B8B86E08C8B85E0C1
:102400008D8B80E18E8B8CE28F8B188E0E94940BCB
:1024100029833A834B835C836D837E838FEF830FA5
:102420008C3008F4F9C28DE791E00E941407CE01C8
:1024300043960E94D50A8EE80E94830C87FF1BC03A
:102440008EE80E94830C182F6EE880917C04909196
:102450007D040E94AB0A612F6F7740E080917C047D
:1024600090917D040E947F0AE0917C04F0917D04AC
:1024700082810E943C0680E80E94830C87FF1BC07B
:1024800080E80E94830C182F60E880917C04909172
:102490007D040E94AB0A612F6F7740E080917C043D
:1024A00090917D040E947F0AE0917C04F0917D046C
:1024B00082810E943C060E945F0C6091080170912D
:1024C0000901CE0101960E94340D6BE871E0CE0146
:1024D0000D960E94860DBE01635F7F4FCE01079669
:1024E0000E946C0DBE016F5F7F4FCE0107960E9468
:1024F000CD0C0E942B07CE0107960E949D0CCE01A9
:102500000D960E949D0CCE0101960E949D0C60913B
:102510003C0270913D02CE0101960E94340D64E9A7
:1025200071E0CE010D960E94860DBE01635F7F4F64
:10253000CE0107960E946C0DBE016F5F7F4FCE01EA
:1025400007960E94CD0C0E942B07CE0107960E9491
:102550009D0CCE010D960E949D0CCE0101960E940D
:102560009D0C60913E0270913F02CE0101960E9447
:10257000340D6FE971E0CE010D960E94860DBE010B
:10258000635F7F4FCE0107960E946C0DBE016F5FA7
:102590007F4FCE0107960E94CD0C0E942B07CE01E3
:1025A00007960E949D0CCE010D960E949D0CCE01B7
:1025B00001960E949D0C83E08093650480916304E2
:1025C00090916404009711F00E94EF1B86E090E068
:1025D0000E94531B8C0187E7F801808380E693E01B
:1025E00092838183138280E290E0958384831093A9
:1025F0006404009363040E94060381E0F80183836E
:10260000C8010E948304882309F444C280ED8D87A9
:1026100021E030E0AE014F5F5F4FBE01635F7F4F4F
:1026200080916304909164040E94C5078981853577
:1026300009F030C28AEA0E943D08909367048093B3
:1026400066048CEA0E943D089093690480936804B4
:102650008EEA0E943D0890936B0480936A0480EB9D
:102660000E943D08909377048093760482EB0E9449
:102670003D08909379048093780484EB0E943D0890
:1026800090937B0480937A0486EB0E943D0890939C
:102690006D0480936C0488EB0E943D0890936F0456
:1026A00080936E048AEB0E943D089093710480939E
:1026B00070048CEB0E943D08909373048093720425
:1026C0008EEB0E943D0890937504809374048AEA0F
:1026D00091E00E9414070E94CF0D80911A02882376
:1026E00031F010921A020E94CF0D0E945F0C1092DE
:1026F0005F0410925E04109260040E9406036AE078
:1027000070E080E090E00E947501E0918E03F0910E
:102710008F0311821082E0918E03F0918F038081EC
:102720008B7F8083E0918E03F0918F038081877F80
:102730008083E0918E03F0918F0380915E04877017
:10274000982F9295907F80818F78892B8083E0915C
:102750008E03F0918F03818190915F0490FB82F949
:102760008183E0918E03F0918F03818190916004C9
:1027700090FB83F98183E0918E03F0918F03818137
:1027800080628183E0918E03F0918F038181806468
:102790008183E0918E03F0918F0381818068818332
:1027A000E0918E03F0918F03808181608083E091BE
:1027B0008E03F0918F03818180618183E0918E038C
:1027C000F0918F0381818E7F8183E0918E03F09160
:1027D0008F036081718182E00E940606E09194037C
:1027E000F091950311821082E0919403F09195038A
:1027F00081818F778183E0919403F09195038081AB
:102800008F7380688083E0919403F09195038081B9
:102810008F7C8083E0919403F09195038181807F88
:1028200088608183E0919403F09195038081807F9B
:102830008083E0919403F09195036081718185E03C
:102840000E940606609161047091620490E080E04D
:102850000E94750120E030E048EC52E460910001F4
:102860007091010180910201909103010E94091968
:102870000E94911A6B01E0915504F0E0EE0FFF1FEA
:10288000E855FC4F808191819601281B390BC901C5
:10289000E0915604F0E0EE0FFF1FE854FC4F60811A
:1028A00071810E94DC1ACB010E948607D0925404E9
:1028B000C0925304E0918E03F0918F0381818E7F4B
:1028C0008183E0918E03F0918F0381818062818307
:1028D000E0918E03F0918F036081718182E00E940C
:1028E0000606E0918E03F0918F0381818E7F8183B4
:1028F000E0918E03F0918F03818180648183E09168
:102900008E03F0918F036081718182E00E94060640
:102910000E948306B0EA4B2EB6E85B2E66246394D1
:10292000712C0AE010E064E6262E312C0E94A801EA
:10293000C0904002D0904102E0904202F0904302E9
:102940006C197D098E099F09683E734081059105C8
:10295000B8F00E94A80160934002709341028093F6
:1029600042029093430280913E0290913F02019671
:102970008C3391050CF093C090933F0280933E02FC
:102980000E94A801C0903802D0903902E0903A022B
:10299000F0903B026C197D098E099F096230710528
:1029A0008105910508F4F4C20E94A80160933802E1
:1029B0007093390280933A0290933B02E090300288
:1029C000F090310240912F02498FC42ED12C56E055
:1029D000E516F10409F0F6C00E948306809000011C
:1029E00090900101A0900201B0900301C501B401D3
:1029F0000E948A1ACB01798D783008F081C0F601E7
:102A0000EC5FFA4E0C94451B9F167615AB16B2166A
:102A1000D215D615DA15DF158FEF840F8F3108F038
:102A200002CD583108F0FFCC6C3308F0FCCC7C337D
:102A300008F0F9CC323001F54E3108F0F4CC4D31CC
:102A400009F0F9CC30E02053384FC9018370992741
:102A5000892B09F0E8CCC90164E670E00E94DC1A19
:102A6000892B09F0E8CCC90160E971E00E94DC1A09
:102A7000892B09F0D8CCDFCC4F3109F0DCCC432FC7
:102A80004150550BCA0167E070E00E94F01A80FFC8
:102A9000D2CCC9CC8AEB91E00E941407FFCF1092F0
:102AA0003F0210923E0280913C0290913D020196BD
:102AB0008C3391052CF490933D0280933C0260CFBF
:102AC00010923D0210923C02809108019091090100
:102AD0000196883191052CF49093090180930801A7
:102AE0004FCF10920901109208014ACFB1010E9404
:102AF000F01AB8010E94F01A40E081E00E94D90665
:102B0000FFEFCF1ADF0A27E0C222DD24C0922F0296
:102B10008CE00E94BD006C01809104019091050140
:102B2000C816D90651F00E94A80160932B02709339
:102B30002C0280932D0290932E020E94A8012091D6
:102B40002B0230912C0240912D0250912E02621BDB
:102B5000730B840B950B623371058105910508F4A5
:102B6000AEC18091290290912A02C816D90609F4B3
:102B7000A6C1D0922A02C0922902C114D10409F040
:102B80009EC137E0E316F10408F095C1F701E55363
:102B9000FA4E0C94451B47174E175517D517DC17DF
:102BA000DF17E21740E06AE084E0A8CF40E06AE087
:102BB00085E0A4CF67E786E00E94B306A1CF6CE56D
:102BC00087E0FACF83E0E816F10441F50E945B0646
:102BD0008090250290902602A0902702B0902802B3
:102BE000C501B4010E948A1ACB01E98DE83008F0D2
:102BF00087CFF601E250FA4E0C94451B0616791564
:102C0000AB16B216D215D6150A160C1640E06AE0BD
:102C100080E074CF67E0CFCF61E3D2CFF4E0EF166E
:102C2000F10409F067C00E945B0660912102709177
:102C300022028091230290912402298D283008F0ED
:102C40005FCFF601EA5DF94E0C94451B2E16351642
:102C500042165116611670167816DF15A3019201FF
:102C60000E94261B40E0622FD3CFA30192010E9455
:102C7000261B20E137E240E050E00E94261B40E0A6
:102C8000622F3BCF20E137E240E050E00E94261B5C
:102C900028EE33E040E050E00E94261B40E0622F27
:102CA0005FC028EE33E040E050E00E94261B24E69F
:102CB00030E040E050E00E94261B40E0622F83E0BD
:102CC0001DCF24E630E040E050E00E94261B2AE0C1
:102CD00030E040E050E00E94261B40E0622F64CFCD
:102CE0002AE030E040E050E00E94261B40E060CF48
:102CF00063E761CF35E0E316F10409F048C00E94B4
:102D00005B0680901D0290901E02A0901F02B09062
:102D10002002C501B4010E948A1ACB01498D4830B6
:102D200008F0EECEF601E956F94E0C94451B9F16BD
:102D30007615AB16B216D215D615C316C51620E0F9
:102D400030E048EC52E4C501B4010E94181A0E9418
:102D5000911A40E05DCFB8010E94F01A41E0682F5F
:102D600082E0CCCE20E030E040E251E4C501B40185
:102D70000E9409190E948A1ACB01B8010E94F01A18
:102D800040E0682F9CCF66E716CF6DE319CF0E9415
:102D90005B0651E0E516F10421F480911C028111DB
:102DA00054C08091080190910901B8010E94F01A65
:102DB000B62E71E0E716F10421F480911C02811116
:102DC00047C08091080190910901B8010E94F01A52
:102DD000382F82E0E816F10421F480911C02811161
:102DE00039C080913C0290913D02B8010E94F01AD6
:102DF000262F92E0E916F10429F480911C026AE082
:102E0000811108C080913C0290913D02B8010E945E
:102E1000F01A682F80913E0290913F02A0911B0210
:102E2000B0E0AC0140955095E98DE83008F068CEEF
:102E3000F601E35EF84E0C94451B2C172F174E1627
:102E40003217341739173F1743175AE0B52EB5CF4D
:102E50003AE0C7CF2AE0D1CF40E06B2DD9CE417008
:102E6000632F4BCE40E02BCFB8010E94F01A40E018
:102E70009BCEB8010E94F01A40E0682F99CEA25B69
:102E8000BE4F6C9198CEAA5BBE4F6C9199CE41E03B
:102E900050E050933102409330020DC082E090E048
:102EA000909331028093300206C0E3E0F0E0F093AB
:102EB0003102E09330028CEC91E00E941407D09232
:102EC0000501C09204018AE00E94BD006C0180915E
:102ED000060190910701C816D90651F00E94A80179
:102EE00060933402709335028093360290933702D8
:102EF0000E94A8012091340230913502409136029F
:102F000050913702621B730B840B950B6233710572
:102F100081059105C8F18091320290913302C81663
:102F2000D90691F1D0923302C0923202C114D10479
:102F300059F50E94940BE72F2F83388749875A87CA
:102F40006B877C87809130029091310281309105AE
:102F500009F042C0852F90E0019688319105BCF5BB
:102F600090930901809308018091080129833A8395
:102F70004B838C836D83EE83CE0101960E94D50A2C
:102F80008CEC91E00E941407D0920701C0920601D8
:102F9000E0E0F0E0EF2B09F4C9CC0E941E02882388
:102FA00009F4BFCC0E940000BCCC24E030E0309398
:102FB0003102209330027FCF45E050E06ACF86E0B7
:102FC00090E06ECF109231021092300274CF1092C6
:102FD000090110920801C8CF82309105B9F470E060
:102FE0006F5F7F4F6C33710564F470933D026093A3
:102FF0003C0280913C0229833A834B835C838D831E
:10300000BACF10923D0210923C02F3CF069709F01E
:10301000B7CF0E943E07E0918E03F0918F0381812C
:1030200081608183E0918E03F0918F0380818F779F
:103030008083E0918E03F0918F0381818260818390
:10304000E0918E03F0918F036081718182E00E9494
:1030500006060E943E07E0915604F0E0EE0FFF1FC7
:10306000E854FC4FA0919C03B0919D032C911196C4
:103070008C91382F337040815181249FC001259F4E
:10308000900D349F900D1124E0915504F0E0EE0F67
:10309000FF1FE855FC4F20813181820F931F9093D1
:1030A0005404809353040E9444066AE070E080E078
:1030B00090E00E9475010E943E07E0919C03F09110
:1030C0009D03818186FFA7CF0E947C070E943E0757
:1030D000E0915604F0E0EE0FFF1FE854FC4F6081D2
:1030E0007181E0919C03F0919D0320818181382FB3
:1030F0003370269FC001279F900D369F900D11249D
:10310000E0915504F0E0EE0FFF1FE855FC4FE08022
:10311000F180E80EF91E0E94DC1ACB010E9486079E
:10312000F0925404E092530410922F0229CFBB274F
:103130004A3031F4992322F4BDE2909581959F4F56
:103140000C94A318BB27FB015527AA27880F991FAA
:10315000AA1FA41710F0A41B83955051B9F7A05DC6
:10316000AA3308F0A95DA193009779F7B111B19343
:103170001192CB010C94BC18DC01FC01672F7191FA
:103180007723E1F7329704C07C916D93708362914D
:10319000AE17BF07C8F30895E89409C097FB3EF443
:1031A00090958095709561957F4F8F4F9F4F992394
:1031B000A9F0F92F96E9BB279395F6958795779512
:1031C0006795B795F111F8CFFAF4BB0F11F460FFD2
:1031D0001BC06F5F7F4F8F4F9F4F16C0882311F02A
:1031E00096E911C0772321F09EE8872F762F05C03E
:1031F000662371F096E8862F70E060E02AF09A95D9
:10320000660F771F881FDAF7880F9695879597F9CD
:1032100008950E941C190C948D190E947F1938F092
:103220000E94861920F0952311F00C9476190C94C5
:103230007C1911240C94C1190E949E1970F3959F5A
:10324000C1F3950F50E0551F629FF001729FBB279D
:10325000F00DB11D639FAA27F00DB11DAA1F649F39
:103260006627B00DA11D661F829F2227B00DA11DEC
:10327000621F739FB00DA11D621F839FA00D611D72
:10328000221F749F3327A00D611D231F849F600D93
:10329000211D822F762F6A2F11249F5750409AF0BC
:1032A000F1F088234AF0EE0FFF1FBB1F661F771F48
:1032B000881F91505040A9F79E3F510580F00C9413
:1032C00076190C94C1195F3FE4F3983ED4F38695C8
:1032D00077956795B795F795E7959F5FC1F7FE2BB3
:1032E000880F911D9695879597F9089597F99F678F
:1032F00080E870E060E008959FEF80EC089500247E
:103300000A941616170618060906089500240A944A
:1033100012161306140605060895092E0394000CD0
:1033200011F4882352F0BB0F40F4BF2B11F460FF5F
:1033300004C06F5F7F4F8F4F9F4F089557FD905888
:10334000440F551F59F05F3F71F04795880F97FB69
:10335000991F61F09F3F79F0879508951216130623
:103360001406551FF2CF4695F1DF08C01616170652
:103370001806991FF1CF8695710561050894089587
:10338000E894BB2766277727CB0197F908950E9419
:10339000091AA59F900DB49F900DA49F800D911DBB
:1033A000112408952F923F924F925F926F927F92D5
:1033B0008F929F92AF92BF92CF92DF92EF92FF9245
:1033C0000F931F93CF93DF93CDB7DEB7CA1BDB0BF1
:1033D0000FB6F894DEBF0FBECDBF09942A88398896
:1033E00048885F846E847D848C849B84AA84B9849D
:1033F000C884DF80EE80FD800C811B81AA81B981A9
:10340000CE0FD11D0FB6F894DEBF0FBECDBFED01BC
:103410000895A29FB001B39FC001A39F700D811DAD
:103420001124911DB29F700D811D1124911D0895CD
:103430000E942C1A0C948D190E94861958F00E9433
:103440007F1940F029F45F3F29F00C94761951114F
:103450000C94C1190C947C190E949E1968F399234D
:10346000B1F3552391F3951B550BBB27AA27621780
:103470007307840738F09F5F5F4F220F331F441F8D
:10348000AA1FA9F335D00E2E3AF0E0E832D09150C1
:103490005040E695001CCAF72BD0FE2F29D0660FAE
:1034A000771F881FBB1F261737074807AB07B0E8F1
:1034B00009F0BB0B802DBF01FF2793585F4F3AF0F7
:1034C0009E3F510578F00C9476190C94C1195F3F1A
:1034D000E4F3983ED4F3869577956795B795F7957D
:1034E0009F5FC9F7880F911D9695879597F9089565
:1034F000E1E0660F771F881FBB1F62177307840701
:10350000BA0720F0621B730B840BBA0BEE1F88F70F
:10351000E09508950E94911A6894B1110C94C11914
:1035200008950E94A61988F09F5798F0B92F9927FF
:10353000B751B0F0E1F0660F771F881F991F1AF09E
:10354000BA95C9F714C0B13091F00E94C019B1E02A
:1035500008950C94C019672F782F8827B85F39F029
:10356000B93FCCF3869577956795B395D9F73EF437
:1035700090958095709561957F4F8F4F9F4F0895DF
:10358000DB018F939F930E94C719BF91AF91A29FB8
:10359000800D911DA39F900DB29F900D1124089551
:1035A000991B79E004C0991F961708F0961B881F95
:1035B0007A95C9F780950895AA1BBB1B51E107C0F6
:1035C000AA1FBB1FA617B70710F0A61BB70B881FB3
:1035D000991F5A95A9F780959095BC01CD01089542
:1035E00097FB072E16F4009407D077FD09D00E94B0
:1035F000DC1A07FC05D03EF4909581959F4F089505
:10360000709561957F4F0895A1E21A2EAA1BBB1BEE
:10361000FD010DC0AA1FBB1FEE1FFF1FA217B3079E
:10362000E407F50720F0A21BB30BE40BF50B661FB4
:10363000771F881F991F1A9469F760957095809578
:1036400090959B01AC01BD01CF010895052E97FB1C
:103650001EF400940E943D1B57FD07D00E94041BDE
:1036600007FC03D04EF40C943D1B509540953095CB
:1036700021953F4F4F4F5F4F0895909580957095DE
:1036800061957F4F8F4F9F4F0895EE0FFF1F05905D
:10369000F491E02D0994B7FF0C94C7190E94C71943
:1036A000821B930B08950F931F93CF93DF93823068
:1036B000910510F482E090E0E0918304F09184049D
:1036C00030E020E0B0E0A0E0309799F4211531051A
:1036D00009F44AC0281B390B24303105D8F58A81FA
:1036E0009B816115710589F1FB0193838283FE0142
:1036F00011C0408151810281138148175907E0F0C0
:103700004817590799F4109761F012960C93129785
:1037100013961C933296CF01DF91CF911F910F9199
:1037200008950093830410938404F4CF2115310588
:1037300051F04217530738F0A901DB019A01BD018E
:10374000DF01F801C1CFEF01F9CF9093840480939A
:103750008304CDCFFE01E20FF31F8193919322509A
:10376000310939832883D7CF209181043091820495
:10377000232B41F420910C0130910D0130938204F0
:103780002093810420910A0130910B01211531050C
:1037900041F42DB73EB740910E0150910F01241B0B
:1037A000350BE0918104F0918204E217F307A0F455
:1037B0002E1B3F0B2817390778F0AC014E5F5F4F87
:1037C0002417350748F04E0F5F1F50938204409333
:1037D0008104819391939FCFF0E0E0E09CCFCF9361
:1037E000DF930097E9F0FC01329713821282A091D7
:1037F0008304B0918404ED0130E020E01097A1F43F
:1038000020813181820F931F2091810430918204A5
:103810002817390709F061C0F0938204E09381040E
:10382000DF91CF910895EA01CE17DF07E8F54A81CD
:103830005B819E0141155105B1F7E901FB83EA83E4
:1038400049915991C40FD51FEC17FD0761F4808190
:1038500091810296840F951FE90199838883828163
:1038600093819B838A83F0E0E0E012968D919C9196
:1038700013970097B9F52D913C911197CD010296C0
:10388000820F931F209181043091820428173907F9
:1038900039F6309751F51092840410928304B09356
:1038A0008204A0938104BCCFD383C2834081518121
:1038B000840F951FC817D90761F44E5F5F4F888149
:1038C0009981480F591F518340838A819B8193833B
:1038D00082832115310509F0B0CFF0938404E09381
:1038E00083049ECFFD01DC01C0CF13821282D7CFAB
:1038F000B0E0A0E0EEE7FCE10C94D4198C01009755
:1039000051F4CB010E94531B8C01C801CDB7DEB727
:10391000E0E10C94F019FC01E60FF71F9C01225026
:103920003109E217F30708F49DC0D901CD91DC916C
:103930001197C617D70798F0C530D10530F3CE01DF
:1039400004978617970708F3C61BD70B2297C193D6
:10395000D1936D937C93CF010E94EF1BD6CF5B0177
:10396000AC1ABD0A4C018C0E9D1EA0918304B0912F
:103970008404512C412CF12CE12C109731F58091CD
:103980008104909182048815990509F05CC046165F
:10399000570608F058C080910A0190910B010097DA
:1039A00041F48DB79EB740910E0150910F01841BD9
:1039B000950BE817F90708F055C0F0938204E093DF
:1039C0008104F90171836083A0CF8D919C9111973F
:1039D00012966C90129713967C901397A815B905C0
:1039E00059F56C0142E0C40ED11CCA14DB0420F16D
:1039F000AC014A195B09DA011296159780F06282D0
:103A0000738251834083D9016D937C93E114F10457
:103A100071F0D7011396FC93EE93129776CF22960E
:103A20008C0F9D1FF90191838083F301EFCFF093F9
:103A30008404E093830469CF4816590608F42C01E6
:103A40007D01D3019ACFCB010E94531B7C010097CB
:103A500049F0AE01B8010E94351DC8010E94EF1B5C
:103A6000870153CF10E000E050CFFB01DC0102C022
:103A700001900D9241505040D8F70895FB01DC01B0
:0E3A800001900D920020E1F70895F894FFCF19
:103A8E009A99C942010001000C00000085048000D3
:103A9E00FC21B01DB01D6419302A8C23302AB01DB4
:103AAE000A001400050001003F065B4F666D7D079E
:103ABE007F6F00BF86DBCFE6EDFD87FFEF80FEFD5B
:103ACE00FBF7EFDFBF7F0E0D0B070F0F0F0F39390F
:103ADE00393931291938000000005402B401E101CE
:103AEE00A1021202F001040200000000D705AA058F
:103AFE0039068005A305900581050D0A0052544331
:103B0E00206C6F73742074696D6500484F55525365
:103B1E00203D20004D494E55544553203D20005325
:103B2E0045434F4E4453203D2000424D50313830D6
:103B3E00205375636365737321004E6F7420666F37
:103B4E00756E6420424D503138302100436C6963EC
:043B5E006B210000D7
:00000001FF
