:100000000C9468000C9490000C9490000C94900058
:100010000C9490000C9490000C9490000C94900020
:100020000C9490000C9490000C9490000C94A60FEB
:100030000C9490000C9490000C9490000C94900000
:100040000C94E50D0C9490000C94550E0C942F0E0E
:100050000C9490000C9490000C9490000C949000E0
:100060000C94870E0C9490000000000024002700E0
:100070002A0000000000250028002B0000000000DE
:1000800023002600290004040404040404040202DA
:100090000202020203030303030301020408102007
:1000A0004080010204081020010204081020000012
:1000B0000008000201000003040700000000000027
:1000C00000001F1C1F1E1F1E1F1F1E1F1E1FD60FDE
:1000D00011241FBECFEFD8E0DEBFCDBF24E0A0EDDE
:1000E000B1E001C01D92A138B207E1F711E0A0E034
:1000F000B1E0EEE8F9E302C005900D92A03DB10732
:10010000D9F710E0C8E6D0E004C02197FE010E94B4
:10011000C51AC736D107C9F70E94A2100C94C51C96
:100120000C94000008950895833081F028F4813004
:1001300099F08230A9F008958730A9F08830C9F08D
:100140008430B1F4809180008F7D03C08091800065
:100150008F7780938000089584B58F7784BD08954C
:1001600084B58F7DFBCF8091B0008F778093B000F6
:1001700008958091B0008F7DF9CFCF93DF93282F22
:1001800030E0F901E255FF4F8491F901E656FF4F47
:10019000D491F901EA57FF4FC491CC23A1F081110A
:1001A0000E949400EC2FF0E0EE0FFF1FE458FF4F89
:1001B000A591B491EC91ED2381E090E009F480E009
:1001C000DF91CF91089580E090E0FACF1F93CF9315
:1001D000DF93282F30E0F901E255FF4F8491F901B8
:1001E000E656FF4FD491F901EA57FF4FC491CC2353
:1001F000A9F0162F81110E949400EC2FF0E0EE0F71
:10020000FF1FEE58FF4FA591B4918FB7F894EC9172
:10021000111108C0D095DE23DC938FBFDF91CF9101
:100220001F910895DE2BF8CFCF93DF9390E0FC0170
:10023000E656FF4F24918A579F4FFC0184918823F3
:10024000C9F090E0880F991FFC01E859FF4FA59174
:10025000B491FC01EE58FF4FC591D49161110DC0CE
:100260009FB7F8948C91209582238C9388812823C2
:1002700028839FBFDF91CF910895623051F49FB7DB
:10028000F8943C91822F809583238C93E8812E2BC8
:10029000EFCF8FB7F894EC912E2B2C938FBFEACF32
:1002A0003FB7F8948091450290914602A091470291
:1002B000B091480226B5A89B05C02F3F19F00196C2
:1002C000A11DB11D3FBFBA2FA92F982F8827BC01B0
:1002D000CD01620F711D811D911D42E0660F771FD8
:1002E000881F991F4A95D1F708958F929F92AF92D8
:1002F000BF92CF92DF92EF92FF926B017C010E943E
:1003000050014B015C01C114D104E104F104B9F0C6
:100310000E945001681979098A099B09683E734057
:100320008105910580F321E0C21AD108E108F108A6
:1003300088EE880E83E0981EA11CB11CE4CFFF90CC
:10034000EF90DF90CF90BF90AF909F908F900895E7
:100350002FB7F8946091410270914202809143025C
:10036000909144022FBF0895AF92BF92CF92DF9237
:10037000EF92FF920F931F93CF93DF936C017B015A
:100380008B01040F151FEB015E01AE18BF08C017EB
:10039000D10759F06991D601ED91FC910190F0815E
:1003A000E02DC6010995892B79F7C501DF91CF9121
:1003B0001F910F91FF90EF90DF90CF90BF90AF9083
:1003C0000895FC01538D448D252F30E0842F90E05B
:1003D000821B930B541710F0CF9608950197089540
:1003E000FC01918D828D981761F0A28DAE0FBF2F09
:1003F000B11D5D968C91928D9F5F9F73928F90E05F
:1004000008958FEF9FEF0895FC01918D828D9817CD
:1004100031F0828DE80FF11D858D90E008958FEF0A
:100420009FEF0895FC01918D228D892F90E0805CD3
:100430009F4F821B91098F73992708958FEB92E04C
:100440000E94120221E0892B09F420E0822F0895F6
:1004500080E090E0892B29F00E941E0281110C940B
:1004600000000895FC01A48DA80FB92FB11DA35A57
:10047000BF4F2C91848D90E001968F739927848FC4
:10048000A689B7892C93A089B1898C9183708064E7
:100490008C93938D848D981306C00288F389E02D88
:1004A00080818F7D80830895EF92FF920F931F9339
:1004B000CF93DF93EC0181E0888F9B8D8C8D981317
:1004C0001AC0E889F989808185FF15C09FB7F89423
:1004D000EE89FF896083E889F9898081837080646F
:1004E00080839FBF81E090E0DF91CF911F910F91BA
:1004F000FF90EF900895F62E0B8D10E00F5F1F4FC9
:100500000F731127E02E8C8D8E110CC00FB607FCD7
:10051000FACFE889F989808185FFF5CFCE010E9465
:100520003202F1CFEB8DEC0FFD2FF11DE35AFF4F9F
:10053000F0829FB7F8940B8FEA89FB8980818062F3
:10054000CFCFCF93DF93EC01888D8823B9F0AA89B0
:10055000BB89E889F9898C9185FD03C0808186FD7E
:100560000DC00FB607FCF7CF8C9185FFF2CF8081CD
:1005700085FFEDCFCE010E943202E9CFDF91CF910E
:1005800008952091F201260F3327331F21323105C0
:10059000ECF42091B902FC0190E080E0243069F095
:1005A00082E00895A091F2012191AC014E525E4F7C
:1005B000A40FB52FB11D2C930196861798F3809147
:1005C000F201680F6093F20180E0089581E00895E0
:1005D0001092B90281E0809398021092930261E038
:1005E00082E10E94E60061E083E10E94E600E9EB1F
:1005F000F0E080818E7F808380818D7F808388E49E
:100600008093B80085E48093BC00089510924E0258
:1006100010924D0210925002109272020E94E80253
:1006200082E990E090934C0280934B0283E990E042
:1006300090934A02809349020895CF93DF9391E00B
:100640009093D1018823B9F0C091B800D091BA003D
:100650008091BC008A7B8093BC0060E082E10E94B4
:10066000E60060E083E10E94E6000E94E802D09389
:10067000BA00C093B800DF91CF9108958F929F92F6
:10068000AF92BF92CF92DF92EF92FF920F931F93A0
:10069000CF93DF93D82FC62F142F613208F09CC060
:1006A0000E9450016B017C018091B90281116FC0E1
:1006B00081E08093B902109398029FEF9093970284
:1006C000109296029C0F90939502809394028091D1
:1006D0009402DD0FD82BD093940280919302813045
:1006E00009F07CC0109293020E9450016B017C01C2
:1006F000809194028093BB008091BB029091BC02D8
:10070000A091BD02B091BE02892B8A2B8B2BA1F048
:100710000E9450010091BB021091BC022091BD02C9
:100720003091BE026C197D098E099F0906171707C3
:100730002807390708F44CC08091BC0083FDD8CF4E
:1007400085EC8093BC000E9450016B017C0180917C
:10075000B902813009F444C0809196028C1710F4DC
:10076000C0919602E3E7F2E0A9E9B2E080E08C13E1
:1007700059C08C2FDF91CF911F910F91FF90EF9077
:10078000DF90CF90BF90AF909F908F900895809111
:10079000BB029091BC02A091BD02B091BE02892B18
:1007A0008A2B8B2B09F480CF0E9450018090BB02D2
:1007B0009090BC02A090BD02B090BE026C197D0961
:1007C0008E099F0986169706A806B90608F06CCF11
:1007D0008091BA020E941D03C0E0CBCF85EEB1CF5D
:1007E0008091BB029091BC02A091BD02B091BE026B
:1007F000892B8A2B8B2B09F4AACF0E9450010091E0
:10080000BB021091BC022091BD023091BE026C1956
:100810007D098E099F09061717072807390708F071
:1008200096CFD6CF91919D938F5FA1CF8F929F92BC
:10083000AF92BF92CF92DF92EF92FF920F931F93EE
:10084000CF93DF93D0917202D13208F0D7C0182F26
:10085000C09171020E9450016B017C018091B9022C
:1008600081116BC082E08093B902109398028FEFE0
:100870008093970210929602D0939502A1E5B2E080
:10088000E3E7F2E080E0D81391C0109294028091E7
:100890009402CC0FC82BC0939402809193028130B4
:1008A00009F088C0109293020E9450016B017C01F4
:1008B000809194028093BB008091BB029091BC0216
:1008C000A091BD02B091BE02892B8A2B8B2BA1F087
:1008D0000E9450010091BB021091BC022091BD0208
:1008E0003091BE026C197D098E099F090617170702
:1008F0002807390708F442C08091BC0083FDD8CF97
:1009000085EC8093BC000E9450016B017C018091BA
:10091000B902823009F450C0809197028F3F09F4E8
:100920006FC080919702803209F46CC08091970269
:10093000803309F469C084E026C08091BB029091A5
:10094000BC02A091BD02B091BE02892B8A2B8B2BD9
:1009500009F484CF0E9450018090BB029090BC02A9
:10096000A090BD02B090BE026C197D098E099F094E
:1009700086169706A806B90608F070CF8091BA02CD
:100980000E941D0385E01092500210927202109294
:100990004F02DF91CF911F910F91FF90EF90DF9069
:1009A000CF90BF90AF909F908F9008959D9191931D
:1009B0008F5F69CF85EEA5CF8091BB029091BC027D
:1009C000A091BD02B091BE02892B8A2B8B2B09F41A
:1009D0009ECF0E9450010091BB021091BC02209159
:1009E000BD023091BE026C197D098E099F09061760
:1009F00017072807390708F08ACFC0CF81E0C3CF97
:100A000080E0C1CF82E0BFCF83E0BDCFDC01119693
:100A10008D919C91DC01ED91FC910280F381E02DA0
:100A200041E050E00995019729F481E00E94160405
:100A300091E0811190E0892F08950F931F93CF9338
:100A4000DF93E1E0F0E02115310511F0E2E0F0E0A4
:100A5000EC01AC81BD81AE17BF0738F1DA018B0123
:100A600089819A81488151E050934F0240937102ED
:100A70001092500210927202232B41F4B801CE0161
:100A8000DF91CF911F910F910C9406051097B1F350
:100A9000FC0120813181F9012281338141E050E064
:100AA000BD01F9010995019749F380E0DF91CF91EC
:100AB0001F910F910895CF93DF93EC018B818823D1
:100AC000A1F0888191E090934F028093710210927F
:100AD00050021092720281E00E94160491E081118E
:100AE00090E0892FDF91CF9108950E94060381E065
:100AF0008B83CE010E945B05982F8111E2CFF1CF4D
:100B00000895E0914E0280914D02E81730F4F0E034
:100B1000E756FD4F808190E008958FEF9FEF089595
:100B200090914E0280914D022FEF3FEF981748F4BD
:100B3000E92FF0E0E756FD4F208130E09F5F909372
:100B40004E02C901089580914D0290914E02891B79
:100B5000990B0895CF92DF92EF92FF920F931F931C
:100B6000CF93DF937C01CB018A0120914F02222396
:100B700089F0EB016B01C40ED51ECC15DD0569F0C3
:100B80006991D701ED91FC910190F081E02DC701B1
:100B90000995F3CF642F0E94C102C801DF91CF9164
:100BA0001F910F91FF90EF90DF90CF900895CF931A
:100BB000DF931F92CDB7DEB7698320914F022223C6
:100BC000F9F020917202203258F021E030E0FC016F
:100BD0003383228390E080E00F90DF91CF910895DE
:100BE00080915002E82FF0E0EF5AFD4F99819083F9
:100BF0008F5F809350028093720281E090E0ECCF8F
:100C000061E0CE0101960E94C102F7CF1F93CF93FE
:100C1000DF93C82F162FD72F8091490491E090932E
:100C20004F028093710210925002109272026C2F48
:100C30008CE593E00E94D7056D2F8CE593E00E9430
:100C4000D705612F8CE593E00E94D70581E00E94D3
:100C50001604EC2FF0E0EE0FFF1FEC58FC4F108352
:100C6000D1838BED9EE20197F1F7DF91CF911F9138
:100C7000089590E080E0089560E00E94E6008BE037
:100C800090E00197F1F708958EBD00000DB407FEC6
:100C9000FDCF8EB50895CF93DF93C82FD62F60E098
:100CA00089E00E94E6008FEF0E94440680E00E94E7
:100CB000440661E089E00E94E60060E089E00E946D
:100CC000E600EC2FF0E0E65CFE4F80810E944406D7
:100CD0008D2F0E94440661E089E0DF91CF910C9452
:100CE000E6001F93CF93DF93D82FC62F142F60E019
:100CF00089E00E94E6008FEF0E94440680E00E9497
:100D0000440661E089E00E94E60060E089E00E941C
:100D1000E600ED2FF0E0E65CFE4F80810E94440685
:100D20006C2F70E0112369F0615D7E4FFB018081C3
:100D30000E94440661E089E0DF91CF911F910C94FD
:100D4000E6006C5D7E4FF2CF42E050E066E771E076
:100D50008FEB92E00C94B401CF93DF93FC010190F0
:100D60000020E9F73197AF01481B590BBC018FEB0D
:100D700092E00E94B401EC010E94A4068C0F9D1F1A
:100D8000DF91CF910895CF93DF93FC01448155818A
:100D9000608171818FEB92E00E94B401EC010E94AE
:100DA000A4068C0F9D1FDF91CF9108950F931F9381
:100DB000CF93DF93C8E6D3E009E414E0F801808123
:100DC00091E090934F028093710210925002109222
:100DD00072026AE08CE593E00E94D70580E00E94F1
:100DE000160441E062E0F80180810E943E03109207
:100DF0004E0280934D0283EE93E00197F1F78CE56C
:100E000093E00E949005182F8CE593E00E949005D6
:100E1000082F81E00E94160408831983CE01DF9118
:100E2000CF911F910F910895E0918C03F0918D0364
:100E3000382F3295330F330F307C20812F73232BC3
:100E400020839295990F990F907C86958695892B92
:100E50008183E0918C03F0918D0380818061808398
:100E6000E0918C03F0918D03809151048370982F51
:100E7000990F990F8081837F892B8083E0918C0368
:100E8000F0918D0390915204937080818C7F892B17
:100E90008083E0918C03F0918D0380818F7D80832E
:100EA000E0918C03F0918D036081718183E00E9459
:100EB00006060E94D606E0919803F091990381817D
:100EC00086FFF7CF08955F926F927F928F929F92E5
:100ED000AF92BF92CF92DF92EF92FF920F931F9348
:100EE000CF93DF93DC011496ED91FC911597EF2BD6
:100EF00009F45FC069013A01EC01888191E09093A7
:100F00004F02809371021092500210927202CD0132
:100F10000E940605582E882309F44BC0F12CE12CC1
:100F20008C819D8186010E191F098017910708F495
:100F30008C0141E0C601801B910BE816F90608F40C
:100F400040E0602F88810E943E0310924E02809301
:100F50004D028017110669F543018E0C9F1C540148
:100F6000C501881999098017910768F489819A81C8
:100F7000DC01ED91FC910284F385E02D0995F501EA
:100F800081935F01EDCFE00EF11EEC14FD0440F201
:100F9000852DDF91CF911F910F91FF90EF90DF9002
:100FA000CF90BF90AF909F908F907F906F905F9009
:100FB0000895512CEDCFCF93DF9300D01F92CDB782
:100FC000DEB78B8322E030E0AE014F5F5F4FBE01A2
:100FD0006D5F7F4F80915F04909160040E94630772
:100FE00089819A819827892798270F900F900F90D1
:100FF000DF91CF910895CF93DF9300D0CDB7DEB7C7
:101000008EE28A8384EF898321E030E0AE014F5F76
:101010005F4FBE016E5F7F4F80915F0490916004CF
:101020000E941D0565E070E080E090E00E9475017F
:1010300086EF0E94DB070F900F90DF91CF9108950C
:101040004F925F926F927F928F929F92AF92BF92D8
:10105000CF92DF92EF92FF921F93CF93DF93CDB7A2
:10106000DEB728970FB6F894DEBF0FBECDBF0E9443
:10107000FB074C01B12CA12C809161048295880F53
:10108000880F807C8C5C8C8384EF8B8321E030E044
:10109000AE014D5F5F4FBE016C5F7F4F80915F047B
:1010A000909160040E941D058091610481117DC1B1
:1010B00065E070E080E090E00E94750186EF0E949C
:1010C000DB07B0E0A0E0CC24D82EE92EFA2E88EF82
:1010D0008A8321E030E0AE014F5F5F4FBE016E5F5B
:1010E0007F4F80915F04909160040E946307898123
:1010F000C82A109161048091760490917704A5012B
:101100009401281B390B41095109A0917404B09135
:1011100075040E9447192B013C01AFE07594679458
:1011200057944794AA95D1F760916E0470916F041B
:10113000072E000C880B990BBBE0660F771F881FEA
:10114000991FBA95D1F72091700430917104032E44
:10115000000C440B550B240D351D461D571D0E94D8
:10116000A61A420E531E641E751E20EA421A2FE074
:10117000520A61087108A3019201C301B2010E94E1
:10118000401A4B015C018CE0B594A7949794879426
:101190008A95D1F7A0916604B09167040E94CB1A9A
:1011A0009B01AC019DE055954795379527959A95FC
:1011B000D1F72D833E834F835887A0916804B09167
:1011C0006904A50194010E94CB1A9C01552737FDA3
:1011D0005095452F8D819E81AF81B885280F391F8D
:1011E0004A1F5B1F2E5F3F4F4F4F5F4F62E0559589
:1011F0004795379527956A95D1F730584F4F5F4FF0
:10120000A0917204B09173040E9447199B01AC0134
:101210007FE056954795379527957A95D1F72D8399
:101220003E834F83588788E090E0811B910904C07A
:10123000F694E794D794C7948A95D2F7A0916A045C
:10124000B0916B04A50194010E94CB1A4B015C0183
:10125000EBE0B594A79497948794EA95D1F7A09181
:101260006404B0916504A30192010E94CB1AFBE0D3
:101270009595879577956795FA95D1F7680D791DBE
:101280008A1D9B1D8090620490906304092C000CC1
:10129000AA08BB08A2E0880C991CAA1CBB1CAA9532
:1012A000D1F7680D791D8A1D9B1D012E04C0660FA4
:1012B000771F881F991F0A94D2F76E5F7F4F8F4F59
:1012C0009F4F24E030E040E050E00E94A61AD70192
:1012D000C601821B930BA40BB50B9C01AD0160E50D
:1012E00073EC80E090E004C09695879577956795BC
:1012F0001A95D2F70E94401A97FD6AC0660F771FB1
:10130000881F991F2D813E814F8158850E94841A24
:1013100069017A019927F7FC9A958F2D7E2D6D2D05
:101320009B01AC010E94401A9B01AC01AEEDBBE0F9
:101330000E9447194B015C01A3E4B3EEA70196019B
:101340000E94CE1ABC01992777FD9095892F4501FF
:10135000BB2497FCB094AB2C680D791D8A1D9B1D96
:101360006153714F8F4F9F4F44E0959587957795C7
:1013700067954A95D1F76C0D7D1D8E1D9F1D289692
:101380000FB6F894DEBF0FBECDBFDF91CF911F9196
:10139000FF90EF90DF90CF90BF90AF909F908F9095
:1013A0007F906F905F904F900895813029F468E0AE
:1013B00070E080E090E080CE823029F46EE070E052
:1013C00080E090E079CE6AE170E080E090E074CE59
:1013D0002D813E814F8158850E94841A69017A01CE
:1013E000CC0CDD1CEE1CFF1C95CFEF92FF921F93DF
:1013F000CF93DF937C01D0E0C0E010E0F701808163
:101400000E94BD000C2E01C0880F0A94EAF7182B29
:1014100061E0F70181810E94E60060E0F7018181CF
:101420000E94E6002196C830D10541F7812FDF9157
:10143000CF911F91FF90EF900895FF920F931F930C
:10144000CF93DF938C01D62FF42EC0E06D2F617007
:10145000F80180810E94E60061E0F80181810E942C
:10146000E600C73039F4FF2029F060E0F801808100
:101470000E94140160E0F80181810E94E600D69587
:10148000CF5FC83019F7DF91CF911F910F91FF9077
:1014900008951F93CF93DF93EC01162F60E08A81AC
:1014A0000E94E60061E08A810E94140160E0898167
:1014B0000E94E60061E089810E94140161E0888158
:1014C0000E94140161E08A810E94E6008BE090E0B6
:1014D0000197F1F7412F4170612FCE01DF91CF913C
:1014E0001F910C941D0A1F93CF93DF93EC016EEBB9
:1014F00080917804909179040E94490A2D811AE024
:10150000822F612F0E94501A682F660F680F660F96
:10151000620F40E080917804909179040E941D0A46
:101520002C81822F612F0E94501A682F660F680F3E
:10153000660F620F40E080917804909179040E94D8
:101540001D0A2B81822F612F0E94501A682F660F6F
:10155000680F660F620F40E08091780490917904E3
:101560000E941D0A2A81822F612F0E94501A682F23
:10157000660F680F660F620F40E0809178049091CB
:1015800079040E941D0A2981822F612F0E94501A1E
:10159000682F660F680F660F620F40E08091780435
:1015A000909179040E941D0A69819881492F50E029
:1015B0008A81282F30E0E2ECF0E081E0861730F4F9
:1015C0007491270F311D8F5F3196F8CF633020F073
:1015D000937011F42F5F3F4F6DE671E0469FC0019D
:1015E000479F900D569F900D112405964D5F5F4FBC
:1015F0005695479556954795840F951F820F931FD3
:1016000067E070E00E945C1A682F811101C067E0FA
:1016100040E080917804909179040E941D0A28810D
:10162000822F6AE00E94501A682F660F680F660FBB
:10163000620F40E080917804909179040E941D0A25
:1016400040E060E080917804909179040E941D0A46
:10165000E0917804F09179048281DF91CF911F911C
:101660000C943C06CF92DF92EF92FF920F931F9360
:10167000CF93DF9300D000D000D0CDB7DEB76FEBB3
:1016800080917804909179040E94490A80917804AD
:10169000909179040E94F5098F77282F30E0F4E0CB
:1016A00035952795FA95E1F7922F990F990F022F0B
:1016B000091B000F080F80917804909179040E9413
:1016C000F509282F30E0A4E035952795AA95E1F794
:1016D000922F990F990FF22EF91AFF0CF80E8091A4
:1016E0007804909179040E94F50986FF77C0982FBD
:1016F0009F71292F30E0E4E035952795EA95E1F7D1
:10170000322F330F330F122F131B110F190F85FDBB
:10171000145F80917804909179040E94F509282F34
:1017200030E094E0359527959A95E1F7922F990F3F
:10173000990FE22EE91AEE0CE80E80917804909150
:1017400079040E94F509282F30E044E0359527956B
:101750004A95E1F7922F990F990FD22ED91ADD0CE5
:10176000D80E80917804909179040E94F5098091B7
:101770007804909179040E94F509482F50E064E0C4
:10178000559547956A95E1F7942F990F990FC42EB7
:10179000C91ACC0CC80E80917804909179040E94EB
:1017A000F509E0917804F091790482810E943C0669
:1017B00096014E2D512F6F2D702F80E090E02696D0
:1017C0000FB6F894DEBF0FBECDBFDF91CF911F9152
:1017D0000F91FF90EF90DF90CF900895282F30E089
:1017E00074E0359527957A95E1F7922F990F990F27
:1017F000122F191B110F180F8CCFCF93DF9300D02E
:1018000000D000D0CDB7DEB70E94320B852F90E01C
:101810009093050180930401862F90E09093390204
:1018200080933802872F90E090933B0280933A0296
:1018300026960FB6F894DEBF0FBECDBFDF91CF91D5
:101840000895CF93682F6160809178049091790416
:101850000E94490A80917804909179040E94F509C8
:10186000C82FE0917804F091790482810E943C06AF
:101870008C2FCF910895FC0180819181009711F008
:101880000C946F1B08950F931F93CF93DF93EC017C
:1018900088819981009759F02A813B812617370763
:1018A00030F081E0DF91CF911F910F9108958B016E
:1018B0006F5F7F4F0E94F81B009759F099838883D0
:1018C0001B830A832C813D81232B59F7FC01108255
:1018D000E8CF80E0E7CFEF92FF920F931F93CF9373
:1018E000DF93EC01FB01E080F180E114F10411F1E0
:1018F0000481158101151105A9F08C819D81080FC6
:10190000191FB801CE010E94430C882399F0288149
:1019100039818C819D81B701820F931F0E94BE1C6B
:101920001D830C83CE01DF91CF911F910F91FF900A
:10193000EF90089588819981009711F00E946F1BA4
:10194000198218821D821C821B821A82EBCFEF92B1
:10195000FF920F931F93CF93DF93EC017B018A01DA
:10196000BA010E94430C28813981811114C02115CC
:10197000310519F0C9010E946F1B198218821D825E
:101980001C821B821A82CE01DF91CF911F910F9191
:10199000FF90EF9008951D830C83B701C9010E9449
:1019A000BE1CF1CFEF92FF920F931F93CF93DF9363
:1019B000CDB7DEB762970FB6F894DEBF0FBECDBFCE
:1019C0008C01CB01F80111821082138212821582E0
:1019D00014824AE09E012F5F3F4F7901B9010E94B6
:1019E0001718F70101900020E9F73197AF014E1960
:1019F0005F09B701C8010E94A70C62960FB6F89460
:101A0000DEBF0FBECDBFDF91CF911F910F91FF9031
:101A1000EF900895FB01DC0111961C921E92139623
:101A20001C921E92129715961C921E92149786175E
:101A3000970749F0608171816115710521F044813A
:101A400055810C94A70C0895FC0111821082138219
:101A5000128215821482FB0101900020E9F7319770
:101A6000AF01461B570B0C94A70C85ED8093BC006F
:101A70008091BB029091BC02A091BD02B091BE02C8
:101A80000796A11DB11D23E0B695A795979587955B
:101A90002A95D1F72091BC0024FD03C01092B90211
:101AA00008954091BB025091BC026091BD027091BB
:101AB000BE02452B462B472B69F30097A105B105C4
:101AC00041F02AE22A95F1F700C00197A109B10976
:101AD000E1CF8091BA020C941D03CF92DF92EF9276
:101AE000FF920E94FB079C0150E040E0EFE5F4E02C
:101AF0008789908D281B390B41095109A589B68921
:101B00000E9447196B017C018FE0F594E794D7940C
:101B1000C7948A95D1F767857089072E000C880BCA
:101B2000990B2BE0660F771F881F991F2A95D1F715
:101B300021893289032E000C440B550B2C0D3D1DC1
:101B40004E1D5F1D0E94A61ACA01B9016C0D7D1DB4
:101B50008E1D9F1D685F7F4F8F4F9F4F34E095957F
:101B60008795779567953A95D1F70E944E1820E0B2
:101B700030E040E251E40E94981960932102709392
:101B8000220280932302909324020E9420086093F3
:101B90001D0270931E0280931F02909320020E94E8
:101BA0004E182FE632E545E053E40E949819609301
:101BB000190270931A0280931B0290931C02FF90EB
:101BC000EF90DF90CF900C9420081F920F920FB6E9
:101BD0000F9211242F933F938F939F93AF93BF93B3
:101BE0008091410290914202A0914302B09144023F
:101BF0003091400223E0230F2D3758F50196A11DA7
:101C0000B11D209340028093410290934202A09321
:101C10004302B09344028091450290914602A09104
:101C20004702B09148020196A11DB11D8093450263
:101C300090934602A0934702B0934802BF91AF91A0
:101C40009F918F913F912F910F900FBE0F901F90FA
:101C5000189526E8230F0296A11DB11DD2CF1F9221
:101C60000F920FB60F9211242F933F934F935F93D0
:101C70006F937F938F939F93AF93BF93EF93FF9354
:101C80008FEB92E00E943202FF91EF91BF91AF91F2
:101C90009F918F917F916F915F914F913F912F9184
:101CA0000F900FBE0F901F9018951F920F920FB6B6
:101CB0000F9211242F938F939F93EF93FF93E091B3
:101CC000CF02F091D0028081E091D502F091D6024E
:101CD00082FD1BC090818091D8028F5F8F7320910D
:101CE000D902821741F0E091D802F0E0E154FD4FB3
:101CF000958F8093D802FF91EF919F918F912F91B3
:101D00000F900FBE0F901F9018958081F4CF1F92F7
:101D10000F920FB60F9211242F933F934F935F931F
:101D20006F937F938F939F93AF93BF93EF93FF93A3
:101D30008091B900887F803609F44AC0F0F5883276
:101D400009F4A7C018F5803109F49BC0B8F48823C2
:101D500009F4F9C0883009F494C0FF91EF91BF9164
:101D6000AF919F918F917F916F915F914F913F9133
:101D70002F910F900FBE0F901F901895883109F486
:101D800088C0803251F78093970214C0803409F4E0
:101D90009DC040F48033B9F38833F9F680939702FD
:101DA00085ECB0C0803509F485C0883509F496C04B
:101DB000883499F60E94350DD0CF883909F48CC04B
:101DC00038F5883729F050F4883611F0803729F635
:101DD00083E08093B9021092140257C0883809F446
:101DE0007BC0803919F0803809F0B7CF8091140298
:101DF000803208F071C0E091140281E08E0F809370
:101E000014028091BB00F0E0EC50FE4F80833DC097
:101E1000803B39F0E0F4803A09F479C0883A09F05F
:101E20009CCF84E08093B9021092F3011092F201EA
:101E3000E0914B02F0914C0209958091F2018111E1
:101E40000FC081E08093F2011092D20109C0803C62
:101E500009F4A6CF883C09F4A3CF883B09F07DCFD5
:101E6000E091F30181E08E0F8093F301F0E0EE52F8
:101E7000FE4F80818093BB009091F3018091F2012D
:101E800029C0809194028093BB0085EC8093BC00B4
:101E900064CF9091960280919502981758F5E09141
:101EA000960281E08E0F80939602F0E0ED58FD4F90
:101EB0008081E9CFE091960281E08E0F80939602B7
:101EC0008091BB00F0E0ED58FD4F80839091960229
:101ED000809195029817C8F285E8D8CFE0919602D4
:101EE00081E08E0F809396028091BB00F0E0ED5868
:101EF000FD4F80838091980281115CCF81E08093B7
:101F0000930284EA8093BC001092B90226CF85EC3C
:101F10008093BC001092B90280911402803230F498
:101F2000E0911402F0E0EC50FE4F10826091140238
:101F300070E0E0914902F0914A0284EF91E0099546
:101F4000109214020ACF1092970234CF1F920F9270
:101F50000FB60F9211248F939F938091D0018F5FC2
:101F60008093D0018091180291E089278093180214
:101F7000809117028F5F8830B0F4809317028091B0
:101F8000D0018091D0018091D001803F28F081E084
:101F9000809316021092D0019F918F910F900FBEE7
:101FA0000F901F90189510921702E9CFEFEBF2E017
:101FB0001382128288EE93E0A0E0B0E084839583E0
:101FC000A683B78326E531E03183208325EC30E01A
:101FD0003587248724EC30E03787268720EC30E0F3
:101FE000318B208B21EC30E0338B228B22EC30E0E4
:101FF000358B248B26EC30E0378B268B118E128E9E
:10200000138E148EECE5F3E01382128284839583A1
:10201000A683B78388E691E091838083EAE7F4E0C2
:1020200086E0808385E0818387E08283F093790472
:10203000E09378041092600410925F04E8E6F3E005
:1020400084E793E0978F868F86E793E091A380A340
:1020500088E793E093A382A38AE793E095A384A300
:102060008CE793E097A386A38EE793E091A780A7E0
:1020700080E893E093A782A782E893E095A784A7DE
:1020800084E893E097A786A7F1ABE0AB8AE693E0FC
:1020900093AB82AB8CE693E095AB84AB8EE693E09A
:1020A00097AB86AB80E793E091AF80AF82E793E098
:1020B00093AF82AF88E0ECE0F1E0A4EAB3E00190F6
:1020C0000D928A95E1F788E0E4E1F1E0ACEAB3E053
:1020D00001900D928A95E1F788E0ECE1F1E0A4EB44
:1020E000B3E001900D928A95E1F781E190E0909341
:1020F0004A048093490480E190E090934C048093DB
:102100004B041092510410925204109253048FEF1A
:102110009FEF9093550480935404909357048093B9
:102120005604909359048093580410925A041092C4
:102130005B0410925C0484E690E090935E048093CC
:102140005D040895CF93DF93CDB7DEB769970FB6DF
:10215000F894DEBF0FBECDBF789484B5826084BD95
:1021600084B5816084BD85B5826085BD85B581609B
:1021700085BD80916E00816080936E001092810019
:1021800080918100826080938100809181008160D4
:102190008093810080918000816080938000809195
:1021A000B10084608093B1008091B0008160809321
:1021B000B00080917A00846080937A0080917A00E8
:1021C000826080937A0080917A00816080937A00A7
:1021D00080917A00806880937A001092C100E0912B
:1021E000CF02F091D00282E08083E091CB02F091A7
:1021F000CC021082E091CD02F091CE028FEC808370
:102200001092D702E091D302F091D40286E080834D
:10221000E091D102F091D202808180618083E091CF
:10222000D102F091D202808188608083E091D10256
:10223000F091D202808180688083E091D102F09198
:10224000D20280818F7D8083F8941092800010925A
:10225000810010928500109284008091810083603B
:102260008093810084E294EF9093890080938800AA
:102270008091810088608093810080916F008260EE
:1022800080936F00789461E089E00E94140162E01D
:102290008CE00E94140162E08AE00E9414011FB7E2
:1022A000F89480911502811127C0E0E9F0E0849153
:1022B000E4EAF0E09491E82FF0E0EE0FFF1FE85918
:1022C000FF4FA591B491EC91E92321F461E08AE0FC
:1022D0000E94E60061E08AE00E9414018CB58061F2
:1022E0008CBD8CB580648CBD61E08DE00E941401D2
:1022F00061E08BE00E941401809115028F5F809352
:1023000015021FBF80E58CBD81E08DBD0091780472
:102310001091790460E0F80181810E94140160E06D
:10232000F80180810E94140160E0F80182810E941E
:10233000140189E18B8B86E08C8B85E08D8B80E1AD
:102340008E8B8CE28F8B188E0E94320B29833A83FE
:102350004B835C836D837E838FEF830F8C3008F417
:102360001DC389E791E00E94AC06CE0143960E940E
:10237000730A8EE80E94210C87FF1BC08EE80E9422
:10238000210C182F6EE880917804909179040E94B6
:10239000490A612F6F7740E0809178049091790429
:1023A0000E941D0AE0917804F091790482810E94D4
:1023B0003C0680E80E94210C87FF1BC080E80E9439
:1023C000210C182F60E880917804909179040E9484
:1023D000490A612F6F7740E08091780490917904E9
:1023E0000E941D0AE0917804F091790482810E9494
:1023F0003C060E94FD0B6091040170910501CE0125
:1024000001960E94D20C67E871E0CE010D960E9401
:10241000240DBE01635F7F4FCE0107960E940A0D17
:10242000BE016F5F7F4FCE0107960E946B0C0E942A
:10243000C306CE0107960E943B0CCE010D960E946A
:102440003B0CCE0101960E943B0C609138027091CA
:102450003902CE0101960E94D20C60E971E0CE01F2
:102460000D960E94240DBE01635F7F4FCE0107963B
:102470000E940A0DBE016F5F7F4FCE0107960E943A
:102480006B0C0E94C306CE0107960E943B0CCE0146
:102490000D960E943B0CCE0101960E943B0C609170
:1024A0003A0270913B02CE0101960E94D20C6BE978
:1024B00071E0CE010D960E94240DBE01635F7F4F37
:1024C000CE0107960E940A0DBE016F5F7F4FCE01BD
:1024D00007960E946B0C0E94C306CE0107960E94CD
:1024E0003B0CCE010D960E943B0CCE0101960E9442
:1024F0003B0C83E08093610480915F0490916004C1
:10250000009711F00E946F1B86E090E00E94D31AA2
:102510008C0187E7F80180838CE593E092838183C7
:10252000138280E290E0958384831093600400938B
:102530005F040E94060381E0F8018383C8010E94C2
:102540005B05882309F468C280ED8D8721E030E0C7
:10255000AE014F5F5F4FBE01635F7F4F80915F04AD
:10256000909160040E9463078981853509F054C207
:102570008AEA0E94DB0790936304809362048CEAEA
:102580000E94DB0790936504809364048EEA0E94A6
:10259000DB07909367048093660480EB0E94DB075F
:1025A000909373048093720482EB0E94DB079093F4
:1025B00075048093740484EB0E94DB079093770486
:1025C0008093760486EB0E94DB07909369048093E6
:1025D000680488EB0E94DB0790936B0480936A0485
:1025E0008AEB0E94DB0790936D0480936C048CEB64
:1025F0000E94DB0790936F0480936E048EEB0E9421
:10260000DB07909371048093700486EA91E00E9446
:10261000AC060E946D0D80911602882331F0109255
:1026200016020E946D0D0E94FD0B10925B04109229
:102630005A0410925C040E9406036AE070E080E095
:1026400090E00E947501E0918A03F0918B03118262
:102650001082E0918A03F0918B0380818B7F8083CD
:10266000E0918A03F0918B038081877F8083E091E2
:102670008A03F0918B0380915A048770982F92956A
:10268000907F80818F78892B8083E0918A03F091FD
:102690008B03818190915B0490FB82F98183E091AF
:1026A0008A03F0918B03818190915C0490FB83F904
:1026B0008183E0918A03F0918B0381818062818321
:1026C000E0918A03F0918B03818180648183E091A2
:1026D0008A03F0918B03818180688183E0918A0372
:1026E000F0918B03808181608083E0918A03F09177
:1026F0008B03818180618183E0918A03F0918B0358
:1027000081818E7F8183E0918A03F0918B036081C8
:10271000718182E00E940606E0919003F09191039E
:1027200011821082E0919003F091910381818F7763
:102730008183E0919003F091910380818F73806891
:102740008083E0919003F091910380818F7C80835E
:10275000E0919003F09191038181807F8860818373
:10276000E0919003F09191038081807F8083E091DC
:102770009003F09191036081718185E00E940606CB
:1027800060915D0470915E0490E080E00E947501AC
:10279000E0918C03F0918D0380818C7F8083109277
:1027A0005204E0918C03F0918D036081718183E08C
:1027B0000E94060610925104E0918C03F0918D0363
:1027C0008081837F8083E0918C03F0918D03608111
:1027D000718183E00E940606E0915104F0E0EE0F63
:1027E000FF1FEC55FC4F04E717E2808191819801AF
:1027F000281B390BC901E0915204F0E0EE0FFF1FD6
:10280000EC54FC4F608171810E945C1ACB010E94E4
:1028100014071093500400934F048FE080935304E7
:10282000E0919003F091910380818F608083E0912B
:102830009003F09191036081718185E00E9406060A
:10284000E0919003F09191038181807F8E6081837C
:10285000E0919003F09191036081718185E00E9485
:102860000606E0918A03F0918B0381818E7F81833C
:10287000E0918A03F0918B03818180648183E091F0
:102880008A03F0918B036081718182E00E940606C9
:10289000B0EA4B2EB6E85B2E66246394712C0AE0F6
:1028A00010E064E6262E312C0E94A801C0903C0264
:1028B000D0903D02E0903E02F0903F026C197D09FD
:1028C0008E099F09683E734081059105B8F00E940A
:1028D000A80160933C0270933D0280933E02909366
:1028E0003F0280913A0290913B0201968C33910510
:1028F0000CF097C090933B0280933A020E94A8018B
:10290000C0903402D0903502E0903602F090370249
:102910006C197D098E099F09623071058105910549
:1029200008F4F7C20E94A801609334027093350244
:102930008093360290933702E0902C02F0902D02A3
:1029400040912502498FC42ED12C56E0E516F104A2
:1029500009F0FAC060914F047091500490E080E05B
:102960000E944C1820E030E048EC52E40E94981994
:102970004B015C010E940A1ACB01798D783008F076
:1029800081C0F601EA53FB4E0C94C51A5C1638154B
:1029900068166E16941598159C15A1158FEF840F67
:1029A0008F3108F0DECC583108F0DBCC6C3308F006
:1029B000D8CC7C3308F0D5CC323001F54E3108F05C
:1029C000D0CC4D3109F0D5CC30E02053384FC9017F
:1029D00083709927892B09F0C4CCC90164E670E0A3
:1029E0000E945C1A892B09F0C4CCC90160E971E02E
:1029F0000E945C1A892B09F0B4CCBBCC4F3109F092
:102A0000B8CC432F4150550BCA0167E070E00E94DB
:102A1000701A80FFAECCA5CC86EB91E00E94AC068C
:102A2000FFCF10923B0210923A02809138029091AF
:102A3000390201968C3391052CF4909339028093DE
:102A400038025CCF10923902109238028091040152
:102A5000909105010196883191052CF49093050120
:102A6000809304014BCF109205011092040146CFD0
:102A7000B1010E94701AB8010E94701A40E081E012
:102A80000E947106FFEFCF1ADF0A27E0C222DD2481
:102A9000C09225028CE00E94BD006C018091000173
:102AA00090910101C816D90651F00E94A8016093C7
:102AB00028027093290280932A0290932B020E948D
:102AC000A8018090280290902902A0902A02B0903C
:102AD0002B02681979098A099B09623371058105FE
:102AE000910508F4ADC18091260290912702C81685
:102AF000D90609F4A5C1D0922702C0922602C114BA
:102B0000D10409F09DC137E0E316F10408F094C147
:102B1000F701E357FA4E0C94C51A08170F1716174A
:102B200096179D17A017A31740E06AE084E0A8CF8E
:102B300040E06AE085E0A4CF67E786E00E944B06AC
:102B4000A1CF6CE587E0FACF83E0E816F10431F518
:102B50008090210290902202A0902302B090240243
:102B6000C501B4010E940A1ACB01E98DE83008F0D2
:102B700089CFF601E254FA4E0C94C51AC6153B15DE
:102B800068166E1694159815CA15CC1540E06AE0C3
:102B900080E076CF67E0D1CF61E3D4CFF4E0EF16E9
:102BA000F10409F066C060911D0270911E028091CF
:102BB0001F0290912002298D283008F063CFF60182
:102BC000EC51FA4E0C94C51AEC15F31500161016BC
:102BD00020162F163716A115A30192010E94A61ADE
:102BE00040E0622FD5CFA30192010E94A61A20E1F6
:102BF00037E240E050E00E94A61A40E0622F3FCF4B
:102C000020E137E240E050E00E94A61A28EE33E0CF
:102C100040E050E00E94A61A40E0622F82E030CFF0
:102C200028EE33E040E050E00E94A61A24E630E0AF
:102C300040E050E00E94A61A40E0622F83E020CFDF
:102C400024E630E040E050E00E94A61A2AE030E09E
:102C500040E050E00E94A61A40E0622F67CF2AE0D1
:102C600030E040E050E00E94A61A40E063CF63E706
:102C700064CF35E0E316F10409F045C080901902F5
:102C800090901A02A0901B02B0901C02C501B401E2
:102C90000E940A1ACB01498D483008F0F3CEF601A4
:102CA000EC5AF94E0C94C51A5C16381568166E1657
:102CB000941598157F16811620E030E048EC52E418
:102CC000C501B4010E9498190E94111A40E060CF1A
:102CD000B8010E94701A41E0682FA0CF20E030E0D8
:102CE00040E251E4C501B4010E9489180E940A1A09
:102CF000CB01B8010E94701A40E0682F9FCF66E7B1
:102D00001CCF6DE31FCF51E0E516F10421F4809153
:102D10001802811154C08091040190910501B801FD
:102D20000E94701A862E71E0E716F10421F480915A
:102D30001802811147C08091040190910501B801EA
:102D40000E94701A982E82E0E816F10421F4809116
:102D5000180281113AC08091380290913902B8016D
:102D60000E94701AA62E92E0E916F10429F48091CF
:102D700018026AE0811108C08091380290913902EE
:102D8000B8010E94701A682F80913A0290913B021C
:102D90002091170230E0AC0140955095E98DE83064
:102DA00008F070CEF601E952F94E0C94C51AE816F7
:102DB000EB16EE16F116F316F816FE1603175AE088
:102DC000852EB5CF4AE0942EC6CF3AE0A32ECFCFC2
:102DD00040E0682DDDCE4170692D51CE40E06A2D76
:102DE0001DCF40E02BCFB8010E94701A40E09ECE6C
:102DF000B8010E94701A40E0682F9CCE265B3E4FBF
:102E0000F90160819ACE2E5B3E4FF90160819ACE26
:102E100041E050E050932D0240932C020DC082E01F
:102E200090E090932D0280932C0206C0E3E0F0E046
:102E3000F0932D02E0932C0288EC91E00E94AC0606
:102E4000D0920101C09200018AE00E94BD006C0195
:102E50008091020190910301C816D90651F00E9499
:102E6000A8016093300270933102809332029093F4
:102E700033020E94A8018090300290903102A0900D
:102E80003202B0903302681979098A099B096233CA
:102E9000710581059105C8F180912E0290912F0254
:102EA000C816D90691F1D0922F02C0922E02C114F9
:102EB000D10459F50E94320BE72F2F8338874987B9
:102EC0005A876B877C8780912C0290912D028130EC
:102ED000910509F042C0852F90E001968831910557
:102EE000BCF590930501809304018091040129832E
:102EF0003A834B838C836D83EE83CE0101960E94CF
:102F0000730A88EC91E00E94AC06D0920301C09253
:102F1000020180E090E0892B09F4C6CC0E941E02D9
:102F2000882309F4BCCC0E940000B9CC24E030E036
:102F300030932D0220932C027FCF45E050E06ACFE2
:102F400086E090E06ECF10922D0210922C0274CF8A
:102F50001092050110920401C8CF82309105B9F496
:102F600070E06F5F7F4F6C33710564F470933902CA
:102F7000609338028091380229833A834B835C83C3
:102F80008D83BACF1092390210923802F3CF069790
:102F900009F0B7CFE0918A03F0918B0381818160C2
:102FA0008183E0918A03F0918B0380818F77808306
:102FB000E0918A03F0918B03818182608183E091AB
:102FC0008A03F0918B036081718182E00E94060682
:102FD0000E94D606E0915204F0E0EE0FFF1FEC5481
:102FE000FC4F60817181E0919803F09199032081F9
:102FF0008181382F3370269FC001279F900D369F07
:10300000900D1124E0915104F0E0EE0FFF1FEC55FC
:10301000FC4FE080F180E80EF91E0E945C1ACB01A3
:103020000E941407F0925004E0924F046ACFBB272D
:103030004A3031F4992322F4BDE2909581959F4F57
:103040000C942318BB27FB015527AA27880F991F2B
:10305000AA1FA41710F0A41B83955051B9F7A05DC7
:10306000AA3308F0A95DA193009779F7B111B19344
:103070001192CB010C943C18DC01FC01672F71917B
:103080007723E1F7329704C07C916D93708362914E
:10309000AE17BF07C8F30895E89409C097FB3EF444
:1030A00090958095709561957F4F8F4F9F4F992395
:1030B000A9F0F92F96E9BB279395F6958795779513
:1030C0006795B795F111F8CFFAF4BB0F11F460FFD3
:1030D0001BC06F5F7F4F8F4F9F4F16C0882311F02B
:1030E00096E911C0772321F09EE8872F762F05C03F
:1030F000662371F096E8862F70E060E02AF09A95DA
:10310000660F771F881FDAF7880F9695879597F9CE
:1031100008950E949C180C940D190E94FF1838F015
:103120000E94061920F0952311F00C94F6180C94C7
:10313000FC1811240C9441190E941E1970F3959FDC
:10314000C1F3950F50E0551F629FF001729FBB279E
:10315000F00DB11D639FAA27F00DB11DAA1F649F3A
:103160006627B00DA11D661F829F2227B00DA11DED
:10317000621F739FB00DA11D621F839FA00D611D73
:10318000221F749F3327A00D611D231F849F600D94
:10319000211D822F762F6A2F11249F5750409AF0BD
:1031A000F1F088234AF0EE0FFF1FBB1F661F771F49
:1031B000881F91505040A9F79E3F510580F00C9414
:1031C000F6180C9441195F3FE4F3983ED4F38695CA
:1031D00077956795B795F795E7959F5FC1F7FE2BB4
:1031E000880F911D9695879597F9089597F99F6790
:1031F00080E870E060E008959FEF80EC089500247F
:103200000A941616170618060906089500240A944B
:1032100012161306140605060895092E0394000CD1
:1032200011F4882352F0BB0F40F4BF2B11F460FF60
:1032300004C06F5F7F4F8F4F9F4F089557FD905889
:10324000440F551F59F05F3F71F04795880F97FB6A
:10325000991F61F09F3F79F0879508951216130624
:103260001406551FF2CF4695F1DF08C01616170653
:103270001806991FF1CF8695710561050894089588
:10328000E894BB2766277727CB0197F908950E941A
:103290008919A59F900DB49F900DA49F800D911D3D
:1032A000112408952F923F924F925F926F927F92D6
:1032B0008F929F92AF92BF92CF92DF92EF92FF9246
:1032C0000F931F93CF93DF93CDB7DEB7CA1BDB0BF2
:1032D0000FB6F894DEBF0FBECDBF09942A88398897
:1032E00048885F846E847D848C849B84AA84B9849E
:1032F000C884DF80EE80FD800C811B81AA81B981AA
:10330000CE0FD11D0FB6F894DEBF0FBECDBFED01BD
:103310000895A29FB001B39FC001A39F700D811DAE
:103320001124911DB29F700D811D1124911D0895CE
:103330000E94AC190C940D190E94061958F00E94B5
:10334000FF1840F029F45F3F29F00C94F618511152
:103350000C9441190C94FC180E941E1968F39923CF
:10336000B1F3552391F3951B550BBB27AA27621781
:103370007307840738F09F5F5F4F220F331F441F8E
:10338000AA1FA9F335D00E2E3AF0E0E832D09150C2
:103390005040E695001CCAF72BD0FE2F29D0660FAF
:1033A000771F881FBB1F261737074807AB07B0E8F2
:1033B00009F0BB0B802DBF01FF2793585F4F3AF0F8
:1033C0009E3F510578F00C94F6180C9441195F3F1C
:1033D000E4F3983ED4F3869577956795B795F7957E
:1033E0009F5FC9F7880F911D9695879597F9089566
:1033F000E1E0660F771F881FBB1F62177307840702
:10340000BA0720F0621B730B840BBA0BEE1F88F710
:10341000E09508950E94111A6894B1110C94411915
:1034200008950E94261988F09F5798F0B92F992780
:10343000B751B0F0E1F0660F771F881F991F1AF09F
:10344000BA95C9F714C0B13091F00E944019B1E0AB
:1034500008950C944019672F782F8827B85F39F0AA
:10346000B93FCCF3869577956795B395D9F73EF438
:1034700090958095709561957F4F8F4F9F4F0895E0
:10348000DB018F939F930E944719BF91AF91A29F39
:10349000800D911DA39F900DB29F900D1124089552
:1034A000991B79E004C0991F961708F0961B881F96
:1034B0007A95C9F780950895AA1BBB1B51E107C0F7
:1034C000AA1FBB1FA617B70710F0A61BB70B881FB4
:1034D000991F5A95A9F780959095BC01CD01089543
:1034E00097FB072E16F4009407D077FD09D00E94B1
:1034F0005C1A07FC05D03EF4909581959F4F089586
:10350000709561957F4F0895A1E21A2EAA1BBB1BEF
:10351000FD010DC0AA1FBB1FEE1FFF1FA217B3079F
:10352000E407F50720F0A21BB30BE40BF50B661FB5
:10353000771F881F991F1A9469F760957095809579
:1035400090959B01AC01BD01CF010895052E97FB1D
:103550001EF400940E94BD1A57FD07D00E94841AE1
:1035600007FC03D04EF40C94BD1A5095409530954D
:1035700021953F4F4F4F5F4F0895909580957095DF
:1035800061957F4F8F4F9F4F0895EE0FFF1F05905E
:10359000F491E02D0994B7FF0C9447190E94471944
:1035A000821B930B08950F931F93CF93DF93823069
:1035B000910510F482E090E0E0917F04F0918004A6
:1035C00030E020E0B0E0A0E0309799F4211531051B
:1035D00009F44AC0281B390B24303105D8F58A81FB
:1035E0009B816115710589F1FB0193838283FE0143
:1035F00011C0408151810281138148175907E0F0C1
:103600004817590799F4109761F012960C93129786
:1036100013961C933296CF01DF91CF911F910F919A
:10362000089500937F0410938004F4CF2115310591
:1036300051F04217530738F0A901DB019A01BD018F
:10364000DF01F801C1CFEF01F9CF9093800480939F
:103650007F04CDCFFE01E20FF31F8193919322509F
:10366000310939832883D7CF20917D0430917E049E
:10367000232B41F4209108013091090130937E04FD
:1036800020937D0420910601309107012115310519
:1036900041F42DB73EB740910A0150910B01241B14
:1036A000350BE0917D04F0917E04E217F307A0F45E
:1036B0002E1B3F0B2817390778F0AC014E5F5F4F88
:1036C0002417350748F04E0F5F1F50937E04409338
:1036D0007D04819391939FCFF0E0E0E09CCFCF9366
:1036E000DF930097E9F0FC01329713821282A091D8
:1036F0007F04B0918004ED0130E020E01097A1F448
:1037000020813181820F931F20917D0430917E04AE
:103710002817390709F061C0F0937E04E0937D0417
:10372000DF91CF910895EA01CE17DF07E8F54A81CE
:103730005B819E0141155105B1F7E901FB83EA83E5
:1037400049915991C40FD51FEC17FD0761F4808191
:1037500091810296840F951FE90199838883828164
:1037600093819B838A83F0E0E0E012968D919C9197
:1037700013970097B9F52D913C911197CD010296C1
:10378000820F931F20917D0430917E042817390702
:1037900039F6309751F51092800410927F04B0935F
:1037A0007E04A0937D04BCCFD383C283408151812A
:1037B000840F951FC817D90761F44E5F5F4F88814A
:1037C0009981480F591F518340838A819B8193833C
:1037D00082832115310509F0B0CFF0938004E09386
:1037E0007F049ECFFD01DC01C0CF13821282D7CFB0
:1037F000B0E0A0E0EEEFFBE10C9454198C010097CF
:1038000051F4CB010E94D31A8C01C801CDB7DEB7A9
:10381000E0E10C947019FC01E60FF71F9C012250A7
:103820003109E217F30708F49DC0D901CD91DC916D
:103830001197C617D70798F0C530D10530F3CE01E0
:1038400004978617970708F3C61BD70B2297C193D7
:10385000D1936D937C93CF010E946F1BD6CF5B01F8
:10386000AC1ABD0A4C018C0E9D1EA0917F04B09134
:103870008004512C412CF12CE12C109731F58091D2
:103880007D0490917E048815990509F05CC0461668
:10389000570608F058C080910601909107010097E3
:1038A00041F48DB79EB740910A0150910B01841BE2
:1038B000950BE817F90708F055C0F0937E04E093E4
:1038C0007D04F90171836083A0CF8D919C91119744
:1038D00012966C90129713967C901397A815B905C1
:1038E00059F56C0142E0C40ED11CCA14DB0420F16E
:1038F000AC014A195B09DA011296159780F06282D1
:10390000738251834083D9016D937C93E114F10458
:1039100071F0D7011396FC93EE93129776CF22960F
:103920008C0F9D1FF90191838083F301EFCFF093FA
:103930008004E0937F0469CF4816590608F42C01EF
:103940007D01D3019ACFCB010E94D31A7C0100974D
:1039500049F0AE01B8010E94B51CC8010E946F1B5E
:10396000870153CF10E000E050CFFB01DC0102C023
:1039700001900D9241505040D8F70895FB01DC01B1
:0E39800001900D920020E1F70895F894FFCF1A
:10398E00010001000C00000081048000FC21B01D2C
:10399E00B01D6419302A8C23302AB01D0A00140081
:1039AE00050001003F065B4F666D7D077F6F00BF10
:1039BE0086DBCFE6EDFD87FFEF80FEFDFBF7EFDF49
:1039CE00BF7F0E0D0B070F0F0F0F39393939312904
:1039DE001938000000005402B401E101A1021202E4
:1039EE00F001040200000000D705AA053906800583
:1039FE00A305900581050D0A00525443206C6F7388
:103A0E00742074696D6500484F555253203D200057
:103A1E004D494E55544553203D20005345434F4E7E
:103A2E004453203D2000424D5031383020537563B1
:103A3E006365737321004E6F7420666F756E64201C
:103A4E00424D503138302100436C69636B210000C8
:00000001FF
