:100000000C9468000C9490000C9490000C94900058
:100010000C9490000C9490000C9490000C94900020
:100020000C9490000C9490000C9490000C94900010
:100030000C9490000C9490000C9490000C94900000
:100040000C942D060C9490000C949D060C9477064D
:100050000C9490000C9490000C9490000C949000E0
:100060000C9490000C9490000000000024002700E5
:100070002A0000000000250028002B0000000000DE
:1000800023002600290004040404040404040202DA
:100090000202020203030303030301020408102007
:1000A0004080010204081020010204081020000012
:1000B0000008000201000003040700000000000027
:1000C00000001F1C1F1E1F1E1F1F1E1F1E1FCF06EE
:1000D00011241FBECFEFD8E0DEBFCDBF22E0ACECD5
:1000E000B1E001C01D92AB39B207E1F711E0A0E029
:1000F000B1E0ECEAFAE102C005900D92AC3CB10728
:10010000D9F710E0C8E6D0E004C02197FE010E94B4
:100110005C0BC736D107C9F70E9408070C94540D31
:100120000C940000833081F028F4813099F0823003
:10013000A9F008958730A9F08830C9F08430B1F46F
:10014000809180008F7D03C0809180008F778093A5
:100150008000089584B58F7784BD089584B58F7D20
:10016000FBCF8091B0008F778093B000089580918D
:10017000B0008F7DF9CFCF93DF93282F30E0F901C6
:10018000E255FF4F8491F901E656FF4FD491F901F2
:10019000EA57FF4FC491CC23A1F081110E94920035
:1001A000EC2FF0E0EE0FFF1FE458FF4FA591B49144
:1001B000EC91ED2381E090E009F480E0DF91CF91B4
:1001C000089580E090E0FACF1F93CF93DF93282F1C
:1001D00030E0F901E255FF4F8491F901E656FF4FF7
:1001E000D491F901EA57FF4FC491CC23A9F0162FFF
:1001F00081110E949200EC2FF0E0EE0FFF1FEE58ED
:10020000FF4FA591B4918FB7F894EC91111108C0EC
:10021000D095DE23DC938FBFDF91CF911F9108959E
:10022000DE2BF8CFCF93DF9390E0FC01E656FF4F33
:1002300024918A579F4FFC0184918823C9F090E054
:10024000880F991FFC01E859FF4FA591B491FC015B
:10025000EE58FF4FC591D49161110DC09FB7F8942E
:100260008C91209582238C938881282328839FBF9B
:10027000DF91CF910895623051F49FB7F8943C918B
:10028000822F809583238C93E8812E2BEFCF8FB71D
:10029000F894EC912E2B2C938FBFEACF2FB7F894C4
:1002A0006091F1017091F2018091F3019091F4015C
:1002B0002FBF0895AF92BF92CF92DF92EF92FF923D
:1002C0000F931F93CF93DF936C017B018B01040F7E
:1002D000151FEB015E01AE18BF08C017D10759F01A
:1002E0006991D601ED91FC910190F081E02DC6015C
:1002F0000995892B79F7C501DF91CF911F910F9156
:10030000FF90EF90DF90CF90BF90AF900895FC01E9
:10031000538D448D252F30E0842F90E0821B930B6A
:10032000541710F0CF96089501970895FC01918D10
:10033000828D981761F0A28DAE0FBF2FB11D5D9613
:100340008C91928D9F5F9F73928F90E008958FEFB5
:100350009FEF0895FC01918D828D981731F0828D69
:10036000E80FF11D858D90E008958FEF9FEF0895C0
:10037000FC01918D228D892F90E0805C9F4F821B24
:1003800091098F739927089585EF91E00E94B80134
:1003900021E0892B09F420E0822F089580E090E08D
:1003A000892B29F00E94C40181110C94000008954A
:1003B000FC01A48DA80FB92FB11DA35ABF4F2C91DA
:1003C000848D90E001968F739927848FA689B789D1
:1003D0002C93A089B1898C91837080648C93938DC8
:1003E000848D981306C00288F389E02D80818F7D6B
:1003F00080830895EF92FF920F931F93CF93DF9323
:10040000EC0181E0888F9B8D8C8D98131AC0E88950
:10041000F989808185FF15C09FB7F894EE89FF891F
:100420006083E889F98980818370806480839FBFBD
:1004300081E090E0DF91CF911F910F91FF90EF90BD
:100440000895F62E0B8D10E00F5F1F4F0F731127CD
:10045000E02E8C8D8E110CC00FB607FCFACFE88908
:10046000F989808185FFF5CFCE010E94D801F1CFB7
:10047000EB8DEC0FFD2FF11DE35AFF4FF0829FB77C
:10048000F8940B8FEA89FB8980818062CFCFCF936C
:10049000DF93EC01888D8823B9F0AA89BB89E889AC
:1004A000F9898C9185FD03C0808186FD0DC00FB652
:1004B00007FCF7CF8C9185FFF2CF808185FFEDCFD0
:1004C000CE010E94D801E9CFDF91CF91089560E07D
:1004D0000E94E4008BE090E00197F1F70895CF933C
:1004E000DF93D82FC8E06D2F661F6627661F88E050
:1004F0000E94E400DD0F61E08AE00E94E40060E019
:100500008AE00E94E400C15071F7DF91CF91089515
:100510001F93CF93DF93D82FC62F142F60E089E06D
:100520000E94E4008FEF0E946F0280E00E946F0241
:1005300061E089E00E94E40060E089E00E94E4005C
:10054000ED2FF0E0EE5DFE4F80810E946F026C2F78
:1005500070E0112369F0695E7E4FFB0180810E948B
:100560006F0261E089E0DF91CF911F910C94E4006C
:10057000645F7E4FF2CFEF92FF921F93CF93DF9392
:100580007C01D0E0C0E010E0F70180810E94BB0058
:100590000C2E01C0880F0A94EAF7182B61E0F701CE
:1005A00081810E94E40060E0F70181810E94E40003
:1005B0002196C830D10541F7812FDF91CF911F914E
:1005C000FF90EF900895FF920F931F93CF93DF93C7
:1005D0008C01D62FF42EC0E06D2F6170F801808160
:1005E0000E94E40061E0F80181810E94E400C730CC
:1005F00039F4FF2029F060E0F80180810E941201A7
:1006000060E0F80181810E94E400D695CF5FC83098
:1006100019F7DF91CF911F910F91FF9008951F93CC
:10062000CF93DF93EC01162F60E08A810E94E400F3
:1006300061E08A810E94120160E089810E94E400E9
:1006400061E089810E94120161E088810E941201AB
:1006500061E08A810E94E4008BE090E00197F1F76D
:10066000412F4170612FCE01DF91CF911F910C94EA
:10067000E3021F93CF93DF93EC016EEB8091920224
:10068000909193020E940F032D811AE0822F612F17
:100690000E94280B682F660F680F660F620F40E0FC
:1006A00080919202909193020E94E3022C81822F0A
:1006B000612F0E94280B682F660F680F660F620F6C
:1006C00040E080919202909193020E94E3022B817C
:1006D000822F612F0E94280B682F660F680F660F0C
:1006E000620F40E080919202909193020E94E30297
:1006F0002A81822F612F0E94280B682F660F680FB6
:10070000660F620F40E080919202909193020E94E6
:10071000E3022981822F612F0E94280B682F660F28
:10072000680F660F620F40E08091920290919302F1
:100730000E94E30269819881492F50E08A81282F25
:1007400030E0E2ECF0E081E0861730F47491270F9E
:10075000311D8F5F3196F8CF633020F0937011F424
:100760002F5F3F4F6DE671E0469FC001479F900DA0
:10077000569F900D112405964D5F5F4F56954795F6
:1007800056954795840F951F820F931F67E070E081
:100790000E94340B682F811101C067E040E0809116
:1007A0009202909193020E94E3022881822F6AE0D4
:1007B0000E94280B682F660F680F660F620F40E0DB
:1007C00080919202909193020E94E30240E060E0E7
:1007D00080919202909193020E94E302E091920232
:1007E000F09193028281DF91CF911F910C94670267
:1007F000CF92DF92EF92FF920F931F93CF93DF93ED
:1008000000D000D000D0CDB7DEB76FEB8091920260
:10081000909193020E940F03809192029091930213
:100820000E94BB028F77282F30E0F4E035952795A2
:10083000FA95E1F7922F990F990F022F091B000FDC
:10084000080F80919202909193020E94BB02282F80
:1008500030E0A4E035952795AA95E1F7922F990FFE
:10086000990FF22EF91AFF0CF80E809192029091D6
:1008700093020E94BB0286FF77C0982F9F71292F99
:1008800030E0E4E035952795EA95E1F7322F330F14
:10089000330F122F131B110F190F85FD145F809159
:1008A0009202909193020E94BB02282F30E094E0C4
:1008B000359527959A95E1F7922F990F990FE22E8A
:1008C000E91AEE0CE80E80919202909193020E9438
:1008D000BB02282F30E044E0359527954A95E1F793
:1008E000922F990F990FD22ED91ADD0CD80E809124
:1008F0009202909193020E94BB0280919202909189
:1009000093020E94BB02482F50E064E05595479542
:100910006A95E1F7942F990F990FC42EC91ACC0C40
:10092000C80E80919202909193020E94BB02E091C6
:100930009202F091930282810E94670296014E2DED
:10094000512F6F2D702F80E090E026960FB6F8940F
:10095000DEBF0FBECDBFDF91CF911F910F91FF90F2
:10096000EF90DF90CF900895282F30E074E0359518
:1009700027957A95E1F7922F990F990F122F191B4E
:10098000110F180F8CCFCF93DF9300D000D000D081
:10099000CDB7DEB70E94F803852F90E09093030156
:1009A00080930201862F90E09093DB018093DA011F
:1009B000872F90E09093CE018093CD0126960FB6BD
:1009C000F894DEBF0FBECDBFDF91CF910895CF93D6
:1009D000682F616080919202909193020E940F03B0
:1009E00080919202909193020E94BB02C82FE091E5
:1009F0009202F091930282810E9467028C2FCF9124
:100A0000089542E050E06CE371E085EF91E00C94D2
:100A10005A01CF93DF93FC0101900020E9F7319751
:100A2000AF01481B590BBC0185EF91E00E945A01B0
:100A3000EC010E9401058C0F9D1FDF91CF9108955D
:100A4000CF93DF93FC01448155816081718185EFF3
:100A500091E00E945A01EC010E9401058C0F9D1F3C
:100A6000DF91CF910895FC0180819181009711F071
:100A70000C94FE0B08950F931F93CF93DF93EC011B
:100A800088819981009759F02A813B812617370781
:100A900030F081E0DF91CF911F910F9108958B018C
:100AA0006F5F7F4F0E94870C009759F0998388836E
:100AB0001B830A832C813D81232B59F7FC01108273
:100AC000E8CF80E0E7CFEF92FF920F931F93CF9391
:100AD000DF93EC01FB01E080F180E114F10411F1FE
:100AE0000481158101151105A9F08C819D81080FE4
:100AF000191FB801CE010E943B05882399F0288177
:100B000039818C819D81B701820F931F0E944D0D09
:100B10001D830C83CE01DF91CF911F910F91FF9028
:100B2000EF90089588819981009711F00E94FE0B43
:100B3000198218821D821C821B821A82EBCFEF92CF
:100B4000FF920F931F93CF93DF93EC017B018A01F8
:100B5000BA010E943B0528813981811114C02115F9
:100B6000310519F0C9010E94FE0B198218821D82FD
:100B70001C821B821A82CE01DF91CF911F910F91AF
:100B8000FF90EF9008951D830C83B701C9010E9467
:100B90004D0DF1CFEF92FF920F931F93CF93DF9301
:100BA000CDB7DEB762970FB6F894DEBF0FBECDBFEC
:100BB0008C01CB01F80111821082138212821582FE
:100BC00014824AE09E012F5F3F4F7901B9010E94D4
:100BD000BC0AF70101900020E9F73197AF014E19E7
:100BE0005F09B701C8010E949F0562960FB6F8948D
:100BF000DEBF0FBECDBFDF91CF911F910F91FF9050
:100C0000EF900895FB01DC0111961C921E92139641
:100C10001C921E92129715961C921E92149786177C
:100C2000970749F0608171816115710521F0448158
:100C300055810C949F050895FC0111821082138246
:100C4000128215821482FB0101900020E9F731978E
:100C5000AF01461B570B0C949F051F920F920FB6C6
:100C60000F9211242F933F938F939F93AF93BF9332
:100C70008091F1019091F201A091F301B091F40102
:100C80003091F00123E0230F2D3758F50196A11D77
:100C9000B11D2093F0018093F1019093F201A09394
:100CA000F301B093F4018091EC019091ED01A091DA
:100CB000EE01B091EF010196A11DB11D8093EC01F1
:100CC0009093ED01A093EE01B093EF01BF91AF912E
:100CD0009F918F913F912F910F900FBE0F901F907A
:100CE000189526E8230F0296A11DB11DD2CF1F92A1
:100CF0000F920FB60F9211242F933F934F935F9350
:100D00006F937F938F939F93AF93BF93EF93FF93D3
:100D100085EF91E00E94D801FF91EF91BF91AF91D3
:100D20009F918F917F916F915F914F913F912F9103
:100D30000F900FBE0F901F9018951F920F920FB635
:100D40000F9211242F938F939F93EF93FF93E09132
:100D50000502F09106028081E0910B02F0910C02F5
:100D600082FD1BC0908180910E028F5F8F73209156
:100D70000F02821741F0E0910E02F0E0EB50FE4FBF
:100D8000958F80930E02FF91EF919F918F912F91FC
:100D90000F900FBE0F901F9018958081F4CFE5EF54
:100DA000F1E01382128288EE93E0A0E0B0E0848349
:100DB0009583A683B7838EE291E09183808385EC4F
:100DC00090E09587848784EC90E09787868780EC15
:100DD00090E0918B808B81EC90E0938B828B82EC06
:100DE00090E0958B848B86EC90E0978B868B118EB0
:100DF000128E138E148EE4E9F2E086E0808385E0A3
:100E0000818387E08283F0939302E09392020895B6
:100E1000CF93DF93CDB7DEB768970FB6F894DEBFF8
:100E20000FBECDBF789484B5826084BD84B58160E7
:100E300084BD85B5826085BD85B5816085BD8091A5
:100E40006E00816080936E0010928100809181001D
:100E50008260809381008091810081608093810015
:100E6000809180008160809380008091B1008460D7
:100E70008093B1008091B00081608093B000809138
:100E80007A00846080937A0080917A0082608093F7
:100E90007A0080917A00816080937A0080917A0054
:100EA000806880937A001092C100E0910502F09171
:100EB000060282E08083E0910102F091020210823A
:100EC000E0910302F09104028FEC808310920D02F6
:100ED000E0910902F0910A0216E01083E091070206
:100EE000F0910802808180618083E0910702F09197
:100EF0000802808188608083E0910702F0910802F7
:100F0000808180688083E0910702F09108028081EF
:100F10008F7D808361E088E00E94120161E089E0BA
:100F20000E94120161E08AE00E94120162E08CE0FE
:100F30000E94120162E08BE00E94120189E18B8B1A
:100F40001C8B85E08D8B80E18E8B8CE28F8B188ED5
:100F5000009192021091930260E0F80181810E9459
:100F6000120160E0F80180810E94120160E0F80146
:100F700082810E9412010E94F80329833A834B83E5
:100F80005C836D837E838FEF830F8C3008F45CC2AB
:100F90008FE391E00E940905CE0143960E94390338
:100FA0008EE80E94E70487FF1FC08DE491E00E9455
:100FB00009058EE80E94E704182F6EE880919202DE
:100FC000909193020E940F03612F6F7740E0809110
:100FD0009202909193020E94E302E0919202F091BA
:100FE000930282810E94670280E80E94E70487FFE3
:100FF0001FC08BE791E00E94090580E80E94E7048A
:10100000182F60E880919202909193020E940F0342
:10101000612F6F7740E080919202909193020E943D
:10102000E302E0919202F091930282810E946702B2
:101030000E94C3046091020170910301CE010196E8
:101040000E94CA0566EA71E0CE010D960E941C0658
:10105000BE01635F7F4FCE0107960E940206BE016C
:101060006F5F7F4FCE0107960E9463050E942005A7
:10107000CE0107960E943305CE010D960E943305DE
:10108000CE0101960E9433056091DA017091DB0177
:10109000CE0101960E94CA056FEA71E0CE010D965D
:1010A0000E941C06BE01635F7F4FCE0107960E941F
:1010B0000206BE016F5F7F4FCE0107960E94630557
:1010C0000E942005CE0107960E943305CE010D96A1
:1010D0000E943305CE0101960E9433056091CD0137
:1010E0007091CE01CE0101960E94CA056AEB71E0B3
:1010F000CE010D960E941C06BE01635F7F4FCE019C
:1011000007960E940206BE016F5F7F4FCE010796D1
:101110000E9463050E942005CE0107960E943305B8
:10112000CE010D960E943305CE0101960E94330533
:101130000AE010E080E0E82E80E0F82E92E0C92E70
:10114000D12CAA24A394B12C0E944E014090E80116
:101150005090E9016090EA017090EB016419750903
:1011600086099709683C71058105910560F00E9428
:101170004E016093E8017093E9018093EA01909336
:10118000EB010E94C3040E944E014090E401509084
:10119000E5016090E6017090E70164197509860920
:1011A0009709633071058105910508F46DC00E94AF
:1011B0004E016093E4017093E5018093E601909302
:1011C000E7018090DC019090DD0151E085169104EB
:1011D00021F48091D501811175C180910201909116
:1011E0000301B8010E94480BE62F71E087169104B5
:1011F00021F48091D501811167C180910201909104
:101200000301B8010E94480B382F82E08816910430
:1012100021F48091D501811159C18091DA01909119
:10122000DB01B8010E94480B262FF2E08F169104D3
:1012300029F48091D5016AE0811108C08091DA011A
:101240009091DB01B8010E94480B682F8091CD017D
:101250009091CE01AC01409550959090CC0172E0F8
:10126000971609F44EC1791508F432C1992009F492
:101270003EC181E0981609F440C1892D90E00196A5
:10128000877099278093CC018CE00E94BB004C01B1
:1012900080910001909101018816990651F00E94F9
:1012A0004E016093D1017093D2018093D30190934A
:1012B000D4010E944E014090D1015090D201609023
:1012C000D3017090D40164197509860997096233B6
:1012D000710581059105F8F08091CF019091D001C1
:1012E00088169906C1F09092D0018092CF018114A6
:1012F000910489F48091DC019091DD0181309105A8
:1013000009F411C108F40AC1029709F411C185EC6E
:1013100091E00E94090590920101809200010E94D3
:101320004E014090D6015090D7016090D801709046
:10133000D9016419750986099709643F71408105CF
:10134000910580F08091D50191E089278093D501A6
:101350000E944E016093D6017093D7018093D8010B
:101360009093D9018BE00E94BB004C018091040155
:10137000909105018816990651F00E944E016093E4
:10138000E0017093E1018093E2019093E3010E94F8
:101390004E014090E0015090E1016090E2017090B8
:1013A000E30164197509860997096233710581059E
:1013B0009105D0F18091DE019091DF0188169906A8
:1013C00099F19092DF018092DE018114910461F520
:1013D0000E94F803E72F2F83388749875A876B8746
:1013E0007C878091DC019091DD018130910509F0CD
:1013F000A9C0852F90E00196883191050CF09DC021
:1014000090930301809302018091020129833A8322
:101410004B838C836D83EE83CE0101960E9439034A
:1014200085EC91E00E9409059092050180920401EB
:10143000E114F10409F488CE0E94C401882309F460
:1014400083CE0E94000080CE8FEF840F8F3108F092
:101450009FCD583108F09CCD6C3308F099CD7C338A
:1014600008F096CD323001F54E3108F091CD4D3176
:1014700009F096CD30E02053384FC9018370992789
:10148000892B09F085CDC90164E670E00E94340B18
:10149000892B09F085CDC90160E971E00E94340B08
:1014A000892B09F075CD7CCD4F3109F079CD432FD3
:1014B0004150550BCA0167E070E00E94480B80FF65
:1014C0006FCD66CDEAE095CE3AE0A7CE2AE0B1CE68
:1014D000E4E09E16E9F09E16C0F0F5E09F12CDCE36
:1014E000B8010E94480B40E0682F85E003C040E04F
:1014F0006E2F80E00E948802C0CE4170632F81E091
:10150000F9CF40E0622F82E0F5CF40E083E0F2CFF8
:10151000B8010E94480B40E084E0ECCFB092DD01BE
:10152000A092DC01F4CED092DD01C092DC01EFCEBE
:101530001092DD011092DC01EACE109203011092AC
:10154000020162CF029709F06BCF70E06F5F7F4FAF
:101550006C33710564F47093DB016093DA01809160
:10156000DA0129833A834B835C838D8354CF1092B5
:10157000DB011092DA01F3CFBB274A3031F4992313
:1015800022F4BDE2909581959F4F0C94C80ABB2729
:10159000FB015527AA27880F991FAA1FA41710F02F
:1015A000A41B83955051B9F7A05DAA3308F0A95D3B
:1015B000A193009779F7B111B1931192CB010C94DB
:1015C000E10ADC01FC01672F71917723E1F7329783
:1015D00004C07C916D9370836291AE17BF07C8F30E
:1015E00008952F923F924F925F926F927F928F92C7
:1015F0009F92AF92BF92CF92DF92EF92FF920F93A2
:101600001F93CF93DF93CDB7DEB7CA1BDB0B0FB6AB
:10161000F894DEBF0FBECDBF09942A883988488868
:101620005F846E847D848C849B84AA84B984C884FE
:10163000DF80EE80FD800C811B81AA81B981CE0FF5
:10164000D11D0FB6F894DEBF0FBECDBFED010895DA
:10165000991B79E004C0991F961708F0961B881F04
:101660007A95C9F780950895AA1BBB1B51E107C065
:10167000AA1FBB1FA617B70710F0A61BB70B881F22
:10168000991F5A95A9F780959095BC01CD010895B1
:1016900097FB072E16F4009407D077FD09D00E941F
:1016A000340B07FC05D03EF4909581959F4F08952B
:1016B000709561957F4F0895EE0FFF1F0590F4918F
:1016C000E02D09940F931F93CF93DF938230910500
:1016D00010F482E090E0E0919902F0919A0230E0FB
:1016E00020E0B0E0A0E0309799F42115310509F42D
:1016F0004AC0281B390B24303105D8F58A819B81DB
:101700006115710589F1FB0193838283FE0111C08C
:10171000408151810281138148175907E0F0481731
:10172000590799F4109761F012960C93129713963B
:101730001C933296CF01DF91CF911F910F910895A5
:101740000093990210939A02F4CF2115310551F0BC
:101750004217530738F0A901DB019A01BD01DF01EF
:10176000F801C1CFEF01F9CF90939A0280939902CB
:10177000CDCFFE01E20FF31F8193919322503109E7
:1017800039832883D7CF2091970230919802232B59
:1017900041F420910801309109013093980220937F
:1017A000970220910601309107012115310541F47E
:1017B0002DB73EB740910A0150910B01241B350B08
:1017C000E0919702F0919802E217F307A0F42E1B24
:1017D0003F0B2817390778F0AC014E5F5F4F241795
:1017E000350748F04E0F5F1F5093980240939702C1
:1017F000819391939FCFF0E0E0E09CCFCF93DF9374
:101800000097E9F0FC01329713821282A0919902AD
:10181000B0919A02ED0130E020E01097A1F4208110
:101820003181820F931F20919702309198022817DF
:10183000390709F061C0F0939802E0939702DF91B5
:10184000CF910895EA01CE17DF07E8F54A815B8161
:101850009E0141155105B1F7E901FB83EA834991E6
:101860005991C40FD51FEC17FD0761F48081918158
:101870000296840F951FE901998388838281938161
:101880009B838A83F0E0E0E012968D919C91139700
:101890000097B9F52D913C911197CD010296820FD9
:1018A000931F20919702309198022817390739F633
:1018B000309751F510929A0210929902B0939802C3
:1018C000A0939702BCCFD383C28340815181840F00
:1018D000951FC817D90761F44E5F5F4F88819981C2
:1018E000480F591F518340838A819B819383828350
:1018F0002115310509F0B0CFF0939A02E0939902D7
:101900009ECFFD01DC01C0CF13821282D7CFB0E0A1
:10191000A0E0EDE8FCE00C94F30A8C01009751F490
:10192000CB010E94620B8C01C801CDB7DEB7E0E1AC
:101930000C940F0BFC01E60FF71F9C01225031099C
:10194000E217F30708F49DC0D901CD91DC911197FE
:10195000C617D70798F0C530D10530F3CE010497EC
:101960008617970708F3C61BD70B2297C193D1930D
:101970006D937C93CF010E94FE0BD6CF5B01AC1A16
:10198000BD0A4C018C0E9D1EA0919902B0919A0245
:10199000512C412CF12CE12C109731F580919702BC
:1019A000909198028815990509F05CC04616570673
:1019B00008F058C08091060190910701009741F40A
:1019C0008DB79EB740910A0150910B01841B950B76
:1019D000E817F90708F055C0F0939802E0939702D2
:1019E000F90171836083A0CF8D919C91119712961C
:1019F0006C90129713967C901397A815B90559F51A
:101A00006C0142E0C40ED11CCA14DB0420F1AC010D
:101A10004A195B09DA011296159780F06282738287
:101A200051834083D9016D937C93E114F10471F0EB
:101A3000D7011396FC93EE93129776CF22968C0FD4
:101A40009D1FF90191838083F301EFCFF0939A02F8
:101A5000E093990269CF4816590608F42C017D01DC
:101A6000D3019ACFCB010E94620B7C01009749F011
:101A7000AE01B8010E94440DC8010E94FE0B87010F
:101A800053CF10E000E050CFFB01DC0102C0019019
:101A90000D9241505040D8F70895FB01DC010190B0
:0C1AA0000D920020E1F70895F894FFCFAC
:101AAC0001000C00010000009B0280003F065B4F10
:101ABC00666D7D077F6F00BF86DBCFE6EDFD87FF90
:101ACC00EF80FEFDFBF7EFDFBF7F00000000FA01A7
:101ADC005A0187014702B8019601AA010D0A00526A
:101AEC005443206C6F73742074696D6500525443B9
:101AFC00207761732077726974652070726F7465DA
:101B0C00637465642C20656E61626C696E67207706
:101B1C00726974696E67206E6F7700525443207738
:101B2C006173206E6F74206163746976656C7920C3
:101B3C0072756E6E696E672C207374617274696E47
:101B4C0067206E6F7700484F555253203D20004D53
:101B5C00494E55544553203D20005345434F4E4468
:0C1B6C0053203D2000436C69636B210096
:00000001FF
