:100000000C9468000C9490000C9490000C94900058
:100010000C9490000C9490000C9490000C94900020
:100020000C9490000C9490000C9490000C94E20BB3
:100030000C9490000C9490000C9490000C94900000
:100040000C94210A0C9490000C94910A0C946B0A65
:100050000C9490000C9490000C9490000C949000E0
:100060000C94C30A0C9490000000000024002700A8
:100070002A0000000000250028002B0000000000DE
:1000800023002600290004040404040404040202DA
:100090000202020203030303030301020408102007
:1000A0004080010204081020010204081020000012
:1000B0000008000201000003040700000000000027
:1000C00000001F1C1F1E1F1E1F1F1E1F1E1F250C92
:1000D00011241FBECFEFD8E0DEBFCDBF23E0A0E1EB
:1000E000B2E001C01D92AD3BB207E1F712E0A0E023
:1000F000B1E0EAE9F7E202C005900D92A031B10744
:10010000D9F710E0C8E6D0E004C02197FE010E94B4
:10011000D311C736D107C9F70E946E0C0C94CB13CC
:100120000C940000833081F028F4813099F0823003
:10013000A9F008958730A9F08830C9F08430B1F46F
:10014000809180008F7D03C0809180008F778093A5
:100150008000089584B58F7784BD089584B58F7D20
:10016000FBCF8091B0008F778093B000089580918D
:10017000B0008F7DF9CFCF93DF93282F30E0F901C6
:10018000E255FF4F8491F901E656FF4FD491F901F2
:10019000EA57FF4FC491CC23A1F081110E94920035
:1001A000EC2FF0E0EE0FFF1FE458FF4FA591B49144
:1001B000EC91ED2381E090E009F480E0DF91CF91B4
:1001C000089580E090E0FACF1F93CF93DF93282F1C
:1001D00030E0F901E255FF4F8491F901E656FF4FF7
:1001E000D491F901EA57FF4FC491CC23A9F0162FFF
:1001F00081110E949200EC2FF0E0EE0FFF1FEE58ED
:10020000FF4FA591B4918FB7F894EC91111108C0EC
:10021000D095DE23DC938FBFDF91CF911F9108959E
:10022000DE2BF8CFCF93DF9390E0FC01E656FF4F33
:1002300024918A579F4FFC0184918823C9F090E054
:10024000880F991FFC01E859FF4FA591B491FC015B
:10025000EE58FF4FC591D49161110DC09FB7F8942E
:100260008C91209582238C938881282328839FBF9B
:10027000DF91CF910895623051F49FB7F8943C918B
:10028000822F809583238C93E8812E2BEFCF8FB71D
:10029000F894EC912E2B2C938FBFEACF3FB7F894B4
:1002A00080917C0290917D02A0917E02B0917F02AC
:1002B00026B5A89B05C02F3F19F00196A11DB11DC1
:1002C0003FBFBA2FA92F982F8827BC01CD01620FFD
:1002D000711D811D911D42E0660F771F881F991FB8
:1002E0004A95D1F708952FB7F894609178027091EC
:1002F000790280917A0290917B022FBF0895089530
:100300000895AF92BF92CF92DF92EF92FF920F9338
:100310001F93CF93DF936C017B018B01040F151F9B
:10032000EB015E01AE18BF08C017D10759F0699103
:10033000D601ED91FC910190F081E02DC601099567
:10034000892B79F7C501DF91CF911F910F91FF9014
:10035000EF90DF90CF90BF90AF900895FC01538D48
:10036000448D252F30E0842F90E0821B930B54178F
:1003700010F0CF96089501970895FC01918D828D1C
:10038000981761F0A28DAE0FBF2FB11D5D968C91B5
:10039000928D9F5F9F73928F90E008958FEF9FEFF4
:1003A0000895FC01918D828D981731F0828DE80FB0
:1003B000F11D858D90E008958FEF9FEF0895FC016A
:1003C000918D228D892F90E0805C9F4F821B910937
:1003D0008F739927089582EF92E00E94DF0121E058
:1003E000892B09F420E0822F089580E090E0892B8A
:1003F00029F00E94EB0181110C9400000895FC018A
:10040000A48DA80FB92FB11DA35ABF4F2C91848D75
:1004100090E001968F739927848FA689B7892C93D2
:10042000A089B1898C91837080648C93938D848D25
:10043000981306C00288F389E02D80818F7D808328
:100440000895EF92FF920F931F93CF93DF93EC01E8
:1004500081E0888F9B8D8C8D98131AC0E889F9896B
:10046000808185FF15C09FB7F894EE89FF8960836E
:10047000E889F98980818370806480839FBF81E0EF
:1004800090E0DF91CF911F910F91FF90EF90089531
:10049000F62E0B8D10E00F5F1F4F0F731127E02E0C
:1004A0008C8D8E110CC00FB607FCFACFE889F98944
:1004B000808185FFF5CFCE010E94FF01F1CFEB8D4A
:1004C000EC0FFD2FF11DE35AFF4FF0829FB7F89418
:1004D0000B8FEA89FB8980818062CFCFCF93DF9336
:1004E000EC01888D8823B9F0AA89BB89E889F9894C
:1004F0008C9185FD03C0808186FD0DC00FB607FC81
:10050000F7CF8C9185FFF2CF808185FFEDCFCE01B3
:100510000E94FF01E9CFDF91CF910895209132022F
:10052000260F3327331F21323105ECF42091C80206
:10053000FC0190E080E0243069F082E00895A09111
:1005400032022191AC014E5E5D4FA40FB52FB11D5B
:100550002C930196861798F380913202680F60936E
:10056000320280E0089581E008951092C80281E08F
:100570008093C7021092A20261E082E10E94E4002F
:1005800061E083E10E94E400E9EBF0E080818E7F8E
:10059000808380818D7F808388E48093B80085E4A8
:1005A0008093BC000895CF93DF9391E09093110264
:1005B0008823B9F0C091B800D091BA008091BC00F6
:1005C0008A7B8093BC0060E082E10E94E40060E0EE
:1005D00083E10E94E4000E94B502D093BA00C09368
:1005E000B800DF91CF9108958F929F92AF92BF9202
:1005F000CF92DF92EF92FF920F931F93CF93DF93EF
:10060000D091F102D13208F0D7C0182FC091F0027A
:100610000E944E016B017C018091C80281116BC068
:1006200082E08093C8021093C7028FEF8093C602C6
:100630001092C502D093C402A0EDB2E0E4EAF2E069
:1006400080E0D81391C01092A3028091A302CC0F36
:10065000C82BC093A3028091A202813009F088C008
:100660001092A2020E944E016B017C018091A302B4
:100670008093BB008091CA029091CB02A091CC02E2
:10068000B091CD02892B8A2B8B2BA1F00E944E01B9
:100690000091CA021091CB022091CC023091CD0280
:1006A0006C197D098E099F09061717072807390756
:1006B00008F442C08091BC0083FDD8CF85EC8093C4
:1006C000BC000E944E016B017C018091C802823007
:1006D00009F450C08091C6028F3F09F46FC0809129
:1006E000C602803209F46CC08091C602803309F4DE
:1006F00069C084E026C08091CA029091CB02A0918B
:10070000CC02B091CD02892B8A2B8B2B09F484CF9C
:100710000E944E018090CA029090CB02A090CC0221
:10072000B090CD026C197D098E099F098616970637
:10073000A806B90608F070CF8091C9020E94D302C2
:1007400085E01092CF021092F1021092CE02DF915A
:10075000CF911F910F91FF90EF90DF90CF90BF90BE
:10076000AF909F908F9008959D9191938F5F69CFE7
:1007700085EEA5CF8091CA029091CB02A091CC02C8
:10078000B091CD02892B8A2B8B2B09F49ECF0E942E
:100790004E010091CA021091CB022091CC023091FF
:1007A000CD026C197D098E099F09061717072807C6
:1007B000390708F08ACFC0CF81E0C3CF80E0C1CF36
:1007C00082E0BFCF83E0BDCF0895E09181028091A8
:1007D0008002E81730F4F0E0EE57FD4F808190E0A2
:1007E00008958FEF9FEF089590918102809180028C
:1007F0002FEF3FEF981748F4E92FF0E0EE57FD4F49
:10080000208130E09F5F90938102C901089580911B
:10081000800290918102891B990B0895CF92DF92FB
:10082000EF92FF920F931F93CF93DF937C01CB0145
:100830008A012091CE02222389F0EB016B01C40EC4
:10084000D51ECC15DD0569F06991D701ED91FC91BC
:100850000190F081E02DC7010995F3CF642F0E942C
:100860008E02C801DF91CF911F910F91FF90EF9001
:10087000DF90CF900895CF93DF931F92CDB7DEB76F
:1008800069832091CE022223F9F02091F1022032D7
:1008900058F021E030E0FC013383228390E080E0D7
:1008A0000F90DF91CF9108958091CF02E82FF0E073
:1008B000E053FD4F998190838F5F8093CF028093A7
:1008C000F10281E090E0ECCF61E0CE0101960E9460
:1008D0008E02F7CF90E080E00895CF93DF93EC0194
:1008E0008B818823A1F0888191E09093CE02809340
:1008F000F0021092CF021092F10281E00E94F40205
:1009000091E0811190E0892FDF91CF9108951092AD
:100910008102109280021092CF021092F1020E9486
:10092000B5028FE791E0909357028093560280E8DA
:1009300091E0909359028093580281E08B83CE011D
:100940000E946D04982F8111CECFDDCF60E00E9410
:10095000E4008BE090E00197F1F708958EBD000070
:100960000DB407FEFDCF8EB50895CF93DF93C82F4A
:10097000D62F60E089E00E94E4008FEF0E94AE0471
:1009800080E00E94AE0461E089E00E94E40060E043
:1009900089E00E94E400EC2FF0E0EE5DFE4F8081E4
:1009A0000E94AE048D2F0E94AE0461E089E0DF91C9
:1009B000CF910C94E4001F93CF93DF93D82FC62FD1
:1009C000142F60E089E00E94E4008FEF0E94AE04E3
:1009D00080E00E94AE0461E089E00E94E40060E0F3
:1009E00089E00E94E400ED2FF0E0EE5DFE4F808193
:1009F0000E94AE046C2F70E0112369F0695E7E4F97
:100A0000FB0180810E94AE0461E089E0DF91CF911B
:100A10001F910C94E400645F7E4FF2CF42E050E0FF
:100A20006EE571E082EF92E00C948101CF93DF9349
:100A3000FC0101900020E9F73197AF01481B590BE9
:100A4000BC0182EF92E00E948101EC010E940E0540
:100A50008C0F9D1FDF91CF910895CF93DF93FC0101
:100A6000448155816081718182EF92E00E94810111
:100A7000EC010E940E058C0F9D1FDF91CF91089510
:100A80002F923F924F925F926F927F928F929F929E
:100A9000AF92BF92CF92DF92EF92FF920F931F938C
:100AA000CF93DF93DC011496ED91FC91EF2B09F4C9
:100AB0001CC159011A018C01FC01818192812081A4
:100AC00031E03093CE022093F0021092CF021092C8
:100AD000F102DC01ED91FC910280F381E02D41E017
:100AE00050E00995019709F000C181E00E94F402ED
:100AF0008111FBC0D12CC12CF80184819581750135
:100B0000EC18FD088E159F0508F47C01D801DC91D6
:100B10000E944E012B013C018091C802811173C0DB
:100B2000CE2DC13208F0C0E2B1E0B093C80221E09E
:100B3000C5018E199F09C816D90608F420E0209334
:100B4000C702EFEFE093C6021092C5028FEF8C0F41
:100B50008093C402F1E0F093A3028091A302DD0F21
:100B6000D82BD093A3028091A202813009F08FC0CC
:100B70001092A2020E944E012B013C018091A3021F
:100B80008093BB008091CA029091CB02A091CC02CD
:100B9000B091CD02892B8A2B8B2BA1F00E944E01A4
:100BA0002091CA023091CB024091CC025091CD02EB
:100BB00064197509860997092617370748075907E1
:100BC00008F442C08091BC0083FDD8CF85EC8093AF
:100BD000BC000E944E012B013C018091C802813073
:100BE00009F459C08091C5028C1710F4C091C50258
:100BF000A4EAB2E0E2E8F2E080E08C1751F19D91C6
:100C000091938F5FFACF8091CA029091CB02A0910D
:100C1000CC02B091CD02892B8A2B8B2B09F47CCF8F
:100C20000E944E012091CA023091CB024091CC0229
:100C30005091CD026419750986099709261737075F
:100C40004807590708F068CF8091C9020E94D30273
:100C5000C0E010928102C0938002CE151F0409F0FB
:100C600044C041018C0C9D1CE401CE0188199909F6
:100C70008E159F0590F5F80181819281DC01ED913F
:100C8000FC910284F385E02D09958993EECFA5EEC2
:100C9000A093BC009ECF8091CA029091CB02A091FC
:100CA000CC02B091CD02892B8A2B8B2B09F495CFE6
:100CB0000E944E012091CA023091CB024091CC0299
:100CC0005091CD02641975098609970926173707CF
:100CD0004807590708F081CFB7CFCE0CDF1CCA14E4
:100CE000DB0408F409CF81E001C080E0DF91CF91FF
:100CF0001F910F91FF90EF90DF90CF90BF90AF903A
:100D00009F908F907F906F905F904F903F902F902B
:100D10000895CF93DF9300D01F92CDB7DEB78B83BA
:100D200022E030E0AE014F5F5F4FBE016D5F7F4F4D
:100D300080919B0390919C030E94400589819A8138
:100D40009827892798270F900F900F90DF91CF91C8
:100D50000895EF92FF921F93CF93DF937C01D0E031
:100D6000C0E010E0F70180810E94BB000C2E01C0A2
:100D7000880F0A94EAF7182B61E0F70181810E943D
:100D8000E40060E0F70181810E94E4002196C83010
:100D9000D10541F7812FDF91CF911F91FF90EF9007
:100DA0000895FF920F931F93CF93DF938C01D62F5B
:100DB000F42EC0E06D2F6170F80180810E94E40084
:100DC00061E0F80181810E94E400C73039F4FF201E
:100DD00029F060E0F80180810E94120160E0F801D2
:100DE00081810E94E400D695CF5FC83019F7DF916A
:100DF000CF911F910F91FF9008951F93CF93DF9391
:100E0000EC01162F60E08A810E94E40061E08A8193
:100E10000E94120160E089810E94E40061E0898102
:100E20000E94120161E088810E94120161E08A81C2
:100E30000E94E4008BE090E00197F1F7412F4170B0
:100E4000612FCE01DF91CF911F910C94D1061F939A
:100E5000CF93DF93EC016EEB8091B4039091B503D7
:100E60000E94FD062D811AE0822F612F0E949F11A2
:100E7000682F660F680F660F620F40E08091B40321
:100E80009091B5030E94D1062C81822F612F0E9480
:100E90009F11682F660F680F660F620F40E0809108
:100EA000B4039091B5030E94D1062B81822F612F4C
:100EB0000E949F11682F660F680F660F620F40E057
:100EC0008091B4039091B5030E94D1062A81822FAC
:100ED000612F0E949F11682F660F680F660F620FC7
:100EE00040E08091B4039091B5030E94D10629811E
:100EF000822F612F0E949F11682F660F680F660F67
:100F0000620F40E08091B4039091B5030E94D10636
:100F100069819881492F50E08A81282F30E0E2ECE6
:100F2000F0E081E0861730F47491270F311D8F5F58
:100F30003196F8CF633020F0937011F42F5F3F4F5C
:100F40006DE671E0469FC001479F900D569F900D42
:100F5000112405964D5F5F4F5695479556954795D9
:100F6000840F951F820F931F67E070E00E94AB1102
:100F7000682F811101C067E040E08091B403909137
:100F8000B5030E94D1062881822F6AE00E949F113A
:100F9000682F660F680F660F620F40E08091B40300
:100FA0009091B5030E94D10640E060E08091B403C7
:100FB0009091B5030E94D106E091B403F091B5037E
:100FC0008281DF91CF911F910C94A604CF92DF9282
:100FD000EF92FF920F931F93CF93DF9300D000D037
:100FE00000D0CDB7DEB76FEB8091B4039091B5031D
:100FF0000E94FD068091B4039091B5030E94A9065A
:101000008F77282F30E0F4E035952795FA95E1F7B2
:10101000922F990F990F022F091B000F080F809133
:10102000B4039091B5030E94A906282F30E0A4E0F4
:1010300035952795AA95E1F7922F990F990FF22EE2
:10104000F91AFF0CF80E8091B4039091B5030E9439
:10105000A90686FF77C0982F9F71292F30E0E4E022
:1010600035952795EA95E1F7322F330F330F122F7D
:10107000131B110F190F85FD145F8091B40390911C
:10108000B5030E94A906282F30E094E035952795F6
:101090009A95E1F7922F990F990FE22EE91AEE0C2B
:1010A000E80E8091B4039091B5030E94A906282F01
:1010B00030E044E0359527954A95E1F7922F990F56
:1010C000990FD22ED91ADD0CD80E8091B4039091CD
:1010D000B5030E94A9068091B4039091B5030E94C4
:1010E000A906482F50E064E0559547956A95E1F7C9
:1010F000942F990F990FC42EC91ACC0CC80E809149
:10110000B4039091B5030E94A906E091B403F09155
:10111000B50382810E94A60496014E2D512F6F2D9A
:10112000702F80E090E026960FB6F894DEBF0FBED9
:10113000CDBFDF91CF911F910F91FF90EF90DF9086
:10114000CF900895282F30E074E0359527957A9553
:10115000E1F7922F990F990F122F191B110F180FEA
:101160008CCFCF93DF9300D000D000D0CDB7DEB7C7
:101170000E94E607852F90E090930501809304017B
:10118000862F90E09093700280936F02872F90E0FB
:10119000909372028093710226960FB6F894DEBF88
:1011A0000FBECDBFDF91CF910895CF93682F6160BF
:1011B0008091B4039091B5030E94FD068091B40321
:1011C0009091B5030E94A906C82FE091B403F09155
:1011D000B50382810E94A6048C2FCF910895FC0153
:1011E00080819181009711F00C94751208950F93EE
:1011F0001F93CF93DF93EC0188819981009759F079
:101200002A813B812617370730F081E0DF91CF91AB
:101210001F910F9108958B016F5F7F4F0E94FE1207
:10122000009759F0998388831B830A832C813D8121
:10123000232B59F7FC011082E8CF80E0E7CFEF9233
:10124000FF920F931F93CF93DF93EC01FB01E0809C
:10125000F180E114F10411F10481158101151105EA
:10126000A9F08C819D81080F191FB801CE010E9441
:10127000F708882399F0288139818C819D81B701F5
:10128000820F931F0E94C4131D830C83CE01DF9134
:10129000CF911F910F91FF90EF90089588819981D0
:1012A000009711F00E947512198218821D821C820B
:1012B0001B821A82EBCFEF92FF920F931F93CF9373
:1012C000DF93EC017B018A01BA010E94F7082881B3
:1012D0003981811114C02115310519F0C9010E940D
:1012E0007512198218821D821C821B821A82CE01FD
:1012F000DF91CF911F910F91FF90EF9008951D8383
:101300000C83B701C9010E94C413F1CFEF92FF9281
:101310000F931F93CF93DF93CDB7DEB762970FB6CE
:10132000F894DEBF0FBECDBF8C01CB01F801118256
:10133000108213821282158214824AE09E012F5F6E
:101340003F4F7901B9010E943311F701019000204C
:10135000E9F73197AF014E195F09B701C8010E9443
:101360005B0962960FB6F894DEBF0FBECDBFDF916A
:10137000CF911F910F91FF90EF900895FB01DC0139
:1013800011961C921E9213961C921E9212971596FD
:101390001C921E9214978617970749F060817181FD
:1013A0006115710521F0448155810C945B09089504
:1013B000FC01118210821382128215821482FB01B9
:1013C00001900020E9F73197AF01461B570B0C94B1
:1013D0005B0985ED8093BC008091CA029091CB029D
:1013E000A091CC02B091CD020796A11DB11D23E0C2
:1013F000B695A795979587952A95D1F72091BC002A
:1014000024FD03C01092C80208954091CA02509171
:10141000CB026091CC027091CD02452B462B472B1D
:1014200069F30097A105B10541F02AE22A95F1F789
:1014300000C00197A109B109E1CF8091C9020C94C4
:10144000D3021F920F920FB60F9211242F933F9346
:101450008F939F93AF93BF9380917802909179027D
:10146000A0917A02B0917B023091770223E0230FA2
:101470002D3758F50196A11DB11D20937702809359
:10148000780290937902A0937A02B0937B028091C4
:101490007C0290917D02A0917E02B0917F02019624
:1014A000A11DB11D80937C0290937D02A0937E02CA
:1014B000B0937F02BF91AF919F918F913F912F91F8
:1014C0000F900FBE0F901F90189526E8230F0296DD
:1014D000A11DB11DD2CF1F920F920FB60F921124F2
:1014E0002F933F934F935F936F937F938F939F932C
:1014F000AF93BF93EF93FF9382EF92E00E94FF01BF
:10150000FF91EF91BF91AF919F918F917F916F91DB
:101510005F914F913F912F910F900FBE0F901F90B1
:1015200018951F920F920FB60F9211242F938F933D
:101530009F93EF93FF93E0910203F0910303808167
:10154000E0910803F091090382FD1BC09081809116
:101550000B038F5F8F7320910C03821741F0E09192
:101560000B03F0E0EE50FD4F958F80930B03FF913E
:10157000EF919F918F912F910F900FBE0F901F9021
:1015800018958081F4CF1F920F920FB60F921124FD
:101590002F933F934F935F936F937F938F939F937B
:1015A000AF93BF93EF93FF938091B900887F80360C
:1015B00009F44AC0F0F5883209F4A7C018F5803163
:1015C00009F49BC0B8F4882309F4F9C0883009F401
:1015D00094C0FF91EF91BF91AF919F918F917F91B7
:1015E0006F915F914F913F912F910F900FBE0F9090
:1015F0001F901895883109F488C0803251F7809384
:10160000C60214C0803409F49DC040F48033B9F39D
:101610008833F9F68093C60285ECB0C0803509F4B2
:1016200085C0883509F496C0883499F60E94E90986
:10163000D0CF883909F48CC038F5883729F050F4B8
:10164000883611F0803729F683E08093C802109223
:10165000540257C0883809F47BC0803919F08038AB
:1016600009F0B7CF80915402803208F071C0E09148
:10167000540281E08E0F809354028091BB00F0E011
:10168000EC5CFD4F80833DC0803B39F0E0F4803A54
:1016900009F479C0883A09F09CCF84E08093C802AD
:1016A0001092330210923202E0915602F0915702EA
:1016B00009958091320281110FC081E0809332023E
:1016C0001092120209C0803C09F4A6CF883C09F4AC
:1016D000A3CF883B09F07DCFE091330281E08E0FEC
:1016E00080933302F0E0EE5EFD4F80818093BB007B
:1016F000909133028091320229C08091A30280939D
:10170000BB0085EC8093BC0064CF9091C5028091B2
:10171000C402981758F5E091C50281E08E0F8093BE
:10172000C502F0E0EC55FD4F8081E9CFE091C502A4
:1017300081E08E0F8093C5028091BB00F0E0EC55F4
:10174000FD4F80839091C5028091C4029817C8F222
:1017500085E8D8CFE091C50281E08E0F8093C50265
:101760008091BB00F0E0EC55FD4F80838091C70273
:1017700081115CCF81E08093A20284EA8093BC0057
:101780001092C80226CF85EC8093BC001092C8024C
:1017900080915402803230F4E0915402F0E0EC5C2D
:1017A000FD4F10826091540270E0E0915802F09178
:1017B000590284E392E00995109254020ACF1092E4
:1017C000C60234CF1F920F920FB60F9211242F939F
:1017D0003F934F935F936F937F938F939F93AF93B9
:1017E000BF93EF93FF93809110028F5F809310025D
:1017F00080915C0291E0892780935C0280915B027A
:101800008F5F8830F8F480935B02809110028091A2
:10181000100280911002803F20F00E94B1081092C7
:101820001002FF91EF91BF91AF919F918F917F91A6
:101830006F915F914F913F912F910F900FBE0F903D
:101840001F90189510925B02E0CFE2EFF2E0138256
:10185000128288EE93E0A0E0B0E084839583A683B3
:10186000B7832EE331E03183208325EC30E03587E8
:10187000248724EC30E03787268720EC30E0318B5A
:10188000208B21EC30E0338B228B22EC30E0358B47
:10189000248B26EC30E0378B268B118E128E138E24
:1018A000148EEFE8F3E01382128284839583A6837B
:1018B000B78380E591E091838083E6EBF3E086E0F7
:1018C000808385E0818387E08283F093B503E09392
:1018D000B40310929C0310929B030895CF93DF935F
:1018E000CDB7DEB768970FB6F894DEBF0FBECDBF99
:1018F000789484B5826084BD84B5816084BD85B5EB
:10190000826085BD85B5816085BD80916E008160F6
:1019100080936E001092810080918100826080939C
:10192000810080918100816080938100809180009E
:101930008160809380008091B10084608093B100C9
:101940008091B00081608093B00080917A008460C3
:1019500080937A0080917A00826080937A008091EF
:101960007A00816080937A0080917A008068809309
:101970007A001092C100E0910203F091030382E02B
:101980008083E091FE02F091FF021082E09100035B
:10199000F09101038FEC808310920A03E09106031B
:1019A000F091070386E08083E0910403F091050342
:1019B000808180618083E0910403F0910503808140
:1019C00088608083E0910403F09105038081806842
:1019D0008083E0910403F091050380818F7D8083F3
:1019E000F89410928000109281001092850010925D
:1019F00084008091810083608093810084E294EF71
:101A00009093890080938800809181008860809302
:101A1000810080916F00826080936F00789461E014
:101A200089E00E94120162E08CE00E94120162E0F3
:101A30008AE00E9412011FB7F8948091550281112B
:101A400027C0E0E9F0E08491E4EAF0E09491E82F27
:101A5000F0E0EE0FFF1FE859FF4FA591B491EC9114
:101A6000E92321F461E08AE00E94E40061E08AE079
:101A70000E9412018CB580618CBD8CB580648CBDD8
:101A800061E08DE00E94120161E08BE00E94120192
:101A9000809155028F5F809355021FBF80E58CBDFA
:101AA00081E08DBD0091B4031091B50360E0F801B1
:101AB00081810E94120160E0F80180810E94120180
:101AC00060E0F80182810E94120189E18B8B86E03F
:101AD0008C8B85E08D8B80E18E8B8CE28F8B188ECA
:101AE0000E94E60729833A834B835C836D837E8360
:101AF0008FEF830F8C3008F428C281E691E00E94BA
:101B00001605CE0143960E9427078EE80E94D5084D
:101B100087FF1FC08FE691E00E9416058EE80E94A5
:101B2000D508182F6EE88091B4039091B5030E94F8
:101B3000FD06612F6F7740E08091B4039091B5036B
:101B40000E94D106E091B403F091B50382810E9416
:101B5000A60480E80E94D50887FF1FC08DE991E0A8
:101B60000E94160580E80E94D508182F60E8809131
:101B7000B4039091B5030E94FD06612F6F7740E09A
:101B80008091B4039091B5030E94D106E091B40313
:101B9000F091B50382810E94A6040E94B108609171
:101BA000040170910501CE0101960E94860968EC3E
:101BB00071E0CE010D960E94D809BE01635F7F4F90
:101BC000CE0107960E94BE09BE016F5F7F4FCE0116
:101BD00007960E941F090E942D05CE0107960E94BC
:101BE000EF08CE010D960E94EF08CE0101960E94EB
:101BF000EF0860916F0270917002CE0101960E9411
:101C0000860961ED71E0CE010D960E94D809BE01F2
:101C1000635F7F4FCE0107960E94BE09BE016F5FD2
:101C20007F4FCE0107960E941F090E942D05CE010D
:101C300007960E94EF08CE010D960E94EF08CE0194
:101C400001960E94EF086091710270917202CE01BC
:101C500001960E9486096CED71E0CE010D960E94FE
:101C6000D809BE01635F7F4FCE0107960E94BE096F
:101C7000BE016F5F7F4FCE0107960E941F090E9431
:101C80002D05CE0107960E94EF08CE010D960E9409
:101C9000EF08CE0101960E94EF0883E080939D0338
:101CA00080919B0390919C03009711F00E94751204
:101CB00086E090E00E94D9118C0187E7F8018083CB
:101CC0008FE893E092838183138280E290E0958392
:101CD000848310939C0300939B03109281021092C3
:101CE00080021092CF021092F1020E94B5028FE79B
:101CF00091E0909357028093560280E891E0909390
:101D000059028093580281E0F8018383C8010E9440
:101D10006D04882309F457C180ED8D8721E030E000
:101D2000AE014F5F5F4FBE01635F7F4F80919B03AA
:101D300090919C030E9440058981853509F043C13B
:101D40008AEA0E94890690939F0380939E038CEAFF
:101D50000E9489069093A1038093A0038EEA0E94BB
:101D600089069093A3038093A20380EB0E948906C7
:101D70009093AF038093AE0382EB0E948906909309
:101D8000B1038093B00384EB0E9489069093B30360
:101D90008093B20386EB0E9489069093A5038093FB
:101DA000A40388EB0E9489069093A7038093A6035F
:101DB0008AEB0E9489069093A9038093A8038CEB79
:101DC0000E9489069093AB038093AA038EEB0E9436
:101DD00089069093AD038093AC0387EE91E00E9457
:101DE00016053AE0E32EF12C40E0642E40E0742E1C
:101DF00052E0A52EB12C88248394912C0E9473016B
:101E00000091730210917402209175023091760254
:101E1000601B710B820B930B683E7340810591052B
:101E2000B8F00E9473016093730270937402809300
:101E300075029093760280917102909172020196E0
:101E40008C3391050CF0C4C09093720280937102A0
:101E50000E94730100916B0210916C0220916D023F
:101E600030916E02601B710B820B930B6330710516
:101E70008105910508F497C10E94730160936B027C
:101E800070936C0280936D0290936E0200916302D6
:101E9000109164020130110521F480915C028111DE
:101EA000BEC08091040190910501B7010E94BF114D
:101EB000362E0130110521F480915C028111B2C0EF
:101EC0008091040190910501B7010E94BF11482E35
:101ED0000230110521F480915C028111A6C080912D
:101EE0006F0290917002B7010E94BF11562E02300E
:101EF000110529F480915C026AE0811108C080918B
:101F00006F0290917002B7010E94BF11682F8091FB
:101F100071029091720220915B0230E0AC01409519
:101F2000509570915A02C72ED12C783008F085C098
:101F3000F601E356F04F0C94D3111810DF10E310A4
:101F4000E710EA10F010F710FF108FEF840F8F31B9
:101F500008F0D3CD583108F0D0CD6C3308F0CDCD9A
:101F60007C3308F0CACD323001F54E3108F0C5CDD2
:101F70004D3109F0CACD30E02053384FC90183708C
:101F80009927892B09F0B9CDC90164E670E00E9458
:101F9000AB11892B09F0B9CDC90160E971E00E944C
:101FA000AB11892B09F0A9CDB0CD4F3109F0ADCDE2
:101FB000432F4150550BCA0167E070E00E94BF11EA
:101FC00080FFA3CD9ACD87EF91E00E941605FFCF49
:101FD000109272021092710280916F0290917002C1
:101FE00001968C3391052CF49093700280936F02CC
:101FF0002FCF1092700210926F0280910401909185
:1020000005010196883191052CF490930501809388
:1020100004011ECF109205011092040119CF2AE08D
:10202000322E4ACF9AE0492E5ACF8AE0582E62CFFC
:1020300040E0632D80E00E94DB04FFEFCF1ADF0A4F
:1020400027E0C222DD24C0925A028CE00E94BB002D
:102050006C018091000190910101C816D90651F0E0
:102060000E94730160935F0270936002809361022B
:10207000909362020E94730120915F02309160028E
:102080004091610250916202621B730B840B950BAD
:102090006233710581059105E0F080915D029091B8
:1020A0005E02C816D906A9F0D0925E02C0925D0207
:1020B000C114D10471F40130110509F4ABC008F466
:1020C000A4C00230110509F4AAC089E092E00E9480
:1020D0001605D0920101C09200018AE00E94BB0067
:1020E0008C0180910201909103010817190751F0AA
:1020F0000E94730160936702709368028093690283
:1021000090936A020E9473012091670230916802E5
:102110004091690250916A02621B730B840B950B0C
:102120006233710581059105D0F18091650290912E
:1021300066020817190799F1109366020093650269
:102140000115110561F50E94E607E72F2F833887F7
:1021500049875A876B877C878091630290916402DC
:102160008130910509F065C0852F90E00196883196
:1021700091050CF059C09093050180930401809162
:10218000040129833A834B838C836D83EE83CE01D4
:1021900001960E94270789E092E00E94160510939D
:1021A0000301009302016114710409F427CE0E9417
:1021B000EB01882309F422CE0E9400001FCE41705B
:1021C000642D81E038CF40E0652D82E034CF40E0DF
:1021D00083E031CFB7010E94BF1140E084E02BCFF4
:1021E000B7010E94BF1140E0682F85E024CF2E5C2C
:1021F0003E4FF901608186E00E94B5041ECF265D46
:102200003E4FF901608187E0F7CF9092640280929F
:1022100063025BCFB0926402A092630256CF109229
:1022200064021092630251CF1092050110920401D2
:10223000A6CF029709F0AFCF70E06F5F7F4F6C338E
:10224000710564F47093700260936F0280916F0265
:1022500029833A834B835C838D8398CF10927002DD
:1022600010926F02F3CFBB274A3031F4992322F446
:10227000BDE2909581959F4F0C943F11BB27FB01C8
:102280005527AA27880F991FAA1FA41710F0A41B6F
:1022900083955051B9F7A05DAA3308F0A95DA193C9
:1022A000009779F7B111B1931192CB010C945811A9
:1022B000DC01FC01672F71917723E1F7329704C0AD
:1022C0007C916D9370836291AE17BF07C8F3089538
:1022D0002F923F924F925F926F927F928F929F9236
:1022E000AF92BF92CF92DF92EF92FF920F931F9324
:1022F000CF93DF93CDB7DEB7CA1BDB0B0FB6F894D5
:10230000DEBF0FBECDBF09942A88398848885F8414
:102310006E847D848C849B84AA84B984C884DF8085
:10232000EE80FD800C811B81AA81B981CE0FD11D69
:102330000FB6F894DEBF0FBECDBFED010895991B17
:1023400079E004C0991F961708F0961B881F7A95AC
:10235000C9F780950895AA1BBB1B51E107C0AA1FAE
:10236000BB1FA617B70710F0A61BB70B881F991F36
:102370005A95A9F780959095BC01CD01089597FBDA
:10238000072E16F4009407D077FD09D00E94AB11F8
:1023900007FC05D03EF4909581959F4F0895709568
:1023A00061957F4F0895EE0FFF1F0590F491E02D8A
:1023B00009940F931F93CF93DF938230910510F40C
:1023C00082E090E0E091BB03F091BC0330E020E0BC
:1023D000B0E0A0E0309799F42115310509F44AC026
:1023E000281B390B24303105D8F58A819B81611572
:1023F000710589F1FB0193838283FE0111C0408145
:1024000051810281138148175907E0F04817590795
:1024100099F4109761F012960C93129713961C93EF
:102420003296CF01DF91CF911F910F9108950093C4
:10243000BB031093BC03F4CF2115310551F04217B3
:10244000530738F0A901DB019A01BD01DF01F80152
:10245000C1CFEF01F9CF9093BC038093BB03CDCFE5
:10246000FE01E20FF31F81939193225031093983CA
:102470002883D7CF2091B9033091BA03232B41F49D
:1024800020910801309109013093BA032093B903D8
:1024900020910601309107012115310541F42DB736
:1024A0003EB740910A0150910B01241B350BE0917E
:1024B000B903F091BA03E217F307A0F42E1B3F0B08
:1024C0002817390778F0AC014E5F5F4F24173507A6
:1024D00048F04E0F5F1F5093BA034093B9038193A6
:1024E00091939FCFF0E0E0E09CCFCF93DF930097F4
:1024F000E9F0FC01329713821282A091BB03B091E4
:10250000BC03ED0130E020E01097A1F4208131817F
:10251000820F931F2091B9033091BA03281739070E
:1025200009F061C0F093BA03E093B903DF91CF9152
:102530000895EA01CE17DF07E8F54A815B819E0125
:1025400041155105B1F7E901FB83EA83499159919E
:10255000C40FD51FEC17FD0761F4808191810296AD
:10256000840F951FE90199838883828193819B83DE
:102570008A83F0E0E0E012968D919C91139700978A
:10258000B9F52D913C911197CD010296820F931FC1
:102590002091B9033091BA032817390739F63097DB
:1025A00051F51092BC031092BB03B093BA03A093F1
:1025B000B903BCCFD383C28340815181840F951F5F
:1025C000C817D90761F44E5F5F4F88819981480F22
:1025D000591F518340838A819B8193838283211574
:1025E000310509F0B0CFF093BC03E093BB039ECF5D
:1025F000FD01DC01C0CF13821282D7CFB0E0A0E092
:10260000E4E0F3E10C946A118C01009751F4CB01E2
:102610000E94D9118C01C801CDB7DEB7E0E10C945E
:102620008611FC01E60FF71F9C0122503109E217C9
:10263000F30708F49DC0D901CD91DC911197C6171D
:10264000D70798F0C530D10530F3CE01049786172F
:10265000970708F3C61BD70B2297C193D1936D93AD
:102660007C93CF010E947512D6CF5B01AC1ABD0AD4
:102670004C018C0E9D1EA091BB03B091BC03512C4C
:10268000412CF12CE12C109731F58091B9039091F8
:10269000BA038815990509F05CC04616570608F07C
:1026A00058C08091060190910701009741F48DB7C1
:1026B0009EB740910A0150910B01841B950BE817BE
:1026C000F90708F055C0F093BA03E093B903F90194
:1026D00071836083A0CF8D919C91119712966C901D
:1026E000129713967C901397A815B90559F56C01AC
:1026F00042E0C40ED11CCA14DB0420F1AC014A191B
:102700005B09DA011296159780F062827382518319
:102710004083D9016D937C93E114F10471F0D701EA
:102720001396FC93EE93129776CF22968C0F9D1FF3
:10273000F90191838083F301EFCFF093BC03E09321
:10274000BB0369CF4816590608F42C017D01D3015B
:102750009ACFCB010E94D9117C01009749F0AE01BC
:10276000B8010E94BB13C8010E947512870153CFA4
:1027700010E000E050CFFB01DC0102C001900D929F
:1027800041505040D8F70895FB01DC0101900D92B3
:0A2790000020E1F70895F894FFCF50
:10279A00010001000C000000BD0380003F065B4FF2
:1027AA00666D7D077F6F00BF86DBCFE6EDFD87FF95
:1027BA00EF80FEFDFBF7EFDFBF7F0E0D0B070F0F5C
:1027CA000F0F39393939312919380000000021022F
:1027DA008101AE016E02DF01BD01D10100000000DE
:1027EA003B040E046A04E4030704F403E5030D0A38
:1027FA0000525443206C6F73742074696D650052E3
:10280A005443207761732077726974652070726F00
:10281A007465637465642C20656E61626C696E67A9
:10282A002077726974696E67206E6F77005254431D
:10283A0020776173206E6F74206163746976656CAA
:10284A00792072756E6E696E672C2073746172746A
:10285A00696E67206E6F7700484F555253203D20AE
:10286A00004D494E55544553203D20005345434F92
:10287A004E4453203D2000424D503138302053758C
:10288A00636365737321004E6F7420666F756E649F
:10289A0020424D503138302100436C69636B21006E
:00000001FF
